:100000000C940A020C94761C0C94A31C0C94D01C27
:100010000C94FD1C0C9432020C9432020C942A1D98
:100020000C9432020C9407100C9451270C941D264A
:100030000C9432020C9432020C9432020C94320270
:100040000C9432020C9432020C9432020C94320260
:100050000C9432020C9432020C9432020C94571D10
:100060000C9432020C9457210C9489210C94320286
:100070000C9432020C9432020C9432020C94320230
:100080000C94B8230C9432020C9432020C94320279
:100090000C9412130C9432020C9432020C9432021F
:1000A0000C9432020C9432020C943202DC0CEF0CF1
:1000B000FF0C120D1A0D460D4E0D560D5E0D650D01
:1000C000650D650D650D650D650D650D650D650DA0
:1000D000650D650D650D650D650D650D650D650D90
:1000E000650D650D650D650D650D650DDC0CE80C88
:1000F000EF0CFF0C120D1A0D2D0D350D3D0D661E6A
:10010000691E581E5C1E621E8A1E8A1E8A1E6D1E75
:10011000711E751E7B1E7F1E8A1E851E20202020BC
:10012000202020202000202020202020202020000F
:1001300020202020006379636C657300466F723A5B
:1001400000534B495020456E61626C65642020204D
:10015000202020003220323520343900534B4950C2
:10016000202D20484F555253204F6666006669780F
:100170002061676520494E56414C494400434F4E2B
:100180005320636F6E6E65637465640020202020C9
:100190002020202020002020202020200024504D3E
:1001A000544B3330302C313030302C302C302C301C
:1001B0002C302A31430024504D544B3232302C31F4
:1001C0003030302A31460024504D544B3331342CDA
:1001D000302C312C302C302C302C302C302C302C3E
:1001E000302C302C302C302C302C302C302C302C2F
:1001F000302C302C302A3239000000000200090F68
:100200000000030401000C000000000000000000DA
:1002100000000000000000040802011040804010AF
:10022000204080408008020401804020100201101C
:100230008010204040040404040403040502020268
:10024000020403020202020606060606060404026F
:10025000020204000000002300260029002C002FC9
:100260000000000000250028002B002E00310000B7
:10027000000000240027002A002D003000080B0099
:10028000020202010009040000010202000005242C
:1002900000100105240101010424020605240600C2
:1002A000010705810310004009040100020A000053
:1002B000000705020240000007058302400000001D
:1002C000C18081C11201000202000040412336803A
:1002D0000001010200011201000200000040412360
:1002E000368000010102000141726475696E6F2061
:1002F0004C4C430041726475696E6F204C656F6EA3
:100300006172646F00040309040000000000000033
:10031000002A2B2800000000000000000000000060
:100320000000000000000000002C9EB4A0A1A2A4C8
:1003300034A6A7A5AE362D3738271E1F202122232D
:10034000242526B333B62EB7B89F8485868788893F
:100350008A8B8C8D8E8F9091929394959697989985
:100360009A9B9C9D2F3130A3AD35040506070809E3
:100370000A0B0C0D0E0F1011121314151617181965
:100380001A1B1C1DAFB1B0B5000904020001030027
:1003900000000921010100012265000705840340D6
:1003A000000105010902A1010901A100850105095A
:1003B0001901290315002501950375018102950195
:1003C0007505810305010930093109381581257F3B
:1003D000750895038106C0C005010906A1018502C3
:1003E000050719E029E71500250175019508810227
:1003F00095017508810395067508150025650507A3
:10040000190029658100C000C7067412F51FB921C3
:10041000A929FB0611241FBECFEFDAE0DEBFCDBF56
:1004200015E0A0E0B1E0E8E3FDE502C005900D9223
:10043000A030B107D9F728E0A0E0B5E001C01D92D7
:10044000A034B207E1F714E0C2E1D4E004C022977F
:10045000FE010E94922BC830D107C9F70E94FD21EE
:100460000C948F2E0C940000CF93DF938091710534
:1004700090E0019624EB30E0B9010E943B2B809381
:10048000710580910B0190910C010196B9010E94B8
:100490003B2B90930C0180930B0180917005882376
:1004A00091F0C0916C05D0916D050E94A11D7093D3
:1004B0006D0560936C050E94A11D6C1B7D0B7093F4
:1004C0006F0560936E0581E080937205DF91CF9197
:1004D00008956AEE71E081E397E00C94A2220C94F7
:1004E0003F2E1F93CF93DF938FE395E00E94D915A2
:1004F000009719F10E94BD2DEC010E946F02182F88
:1005000060EF71E081E397E00E9473224AE050E0DF
:10051000BE0181E397E00E948A2361EF71E081E3ED
:1005200097E00E94732240E150E0612F81E397E061
:10053000DF91CF911F910C94732363EF71E081E3FE
:1005400097E0DF91CF911F910C94A2221F93CF933C
:10055000DF938FE395E00E94D915009749F00E9440
:10056000BD2DEC018FE395E00E94D915009749F469
:100570006EE172E081E397E0DF91CF911F910C94DF
:10058000A2220E94BD2D182F682FCE010E94472E57
:1005900067E472E081E397E00E9473224AE050E052
:1005A000BE0181E397E00E948A2361EF71E081E35D
:1005B00097E00E94732240E150E0612F81E397E0D1
:1005C000DF91CF911F910C94732341E752E06BECC4
:1005D00072E08FE395E00E949E1546EA52E06BE6DA
:1005E00074E08FE395E00E949E1569E672E08FE368
:1005F00095E00E94D5158BE795E00E94C91460E054
:1006000086E00E94C41E60E089E00E94C41E61E092
:1006100084E00E94C41E40E060E08BE795E00E9409
:100620005C146DE771E08BE795E00E944E228FE34A
:1006300095E00E94E315FBCF84E090E00E946F02FA
:100640009FEF980F913108F08FEF0895CF93DF93CC
:1006500087E090E00E946F02C82FD0E088E090E031
:100660000E946F0290E0982F88278C0F9D1FDF91CA
:10067000CF9108951092700580916E0590916F054D
:10068000892B99F020916E0530916F05C901880F73
:10069000991F820F931F97FD0396959587959595C2
:1006A0008795909307018093060108950F931F93F8
:1006B000CF93DF9300D000D000D0CDB7DEB78C0150
:1006C00089E095E00E94971740E050E060EB71E40C
:1006D00089E095E00E949C17B801CE0101960E9426
:1006E0003328BE016F5F7F4F89E095E00E940818B4
:1006F000CE0101960E94C52726960FB6F894DEBF5C
:100700000FBECDBFDF91CF911F910F91089560E093
:1007100085E00E94C41E60E08CE00E94C41E89E057
:1007200095E00E94D71881E080936B0560E085E03A
:100730000C94C41ECF92DF92EF92FF9283E795E074
:100740000E9437150E94A11D6B017C0183E795E093
:100750000E948315882391F083E795E00E94371566
:100760000E94A11D6C197D098E099F096131774294
:100770008105910558F383E090E040C00E94A11DDF
:100780006B017C0183E795E00E948315811110C005
:1007900083E795E00E9437150E94A11D6C197D0921
:1007A0008E099F09613177428105910558F3E3CFA6
:1007B000C12CD12C760183E795E00E948315882314
:1007C000A1F083E795E00E9437158FEFC81AD80A89
:1007D000E80AF80A21E7C21621E1D20621E0E20682
:1007E000F10449F782E090E009C080E2C8168EE487
:1007F000D806E104F104B0F781E090E0FF90EF90BB
:10080000DF90CF900895EF92FF920F931F93CF93B5
:10081000DF93CDB7DEB72C970FB6F894DEBF0FBECF
:10082000CDBF86E0ECE9F1E0DE01179601900D9274
:100830008A95E1F786E0E2EAF1E0DE0111960190A7
:100840000D928A95E1F70E949A03039709F4C0C0BC
:1008500040E052EC61E070E081E397E00E94E01F2D
:1008600081E397E00E94E61F81110E94E5028BE779
:1008700095E00E94C91460E086E00E94C41E60E01A
:1008800089E00E94C41E61E084E00E94C41E40E032
:1008900060E08BE795E00E945C146CE571E08BE70B
:1008A00095E00E944E2240E061E08BE795E00E94D7
:1008B0005C1464E571E08BE795E00E944E228BE7C3
:1008C00095E00E94D21440E061E08BE795E00E9441
:1008D0005C1483E795E00E94371583E795E00E945A
:1008E00083158111F6CF00E010E073E0E72EF12CC4
:1008F0000E949A0382309105E1F08330910509F45A
:1009000067C00197A9F7C8010196B7010E943B2B68
:100910008C01FC01EE0FFF1F81E090E08C0F9D1F0A
:10092000E80FF91F468161E08BE795E00E945C14B7
:10093000DFCFF801EE0FFF1F81E090E08C0F9D1FCD
:10094000E80FF91F8081918190931406809313061C
:1009500081E090E0909312068093110640E060E001
:100960008BE795E00E945C1461E471E08BE795E011
:100970000E944E2240E061E08BE795E00E945C140B
:100980006CE371E08BE795E00E944E2245E061E068
:100990008BE795E00E945C14609113067091140639
:1009A0004AE050E08BE795E00E94572349E061E080
:1009B0008BE795E00E945C1465E371E08BE795E0BE
:1009C0000E944E2268E873E180E090E00E94D01D12
:1009D00080E090E02C960FB6F894DEBF0FBECDBF3E
:1009E000DF91CF911F910F91FF90EF90089561E0FB
:1009F0008DE00E948B1E61E085E00E948B1E61E00D
:100A00008CE00E948B1E61E08CE00E94C41E60E0BE
:100A100085E00E94C41E60E08DE00C94C41E61E07D
:100A20008CE00E94C41E61E085E00E948B1E61E0A4
:100A30008CE00E948B1E60E08DE00E94C41E26E0C8
:100A400040EC52E160E070E081E897E00E94F52020
:100A500063E070E080E095E00E94121B40E062E4F9
:100A600070E080E095E00E94C61B6AE070E080E0E4
:100A700095E00E949F1B40E86AE070E080E095E00E
:100A80000E94671B6AE070E080E095E00E949F1B77
:100A900080E296E2A7EDB0E080930505909306050D
:100AA000A0930705B093080540E256E267ED70E0B9
:100AB00080E095E00C94391B8F3009F44BC0D8F4DA
:100AC0008A3009F45CC08C3009F06EC080ED96E687
:100AD000ACE7B1E08093050590930605A093070568
:100AE000B093080547E061E08BE795E00E945C1455
:100AF00066E572E06DC08131C1F0843109F054C007
:100B000080E296E2A7EDB0E080930505909306059C
:100B1000A0930705B093080547E061E08BE795E0F7
:100B20000E945C146AE472E053C080E396E5A4E19D
:100B3000B1E08093050590930605A0930705B09357
:100B4000080547E061E08BE795E00E945C146EE4E5
:100B500072E03EC080E399EBA2E4B1E0809305052A
:100B600090930605A0930705B093080547E061E060
:100B70008BE795E00E945C1462E572E029C080E496
:100B80009CE4AEEAB1E08093050590930605A0933E
:100B90000705B093080547E061E08BE795E00E9408
:100BA0005C146AE572E014C080E49CE4AEEAB1E053
:100BB0008093050590930605A0930705B09308055B
:100BC00047E061E08BE795E00E945C146EE572E01F
:100BD0008BE795E00E947322409105055091060530
:100BE000609107057091080580E095E00E94391B2F
:100BF00010926B050895CF93C82F4BE061E08BE70F
:100C000095E00E945C144AE050E06C2F8BE795E081
:100C10000E946C234DE061E08BE795E00E945C143C
:100C200062E672E08BE795E00E94732260E08DE05F
:100C30000E94C41ECE3171F038F4C43159F461E021
:100C40008DE00E94C41E06C0C83231F0C23311F4D8
:100C500046EE03C040E001C047E161E070E080E0A3
:100C600095E0CF910C94C61B60E085E00E94C41E05
:100C700060E08DE00E94C41E61E08CE00E94C41E12
:100C800060E086E00E94C41E60E089E00E94C41E0D
:100C900061E084E00C94C41E20911106309112068C
:100CA000232B09F073C00E945C0582E30E94FB05C0
:100CB000609115067091160680E090E00E94D01DAC
:100CC00060E086E00E94C41E60E084E00E94C41ED2
:100CD00061E089E00E94C41E0E9487036AEF70E011
:100CE00080E090E00E94D01D61E085E00E94C41E7B
:100CF00063EE73E080E090E00E94D01D60E085E04C
:100D00000E94C41E88E20E94FB0561E085E00E940B
:100D1000C41E63EE73E080E090E00E94D01D60E0AE
:100D200085E00E94C41E8EE10E94FB0561E085E023
:100D30000E94C41E63EE73E080E090E00E94D01D2C
:100D400060E085E00E94C41E84E10E94FB0561E032
:100D500085E00E94C41E63EE73E080E090E00E9494
:100D6000D01D60E085E00E94C41E0E94340682E32C
:100D70000E94FB0547E061E08BE795E00E945C1470
:100D80006CE171E08BE795E00C944E2208950F938F
:100D900020E04BE068E082EF95E00E94DA108FE7F8
:100DA00095E00E94670A00E028E230E040E162E05E
:100DB0008BE795E00E94461483E795E00E941215A8
:100DC0008FE395E00E94871520E030E040E451E495
:100DD00065E070E089E095E00E94E41884E095E029
:100DE0000E94721624E035E046E760EE80E095E070
:100DF0000F910C94F7188DEB94E090930A05809373
:100E0000090581E195E00E94C52782EF95E00C94E9
:100E100081108F929F92AF92BF92CF92DF92EF920A
:100E2000FF920F931F93CF93DF93CDB7DEB72C972D
:100E30000FB6F894DEBF0FBECDBF6B017C0181E31E
:100E400097E00E944A1F82EF95E00E94DE0F81E04A
:100E5000C81AD108E108F1081C141D041E041F045F
:100E60000CF070C082EF95E00E94A10F892B09F46D
:100E700062C082EF95E00E94140F182F682F81E363
:100E800097E00E94231F81E397E00E944A1F612F91
:100E90008FE795E00E946E0D8823C9F281E397E009
:100EA0000E947C229E012F5F3F4F4901CE01079691
:100EB0005C01295F3F4F690102967C018E01065F4C
:100EC0001F4F2D5F3F4FAE01445F5F4FBE016B5F11
:100ED0007F4F8FE795E00E94440E89819A81AB8114
:100EE000BC818F3F9F4FAF4FBF4FE1F02985888571
:100EF00090E03CE3239F800D911D112464EB70E092
:100F00000E943B2B01962091710530E0281739078C
:100F100081F021E030E030930A01209309018093B1
:100F2000710507C06DE671E081E397E00E944E22F3
:100F300009C011E008C064E670E080E090E00E9423
:100F4000D01D85CF10E082EF95E00E94C80F81E3AD
:100F500097E00E944A1F812F2C960FB6F894DEBFAF
:100F60000FBECDBFDF91CF911F910F91FF90EF90FA
:100F7000DF90CF90BF90AF909F908F900895CF93C8
:100F80000E94F7040E941C0380930D010E94260317
:100F9000909316068093150662E08AE00E948B1EED
:100FA00061E086E00E948B1E61E084E00E948B1E5F
:100FB00061E089E00E948B1E60E084E00E94C41E14
:100FC00060E089E00E94C41E61E086E00E94C41EC9
:100FD0008BE795E00E94D8148BE795E00E94CF1430
:100FE00040E060E08BE795E00E945C1466E672E00A
:100FF0008BE795E00E94732246E060E08BE795E086
:101000000E945C14A0910D01C7E0CA9FD001112479
:10101000A25FBE4F6D917C918BE795E00E94732299
:101020004DE060E08BE795E00E945C14E0910D01DB
:10103000CE9FF0011124E25FFE4F4AE050E066814E
:101040008BE795E00E946C2340E061E08BE795E040
:101050000E945C146BE672E08BE795E00E947322BD
:1010600040E061E08BE795E00E945C146CE772E081
:101070008BE795E00E94732262E083E00E948B1E62
:1010800043E050E064E372E084E00E94261C40E804
:1010900055E260E070E082EF95E00E940A1167EC93
:1010A00071E082EF95E00E94902266EB71E082EFA2
:1010B00095E00E9490226DE971E082EF95E00E9438
:1010C000902268EE73E080E090E00E94D01D82EFF5
:1010D00095E00E94C80F40E061E08BE795E00E9438
:1010E0005C146DE872E08BE795E00E9473226FEF6D
:1010F0007FEF8FEF9FE70E9409078823C1F381E00C
:101100008093700568E873E180E090E00E94D01D54
:101110000E943A0340E061E08BE795E00E945C1496
:101120006DE972E08BE795E00E9473220E940F0543
:10113000E0910D0187E0E89FF0011124E25FFE4F8E
:10114000808191810E9456036AE070E083E795E018
:101150000E941E156AE070E083E795E00E94331557
:1011600040E061E08BE795E00E945C146EEA72E07B
:101170008BE795E00E94732240E061E08BE795E009
:101180000E945C146EEB72E08BE795E00E94732284
:101190000E9403048BE795E00E94D5148BE795E04D
:1011A0000E94CF14809111069091120640E061E0F8
:1011B000892B39F18BE795E00E945C1463EC72E0B7
:1011C0008BE795E00E94732249E061E08BE795E0B0
:1011D0000E945C1466E971E08BE795E00E944E2264
:1011E00049E061E08BE795E00E945C146091130692
:1011F000709114064AE050E08BE795E00E94572377
:101200000AC08BE795E00E945C1468EC72E08BE703
:1012100095E00E94732240E060E08BE795E00E9439
:101220005C1466E672E08BE795E00E94732245E06D
:1012300060E08BE795E00E945C146CE871E08BE75E
:1012400095E00E944E2246E060E08BE795E00E9428
:101250005C14A0910D01C7E0CA9FD0011124A25FC8
:10126000BE4F6D917C918BE795E00E9473224DE01B
:1012700060E08BE795E00E945C14E0910D01CE9F49
:10128000F0011124E25FFE4F4AE050E066818BE7F7
:1012900095E00E946C2360E086E00E94C41E60E03E
:1012A00089E00E94C41E61E084E0CF910C94C41ECA
:1012B00045E061E08BE795E00E945C146AEB72E028
:1012C0008BE795E00E94732245E061E08BE795E0B3
:1012D0000E945C14609171054AE050E08BE795E054
:1012E0000E946C238091090190910A01892BA9F039
:1012F00090917105E0910D0187E0E89FF0011124C4
:10130000E25FFE4F86819813D8C010920A011092B6
:10131000090110920C0110920B0180910B01909128
:101320000C018832910509F492C08CF48A30910541
:1013300009F486C024F4892B09F480C0089584310F
:10134000910509F480C04E9709F47FC0089586394D
:10135000910509F4B0C04CF48C33910509F48CC0AC
:101360008C38910509F4A3C00895803A910509F4D9
:1013700098C0833B910509F0089585E080930801AA
:101380008091110690911206892B09F445C0809135
:1013900013069091140601979093140680931306F8
:1013A00018161906E4F449E061E08BE795E00E9425
:1013B0005C1460E371E08BE795E00E944E2249E007
:1013C00061E08BE795E00E945C14609113067091D8
:1013D00014064AE050E08BE795E00C94572340E078
:1013E00061E08BE795E00E945C1468EC72E08BE7AB
:1013F00095E00E94732249E061E08BE795E00E944E
:101400005C1469EB72E08BE795E00E947322109206
:10141000120610921106089540E061E08BE795E016
:101420000E945C146DEC72E08BE795E00E947322E1
:1014300084E10E945C0582E30C94FB0584E101C019
:1014400081E10C944C068FE0FCCF8CE0FACF8AE06F
:101450000E944C068091110690911206892B69F525
:1014600040E061E08BE795E00E945C1468EC72E07C
:101470008BE795E00C9473228091110690911206EF
:10148000892B19F484E10E945C0547E061E08BE759
:1014900095E00E945C1466E271E08BE795E00E94A3
:1014A0004E2260E070E880E090E00C94090781E053
:1014B0008093700508950C943A0308958091720505
:1014C000882321F0109272050C94580908950F9307
:1014D0001F93FC010FEF1FEF9801008311832283FC
:1014E000338310861186128613864FEF59EC6AE912
:1014F0007BE3408B518B628B738B408F518F628F5C
:10150000738F40A351A362A373A340A751A762A7FF
:1015100073A740AB51AB62AB73AB00AF11AF22AF5F
:1015200033AFDC01A05CBF4F8FEF90E011969C932E
:101530008E9314960D931D932D933C9313971896A9
:101540000D931D932D933C93139718961C9211960F
:101550001C92509682E08C9311961C9211961C92CC
:1015600011961C9211961D921D921D921C9213971A
:10157000149611961C921E9212961D921C92EA5A73
:10158000FF4F10821F910F9108952FEB260F862F8A
:10159000992787FD9095263010F4C79708956156D6
:1015A000663018F4875591090895C09708950F93F0
:1015B0001F93FB0160E070E0CB01019120ED200F53
:1015C0002A30A0F4AAE0B0E09B01AC010E94962B67
:1015D000112707FD1095212F312F600F711F821FDA
:1015E000931F6053710981099109E7CF1F910F91F2
:1015F00008950F931F93CF93FC01EA5AFF4FC1E068
:1016000020812D3219F0C0E08F0103C08C01095AEE
:101610001F4FB8010E94D70A9B01AC01A4E6B0E0BD
:101620000E94962BF801DF01219130ED320F3A3004
:10163000D0F32E3269F511962C91119730ED320FBF
:101640003A3030F5332727FD3095205331094AE0F1
:10165000429F8001439F100D1124222717FD2095E2
:10166000322F600F711F821F931F12960C9120ED75
:10167000200F2A3068F4112707FD10950053110937
:10168000222717FD2095322F600F711F821F931F95
:10169000CC2339F090958095709561957F4F8F4F51
:1016A0009F4FCF911F910F9108954F925F926F922C
:1016B0007F928F929F92AF92BF92CF92DF92EF92E2
:1016C000FF92CF93DF93EC01CA5ADF4FBE010E9415
:1016D000D70A2B013C0124E630E040E050E00E94B4
:1016E0004F2B9B01AC0160EA76E881E090E00E941C
:1016F0002B2B6B017C01FE01819190ED980F9A30AC
:10170000D8F38E3219F5EF0180E1882E87E2982E0A
:10171000A12CB12CA99180ED8A0F8A30B8F4BB2797
:10172000A7FDB095D097A50194010E94A12BC60EEC
:10173000D71EE81EF91EC501B4012AE030E040E0E2
:1017400050E00E944F2B49015A01E4CFC701B60176
:101750006D5F7F4F8F4F9F4F26E030E040E050E0BD
:101760000E944F2B69017A01C301B20124E630E0E7
:1017700040E050E00E944F2B60E472E48FE090E084
:101780000E942B2BC60ED71EE81EF91EC701B601FC
:10179000DF91CF91FF90EF90DF90CF90BF90AF900F
:1017A0009F908F907F906F905F904F900895DB0196
:1017B000FA018D91882319F091918917D1F3992716
:1017C00087FD90950895CF92DF92EF92FF921F933D
:1017D000CF93DF93EC01FC01EB5AFF4F10811123F3
:1017E00009F4A9C0319660810E94C50A182FFE0134
:1017F000E95AFF4F6081CE010E94C50A40E1149F63
:10180000800D1124FE01EC5AFF4F908189138AC08C
:1018100074961081112309F458C135968081918105
:10182000019691838083B59780819181A281B38154
:10183000349780839183A283B3833C968081918186
:10184000A281B381349780839183A283B3837996F5
:1018500080818823A1F1813009F037C18C819D817D
:10186000AE81BF8188839983AA83BB838C859D8544
:10187000AE85BF8588879987AA87BB878C899D8914
:10188000AE89BF89888B998BAA8BBB8B8C8D9D8DE4
:10189000AE8DBF8D888F998FAA8FBB8F8CA59DA58C
:1018A000AEA5BFA588A799A7AAA7BBA78CA99DA9E4
:1018B000AEA9BFA988AB99ABAAABBBAB06C18CA143
:1018C0009DA1AEA1BFA188A399A3AAA3BBA38C810C
:1018D0009D81AE81BF8188839983AA83BB838C89D4
:1018E0009D89AE89BF89888B998BAA8BBB8B8C8D88
:1018F0009D8DAE8DBF8D888F998FAA8FBB8FFE0176
:10190000E05CFF4FDE01AE5BBF4F8D919C919183F8
:1019100080838CAD9DADAEADBFAD88AF99AFAAAFA2
:10192000BBAFD3C0C159DF4F88819981019699839C
:10193000888310E0CAC0FC01EA59FF4F30818B59FF
:101940009F4F7C0131111DC06E0196E5C90ED11C5F
:1019500041E454E0B601CE010E94D70B892B11F46B
:1019600081E00CC047E454E0B601CE010E94D70BE1
:10197000892B19F4F7011082A8C082E0D7018C935B
:10198000A4C0DC01EC91E23009F49FC0CE018A5A78
:101990009F4FDC012C91222309F497C0B0E2EB9F0A
:1019A000F0011124E32B3197E932F10508F08DC0E5
:1019B000EA5AFF4F0C94902BCE010E94F90A6C83D7
:1019C0007D838E839F830E94A11DC85BDF4F12C061
:1019D000C859DF4F81E0213409F05DC05DC0CE0100
:1019E0000E94550B6C8B7D8B8E8B9F8B0E94A11D53
:1019F000C05BDF4F688379838A839B8366C023350E
:101A000009F063C08C899D89AE89BF89B095A09586
:101A1000909581959F4FAF4FBF4F8C8B9D8BAE8B19
:101A2000BF8B53C0CE010E94550B6C8F7D8F8E8F64
:101A30009F8F4BC0273509F048C08C8D9D8DAE8D92
:101A4000BF8DB095A095909581959F4FAF4FBF4F9B
:101A50008C8F9D8FAE8FBF8F38C0CE010E94F90A48
:101A60006CA77DA78EA79FA730C0CE010E94F90A60
:101A70006CAB7DAB8EAB9FAB28C0BC01CE010E948E
:101A8000D70A6C877D878E879F871FC0C859DF4F15
:101A900081E021330CF480E0888317C00E94BD2DC3
:101AA000CE5BDF4F9927998388830FC0CE010E94B8
:101AB000F90A6CAF7DAF8EAF9FAF07C0CE010E9419
:101AC000F90A6CA37DA38EA39FA3812FDF91CF91F1
:101AD0001F91FF90EF90DF90CF900895CF92DF920B
:101AE000EF92FF920F931F93CF93DF931F92CDB787
:101AF000DEB76C01262FFC01E759FF4F4081518171
:101B0000628173814F5F5F4F6F4F7F4F408351837F
:101B1000628373838C0109591F4F8B5A9F4F7C013D
:101B2000243281F12CF42A3069F02D30E9F50AC015
:101B30002A3241F02C32C1F5F601EC5AFF4F808178
:101B400082278083F80180818F3060F4F601E80FEE
:101B5000F11DEA5AFF4F1082C60129830E94E30B50
:101B6000298101C080E0F601EA59FF4F90819F5F13
:101B70009083F801108291E02A3209F090E0F70199
:101B800090832AC0F8011082F601EA59FF4F1082B3
:101B900072971082719682E08083F7011082F601BD
:101BA000E859FF4F108217C0F80180818E3048F449
:101BB00091E0980F9083F601E80FF11DEA5AFF4F6C
:101BC0002083F7018081811106C0F601EC5AFF4F96
:101BD00080818227808380E00F90DF91CF911F91D9
:101BE0000F91FF90EF90DF90CF900895CF92DF920A
:101BF000EF92FF920F931F93CF93DF93E90161154B
:101C0000710551F0FC01C084D184E284F384FB01AE
:101C1000C082D182E282F3824115510551F0FC016C
:101C2000C080D180E280F380FA01C082D182E2825A
:101C3000F382209701F18C010C5B1F4FF80180812A
:101C40009181A281B3818F3F9F4FAF4FBF4F61F012
:101C50000E94A11DF8010081118122813381601B46
:101C6000710B820B930B03C06FEF7FEFCB01688387
:101C700079838A839B83DF91CF911F910F91FF908E
:101C8000EF90DF90CF9008952F923F924F925F9206
:101C90006F927F928F929F92AF92BF92CF92DF927C
:101CA000EF92FF920F931F93CF93DF93CDB7DEB7E1
:101CB0002A970FB6F894DEBF0FBECDBF2B015A870F
:101CC000498719019401AE014F5F5F4FBE016B5F01
:101CD0007F4F0E94F60D41145104B9F06D817E8151
:101CE0008F81988524E630E040E050E00E944F2B41
:101CF000613571051CF02CE637E002C020ED37E0BD
:101D0000620F731FF2017183608389859A85892B25
:101D1000B1F06D817E818F81988544E6442E512CEF
:101D2000612C712CA30192010E944F2BCA01B901B1
:101D3000A30192010E944F2BE985FA85608321144B
:101D4000310461F06D817E818F81988520E137E2D9
:101D500040E050E00E944F2BF10120830115110556
:101D600061F069817A818B819C8120E432E44FE0CB
:101D700050E00E944F2BF8012083E114F104A1F000
:101D800069817A818B819C8120E137E240E050E0DB
:101D90000E944F2BCA01B90124E630E040E050E038
:101DA0000E944F2BF7016083C114D104A9F069810F
:101DB0007A818B819C8134E6432E512C612C712CCD
:101DC000A30192010E944F2BCA01B901A301920104
:101DD0000E944F2BF6016083A114B10461F0698168
:101DE0007A818B819C8124E630E040E050E00E94C3
:101DF0004F2BF50160832A960FB6F894DEBF0FBE15
:101E0000CDBFDF91CF911F910F91FF90EF90DF90A9
:101E1000CF90BF90AF909F908F907F906F905F908A
:101E20004F903F902F9008952091590630915A0677
:101E300028173907B9F4909117068091180698175A
:101E400089F0E0911706F0E0E75EF94F808120917C
:101E5000170630E02F5F3F4F2F733327209317066D
:101E600090E008958FEF9FEF08951F93CF93DF9336
:101E7000DC015C968D919C915D97009749F481E01F
:101E800090E013969C938E93129780E090E03BC075
:101E90005196ED91FC91529750962C915097322F7C
:101EA00030951FB75E964C915E9741FB772770F98E
:101EB00041FD6095F8944081772311F0422B01C0D9
:101EC00043234083EC012197F1F748E0508160FF04
:101ED00002C0522B01C053235083EC012197F1F72C
:101EE0006695415099F78081772311F0832301C0D3
:101EF000822B80831FBF5C968D919C915D9701978B
:101F0000F1F781E090E0DF91CF911F91089520914A
:101F1000590630915A062817390781F4909117060F
:101F200080911806981751F0E0911706F0E0E75EEF
:101F3000F94F8081992787FD909508958FEF9FEF46
:101F400008952091590630915A062817390771F4DF
:101F5000809118062091170690E0805C9F4F821BAD
:101F6000910960E470E00E943B2B089580E090E0CE
:101F700008952091590630915A062817390739F4E7
:101F80008FB7F89410921806109217068FBF089515
:101F9000E0915906F0915A06E817F90769F4A38908
:101FA000B4899C918589809589238C9310925A06D7
:101FB0001092590681E0089580E00895CF93DF9351
:101FC000EC018A8D9B8D892BF1F0809159069091BF
:101FD0005A068C179D07B9F0009711F00E94C80FA0
:101FE0008E8D8E7F8E8F1092180610921706D093CA
:101FF0005A06C0935906EB89FC8980819D89892BFB
:10200000808381E001C080E0DF91CF9108951F922D
:102010000F920FB60F9211242F933F934F935F931C
:102020006F937F938F939F93AF93BF93EF93FF93A0
:10203000E0915906F0915A06309709F451C0868D07
:10204000A685B785958581FF04C08C91892329F4E5
:1020500047C08C91892309F043C0A389B4899C911E
:102060008589809589238C93868997890197F1F7D3
:10207000208D318DA685B785758558E040E0C90172
:102080000197F1F7842F90E095958795482F6C91F3
:10209000672309F04068515091F7868D81FD409586
:1020A0008091180690E001968F739927209117066A
:1020B000281749F0A0911806B0E0A75EB94F4C93DD
:1020C0008093180603C0868D8160868F828D938DE4
:1020D0000197F1F7A389B4898C919589892B8C9309
:1020E000FF91EF91BF91AF919F918F917F916F91F0
:1020F0005F914F913F912F910F900FBE0F901F90C6
:10210000189521E734E0FC01318320830C94C80F3B
:102110001F93CF93DF93EC01162F6E8D6695617040
:1021200081E06827812F0E94C41E61E0812F0E94F8
:102130008B1E812F90E0FC01E95EFD4FE491E88B5E
:10214000FC01EB5CFD4FE491F0E0EE0FFF1FEF5957
:10215000FD4F859194919A8B898BDF91CF911F913F
:1021600008951F93CF93DF93EC01162F60E0812F2A
:102170000E948B1E8E8D81FD04C061E0812F0E9424
:10218000C41E1C87812F90E0FC01E95EFD4FE491A5
:10219000ED87FC01EB5CFD4FE491F0E0EE0FFF1FDB
:1021A000ED5AFD4F859194919F878E87DF91CF9156
:1021B0001F910895FF920F931F93CF93DF93EC012C
:1021C000F62E522F1B821A8208EE13E020E030E038
:1021D0000C831D832E833F8381E794E0998388835A
:1021E0001F8A1E8A198E188E1B8E1A8E1D8E1C8EAB
:1021F0008E8D8E7F50FB81F98E8F642FCE010E94D1
:1022000088106F2DCE01DF91CF911F910F91FF901C
:102210000C94B110CF93DF93EC019A01AB011B8EAC
:102220001A8E198E188E1F8A1E8A60E079E08DE35F
:1022300090E00E94712BC9012430310520F0B901D2
:102240006350710902C061E070E07D8F6C8FEC8596
:10225000F8EFFE0FF43048F062EF6E0F643028F0B4
:1022600066EE6E0F633008F06FC0B9017695679522
:102270006431710518F06351710902C061E070E0CA
:102280007F8B6E8B069718F0C901059702C081E01D
:1022900090E0998F888FC901880F991F820F931F33
:1022A00096958795969587958D30910510F00C97AA
:1022B00002C081E090E09B8F8A8FF43058F082EF6B
:1022C0008E0F843038F0EA51E33008F042C0A8E6BF
:1022D000B0E041C0A8E6B0E0E8E6F0E080818160CF
:1022E0008C932C8538EF320F343040F082EF820F20
:1022F000843020F086EE820F833018F48BE690E075
:1023000002C080E090E09C8B8B8B343010F4245022
:1023100009C02E3069F02F3069F0203169F0213189
:1023200069F0265181E001C0880F2A95EAF707C0BD
:1023300088E005C082E003C084E001C081E08D8BAD
:102340008C8D9D8D0197F1F7CE01DF91CF910C948B
:10235000DE0FA0E0B0E0E33008F4BECFE0E0F0E054
:10236000BDCF80918B0690E020918C06821B910955
:10237000089520918C0680918B06281750F4E22F47
:10238000F0E0E357F94F808190E02F5F20938C06B7
:1023900008958FEF9FEF0895E0918C0680918B0652
:1023A000E81730F4F0E0E357F94F808190E00895AA
:1023B0008FEF9FEF08950895CF92DF92EF92FF92F3
:1023C0000F931F93CF93DF937C01CB018A01209160
:1023D0006706222389F0EB016B01C40ED51ECC15D4
:1023E000DD0569F06991D701ED91FC910190F081D3
:1023F000E02DC7010995F3CF642F0E94E912C801AF
:10240000DF91CF911F910F91FF90EF90DF90CF90D0
:102410000895CF93DF931F92CDB7DEB769832091E4
:1024200067062223D1F020916806203240F021E097
:1024300030E0FC013383228380E090E015C080917E
:102440006906E82FF0E0E659F94F998190838F5F94
:10245000809369068093680605C061E0CE0101960D
:102460000E94E91281E090E00F90DF91CF910895F2
:10247000FC011382128248EE53E060E070E0448376
:1024800055836683778381E894E091838083089500
:1024900010928C0610928B061092690610926806B4
:1024A0000C94781281E08093670660938A061092FC
:1024B00069061092680608950C9452120F93062F25
:1024C00021E0409168066AE676E080918A060E94E3
:1024D00096121092690610926806109267060F9184
:1024E000089561E00C945E128BE596E00C9438122E
:1024F00010921A0781E0809318071092170761E085
:1025000082E00E94C41E61E083E00E94C41EE9EBE9
:10251000F0E080818E7F808380818D7F808388E45E
:102520008093B80085E48093BC0008950F934132F6
:1025300008F046C090911A079111FCCF92E0909359
:102540001A07009318079FEF9093AD061092F206BA
:102550004093F106FB0163EF76E0DB019A2F961BB7
:10256000941718F491919D93F9CF109219079091B7
:102570001907880F892B80931907809117078130DD
:1025800041F410921707809119078093BB0085ECE6
:1025900001C085EE8093BC00222321F080911A07B0
:1025A0008230E1F38091AD068F3F61F08091AD06FE
:1025B000803251F08091AD06803341F483E007C052
:1025C00081E005C080E003C082E001C084E00F919B
:1025D0000895613298F420911A07243089F46093A9
:1025E000CF06FC0181ED96E0DC012A2F281B26177F
:1025F00018F421912D93F9CF80E0089581E008959A
:1026000082E0089585ED8093BC008091BC0084FD3C
:10261000FCCF10921A07089585EC8093BC001092AD
:102620001A0708951F920F920FB60F9211242F933D
:102630003F934F935F936F937F938F939F93AF934A
:10264000BF93EF93FF938091B900887F803609F4A0
:102650009CC068F5883209F45BC090F4803109F4BD
:1026600054C038F4882309F4F5C0883009F44DC00B
:10267000F5C0883109F44CC0803209F45DC0EEC069
:10268000803409F468C048F4803309F455C08833B5
:1026900009F0E4C08093AD06A8C0803509F44FC0AE
:1026A000883509F45DC0883409F0D8C0D5C08839B0
:1026B00009F4C6C0A8F4883709F467C038F488362E
:1026C00009F463C0803709F460C0C8C0883809F4D1
:1026D000B7C0803909F45FC0803809F0BFC05BC063
:1026E000803B09F485C038F4803A09F466C0883A22
:1026F00009F47EC0B3C0803C09F4A6C0883C09F44C
:10270000A3C0883B09F489C0A9C08091190710C0F3
:102710009091F2068091F106981770F5E091F2061B
:1027200081E08E0F8093F206F0E0ED50F94F80814A
:102730008093BB0085EC85C08093AD068DC0E09191
:10274000F20681E08E0F8093F2068091BB00F0E0EC
:10275000ED50F94F80839091F2068091F1066DC0A3
:10276000E091F20681E08E0F8093F2068091BB002B
:10277000F0E0ED50F94F80838091180781116CC013
:1027800081E08093170784EA60C083E080931A0792
:102790001092AE06CFCF8091AE06803208F050C0C6
:1027A000E091AE0681E08E0F8093AE068091BB0073
:1027B000F0E0E155F94F8083BDCF8091AE068032C5
:1027C00030F4E091AE06F0E0E155F94F10820E943E
:1027D00002136091AE0670E0E0911307F0911407C8
:1027E0008FEA96E009951092AE060E940C1336C04F
:1027F00084E080931A071092D0061092CF06E091E1
:102800001507F091160709958091CF06811105C033
:1028100081E08093CF061092D106E091D00681E04E
:102820008E0F8093D006F0E0EF52F94F80818093B5
:10283000BB009091D0068091CF06981708F47ACF0C
:1028400085E88093BC000AC085EC8093BC001092A0
:102850001A0704C01092AD060E940213FF91EF9177
:10286000BF91AF919F918F917F916F915F914F91A8
:102870003F912F910F900FBE0F901F901895DC0184
:10288000ED91FC910190F081E02D09940F93DC0112
:1028900013961C921E921297E1E9F4E0ED93FC93DB
:1028A000609391014093900130938F0120938E01AA
:1028B00000931D070F9108951F93CF93DF931F92ED
:1028C000CDB7DEB7613031F0623031F0633031F0D6
:1028D00010E005C010E403C014E101C014E56091EC
:1028E0008E0170918F018BE596E049830E945C1206
:1028F0006EEF70E08BE596E00E943F1465E470E0B7
:102900008BE596E00E943F144981642F70E0610FCF
:10291000711D8BE596E00E943F148BE596E00E94C6
:10292000711260918C0170918D01660F771F88275D
:1029300077FD8095982F0F90DF91CF911F910C9488
:10294000D01D40E060E00C945C14CF93C62F6091E2
:102950008E0170918F018BE596E00E945C126EEF04
:1029600070E08BE596E00E943F146C2F8BE596E0BB
:102970000E9409128BE596E00E94711260918C0111
:1029800070918D01882777FD8095982FCF910C94B9
:10299000D01D61E50C94A51461E40C94A51468E4C1
:1029A0000C94A5146BE40C94A5146CE40C94A5147D
:1029B000CF93DF93EC018BE596E00E94481288E903
:1029C0008093B800CE010E94CC14CE010E94C9149D
:1029D000CE010E94D514CE010E94CF14CE01DF910A
:1029E000CF910C94A114CF93C62F60918E0170915A
:1029F0008F018BE596E00E945C126C2F8BE596E0D0
:102A00000E9409128BE596E00E94711260911B07EB
:102A100070911C07882777FD8095982F0E94D01D04
:102A2000CF910895FC0110821182128213828AE0F4
:102A300090E095838483168217820895CF93DF9365
:102A4000EC01862F6F831E820E94FA1E892B11F0E3
:102A500083E08E830E94A11D688379838A839B8390
:102A6000DF91CF910895FC01758364830895FF92EF
:102A70000F931F93CF93DF93EC018F810E94FA1E77
:102A8000FF24F394892B09F4F12C8E81982F977FE2
:102A90009E8386958170F81651F00E94A11D68836F
:102AA00079838A839B838E8192E0892721C00E944B
:102AB000A11D088119812A813B81601B710B820B4A
:102AC000930B0C811D8120E030E0601771078207B5
:102AD000930778F08E8181708F1559F00E94A11DA7
:102AE000688379838A839B838E8191E089278860BC
:102AF0008E838E8183FB882780F9DF91CF911F9190
:102B00000F91FF900895FC01868181700895CF9305
:102B1000DF93EC01198218821A821C821B828AE0E0
:102B20008F831BA61AA66CEB72E0CE0105960E945D
:102B3000EC2D188619A6DF91CF910895EF92FF92A0
:102B40000F931F93CF93DF93EC017B018A018A815E
:102B500090E001962BE0289FB001299F700D112471
:102B6000888199810E94F32C998388832A8148E087
:102B700050E0B7013BE0239F800D911D11240E947E
:102B8000012E8A81E881F9819BE0899FE00DF11D8A
:102B90001124128701878A818F5F8A83DF91CF9109
:102BA0001F910F91FF90EF900895FC017483638350
:102BB0000895AC01465D5F4FBC016B5F7F4F80E0C5
:102BC00090E00C94102E2F923F924F925F926F9252
:102BD0007F928F929F92AF92BF92CF92DF92EF92AD
:102BE000FF920F931F93CF93DF93EC011C012AE216
:102BF000220E311C2C0185E0480E511C5E01A8E01C
:102C0000AA0EB11C81E397E00E944D1F1816190609
:102C10000CF055C081E397E00E945D1F182F8F8153
:102C2000181334C0A101B201C5010E94102E7C010D
:102C3000009749F18A80912C612C712CC12CD12CE8
:102C4000C814D904D4F408811981060D171D48E071
:102C500050E0B801C7010E94F32DBBE06B0E711C60
:102C6000892B39F4D8011996ED91FC911A970995A1
:102C70000AC0BFEFCB1ADB0AE3CFEB81FC813097B0
:102C800011F0C7010995188619A6BCCF812F992785
:102C900087FD90950E94DD2D892B09F4B3CF89A57E
:102CA000803208F0AFCF91E0980F99A7FE01E80FAE
:102CB000F11D1087FE01E90FF11D1086A3CFDF91F2
:102CC000CF911F910F91FF90EF90DF90CF90BF9029
:102CD000AF909F908F907F906F905F904F903F90BC
:102CE0002F900895FC0110820895AF92BF92DF9259
:102CF000EF92FF920F931F93CF93DF93CDB7DEB781
:102D0000EDB6FEB6842F90E0880F991FFC01319636
:102D1000ADB7BEB7AE1BBF0B0FB6F894BEBF0FBEAC
:102D2000ADBF0DB71EB70F5F1F4FD801D62E5B0189
:102D30005A2D5D195417C8F4B501F501508152950B
:102D40005F7050635A3308F0595F5C93FFEFAF1A1E
:102D5000BF0AFB0150815F7050635A3308F0595F1E
:102D600011965C9311971296E3CFF801E80FF91FC3
:102D70001082B90181E397E00E947322B80181E3D8
:102D800097E00E94A2220FB6F894FEBE0FBEEDBEE1
:102D9000DF91CF911F910F91FF90EF90DF90BF9047
:102DA000AF900895FC01508150FD0C947516089564
:102DB000089508950895089561E0FC0182810C94BE
:102DC000C41E60E0FC0182810C94C41E0F931F930B
:102DD000CF93DF93DC0128E030E000E810E080E0F2
:102DE00090E051E0E02FE42309F450E01123E1F0FA
:102DF000FC01EE0FFF1FEE0FFF1FE60FF71F55231D
:102E000029F01696CD91DC91179704C01496CD91B8
:102E1000DC911597D183C0831496CD91DC911597E1
:102E2000D383C2830196512F06952150310911F0A9
:102E3000152FD7CFDF91CF911F910F910895CF9389
:102E4000DF93EC018FE9860F8A3140F4E62FFF27EC
:102E5000E7FDF095EC5CFB4F408143C080ED860FB1
:102E60008A3028F0EFEAF4E080E090E02EC0E62F10
:102E7000FF27E7FDF0959F0120533109A1E026309F
:102E800031051CF0A0E0255031096C817D81FE01E7
:102E900080E090E0B0E041E050E08217930714F04A
:102EA00040E050E04A175B0719F44C815D8102C095
:102EB0004E815F8157874687718B608B0196349670
:102EC0008530910541F719C001962081222381F0B8
:102ED00032962613F9CFFC01EE0FFF1FE155FB4F91
:102EE0004181BE01625F7F4FCE010E94E61605C0A0
:102EF00021E030E081E090E002C020E030E0FC0121
:102F0000EE0FFF1FDF011696AA0FBB1FAC0FBD1FF0
:102F10008E819F818D939C933796EE0FFF1FEC0F50
:102F2000FD1F11821082C901DF91CF91089561E0E8
:102F3000FC0182810C948B1ECF92DF92EF92FF9264
:102F4000CF93DF93EC016A017B0120E030E040E8A1
:102F50005FE3C701B6010E94B62987FD15C020E0D6
:102F600030E048E452E4C701B6010E94C82A9B0140
:102F7000AC0160E070E68AE697E40E94BA290E94FC
:102F8000222A362F272F02C030EB24E0832F922FE6
:102F90001816190614F081E090E09D838C839C0143
:102FA000220F331F280F391F3F832E83DF91CF91CC
:102FB000FF90EF90DF90CF9008950F931F93CF93E2
:102FC000DF9300D000D0CDB7DEB78C018DEB94E05D
:102FD000F80191838083738362836DEB72E0C80193
:102FE000089629833A834B835C830E943328298186
:102FF0003A814B815C81BA01A901C8010F900F9001
:103000000F900F90DF91CF911F910F910C949C170F
:10301000CF93DF93EC0108960E9449288C859D850B
:103020009FA78EA788A980FD09C0E881F981028049
:10303000F381E02DCE01DF91CF910994DF91CF9103
:103040000895CF93DF93EC011FA61EA68C859D8566
:10305000892B21F160E070E0CE0108960E94602883
:10306000FC016081CE010E941F1799AB88ABE881FB
:10307000F9810480F581E02DCE01099588A980FDB4
:1030800007C0E881F9810190F081E02DCE0109951A
:103090000E94A11D6AAB7BAB8CAB9DABDF91CF9146
:1030A0000895CF92DF92EF92FF92CF93DF93EC01DE
:1030B0002EA53FA58C859D852817390708F06DC082
:1030C0000E94A11D6B017C018AA99BA9ACA9BDA985
:1030D000C81AD90AEA0AFB0AE8A9F9A9DF01179672
:1030E000AA0FBB1FAC0FBD1F8D919C91AA2797FD06
:1030F000A095BA2FC816D906EA06FB0608F44FC0F9
:10310000CF01019699AB88AB3896EE0FFF1FEC0FFD
:10311000FD1F80819181892B29F56EA57FA56F5FA9
:103120007F4F7FA76EA78C859D856817790778F0FC
:10313000E881F9810280F381E02DCE010995E881D3
:10314000F9810680F781E02DCE01099526C0CE01D8
:1031500008960E946028FC016081CE010E941F1722
:1031600099AB88AB4AA95BA96CA97DA94C0D5D1DE3
:103170006E1D7F1D4AAB5BAB6CAB7DAB88A9E88154
:10318000F98180FD04C00190F081E02D03C0028030
:10319000F381E02DCE01099502C080E001C081E0FD
:1031A000DF91CF91FF90EF90DF90CF900895CF9374
:1031B000DF93EC010E942118CE010E945118811169
:1031C000FBCFDF91CF910895CF93DF93EC010E9465
:1031D000DD1789EC94E099838883DF91CF9108957E
:1031E000DC01ED91FC910190F081E02D0994FC014E
:1031F000608341833383228308956EEF70E081E81A
:1032000097E00E94F0186EEF70E081E897E00C9470
:10321000F0186DEF70E081E897E00C94F0182F92B1
:103220003F924F925F926F927F928F929F92AF9256
:10323000BF92CF92DF92EF92FF920F931F93CF93A3
:10324000DF93CDB7DEB72B970FB6F894DEBF0FBE76
:10325000CDBF9B878A874B014987493008F053C00F
:10326000CE0101965C01E12CF12CC12CD12C242E35
:10327000312C9AE0492E512C612C712CE214F3046C
:1032800004F5B801C901A30192010E944F2BF50179
:1032900061935F0189019A01E0FE0FC0D401AC0D7A
:1032A000BD1D84E0660F771F8A95E1F73297808114
:1032B000862B8C93FFEFCF1ADF0A8FEFE81AF80AFC
:1032C000DDCF28EA31E04985B401EA85FB858281BA
:1032D00093812B960FB6F894DEBF0FBECDBFDF9162
:1032E000CF911F910F91FF90EF90DF90CF90BF9003
:1032F000AF909F908F907F906F905F904F903F9096
:103300002F900C94D2162B960FB6F894DEBF0FBEFA
:10331000CDBFDF91CF911F910F91FF90EF90DF9084
:10332000CF90BF90AF909F908F907F906F905F9065
:103330004F903F902F9008952F923F924F925F921F
:103340006F927F928F929F92AF92BF92CF92DF92B5
:10335000EF92FF920F931F93CF93DF93CDB7DEB71A
:1033600062970FB6F894DEBF0FBECDBF9F878E87E2
:10337000342E252EAB0149017E0189E0E80EF11CB7
:1033800085E0F70111928A95E9F72930310508F0B7
:1033900044C0CE0101965C0100E010E0C12CD12CAC
:1033A0009AE0492E512C612C712C0815190559F100
:1033B000632D722DCA01A30192010E944F2BF501CA
:1033C00061935F01322E232E00FF1AC084E0660F46
:1033D000771F8A95E1F732972081262B622F81E8AB
:1033E00097E0288B498B5A8B0E949020F701EC0DB7
:1033F000FD1D28892083FFEFCF1ADF0A5A894989EA
:103400000F5F1F4FD2CF24EB31E0402FB701EE8585
:10341000FF85828193810E94D21662960FB6F8943E
:10342000DEBF0FBECDBFDF91CF911F910F91FF90F7
:10343000EF90DF90CF90BF90AF909F908F907F9054
:103440006F905F904F903F902F900895DF92EF9292
:10345000FF920F931F93CF93DF937C01EB0110E05A
:1034600081E897E00E941D20019621F41A3031F581
:10347000D12C2CC0D12C1A3049F181E897E00E9460
:103480001220892B51F08E010D0D111D81E897E05E
:103490000E942B20F8018083D394FE01ED0DF11DD5
:1034A000319780818D3F49F723EC31E04D2DBE01EE
:1034B000F701828193810E94D21608C06AE070E011
:1034C00080E090E00E94D01D1F5FCACF8D2DDF915C
:1034D000CF911F910F91FF90EF90DF900895CF92C1
:1034E000DF92EF92FF920F931F93CF93DF93CDB7AD
:1034F000DEB7C058D1090FB6F894DEBF0FBECDBFFE
:103500008C017B01C42E25E0D22EBE016F5F7F4F60
:10351000C8010E94261A882309F43FC099819E3F62
:10352000E1F59A819E3FC9F52B81F801908129131D
:1035300034C02C819181291330C0FE01E80FF11DA8
:1035400090819D3F51F5C11002C064E001C066E06A
:10355000D12C70E08250282F30E0261B370BED2D48
:10356000F0E02E173F077CF0D701AE0FBF1F81E0C0
:1035700090E08C0F9D1FE80FF91FE60FF71F808169
:103580008C93D394ECCF2AED31E04D2DB701F801A7
:10359000828193810E94D21609C064E670E080E0C7
:1035A00090E00E94D01DDA9409F0AFCF8D2DC05865
:1035B000DF4F0FB6F894DEBF0FBECDBFDF91CF91C6
:1035C0001F910F91FF90EF90DF90CF900895CF93D0
:1035D000DF93CDB7DEB7C058D1090FB6F894DEBF80
:1035E0000FBECDBF40E0BE016F5F7F4F0E946F1ADC
:1035F000882361F089818B3F31F08A818A3F31F4E1
:1036000080E090E005C081E090E002C082E090E0C0
:10361000C058DF4F0FB6F894DEBF0FBECDBFDF91AD
:10362000CF9108950F931F93CF93DF93EC018B01FC
:103630000E94FD18698181E897E00E9490206881CE
:1036400081E897E00E94902066E070E081E897E0D2
:103650000E94F018B80181E897E00E94F018CE01AE
:103660000E940919CE01DF91CF911F910F910C9407
:10367000E71ACF92DF92EF92FF92CF93DF93EC01A4
:103680006A017B010E94FD18698181E897E00E9430
:103690009020688181E897E00E94902065E070E0CA
:1036A00081E897E00E94F01828E030E0B701A60119
:1036B000CE010E949C19CE010E940919CE01DF9112
:1036C000CF91FF90EF90DF90CF900C94E71AEF929C
:1036D000FF920F931F93CF93DF931F92CDB7DEB767
:1036E0007C018B0149830E94FD18F701618181E80B
:1036F00097E00E949020F701608181E897E00E94A6
:10370000902064E170E081E897E00E94F018B80131
:1037100081E897E00E94F0184981642F81E897E0E2
:103720000E949020C7010E940919C7010F90DF91E4
:10373000CF911F910F91FF90EF900C94E71A0F9388
:103740001F93CF93DF93EC018B010E94FD186981D9
:1037500081E897E00E949020688181E897E00E94CC
:10376000902064E170E081E897E00E94F018B801D1
:1037700081E897E00E94F018CE010E940919CE015D
:10378000DF91CF911F910F910C94E71ACF92DF92A6
:10379000EF92FF920F931F93CF93DF93CDB7DEB7D6
:1037A00028970FB6F894DEBF0FBECDBF7C016B012A
:1037B000042F0E94FD18F701618181E897E00E94C3
:1037C0009020F701608181E897E00E9490206AE1F3
:1037D00070E081E897E00E94F01863E070E081E813
:1037E00097E00E94F018B60181E897E00E94F01877
:1037F000CA94CD2889F410E020E030E044E0BE0116
:103800006F5F7F4FC7010E940F196A8181E897E0BF
:103810000E949020698101C0602F81E897E00E949A
:103820009020C7010E940919C7010E94E71A289633
:103830000FB6F894DEBF0FBECDBFDF91CF911F91C1
:103840000F91FF90EF90DF90CF900895853008F0B2
:103850004CC0E82FF0E0EE0FFF1FE25EF84F7183DF
:1038600060838230E1F018F4813069F004C0833065
:1038700019F1843071F1809169008C7F842B8093E1
:103880006900E89A089580916900440F551F440F1C
:10389000551F837F842B80936900E99A0895809156
:1038A000690034E0440F551F3A95E1F78F7C842B73
:1038B00080936900EA9A08958091690026E0440F98
:1038C000551F2A95E1F78F73842B80936900EB9A3B
:1038D000089580916A0094E0440F551F9A95E1F78E
:1038E0008F7C842B80936A00EE9A08951F920F922A
:1038F0000FB60F9211242F933F934F935F936F93C3
:103900007F938F939F93AF93BF93EF93FF93809198
:103910001E0790911F07892B29F0E0911E07F09157
:103920001F070995FF91EF91BF91AF919F918F91E3
:103930007F916F915F914F913F912F910F900FBEAB
:103940000F901F9018951F920F920FB60F9211248F
:103950002F933F934F935F936F937F938F939F9397
:10396000AF93BF93EF93FF9380912007909121072E
:10397000892B29F0E0912007F09121070995FF910B
:10398000EF91BF91AF919F918F917F916F915F91D7
:103990004F913F912F910F900FBE0F901F90189550
:1039A0001F920F920FB60F9211242F933F934F93B4
:1039B0005F936F937F938F939F93AF93BF93EF9397
:1039C000FF938091220790912307892B29F0E091A2
:1039D0002207F09123070995FF91EF91BF91AF91D5
:1039E0009F918F917F916F915F914F913F912F9117
:1039F0000F900FBE0F901F9018951F920F920FB649
:103A00000F9211242F933F934F935F936F937F9364
:103A10008F939F93AF93BF93EF93FF93809124076E
:103A200090912507892B29F0E0912407F091250733
:103A30000995FF91EF91BF91AF919F918F917F91E8
:103A40006F915F914F913F912F910F900FBE0F900B
:103A50001F9018951F920F920FB60F9211242F935B
:103A60003F934F935F936F937F938F939F93AF9306
:103A7000BF93EF93FF938091260790912707892B9F
:103A800029F0E0912607F09127070995FF91EF9122
:103A9000BF91AF919F918F917F916F915F914F9166
:103AA0003F912F910F900FBE0F901F9018951F926E
:103AB0000F920FB60F9211242F933F938F939F93E2
:103AC000AF93BF938091290790912A07A0912B076C
:103AD000B0912C073091280723E0230F2D3720F4D5
:103AE0000196A11DB11D05C026E8230F0296A11D58
:103AF000B11D209328078093290790932A07A0934C
:103B00002B07B0932C0780912D0790912E07A09141
:103B10002F07B09130070196A11DB11D80932D078D
:103B200090932E07A0932F07B0933007BF91AF91CA
:103B30009F918F913F912F910F900FBE0F901F90EB
:103B400018952FB7F8946091290770912A078091F2
:103B50002B0790912C072FBF08953FB7F8948091C1
:103B60002D0790912E07A0912F07B091300726B511
:103B7000A89B05C02F3F19F00196A11DB11D3FBFA5
:103B80006627782F892F9A2F620F711D811D911D35
:103B900042E0660F771F881F991F4A95D1F7089555
:103BA000CF92DF92EF92FF92CF93DF936B017C0174
:103BB0000E94AD1DEB01C114D104E104F10489F0B0
:103BC0000E9472280E94AD1D6C1B7D0B683E7340E5
:103BD00090F381E0C81AD108E108F108C851DC4F20
:103BE000EACFDF91CF91FF90EF90DF90CF900895D3
:103BF000789484B5826084BD84B5816084BD85B5C8
:103C0000826085BD85B5816085BDEEE6F0E080818E
:103C100081608083E1E8F0E01082808182608083AF
:103C2000808181608083E0E8F0E080818160808332
:103C3000E1E9F0E08081826080838081816080831F
:103C4000E0E9F0E0808181608083E1ECF0E0808158
:103C500084608083808182608083808181608083B2
:103C6000E3ECF0E0808181608083E0ECF0E0808133
:103C700082608083E2ECF0E0808181608083EAE70B
:103C8000F0E0808184608083808182608083808195
:103C900081608083808180688083089590E0FC014A
:103CA0003197EF30F105B0F5E158FF4F0C94902BB0
:103CB000809180008F7703C0809180008F7D8093FA
:103CC0008000089580918000877FF9CF84B58F7739
:103CD00002C084B58F7D84BD0895809190008F7758
:103CE00007C0809190008F7D03C080919000877FF6
:103CF0008093900008958091C0008F7703C08091D9
:103D0000C0008F7D8093C00008958091C200877F9E
:103D10008093C2000895CF93DF9390E0FC01E95EA9
:103D2000FD4F2491FC01EB5CFD4F8491882349F108
:103D300090E0880F991FFC01E159FD4FA591B491C6
:103D40008F599D4FFC01C591D4919FB7611108C057
:103D5000F8948C91209582238C93888182230AC0C9
:103D6000623051F4F8948C91322F309583238C93E8
:103D70008881822B888304C0F8948C91822B8C9349
:103D80009FBFDF91CF9108950F931F93CF93DF9340
:103D90001F92CDB7DEB7282F30E0F901E750FE4F74
:103DA0008491F901E95EFD4F1491F901EB5CFD4F3F
:103DB00004910023C9F0882321F069830E944E1EDC
:103DC0006981E02FF0E0EE0FFF1FEF59FD4FA59145
:103DD000B4919FB7F8948C91611103C01095812321
:103DE00001C0812B8C939FBF0F90DF91CF911F91CA
:103DF0000F910895CF93DF93282F30E0F901E7501A
:103E0000FE4F8491F901E95EFD4FD491F901EB5C1D
:103E1000FD4FC491CC2391F081110E944E1EEC2FD6
:103E2000F0E0EE0FFF1FED5AFD4FA591B4912C91DC
:103E30002D2381E090E021F480E002C080E090E05A
:103E4000DF91CF910895CF93DF931F92CDB7DEB767
:103E50006983DC01ED91FC910280F381E02D41E06A
:103E600050E0BE016F5F7F4F09950F90DF91CF91BA
:103E70000895CF93DF93EC018C859D8597FF05C056
:103E800082E00E94F2249D878C878C859D85DF913E
:103E9000CF91089583E00C944727FC018485958594
:103EA00097FD06C082E00E949A2490E00196089552
:103EB00082E00E949A2490E00895FC018485958513
:103EC00097FD05C02FEF3FEF35872487089582E0E7
:103ED0000C94F224CF93DF93EC0180919901882315
:103EE00031F083E00E9423251816190634F081E092
:103EF00090E09B838A8380E090E0DF91CF910895EA
:103F0000FC0120812E5F208342E450E06DE772E0E7
:103F100080E80C94BE25FC0181819081913A59F48E
:103F2000813209F03CC047E050E062E971E080E096
:103F30000E94BE2543C0913291F5803239F467E08A
:103F400070E082E991E00E94EF2506C0823209F01C
:103F500035C0828180939901809192019091930163
:103F6000A0919401B0919501803B9440A105B105C9
:103F7000C1F48091990180FD14C087E797E7909381
:103F80000108809300082BE088E190E00FB6F894D8
:103F9000A895809360000FBE209360000FC080E062
:103FA000089588E10FB6F894809360001092600045
:103FB0000FBEA895109201081092000881E00895A4
:103FC0002FEF3FEFFC01358724870895CF93C091F1
:103FD00099016AE070E080E090E00E94D01D81E0ED
:103FE000C11101C080E0CF91089510923407109262
:103FF000330788EE93E0A0E0B0E08093350790931C
:104000003607A0933707B093380785ED94E0909377
:104010003207809331078FEF9FEF90933E07809395
:104020003D070895FC01818D228D90E0805C9F4FBB
:10403000821B91098F7399270895FC01918D828DC0
:10404000981731F0828DE80FF11D858D90E008956D
:104050008FEF9FEF0895FC01918D828D981761F08D
:10406000828DDF01A80FB11D5D968C91928D9F5FAF
:104070009F73928F90E008958FEF9FEF08958FEADE
:1040800091E2892B49F080E090E0892B29F00E9491
:10409000AF2181110C9400000895FC01848DDF0193
:1040A000A80FB11DA35ABF4F2C91848D90E00196AB
:1040B0008F739927848FA689B7892C93A089B1899A
:1040C0008C9180648C93938D848D981306C00288A4
:1040D000F389E02D80818F7D80830895CF93DF93D6
:1040E000EC01888D8823C9F0EA89FB89808185FDF0
:1040F00005C0A889B9898C9186FD0FC00FB607FC51
:10410000F5CF808185FFF2CFA889B9898C9185FF91
:10411000EDCFCE010E944D20E7CFDF91CF910895E2
:10412000CF92DF92FF920F931F93CF93DF931F9253
:10413000CDB7DEB76C01DC015B969C915B975C961A
:104140008C915C97981307C05096ED91FC91519714
:10415000808185FD32C0F601038D10E00F5F1F4F97
:104160000F731127F02EF601848DF81211C00FB6CF
:1041700007FCF9CFD6015096ED91FC9151978081C3
:1041800085FFF1CFC60169830E944D206981EBCF85
:10419000838DE80FF11DE35AFF4F6083D6015B96D4
:1041A0000C935B975296ED91FC91539780818062BE
:1041B000808381E058968C930DC0D6015696ED9180
:1041C000FC91579760835096ED91FC9151978081B7
:1041D0008064808381E090E00F90DF91CF911F9108
:1041E0000F91FF90DF90CF900895BF92CF92DF9212
:1041F000EF92FF92CF93DF93EC016A017B01B22E25
:10420000E889F98982E08083411581EE58076105CC
:104210007105A1F060E079E08DE390E0A7019601DF
:104220000E944F2B2150310941095109569547955C
:1042300037952795211580E1380798F0E889F989A5
:10424000108260E874E88EE190E0A70196010E9478
:104250004F2B215031094109510956954795379502
:104260002795EC85FD853083EE85FF852083188EAC
:10427000EC89FD89B082EA89FB8980818061808335
:10428000EA89FB89808188608083EA89FB89808153
:1042900080688083EA89FB8980818F7D8083DF91BC
:1042A000CF91FF90EF90DF90CF90BF9008951F9235
:1042B0000F920FB60F9211242F938F939F93EF932A
:1042C000FF93E0919107F09192078081E091970729
:1042D000F091980782FD12C0908180919A078F5FBC
:1042E0008F7320919B07821751F0E0919A07F0E0BD
:1042F000EF57F84F958F80939A0701C08081FF9107
:10430000EF919F918F912F910F900FBE0F901F9063
:1043100018951F920F920FB60F9211242F933F936F
:104320004F935F936F937F938F939F93AF93BF93BD
:10433000EF93FF9381E897E00E944D20FF91EF916A
:10434000BF91AF919F918F917F916F915F914F91AD
:104350003F912F910F900FBE0F901F90189581E8FD
:1043600097E00E94122021E0892B09F420E0822F9F
:104370000895109284071092830788EE93E0A0E0DE
:10438000B0E08093850790938607A0938707B0934A
:10439000880785EE94E090938207809381078DECE7
:1043A00090E090938E0780938D078CEC90E0909333
:1043B000900780938F0788EC90E09093920780930A
:1043C000910789EC90E090939407809393078AEC8F
:1043D00090E090939607809395078EEC90E09093F1
:1043E00098078093970710929A0710929B07109254
:1043F0009C0710929D07089508950E94F81D0E9441
:10440000FC2185E298E00E94A7270E94BF07CFE326
:10441000D0E20E945E0A2097E1F30E943F20F9CF8C
:10442000CF92DF92EF92FF920F931F93CF93DF9380
:104430006C017A01EB01E60EF71E00E010E0CE15EC
:10444000DF0561F06991D601ED91FC910190F08159
:10445000E02DC6010995080F191FF1CFC801DF91A2
:10446000CF911F910F91FF90EF90DF90CF90089523
:104470006115710581F0DB010D900020E9F7AD01B8
:1044800041505109461B570BDC01ED91FC91028014
:10449000F381E02D099480E090E00895EF92FF927F
:1044A0000F931F93CF93DF938C01FB01C0E0D0E00B
:1044B00064917F018FEFE81AF80A662361F0D80152
:1044C000ED91FC910190F081E02DC8010995C80F94
:1044D000D91FF701EDCFCE01DF91CF911F910F9141
:1044E000FF90EF9008950C943822DC01ED91FC913F
:1044F0000190F081E02D09940F931F93CF93DF93E8
:10450000EC016DE00E9475228C016AE0CE010E94F0
:104510007522800F911FDF91CF911F910F91089508
:104520000F931F93CF93DF93EC010E944E228C01D7
:10453000CE010E947C22800F911FDF91CF911F91AD
:104540000F9108950F931F93CF93DF93EC010E9477
:1045500038228C01CE010E947C22800F911FDF91B6
:10456000CF911F910F9108958F929F92AF92BF921A
:10457000CF92DF92EF92FF920F931F93CF93DF932F
:10458000CDB7DEB7A1970FB6F894DEBF0FBECDBF93
:104590007C01C42EE52FCB01D22E19A221E02D15CE
:1045A00010F02AE0D22E8E010F5D1F4F8D2C912C22
:1045B000A12CB12C6C2D7E2FA50194010E944F2BB4
:1045C0008C2DD29E80191124015011098A3014F4C7
:1045D000805D01C0895CF8018083211531054105AA
:1045E000510521F0C22EE32FCA01E4CFB801C70163
:1045F0000E943822A1960FB6F894DEBF0FBECDBF41
:10460000DF91CF911F910F91FF90EF90DF90CF90AE
:10461000BF90AF909F908F900895CF92DF92EF92CE
:10462000FF920F931F93CF93DF93EC016A017B01FD
:104630002115310579F4E881F9810190F081E02DAF
:10464000642FDF91CF911F910F91FF90EF90DF903A
:10465000CF9009942A303105E9F477FF1AC06DE252
:104660000E9475228C0144275527BA014C195D0917
:104670006E097F092AE0CE010E94B422800F911FAB
:10468000DF91CF911F910F91FF90EF90DF90CF902E
:1046900008952AE0B701A601CE01DF91CF911F91C5
:1046A0000F91FF90EF90DF90CF900C94B4229A017D
:1046B000AB01662757FD6095762F0C940D232115CD
:1046C000310541F4DC01ED91FC910190F081E02D88
:1046D000642F09940C94B4229A01462F50E060E0B4
:1046E00070E00C945F230F931F93CF93DF93EC0143
:1046F0009A01462F50E060E070E00E945F238C0139
:10470000CE010E947C22800F911FDF91CF911F91DB
:104710000F9108959A01AB0160E070E00C945F2363
:104720008230A1F028F4882341F0813049F00895C7
:10473000833091F08430B1F0089510926E000895A6
:1047400080916F008D7F80936F000895809170003D
:104750008D7F809370000895809171008D7F80938C
:1047600071000895809172008F7B8093720008958C
:104770001F920F920FB60F9211242F933F934F93D6
:104780005F936F937F938F939F93AF93BF93EF93B9
:10479000FF938091210890912208A0912308B09165
:1047A0002408892B8A2B8B2B51F190911E08E091C4
:1047B0001F08F0912008808189278083809121083B
:1047C00090912208A0912308B09124081816190688
:1047D0001A061B062CF58091210890912208A091C1
:1047E0002308B09124080197A109B10980932108F9
:1047F00090932208A0932308B093240811C083E06B
:104800000E94902320911E08E0911F08F09120083B
:10481000808190E030E0209530958223932380833F
:10482000FF91EF91BF91AF919F918F917F916F9188
:104830005F914F913F912F910F900FBE0F901F905E
:1048400018954091290850912A0820912708309105
:10485000280842175307B4F49091E8009570E1F3EB
:104860009091E80092FD19C08093F1008091290891
:1048700090912A0801968F739927892B19F48EEF4E
:104880008093E8008091290890912A0801969093DE
:104890002A088093290881E0089580E00895CF9246
:1048A000DF92FF920F931F93CF93DF931F92CDB7A9
:1048B000DEB7082F162F862F880F8E5F99830E94F0
:1048C000212483E00E942124F02EC02E9981D92E2C
:1048D0008C2D8F19811778F4F60184910E94212480
:1048E000082F80E00E9421248023FFEFCF1ADF0AE7
:1048F0008111EECF01C081E00F90DF91CF911F9128
:104900000F91FF90DF90CF900895615030F020918B
:10491000F100FC0120830196F8CF289884E680936B
:104920002C0808952FB7FC012083F89467706093DA
:10493000E9000895CF93DF931F92CDB7DEB7682FBC
:10494000CE0101960E9492248091F20099819FBF2E
:104950000F90DF91CF910895FF920F931F93CF9304
:10496000DF9300D0CDB7DEB7F62E8A0190912B08E9
:10497000992311F057FF03C08FEF9FEF2BC0682FD3
:10498000CE0101967A830E9492248091F20090E0F9
:10499000A8017A81801791070CF4AC01EF2DF72F55
:1049A000F40E84E6FE1639F0289880932C08909136
:1049B000F1009193F7CF4115510521F08091F2005C
:1049C000882321F089818FBFCA0104C08BE68093C0
:1049D000E800F8CF0F900F90DF91CF911F910F91CA
:1049E000FF900895CF93DF931F92CDB7DEB741E0DC
:1049F00050E0BE016F5F7F4F0E94AC24019719F415
:104A0000898190E002C08FEF9FEF0F90DF91CF91EF
:104A10000895CF93DF931F92CDB7DEB7682FCE01F5
:104A200001960E9492249091E800892F807295FF50
:104A300004C09091F20080E4891B99819FBF0F9080
:104A4000DF91CF9108956F927F928F929F92AF9254
:104A5000BF92CF92DF92EF92FF920F931F93CF936B
:104A6000DF931F92CDB7DEB7782E7B01C42EB52E13
:104A700080912B08882369F0042F152F8AEFD82EF8
:104A8000872D8072982E9AE3A92E872D8074882E08
:104A900011C08FEF9FEF57C0872D0E940925682E08
:104AA00081110CC0DA94A9F361E070E080E090E03D
:104AB0000E94D01D0115110579F73BC0282F30E069
:104AC000021713070CF4602E672DCE0101960E9489
:104AD00092248091E80085FF29C0262D30E0021B3A
:104AE000130B992039F06A948FEF6816B1F0109289
:104AF000F100F9CFF701862D77FE07C0815058F0FD
:104B000094919093F1003196F9CF815020F09191DA
:104B10009093F100FACFE20EF31E8091E80085FF3A
:104B20000FC00115110511F481100AC089818FBFD2
:104B3000C1CF5D9884E680932D088C2D9B2D03C0FA
:104B4000A092E800F3CF0F90DF91CF911F910F91CA
:104B5000FF90EF90DF90CF90BF90AF909F908F909D
:104B60007F906F9008951092E90010922A08109299
:104B7000290890932808809327080895CF92DF9200
:104B8000FF920F931F93CF93DF9300D0CDB7DEB783
:104B9000F82E8A016B0101151105B1F0F601F7FE3F
:104BA00002C0849101C0808149835A830E942124DC
:104BB00001501109FFEFCF1ADF0A49815A81811193
:104BC000EACF8FEF9FEF01C0CA010F900F90DF91E6
:104BD000CF911F910F91FF90DF90CF9008951F9379
:104BE000CF93DF931F92CDB7DEB7162F2091E80049
:104BF00022FFFCCF612F79830E9485248BEF809365
:104C0000E800812F7981972F0F90DF91CF911F912D
:104C10000895CF93DF931F92CDB7DEB71982CE01EF
:104C200001960E94801FCE0101960E9491288981E1
:104C300090E00F90DF91CF9108951F920F920FB6E1
:104C40000F921124EF92FF920F931F932F933F9394
:104C50004F935F936F937F938F939F93AF93BF9384
:104C6000EF93FF93CF93DF93CDB7DEB76297DEBFAD
:104C7000CDBF1092E9008091E80083FFEBC068E0AF
:104C8000CE010A960E94852482EF8093E8009A85DF
:104C900097FF05C08091E80080FFFCCF03C08EEF36
:104CA0008093E800892F807609F0B9C08B85811147
:104CB00005C01092F1001092F100C5C0282F2D7F81
:104CC000213009F4C0C0853049F48091E80080FFAC
:104CD000FCCF8C8580688093E300B5C0863009F0F6
:104CE00076C02D85E888F988223071F580E090E063
:104CF0002A8B0E94B3250E94092699E08E010F5F3E
:104D00001F4FF801392F11923A95E9F799832A89B3
:104D10002A8391E09E8390E898879AEF9987209163
:104D2000290830912A08275F3F4F3C832B838D83CE
:104D3000C7010E94B32549E050E0B80180E00E941D
:104D4000BE250E9409267FC0C7012A8B0E94B32579
:104D50002A89223241F482E290E00E949C28892B29
:104D600009F071C074C0213069F488899989089765
:104D700011F42093260880912608811118C066ED51
:104D800072E01AC0233009F062C08C85882391F04C
:104D9000823021F460E184EF92E006C0813009F0B6
:104DA00056C06BE088EE92E00E944F244AC064EC4B
:104DB00072E002C065E073E06115710509F447C057
:104DC000FB01449150E080E80E94BE253CC0873042
:104DD00009F43DC0883021F481E08093F10033C0B4
:104DE000893089F5937099F5E0ECF2E081E021E0FB
:104DF00096E38093E9002093EB0034913093EC002C
:104E00009093ED008F5F3196853099F78EE7809310
:104E1000EA001092EA008C8580932B0814C08889E0
:104E200099890E94B3258E85811105C0CE010A960D
:104E30000E948B1F06C0823051F4CE010A960E9458
:104E4000C428882321F08EEF8093E80003C081E21C
:104E50008093EB0062960FB6F894DEBF0FBECDBF15
:104E6000DF91CF91FF91EF91BF91AF919F918F9182
:104E70007F916F915F914F913F912F911F910F9172
:104E8000FF90EF900F900FBE0F901F90189580939A
:104E9000E9008091F200882319F08AE38093E8000A
:104EA00008951F920F920FB60F9211242F933F93E4
:104EB0004F935F936F937F938F939F93AF93BF9322
:104EC000EF93FF938091E1001092E10083FF0FC008
:104ED0001092E90091E09093EB001092EC0092E3C5
:104EE0009093ED0010922B0898E09093F00082FFD1
:104EF0001DC083E00E94472780912D08882339F048
:104F000080912D08815080932D08882369F080912D
:104F10002C08882359F080912C08815080932C080C
:104F2000811104C0289A02C05D9AF1CFFF91EF91E0
:104F3000BF91AF919F918F917F916F915F914F91B1
:104F40003F912F910F900FBE0F901F9018951092C8
:104F50002B0881E08093D70080EA8093D80082E11B
:104F600089BD09B400FEFDCF61E070E080E090E013
:104F70000E94D01D80E98093D8008CE08093E200ED
:104F80001092E000559A209A0895FC018081918149
:104F90000C94642CCF93DF93EC0188819981009766
:104FA00011F00E94642C198218821D821C821B82BF
:104FB0001A82DF91CF9108950F931F93CF93DF93C0
:104FC000EC018B016F5F7F4F888199810E94F32CE8
:104FD000009731F0998388831B830A8381E001C0A5
:104FE00080E0DF91CF911F910F910895CF93DF93D0
:104FF000EC0188819981892B29F08A819B81861710
:10500000970760F4CE010E94DC27882341F08C8151
:105010009D81892B19F4E881F981108281E0DF916B
:10502000CF910895EF92FF920F931F93CF93DF9349
:10503000EC017B018A01BA010E94F627811104C0AC
:10504000CE010E94CA2707C01D830C83B701888147
:1050500099810E94EC2DCE01DF91CF911F910F918C
:10506000FF90EF900895FC0111821082138212824A
:10507000158214826115710559F0FB010190002021
:10508000E9F7AF0141505109461B570B0C94122808
:105090000895CF93DF93EC01FB018617970761F02A
:1050A000608171816115710529F0448155810E94EB
:1050B000122802C00E94CA27CE01DF91CF91089525
:1050C000FC01848195816817790720F480819181A2
:1050D000009729F410922E088EE298E00895860F2A
:1050E000971F08950895FF920F931F93CF93DF9317
:1050F000EC01F62EE881F9810480F581E02D099517
:105100008C01E881F9810680F781E02D6F2DCE01B9
:105110000995C8019927DF91CF911F910F91FF90B9
:105120000895FC0120812F5F208349E150E069E868
:1051300073E080E80C94BE2545E650E062EA73E037
:1051400080E80C94BE25EF92FF920F931F93CF93AC
:10515000DF931F92CDB7DEB789838B017A0141E0DF
:1051600050E0BE016F5F7F4F84E00E942325A701BE
:10517000B80184E40E9423250F90DF91CF911F9105
:105180000F91FF90EF900895FC0191818081813A09
:1051900031F481E0913091F0933089F411C0813283
:1051A00071F49B3021F4828180939B0105C09A3079
:1051B00031F4828180939A0181E00895089580E01E
:1051C000089548E050E082E00C94A328CF93DF9349
:1051D000DC01683818F0E8E7E60F25C0E62FF0E0BC
:1051E00067FF11C0E058F10981E090E001C0880F2D
:1051F000EA95EAF714969C911497982B14969C9331
:105200001497E0E010C0E75FFC4FE491EE2309F44F
:1052100040C0E7FF08C014968C91149782601496E2
:105220008C931497EF7716968C9116978E1741F101
:1052300017968C9117978E1719F118968C911897CD
:105240008E17F1F019968C9119978E17C9F01A964E
:105250008C911A978E17A1F01B968C911B978E1725
:1052600079F080E090E0ED01C80FD91F2E81211167
:1052700002C0EE8305C0019686309105A1F709C0F2
:10528000BD016C5F7F4FCD010E94E12881E090E07D
:1052900008C081E090E013969C938E93129780E073
:1052A00090E0DF91CF910895683818F0E8E7E60FB5
:1052B00025C0E62FF0E067FF12C0E058F10921E0B9
:1052C00030E001C0220FEA95EAF72095DC01149640
:1052D0003C911497322314963C93E0E00FC0E75FB3
:1052E000FC4FE491EE2329F1E7FF08C0DC0114969E
:1052F0002C9114972D7F14962C93EF7720E030E0BB
:10530000EE2351F0DC01A20FB31F16964C911697B5
:105310004E1302C016961C922F5F3F4F2630310568
:1053200079F7BC016C5F7F4F0E94E12881E090E03B
:10533000089580E090E00895FC011682178210869F
:105340001186128613861482BC016C5F7F4F0C9409
:10535000E12810923B08109232081092310885EF34
:1053600094E09093300880932F0808959CD008F41F
:1053700081E008950CD0D2C0CAD040F0C1D030F046
:1053800021F45F3F19F0B3C05111FCC0B6C0D7D0B3
:1053900098F39923C9F35523B1F3951B550BBB27FC
:1053A000AA2762177307840738F09F5F5F4F220FA9
:1053B000331F441FAA1FA9F333D00E2E3AF0E0E8A2
:1053C00030D091505040E695001CCAF729D0FE2FEE
:1053D00027D0660F771F881FBB1F26173707480780
:1053E000AB07B0E809F0BB0B802DBF01FF27935836
:1053F0005F4F2AF09E3F510568F079C0C3C05F3F00
:10540000ECF3983EDCF3869577956795B795F7951D
:105410009F5FC9F7880F911D9695879597F9089515
:10542000E1E0660F771F881FBB1F621773078407B1
:10543000BA0720F0621B730B840BBA0BEE1F88F7C0
:10544000E095089504D06894B1119CC008957FD070
:1054500088F09F5790F0B92F9927B751A0F0D1F05D
:10546000660F771F881F991F1AF0BA95C9F712C0E7
:10547000B13081F086D0B1E0089583C0672F782FD6
:105480008827B85F39F0B93FCCF386957795679553
:10549000B395D9F73EF490958095709561957F4FBF
:1054A0008F4F9F4F0895990F0008550FAA0BE0E802
:1054B000FEEF16161706E807F907C0F012161306D6
:1054C000E407F50798F0621B730B840B950B39F416
:1054D0000A2661F0232B242B252B21F408950A267C
:1054E00009F4A140A6958FEF811D811D089597F9BC
:1054F0009F6780E870E060E008959FEF80EC08957A
:1055000000240A94161617061806090608950024A2
:105510000A9412161306140605060895092E03941C
:10552000000C11F4882352F0BB0F40F4BF2B11F490
:1055300060FF04C06F5F7F4F8F4F9F4F089557FDEF
:105540009058440F551F59F05F3F71F04795880FF1
:1055500097FB991F61F09F3F79F087950895121688
:1055600013061406551FF2CF4695F1DF08C0161634
:1055700017061806991FF1CF8695710561050894E5
:105580000895E894BB2766277727CB0197F90895FC
:105590000BD0C4CFB5DF28F0BADF18F0952309F09F
:1055A000A6CFABCF1124EECFCADFA0F3959FD1F3E6
:1055B000950F50E0551F629FF001729FBB27F00DC1
:1055C000B11D639FAA27F00DB11DAA1F649F662716
:1055D000B00DA11D661F829F2227B00DA11D621F65
:1055E000739FB00DA11D621F839FA00D611D221F1F
:1055F000749F3327A00D611D231F849F600D211D03
:10560000822F762F6A2F11249F5750408AF0E1F0A5
:1056100088234AF0EE0FFF1FBB1F661F771F881FEE
:1056200091505040A9F79E3F510570F060CFAACF2E
:105630005F3FECF3983EDCF3869577956795B795D9
:10564000F795E7959F5FC1F7FE2B880F911D969503
:10565000879597F90895DB018F939F930E94962B6E
:10566000BF91AF91A29F800D911DA39F900DB29FFE
:10567000900D1124089597FB072E16F4009407D07F
:1056800077FD09D00E94A92B07FC05D03EF4909528
:1056900081959F4F0895709561957F4F0895A1E280
:1056A0001A2EAA1BBB1BFD010DC0AA1FBB1FEE1F9C
:1056B000FF1FA217B307E407F50720F0A21BB30BE7
:1056C000E40BF50B661F771F881F991F1A9469F763
:1056D00060957095809590959B01AC01BD01CF01BF
:1056E0000895052E97FB1EF400940E94882B57FD09
:1056F00007D00E944F2B07FC03D04EF40C94882B4C
:1057000050954095309521953F4F4F4F5F4F0895ED
:1057100090958095709561957F4F8F4F9F4F08951D
:10572000EE0FFF1F0590F491E02D09940E94BD2B10
:10573000A59F900DB49F900DA49F800D911D1124E5
:105740000895B7FF0C94962B0E94962B821B930B07
:105750000895AA1BBB1B51E107C0AA1FBB1FA617B8
:10576000B70710F0A61BB70B881F991F5A95A9F70A
:1057700080959095BC01CD010895A29FB001B39F83
:10578000C001A39F700D811D1124911DB29F700D4A
:10579000811D1124911D0895CF93DF9382309105CF
:1057A00010F482E090E0E0913E08F0913F0820E0A4
:1057B00030E0A0E0B0E0309739F1408151814817E6
:1057C0005907B8F04817590771F4828193811097EF
:1057D00029F013969C938E9312972CC090933F08B8
:1057E00080933E0827C02115310531F04217530739
:1057F00018F0A901DB0101C0EF019A01BD01DF0131
:105800000280F381E02DD7CF21153105F9F0281B57
:10581000390B2430310580F48A819B816115710533
:1058200021F0FB019383828304C090933F0880930F
:105830003E08FE01329644C0FE01E20FF31F819341
:10584000919322503109398328833AC020913C0832
:1058500030913D08232B41F4209102013091030146
:1058600030933D0820933C082091000130910101C4
:105870002115310541F42DB73EB7409104015091F7
:105880000501241B350BE0913C08F0913D08E2171F
:10589000F307A0F42E1B3F0B2817390778F0AC0153
:1058A0004E5F5F4F2417350748F04E0F5F1F509330
:1058B0003D0840933C088193919302C0E0E0F0E002
:1058C000CF01DF91CF910895CF93DF93009709F433
:1058D00087C0FC01329713821282C0913E08D0919A
:1058E0003F08209781F420813181280F391F809152
:1058F0003C0890913D088217930779F5F0933D0895
:10590000E0933C086DC0DE0120E030E0AE17BF0739
:1059100050F412964D915C9113979D0141155105DC
:1059200009F1DA01F3CFB383A28340815181840F5F
:10593000951F8A179B0771F48D919C911197840F85
:10594000951F02969183808312968D919C91139757
:10595000938382832115310529F4F0933F08E09366
:105960003E083EC0D9011396FC93EE9312974D91D9
:105970005D91A40FB51FEA17FB0779F4808191812F
:10598000840F951F0296D90111969C938E93828164
:10599000938113969C938E931297E0E0F0E08A81B6
:1059A0009B81009719F0FE01EC01F9CFCE01029620
:1059B00028813981820F931F20913C0830913D0846
:1059C0002817390769F4309729F410923F0810928C
:1059D0003E0802C013821282D0933D08C0933C0857
:1059E000DF91CF910895A0E0B0E0E9EFFCE20C94E4
:1059F0005C2EEC01CB01209719F40E94CC2BB8C08F
:105A0000FE01E60FF71F9E0122503109E217F3074E
:105A100008F4ACC0D9010D911C9111970617170716
:105A2000B8F00530110508F49FC0A8014450510991
:105A30004617570708F498C002501109061B170BA8
:105A4000019311936D937C93CF010E94642C8CC0C1
:105A50005B01A01AB10A4E01800E911EA0913E0872
:105A6000B0913F08612C712C60E070E0109709F450
:105A700049C0A815B905C9F5ED90FC9011976701CB
:105A800042E0C40ED11CCA14DB0478F147018A1825
:105A90009B08640142E0C40ED11C1296BC90129780
:105AA0001396AC91B5E0CB16D10440F0B282A3833B
:105AB00091828082D9018D939C9309C00E5F1F4F04
:105AC0000E0D1F1DF90111830083EB2DFA2F6115B7
:105AD000710531F0DB011396FC93EE93129744C0ED
