:100000000C94A3020C94C6180C94F3180C942019A9
:100010000C944D190C94CB020C94CB020C947A19CD
:100020000C94CB020C94BD0D0C948A230C94562294
:100030000C94CB020C94CB020C94CB020C94CB020C
:100040000C94CB020C94CB020C94CB020C94CB02FC
:100050000C94CB020C94CB020C94CB020C94A719F9
:100060000C94CB020C947E1D0C94B01D0C94CB020E
:100070000C94CB020C94CB020C94CB020C94CB02CC
:100080000C94F11F0C94CB020C94CB020C94CB0279
:100090000C94C8100C94CB020C94CB020C94CB02A1
:1000A0000C94CB020C94CB020C94CB02920AA50ABE
:1000B000B50AC80AD00AFC0A040B0C0B140B1B0B64
:1000C0001B0B1B0B1B0B1B0B1B0B1B0B1B0B1B0B00
:1000D0001B0B1B0B1B0B1B0B1B0B1B0B1B0B1B0BF0
:1000E0001B0B1B0B1B0B1B0B1B0B1B0B920A9E0AE8
:1000F000A50AB50AC80AD00AE30AEB0AF30AB61A37
:10010000B91AA81AAC1AB21ADA1ADA1ADA1ABD1A15
:10011000C11AC51ACB1ACF1ADA1AD51A736B6564CD
:10012000206578697400206E6578745F74785F6309
:100130006C69636B3D002073746174696F6E2E731C
:10014000746172745F74696D653D002073636865E6
:1001500064756C655F7469636B733D0053636865B8
:1001600064756C653A2077616C6C5F7469636B735E
:100170003D0052580064426D0053657420706F77E3
:10018000657220746F20004D005365742062616EAB
:100190006420746F200073656E6420435720696487
:1001A0003A002A2A2A204750532044697363697011
:1001B0006C696E6520636C6F636B20646F6E653A6B
:1001C00020006669782061676520494E56414C4998
:1001D00044006D73002066697820616765200068BF
:1001E000616E646C655F6770735F70617273696E76
:1001F000672073617973207570646174652077611D
:100200006C6C5F7469636B7320746F20002A2A2AF8
:1002100020475053204469736369706C696E652090
:10022000636C6F636B2073746172740044697363F1
:1002300069706C696E656420373530206D696C6C4F
:10024000697320746F2000526164696F20696E6960
:1002500074002A2A2A204D696C6C69636C6F636B89
:10026000206469736369706C696E656420002A2A72
:100270002A20475053204469736369706C696E6526
:10028000204D696C6C69636C6F636B002A2A2A20AD
:10029000475053204C6F636B656420002A2A2A2044
:1002A000475053204469736369706C696E652063BD
:1002B0006C6F636B0024504D544B3330302C313015
:1002C00030302C302C302C302C302A31430024504C
:1002D0004D544B3232302C313030302A31460024EC
:1002E000504D544B3331342C302C312C302C302C9D
:1002F000302C302C302C302C302C302C302C302C1E
:10030000302C302C302C302C302C302C302A323900
:10031000004E434458432F49415255204265616382
:100320006F6E2049425056322E3400000000020009
:10033000090F0000030401000C0000000000000091
:1003400000000000000000000004080201104080CE
:1003500040102040804080080204018040201002AC
:10036000011080102040400404040404030405022A
:100370000202020403020202020606060606060440
:100380000402020204000000002300260029002CC1
:10039000002F0000000000250028002B002E003157
:1003A0000000000000240027002A002D0030000873
:1003B0000B00020202010009040000010202000019
:1003C000052400100105240101010424020605246E
:1003D0000600010705810310004009040100020A1C
:1003E00000000007050202400000070583024000EC
:1003F0000000C18081C112010002020000404123BF
:1004000036800001010200011201000200000040DC
:100410004123368000010102000141726475696E5A
:100420006F204C4C430041726475696E6F204C65BF
:100430006F6E6172646F0004030904000000000025
:100440000000002A2B28000000000000000000002F
:1004500000000000000000000000002C9EB4A0A1DD
:10046000A2A434A6A7A5AE362D3738271E1F2021FB
:100470002223242526B333B62EB7B89F84858687DA
:1004800088898A8B8C8D8E8F909192939495969774
:1004900098999A9B9C9D2F3130A3AD350405060792
:1004A00008090A0B0C0D0E0F101112131415161754
:1004B00018191A1B1C1DAFB1B0B5000904020001C8
:1004C00003000000092101010001226500070584E5
:1004D0000340000105010902A1010901A1008501F4
:1004E00005091901290315002501950375018102EC
:1004F0009501750581030501093009310938158118
:10050000257F750895038106C0C005010906A10174
:100510008502050719E029E71500250175019508F1
:1005200081029501750881039506750815002565FA
:100530000507190029658100C00039052A101C1C17
:10054000E01DE225650511241FBECFEFDAE0DEBF16
:10055000CDBF12E0A0E0B1E0E0EEF4E502C005900E
:100560000D92A23CB107D9F725E0A2ECB2E001C0A0
:100570001D92A83CB207E1F715E0C4E4D5E004C041
:100580002297FE010E94CB27CA33D107C9F70E94E8
:10059000241E0C94632A0C940000CF93DF93809167
:1005A000070390E0019664EB70E00E94742780934B
:1005B000070380910603882391F0C0910203D09134
:1005C00003030E94F11970930303609302030E94D6
:1005D000F1196C1B7D0B709305036093040381E09C
:1005E00080930803DF91CF91089540E052EC61E0E1
:1005F00070E089EB94E00E94071C89EB94E00E9474
:100600000D1C8823D1F308951092060380910403F2
:1006100090910503892B19F1209104033091050372
:10062000C901880F991F820F931F97FD0396959517
:1006300087959595879590930701809306016CE2C5
:1006400072E089EB94E00E94751E60910601709142
:1006500007014AE050E089EB94E00C94861F08956E
:100660008BEC92E00E94811340E050E060EB71E47B
:100670008BEC92E00C9486130F931F93CF93DF9330
:1006800000D000D000D0CDB7DEB78C0166E971E0B4
:1006900089EB94E00E94751EB80189EB94E00E94FA
:1006A000C91E60E085E00E94141B60E08CE00E949F
:1006B000141B61E08DE00E94141B60E086E00E9444
:1006C000141B60E084E00E94141B61E089E00E943A
:1006D000141BB801CE0101960E946C24BE016F5F0D
:1006E0007F4F8BEC92E00E94F213CE0101960E94A4
:1006F000FE238BEC92E00E94C11481E08093010301
:1007000060E085E00E94141B26960FB6F894DEBFC9
:100710000FBECDBFDF91CF911F910F91089561E082
:100720008CE00E94141B61E085E00E94DB1A61E00E
:100730008CE00E94DB1A26E040EC52E160E070E0C1
:1007400089E095E00E941C1D63E070E082EC92E07D
:100750000E94621740E062E470E082EC92E00E9446
:1007600016186AE070E082EC92E00E94EF1740E811
:100770006AE070E082EC92E00E94B7176AE070E0F5
:1007800082EC92E00E94EF1780E296E2A7EDB0E0E3
:100790008093C7029093C802A093C902B093CA0283
:1007A00040E256E267ED70E082EC92E00C9489172B
:1007B000CF93C82F69E871E089EB94E00E94751E21
:1007C0004AE050E06C2F89EB94E00E94AB1F67E891
:1007D00071E089EB94E00E94B71ECF3009F44BC062
:1007E000D8F4CA3009F45CC0CC3009F06EC080ED9A
:1007F00096E6ACE7B1E08093C7029093C802A0935D
:10080000C902B093CA0249E061E089E093E00E9426
:1008100012126BE671E06DC0C131C1F0C43109F054
:1008200054C080E296E2A7EDB0E08093C7029093B7
:10083000C802A093C902B093CA0249E061E089E00E
:1008400093E00E94121262E671E053C080E396E5E5
:10085000A4E1B1E08093C7029093C802A093C902BB
:10086000B093CA0249E061E089E093E00E9412126D
:1008700065E671E03EC080E399EBA2E4B1E08093CD
:10088000C7029093C802A093C902B093CA0249E07C
:1008900061E089E093E00E94121268E671E029C0ED
:1008A00080E49CE4AEEAB1E08093C7029093C80272
:1008B000A093C902B093CA0249E061E089E093E0E5
:1008C0000E9412126EE671E014C080E49CE4AEEA6D
:1008D000B1E08093C7029093C802A093C902B0937D
:1008E000CA0249E061E089E093E00E9412126DECD7
:1008F00071E089E093E00E949A1E4091C7025091F6
:10090000C8026091C9027091CA0282EC92E00E9412
:10091000891710920103CF910895CF93C82F4CE00F
:1009200061E089E093E00E9412124AE050E06C2FEF
:1009300089E093E00E94AB1F69E771E089EB94E0E6
:100940000E94751E4AE050E06C2F89EB94E00E94F3
:10095000AB1F65E771E089EB94E00E94B71EC451BC
:10096000CF3130F4EC2FF0E0EF51FE4F408102C068
:1009700041E050E061E070E082EC92E0CF910C94B5
:10098000161860E08DE00E94141B61E08CE00E946C
:10099000141B60E086E00E94141B60E089E00E9466
:1009A000141B61E084E00E94141B60E085E00E945B
:1009B000141B62E771E089EB94E00C94B71E0E946F
:1009C000D80382E30E948D0460E671E080E090E04D
:1009D0000E94201A8091090190910A010E943C0313
:1009E0006AEF70E080E090E00E94201A61E085E00C
:1009F0000E94141B63EE73E080E090E00E94201AD6
:100A000060E085E00E94141B88E20E948D0461E092
:100A100085E00E94141B63EE73E080E090E00E948A
:100A2000201A60E085E00E94141B8EE10E948D0474
:100A300061E085E00E94141B63EE73E080E090E0CB
:100A40000E94201A60E085E00E94141B84E10E944D
:100A50008D0461E085E00E94141B63EE73E080E08A
:100A600090E00E94201A60E085E00E94141B0C9424
:100A7000C1040F9320E048E06BE080E893E00E941F
:100A8000900E8DE093E00E941D0800E028E230E027
:100A900040E162E089E093E00E94FC1120E030E058
:100AA00040E451E465E070E08BEC92E00E94CE14EB
:100AB00086EC92E00E94DA1426EC32E046E760EE23
:100AC00082EC92E00F910C94471580E892E09093AD
:100AD000CC028093CB0283ED92E00E94FE2380E85B
:100AE00093E00C94370E8F929F92AF92BF92CF9269
:100AF000DF92EF92FF920F931F93CF93DF93CDB7C7
:100B0000DEB72C970FB6F894DEBF0FBECDBF6B01DA
:100B10007C016DE072E089EB94E00E94B71E89EBE6
:100B200094E00E94711B80E893E00E94940D81E0A4
:100B3000C81AD108E108F1081C141D041E041F0482
:100B40000CF087C080E893E00E94570D892B09F4D0
:100B500079C080E893E00E94CA0C182F682F89EBB7
:100B600094E00E944A1B89EB94E00E94711B612F64
:100B70008DE093E00E94240B8823C9F289EB94E076
:100B80000E94A31E9E012F5F3F4F4901CE01079691
:100B90005C01295F3F4F690102967C018E01065F6F
:100BA0001F4F2D5F3F4FAE01445F5F4FBE016B5F34
:100BB0007F4F8DE093E00E94FA0B89819A81AB818F
:100BC000BC818F3F9F4FAF4FBF4FA9F129858885CB
:100BD00090E03CE3239F800D911D112464EB70E0B5
:100BE0000E9474278F5F809307036FED71E089EB9C
:100BF00094E00E94751E609107034AE050E089EB83
:100C000094E00E94AB1F65ED71E089EB94E00E94D7
:100C1000751E49815A816B817C812AE030E089EB25
:100C200094E00E949E1F62ED71E089EB94E00E94C7
:100C3000B71E11E00FC062EC71E089EB94E00E94F6
:100C4000751E07C064E670E080E090E00E94201A04
:100C50006ECF10E080E893E00E947E0D62EA71E0C2
:100C600089EB94E00E94751E612F70E04AE050E02D
:100C700089EB94E00E94861F89EB94E00E94711B2F
:100C8000812F2C960FB6F894DEBF0FBECDBFDF913B
:100C9000CF911F910F91FF90EF90DF90CF90BF9079
:100CA000AF909F908F90089561E08DE00E94DB1AD5
:100CB00061E08CE00E94DB1A0E94C10461E086E0E2
:100CC0000E94DB1A61E084E00E94DB1A61E089E0A7
:100CD0000E94DB1A60E084E00E94141B60E089E05F
:100CE0000E94141B61E086E00E94141B89E093E0DF
:100CF0000E948B1289E093E00E94851240E060E040
:100D000089E093E00E94121261E771E089E093E0CC
:100D10000E949A1E47E060E089E093E00E94121270
:100D20006091090170910A0189E093E00E949A1E86
:100D300040E061E089E093E00E9412126CE771E00C
:100D400089E093E00E949A1E0E94F50261E173E03F
:100D500089EB94E00E94B71E6091090170910A012D
:100D600089EB94E00E94C91E40E061E089E093E0D5
:100D70000E9412126DE871E089E093E00E949A1ED1
:100D800062E083E00E94DB1A43E050E06DEC72E029
:100D900084E00E94761840E855E260E070E080E868
:100DA00093E00E94C00E6FED72E080E893E00E9435
:100DB000B71E6EEC72E080E893E00E94B71E65EB10
:100DC00072E080E893E00E94B71E68EE73E080E076
:100DD00090E00E94201A80E893E00E947E0D40E09F
:100DE00061E089E093E00E9412126CE971E089E011
:100DF00093E00E949A1E6CE972E089EB94E00E94F5
:100E0000B71E6FEF7FEF8FEF9FE70E947305882378
:100E100091F36CE872E089EB94E00E94B71E6EE6F5
:100E200072E089EB94E00E94B71E81E08093060394
:100E300068E873E180E090E00E94201A0E940403B9
:100E400062E572E089EB94E00E94B71E40E061E049
:100E500089E093E00E9412126CEA71E089E093E06D
:100E60000E949A1E67E472E089EB94E00E94B71E2C
:100E70000E948F030E94300340E061E089E093E02C
:100E80000E9412126BEB71E089E093E00E949A1EBF
:100E900040E061E089E093E00E9412126BEC71E0A7
:100EA00089E093E00E949A1E60E086E00E94141B95
:100EB00060E089E00E94141B61E084E00C94141B44
:100EC000CF93DF93C0910703D0E080910F01C81B3F
:100ED000D10945E061E089E093E00E94121267ECDD
:100EE00071E089E093E00E949A1E45E061E089E0AC
:100EF00093E00E941212609107034AE050E089E0FB
:100F000093E00E94AB1F6CE571E089EB94E00E94D6
:100F1000751E609107034AE050E089EB94E00E945F
:100F2000AB1F6BE471E089EB94E00E94751E4AE010
:100F300050E0BE0189EB94E00E947E1F66E371E001
:100F400089EB94E00E94751E4AE050E060910F0129
:100F500089EB94E00E94AB1F66E271E089EB94E0BC
:100F60000E94751E609108014AE050E089EB94E010
:100F70000E94B21FC431D105E1F17CF4CF3F8FEF65
:100F8000D807F9F01CF46496E9F146C0209779F18E
:100F90002A9709F041C081E12DC0CC33D10579F108
:100FA0003CF4CE31D10549F1A897B1F58AE022C0D1
:100FB000C83AD10571F1CA3AD10571F50E9404030E
:100FC0002BC085E08093080148E061E089E093E070
:100FD0000E94121262EC71E089E093E00E949A1E76
:100FE00084E10E94D80382E30E948D0415C084E14D
:100FF00001C08FE00E94DF040FC08CE0FBCF84E1D2
:101000000E94D80360E070E880E090E00E947305E1
:1010100003C081E0809306036CE171E089EB94E00A
:10102000DF91CF910C94B71E80910803882321F0A3
:10103000109208030C94600708950F931F93FC010E
:101040000FEF1FEF980100831183228333831086F3
:101050001186128613864FEF59EC6AE97BE3408BC9
:10106000518B628B738B408F518F628F738F40A334
:1010700051A362A373A340A751A762A773A740AB74
:1010800051AB62AB73AB00AF11AF22AF33AFDC013A
:10109000A05CBF4F8FEF90E011969C938E931496B7
:1010A0000D931D932D933C93139718960D931D93B9
:1010B0002D933C93139718961C9211961C92509660
:1010C00082E08C9311961C9211961C9211961C92A0
:1010D00011961D921D921D921C92139714961196B3
:1010E0001C921E9212961D921C92EA5AFF4F108279
:1010F0001F910F9108952FEB260F862F992787FDBB
:101100009095263010F4C79708956156663018F40C
:10111000875591090895C09708950F931F93FB0178
:1011200060E070E0CB01019120ED200F2A30A0F4A7
:10113000AAE0B0E09B01AC010E94CF27112707FD78
:101140001095212F312F600F711F821F931F605345
:10115000710981099109E7CF1F910F9108950F93AC
:101160001F93CF93FC01EA5AFF4FC1E020812D323B
:1011700019F0C0E08F0103C08C01095A1F4FB8015C
:101180000E948D089B01AC01A4E6B0E00E94CF272D
:10119000F801DF01219130ED320F3A30D0F32E32D9
:1011A00069F511962C91119730ED320F3A3030F5E8
:1011B000332727FD3095205331094AE0429F8001B3
:1011C000439F100D1124222717FD2095322F600F09
:1011D000711F821F931F12960C9120ED200F2A3051
:1011E00068F4112707FD109500531109222717FDF8
:1011F0002095322F600F711F821F931FCC2339F06F
:1012000090958095709561957F4F8F4F9F4FCF91AF
:101210001F910F9108954F925F926F927F928F92DC
:101220009F92AF92BF92CF92DF92EF92FF92CF93B5
:10123000DF93EC01CA5ADF4FBE010E948D082B01DB
:101240003C0124E630E040E050E00E9488279B010A
:10125000AC0160EA76E881E090E00E9464276B01CF
:101260007C01FE01819190ED980F9A30D8F38E3277
:1012700019F5EF0180E1882E87E2982EA12CB12C80
:10128000A99180ED8A0F8A30B8F4BB27A7FDB095ED
:10129000D097A50194010E94DA27C60ED71EE81E3A
:1012A000F91EC501B4012AE030E040E050E00E94A0
:1012B000882749015A01E4CFC701B6016D5F7F4F0E
:1012C0008F4F9F4F26E030E040E050E00E9488279B
:1012D00069017A01C301B20124E630E040E050E048
:1012E0000E94882760E472E48FE090E00E94642707
:1012F000C60ED71EE81EF91EC701B601DF91CF91B9
:10130000FF90EF90DF90CF90BF90AF909F908F9025
:101310007F906F905F904F900895DB01FA018D915F
:10132000882319F091918917D1F3992787FD90951A
:101330000895CF92DF92EF92FF921F93CF93DF93A6
:10134000EC01FC01EB5AFF4F1081112309F4A9C0F5
:10135000319660810E947B08182FFE01E95AFF4FE9
:101360006081CE010E947B0840E1149F800D112412
:10137000FE01EC5AFF4F908189138AC07496108148
:10138000112309F458C1359680819181019691838A
:101390008083B59780819181A281B38134978083C6
:1013A0009183A283B3833C9680819181A281B38192
:1013B000349780839183A283B38379968081882335
:1013C000A1F1813009F037C18C819D81AE81BF814F
:1013D00088839983AA83BB838C859D85AE85BF85D1
:1013E00088879987AA87BB878C899D89AE89BF89A1
:1013F000888B998BAA8BBB8B8C8D9D8DAE8DBF8D71
:10140000888F998FAA8FBB8F8CA59DA5AEA5BFA5F0
:1014100088A799A7AAA7BBA78CA99DA9AEA9BFA970
:1014200088AB99ABAAABBBAB06C18CA19DA1AEA109
:10143000BFA188A399A3AAA3BBA38C819D81AE81E0
:10144000BF8188839983AA83BB838C899D89AE8958
:10145000BF89888B998BAA8BBB8B8C8D9D8DAE8D14
:10146000BF8D888F998FAA8FBB8FFE01E05CFF4FE5
:10147000DE01AE5BBF4F8D919C91918380838CADDB
:101480009DADAEADBFAD88AF99AFAAAFBBAFD3C076
:10149000C159DF4F8881998101969983888310E033
:1014A000CAC0FC01EA59FF4F30818B599F4F7C0124
:1014B00031111DC06E0196E5C90ED11C40E052E00D
:1014C000B601CE010E948D09892B11F481E00CC078
:1014D00046E052E0B601CE010E948D09892B19F435
:1014E000F7011082A8C082E0D7018C93A4C0DC0170
:1014F000EC91E23009F49FC0CE018A5A9F4FDC0183
:101500002C91222309F497C0B0E2EB9FF001112443
:10151000E32B3197E932F10508F08DC0EA5AFF4F0D
:101520000C94C927CE010E94AF086C837D838E8303
:101530009F830E94F119C85BDF4F12C0C859DF4F6B
:1015400081E0213409F05DC05DC0CE010E940B092D
:101550006C8B7D8B8E8B9F8B0E94F119C05BDF4F54
:10156000688379838A839B8366C0233509F063C0CF
:101570008C899D89AE89BF89B095A09590958195FC
:101580009F4FAF4FBF4F8C8B9D8BAE8BBF8B53C08C
:10159000CE010E940B096C8F7D8F8E8F9F8F4BC069
:1015A000273509F048C08C8D9D8DAE8DBF8DB095CF
:1015B000A095909581959F4FAF4FBF4F8C8F9D8F7A
:1015C000AE8FBF8F38C0CE010E94AF086CA77DA739
:1015D0008EA79FA730C0CE010E94AF086CAB7DAB39
:1015E0008EAB9FAB28C0BC01CE010E948D086C87DA
:1015F0007D878E879F871FC0C859DF4F81E02133C9
:101600000CF480E0888317C00E94F629CE5BDF4F80
:101610009927998388830FC0CE010E94AF086CAFD1
:101620007DAF8EAF9FAF07C0CE010E94AF086CA305
:101630007DA38EA39FA3812FDF91CF911F91FF9058
:10164000EF90DF90CF900895CF92DF92EF92FF92CC
:101650000F931F93CF93DF931F92CDB7DEB76C012B
:10166000262FFC01E759FF4F408151816281738130
:101670004F5F5F4F6F4F7F4F408351836283738310
:101680008C0109591F4F8B5A9F4F7C01243281F1E5
:101690002CF42A3069F02D30E9F50AC02A3241F0E5
:1016A0002C32C1F5F601EC5AFF4F808182278083EE
:1016B000F80180818F3060F4F601E80FF11DEA5ADD
:1016C000FF4F1082C60129830E949909298101C018
:1016D00080E0F601EA59FF4F90819F5F9083F80107
:1016E000108291E02A3209F090E0F70190832AC03D
:1016F000F8011082F601EA59FF4F108272971082AA
:10170000719682E08083F7011082F601E859FF4F5D
:10171000108217C0F80180818E3048F491E0980F54
:101720009083F601E80FF11DEA5AFF4F2083F7017D
:101730008081811106C0F601EC5AFF4F808182271B
:10174000808380E00F90DF91CF911F910F91FF90E8
:10175000EF90DF90CF900895CF92DF92EF92FF92BB
:101760000F931F93CF93DF93E9016115710551F03A
:10177000FC01C084D184E284F384FB01C082D18265
:10178000E282F3824115510551F0FC01C080D18005
:10179000E280F380FA01C082D182E282F382209754
:1017A00001F18C010C5B1F4FF80180819181A281B6
:1017B000B3818F3F9F4FAF4FBF4F61F00E94F11930
:1017C000F8010081118122813381601B710B820B32
:1017D000930B03C06FEF7FEFCB01688379838A831C
:1017E0009B83DF91CF911F910F91FF90EF90DF903E
:1017F000CF9008952F923F924F925F926F927F9277
:101800008F929F92AF92BF92CF92DF92EF92FF9210
:101810000F931F93CF93DF93CDB7DEB72A970FB601
:10182000F894DEBF0FBECDBF2B015A87498719013F
:101830009401AE014F5F5F4FBE016B5F7F4F0E940F
:10184000AC0B41145104B9F06D817E818F81988574
:1018500024E630E040E050E00E94882761357105C1
:101860001CF02CE637E002C020ED37E0620F731F5A
:10187000F2017183608389859A85892BB1F06D812E
:101880007E818F81988544E6442E512C612C712CE9
:10189000A30192010E948827CA01B901A301920104
:1018A0000E948827E985FA8560832114310461F05C
:1018B0006D817E818F81988520E137E240E050E0A4
:1018C0000E948827F10120830115110561F06981CB
:1018D0007A818B819C8120E432E44FE050E00E94C9
:1018E0008827F8012083E114F104A1F069817A814D
:1018F0008B819C8120E137E240E050E00E94882704
:10190000CA01B90124E630E040E050E00E94882797
:10191000F7016083C114D104A9F069817A818B81B8
:101920009C8134E6432E512C612C712CA301920131
:101930000E948827CA01B901A30192010E94882749
:10194000F6016083A114B10461F069817A818B8111
:101950009C8124E630E040E050E00E948827F501B9
:1019600060832A960FB6F894DEBF0FBECDBFDF911D
:10197000CF911F910F91FF90EF90DF90CF90BF908C
:10198000AF909F908F907F906F905F904F903F901F
:101990002F9008952091E1033091E2032817390731
:1019A000B9F490919F038091A003981789F0E0917A
:1019B0009F03F0E0EF55FC4F808120919F0330E0C2
:1019C0002F5F3F4F2F73332720939F0390E008959D
:1019D0008FEF9FEF08951F93CF93DF93DC015C9609
:1019E0008D919C915D97009749F481E090E013966A
:1019F0009C938E93129780E090E03BC05196ED91BE
:101A0000FC91529750962C915097322F30951FB7DA
:101A10005E964C915E9741FB772770F941FD60958A
:101A2000F8944081772311F0422B01C04323408377
:101A3000EC012197F1F748E0508160FF02C0522B82
:101A400001C053235083EC012197F1F76695415073
:101A500099F78081772311F0832301C0822B808343
:101A60001FBF5C968D919C915D970197F1F781E086
:101A700090E0DF91CF911F9108952091E103309183
:101A8000E2032817390781F490919F038091A00306
:101A9000981751F0E0919F03F0E0EF55FC4F8081E3
:101AA000992787FD909508958FEF9FEF08952091D6
:101AB000E1033091E2032817390771F48091A00304
:101AC00020919F0390E0805C9F4F821B910960E40E
:101AD00070E00E947427089580E090E008952091BE
:101AE000E1033091E2032817390739F48FB7F894EE
:101AF0001092A00310929F038FBF0895E091E1031D
:101B0000F091E203E817F90769F4A389B4899C917D
:101B10008589809589238C931092E2031092E103CA
:101B200081E0089580E00895CF93DF93EC018A8DE2
:101B30009B8D892BF1F08091E1039091E2038C174A
:101B40009D07B9F0009711F00E947E0D8E8D8E7F5B
:101B50008E8F1092A00310929F03D093E203C09344
:101B6000E103EB89FC8980819D89892B808381E059
:101B700001C080E0DF91CF9108951F920F920FB6C0
:101B80000F9211242F933F934F935F936F937F9303
:101B90008F939F93AF93BF93EF93FF93E091E103F4
:101BA000F091E203309709F451C0868DA685B78580
:101BB000958581FF04C08C91892329F447C08C91BD
:101BC000892309F043C0A389B4899C9185898095B4
:101BD00089238C93868997890197F1F7208D318D20
:101BE000A685B785758558E040E0C9010197F1F7F2
:101BF000842F90E095958795482F6C91672309F085
:101C00004068515091F7868D81FD40958091A003E9
:101C100090E001968F73992720919F03281749F030
:101C2000A091A003B0E0AF55BC4F4C938093A003AC
:101C300003C0868D8160868F828D938D0197F1F729
:101C4000A389B4898C919589892B8C93FF91EF910D
:101C5000BF91AF919F918F917F916F915F914F91C4
:101C60003F912F910F900FBE0F901F90189524E376
:101C700032E0FC01318320830C947E0D1F93CF93BF
:101C8000DF93EC01162F6E8D6695617081E06827F9
:101C9000812F0E94141B61E0812F0E94DB1A812F8B
:101CA00090E0FC01E75BFC4FE491E88BFC01E95913
:101CB000FC4FE491F0E0EE0FFF1FED56FC4F8591D5
:101CC00094919A8B898BDF91CF911F9108951F93E7
:101CD000CF93DF93EC01162F60E0812F0E94DB1A77
:101CE0008E8D81FD04C061E0812F0E94141B1C8732
:101CF000812F90E0FC01E75BFC4FE491ED87FC0154
:101D0000E959FC4FE491F0E0EE0FFF1FEB57FC4F59
:101D1000859194919F878E87DF91CF911F91089530
:101D2000FF920F931F93CF93DF93EC01F62E522F68
:101D30001B821A8208EE13E020E030E00C831D8342
:101D40002E833F8384E392E0998388831F8A1E8ACF
:101D5000198E188E1B8E1A8E1D8E1C8E8E8D8E7F68
:101D600050FB81F98E8F642FCE010E943E0E6F2DA5
:101D7000CE01DF91CF911F910F91FF900C94670ED0
:101D8000CF93DF93EC019A01AB011B8E1A8E198E53
:101D9000188E1F8A1E8A60E079E08DE390E00E9431
:101DA000AA27C9012430310520F0B9016350710917
:101DB00002C061E070E07D8F6C8FEC85F8EFFE0F64
:101DC000F43048F062EF6E0F643028F066EE6E0F6C
:101DD000633008F06FC0B90176956795643171057D
:101DE00018F06351710902C061E070E07F8B6E8B67
:101DF000069718F0C901059702C081E090E0998F1D
:101E0000888FC901880F991F820F931F9695879518
:101E1000969587958D30910510F00C9702C081E062
:101E200090E09B8F8A8FF43058F082EF8E0F8430D1
:101E300038F0EA51E33008F042C0A8E6B0E041C013
:101E4000A8E6B0E0E8E6F0E0808181608C932C8524
:101E500038EF320F343040F082EF820F843020F0C0
:101E600086EE820F833018F48BE690E002C080E0AB
:101E700090E09C8B8B8B343010F4245009C02E30B2
:101E800069F02F3069F0203169F0213169F0265175
:101E900081E001C0880F2A95EAF707C088E005C0F5
:101EA00082E003C084E001C081E08D8B8C8D9D8D2C
:101EB0000197F1F7CE01DF91CF910C94940DA0E042
:101EC000B0E0E33008F4BECFE0E0F0E0BDCF8091B9
:101ED000130490E020911404821B9109089520912D
:101EE000140480911304281750F4E22FF0E0EB5E05
:101EF000FB4F808190E02F5F2093140408958FEFB3
:101F00009FEF0895E091140480911304E81730F4D2
:101F1000F0E0EB5EFB4F808190E008958FEF9FEF44
:101F200008950895CF92DF92EF92FF920F931F933F
:101F3000CF93DF937C01CB018A012091EF03222311
:101F400089F0EB016B01C40ED51ECC15DD0569F0DF
:101F50006991D701ED91FC910190F081E02DC701CD
:101F60000995F3CF642F0E949F10C801DF91CF9194
:101F70001F910F91FF90EF90DF90CF900895CF9336
:101F8000DF931F92CDB7DEB769832091EF03222341
:101F9000D1F02091F003203240F021E030E0FC014C
:101FA0003383228380E090E015C08091F103E82F15
:101FB000F0E0EE50FC4F998190838F5F8093F103A6
:101FC0008093F00305C061E0CE0101960E949F104E
:101FD00081E090E00F90DF91CF910895FC01138292
:101FE000128248EE53E060E070E0448355836683DC
:101FF000778384E492E0918380830895109214049F
:10200000109213041092F1031092F0030C942E100E
:1020100081E08093EF03609312041092F103109219
:10202000F00308950C9408100F93062F21E04091BF
:10203000F00362EF73E0809112040E944C10109242
:10204000F1031092F0031092EF030F91089561E0F5
:102050000C94141083EE93E00C94EE0F1092A204F3
:1020600081E08093A00410929F0461E082E00E94CE
:10207000141B61E083E00E94141BE9EBF0E0808117
:102080008E7F808380818D7F808388E48093B800F9
:1020900085E48093BC0008950F93413208F046C058
:1020A0009091A2049111FCCF92E09093A20400932E
:1020B000A0049FEF9093350410927A044093790422
:1020C000FB016BE774E0DB019A2F961B941718F461
:1020D00091919D93F9CF1092A1049091A104880F42
:1020E000892B8093A10480919F04813041F4109248
:1020F0009F048091A1048093BB0085EC01C085EE14
:102100008093BC00222321F08091A2048230E1F36D
:10211000809135048F3F61F080913504803251F019
:1021200080913504803341F483E007C081E005C02D
:1021300080E003C082E001C084E00F910895613225
:1021400098F42091A204243089F460935704FC0190
:1021500089E594E0DC012A2F281B261718F4219129
:102160002D93F9CF80E0089581E0089582E00895ED
:1021700085ED8093BC008091BC0084FDFCCF109263
:10218000A204089585EC8093BC001092A2040895E7
:102190001F920F920FB60F9211242F933F934F93DC
:1021A0005F936F937F938F939F93AF93BF93EF93BF
:1021B000FF938091B900887F803609F49CC068F550
:1021C000883209F45BC090F4803109F454C038F4CB
:1021D000882309F4F5C0883009F44DC0F5C0883172
:1021E00009F44CC0803209F45DC0EEC0803409F4BB
:1021F00068C048F4803309F455C0883309F0E4C05E
:1022000080933504A8C0803509F44FC0883509F49F
:102210005DC0883409F0D8C0D5C0883909F4C6C07B
:10222000A8F4883709F467C038F4883609F463C025
:10223000803709F460C0C8C0883809F4B7C0803955
:1022400009F45FC0803809F0BFC05BC0803B09F46F
:1022500085C038F4803A09F466C0883A09F47EC033
:10226000B3C0803C09F4A6C0883C09F4A3C0883BF5
:1022700009F489C0A9C08091A10410C090917A048A
:1022800080917904981770F5E0917A0481E08E0FBF
:1022900080937A04F0E0E558FB4F80818093BB0087
:1022A00085EC85C0809335048DC0E0917A0481E08F
:1022B0008E0F80937A048091BB00F0E0E558FB4FCD
:1022C000808390917A04809179046DC0E0917A04C2
:1022D00081E08E0F80937A048091BB00F0E0E55896
:1022E000FB4F80838091A00481116CC081E08093BA
:1022F0009F0484EA60C083E08093A20410923604B5
:10230000CFCF80913604803208F050C0E09136047F
:1023100081E08E0F809336048091BB00F0E0E95C91
:10232000FB4F8083BDCF80913604803230F4E09142
:102330003604F0E0E95CFB4F10820E94B810609117
:10234000360470E0E0919B04F0919C0487E394E0F4
:102350000995109236040E94C21036C084E0809322
:10236000A2041092580410925704E0919D04F09139
:102370009E04099580915704811105C081E08093E6
:10238000570410925904E091580481E08E0F809315
:102390005804F0E0E75AFB4F80818093BB00909196
:1023A000580480915704981708F47ACF85E88093F1
:1023B000BC000AC085EC8093BC001092A20404C04B
:1023C000109235040E94B810FF91EF91BF91AF9128
:1023D0009F918F917F916F915F914F913F912F913D
:1023E0000F900FBE0F901F901895DC01ED91FC919E
:1023F0000190F081E02D09940F93DC0113961C925B
:102400001E921297E4E5F2E0ED93FC9360931501C0
:102410004093140130931301209312010093A504FB
:102420000F9108951F93CF93DF931F92CDB7DEB71F
:10243000613031F0623031F0633031F010E005C0CE
:1024400010E403C014E101C014E560911201709121
:10245000130183EE93E049830E9412106EEF70E047
:1024600083EE93E00E94F51165E470E083EE93E063
:102470000E94F5114981642F70E0610F711D83EE98
:1024800093E00E94F51183EE93E00E942710609183
:10249000100170911101660F771F882777FD8095D5
:1024A000982F0F90DF91CF911F910C94201A40E04C
:1024B00060E00C941212CF93C62F609112017091BC
:1024C000130183EE93E00E9412106EEF70E083EE32
:1024D00093E00E94F5116C2F83EE93E00E94BF0FF2
:1024E00083EE93E00E94271060911001709111011A
:1024F000882777FD8095982FCF910C94201A61E55D
:102500000C945B1261E40C945B1268E40C945B1213
:102510006CE40C945B12CF93DF93EC0183EE93E0B9
:102520000E94FE0FCE010E948212CE010E947F12F5
:10253000CE010E948812CE010E948512CE01DF9149
:10254000CF910C945712CF93C62F609112017091C6
:10255000130183EE93E00E9412106C2F83EE93E040
:102560000E94BF0F83EE93E00E9427106091A304A6
:102570007091A404882777FD8095982F0E94201AD7
:10258000CF910895089508950895089561E0FC019C
:1025900082810C94141B60E0FC0182810C94141B5A
:1025A0000F931F93CF93DF93DC0128E030E000E826
:1025B00010E080E090E051E0E02FE42309F450E0E7
:1025C0001123E1F0FC01EE0FFF1FEE0FFF1FE60FDE
:1025D000F71F552329F01696CD91DC91179704C06B
:1025E0001496CD91DC911597D183C0831496CD912B
:1025F000DC911597D383C2830196512F0695215004
:10260000310911F0152FD7CFDF91CF911F910F9185
:102610000895CF93DF93EC018FE9860F8A3140F460
:10262000E62FFF27E7FDF095E950FE4F408143C0BC
:1026300080ED860F8A3028F0E2E7F2E080E090E05B
:102640002EC0E62FFF27E7FDF0959F0120533109AB
:10265000A1E0263031051CF0A0E0255031096C8145
:102660007D81FE0180E090E0B0E041E050E0821723
:10267000930714F040E050E04A175B0719F44C81CF
:102680005D8102C04E815F8157874687718B608B69
:10269000019634968530910541F719C00196208145
:1026A000222381F032962613F9CFFC01EE0FFF1F93
:1026B000EE58FD4F4181BE01625F7F4FCE010E9407
:1026C000D01205C021E030E081E090E002C020E0BF
:1026D00030E0FC01EE0FFF1FDF011696AA0FBB1FB3
:1026E000AC0FBD1F8E819F818D939C933796EE0F0B
:1026F000FF1FEC0FFD1F11821082C901DF91CF91E6
:10270000089561E0FC0182810C94DB1ACF92DF9284
:10271000EF92FF92CF93DF93EC016A017B0120E0FF
:1027200030E040E85FE3C701B6010E94EF2587FD76
:1027300015C020E030E048E452E4C701B6010E9431
:1027400001279B01AC0160E070E68AE697E40E94F5
:10275000F3250E945B26362F272F02C030EB24E0A2
:10276000832F922F1816190614F081E090E09D83B4
:102770008C839C01220F331F280F391F3F832E8328
:10278000DF91CF91FF90EF90DF90CF9008950F935E
:102790001F93CF93DF9300D000D0CDB7DEB78C016D
:1027A00080E892E0F80191838083738362836AEC0E
:1027B00071E0C801089629833A834B835C830E94A9
:1027C0006C2429813A814B815C81BA01A901C8013D
:1027D0000F900F900F900F90DF91CF911F910F915D
:1027E0000C948613CF93DF93EC0108960E94822409
:1027F0008C859D859FA78EA788A980FD09C0E8814B
:10280000F9810280F381E02DCE01DF91CF9109940F
:10281000DF91CF910895CF93DF93EC011FA61EA601
:102820008C859D85892B21F160E070E0CE010896B2
:102830000E949924FC016081CE010E94091399AB8A
:1028400088ABE881F9810480F581E02DCE010995FE
:1028500088A980FD07C0E881F9810190F081E02D11
:10286000CE0109950E94F1196AAB7BAB8CAB9DAB95
:10287000DF91CF910895CF92DF92EF92FF92CF93A5
:10288000DF93EC012EA53FA58C859D852817390780
:1028900008F06DC00E94F1196B017C018AA99BA907
:1028A000ACA9BDA9C81AD90AEA0AFB0AE8A9F9A97C
:1028B000DF011796AA0FBB1FAC0FBD1F8D919C9116
:1028C000AA2797FDA095BA2FC816D906EA06FB06D7
:1028D00008F44FC0CF01019699AB88AB3896EE0F44
:1028E000FF1FEC0FFD1F80819181892B29F56EA5BB
:1028F0007FA56F5F7F4F7FA76EA78C859D8568172B
:10290000790778F0E881F9810280F381E02DCE012A
:102910000995E881F9810680F781E02DCE010995BE
:1029200026C0CE0108960E949924FC016081CE0148
:102930000E94091399AB88AB4AA95BA96CA97DA930
:102940004C0D5D1D6E1D7F1D4AAB5BAB6CAB7DAB53
:1029500088A9E881F98180FD04C00190F081E02D13
:1029600003C00280F381E02DCE01099502C080E012
:1029700001C081E0DF91CF91FF90EF90DF90CF9089
:102980000895CF93DF93EC010E940B14CE010E94B7
:102990003B148111FBCFDF91CF910895CF93DF934B
:1029A000EC010E94C7138CE892E099838883DF9141
:1029B000CF910895FC0110820895AF92BF92DF92EB
:1029C000EF92FF920F931F93CF93DF93CDB7DEB7B4
:1029D000EDB6FEB6842F90E0880F991FFC0131966A
:1029E000ADB7BEB7AE1BBF0B0FB6F894BEBF0FBEE0
:1029F000ADBF0DB71EB70F5F1F4FD801D62E5B01BD
:102A00005A2D5D195417C8F4B501F501508152953E
:102A10005F7050635A3308F0595F5C93FFEFAF1A51
:102A2000BF0AFB0150815F7050635A3308F0595F51
:102A300011965C9311971296E3CFF801E80FF91FF6
:102A40001082B90189EB94E00E949A1EB80189EBCB
:102A500094E00E94C91E0FB6F894FEBE0FBEEDBEF4
:102A6000DF91CF911F910F91FF90EF90DF90BF907A
:102A7000AF900895FC01508150FD0C94DD14089531
:102A8000DC01ED91FC910190F081E02D0994FC01B5
:102A9000608341833383228308956EEF70E089E081
:102AA00095E00E9440156EEF70E089E095E00C948F
:102AB00040156DEF70E089E095E00C9440152F9281
:102AC0003F924F925F926F927F928F929F92AF92BE
:102AD000BF92CF92DF92EF92FF920F931F93CF930B
:102AE000DF93CDB7DEB72B970FB6F894DEBF0FBEDE
:102AF000CDBF9B878A874B014987493008F053C077
:102B0000CE0101965C01E12CF12CC12CD12C242E9C
:102B1000312C9AE0492E512C612C712CE214F304D3
:102B200004F5B801C901A30192010E948827F501AB
:102B300061935F0189019A01E0FE0FC0D401AC0DE1
:102B4000BD1D84E0660F771F8A95E1F7329780817B
:102B5000862B8C93FFEFCF1ADF0A8FEFE81AF80A63
:102B6000DDCF20E231E04985B401EA85FB85828131
:102B700093812B960FB6F894DEBF0FBECDBFDF91C9
:102B8000CF911F910F91FF90EF90DF90CF90BF906A
:102B9000AF909F908F907F906F905F904F903F90FD
:102BA0002F900C943A152B960FB6F894DEBF0FBEFB
:102BB000CDBFDF91CF911F910F91FF90EF90DF90EC
:102BC000CF90BF90AF909F908F907F906F905F90CD
:102BD0004F903F902F9008952F923F924F925F9287
:102BE0006F927F928F929F92AF92BF92CF92DF921D
:102BF000EF92FF920F931F93CF93DF93CDB7DEB782
:102C000062970FB6F894DEBF0FBECDBF9F878E8749
:102C1000342E252EAB0149017E0189E0E80EF11C1E
:102C200085E0F70111928A95E9F72930310508F01E
:102C300044C0CE0101965C0100E010E0C12CD12C13
:102C40009AE0492E512C612C712C0815190559F167
:102C5000632D722DCA01A30192010E948827F501FC
:102C600061935F01322E232E00FF1AC084E0660FAD
:102C7000771F8A95E1F732972081262B622F89E012
:102C800095E0288B498B5A8B0E94B71CF701EC0DFD
:102C9000FD1D28892083FFEFCF1ADF0A5A89498951
:102CA0000F5F1F4FD2CF2CE231E0402FB701EE85EE
:102CB000FF85828193810E943A1562960FB6F8943F
:102CC000DEBF0FBECDBFDF91CF911F910F91FF905F
:102CD000EF90DF90CF90BF90AF909F908F907F90BC
:102CE0006F905F904F903F902F900895DF92EF92FA
:102CF000FF920F931F93CF93DF937C01EB0110E0C2
:102D000089E095E00E94441C019621F41A3031F5C7
:102D1000D12C2CC0D12C1A3049F189E095E00E94C9
:102D2000391C892B51F08E010D0D111D89E095E0A4
:102D30000E94521CF8018083D394FE01ED0DF11D19
:102D4000319780818D3F49F72BE331E04D2DBE0156
:102D5000F701828193810E943A1508C06AE070E011
:102D600080E090E00E94201A1F5FCACF8D2DDF9176
:102D7000CF911F910F91FF90EF90DF900895CF9228
:102D8000DF92EF92FF920F931F93CF93DF93CDB714
:102D9000DEB7C058D1090FB6F894DEBF0FBECDBF65
:102DA0008C017B01C42E25E0D22EBE016F5F7F4FC8
:102DB000C8010E947616882309F43FC099819E3F7E
:102DC000E1F59A819E3FC9F52B81F8019081291385
:102DD00034C02C819181291330C0FE01E80FF11D10
:102DE00090819D3F51F5C11002C065E001C066E0D1
:102DF000D12C70E08250282F30E0261B370BED2DB0
:102E0000F0E02E173F077CF0D701AE0FBF1F81E027
:102E100090E08C0F9D1FE80FF91FE60FF71F8081D0
:102E20008C93D394ECCF22E531E04D2DB701F8011E
:102E3000828193810E943A1509C064E670E080E0C7
:102E400090E00E94201ADA9409F0AFCF8D2DC0587F
:102E5000DF4F0FB6F894DEBF0FBECDBFDF91CF912D
:102E60001F910F91FF90EF90DF90CF900895CF9337
:102E7000DF93CDB7DEB7C058D1090FB6F894DEBFE7
:102E80000FBECDBF40E0BE016F5F7F4F0E94BF16F7
:102E9000882361F089818B3F31F08A818A3F31F448
:102EA00080E090E005C081E090E002C082E090E028
:102EB000C058DF4F0FB6F894DEBF0FBECDBFDF9115
:102EC000CF9108950F931F93CF93DF93EC018B0164
:102ED0000E944D15698189E095E00E94B71C6881C8
:102EE00089E095E00E94B71C66E070E089E095E01B
:102EF0000E944015B80189E095E00E944015CE017E
:102F00000E945915CE01DF91CF911F910F910C9422
:102F10003717CF92DF92EF92FF92CF93DF93EC01BE
:102F20006A017B010E944D15698189E095E00E944C
:102F3000B71C688189E095E00E94B71C65E070E0ED
:102F400089E095E00E94401528E030E0B701A60135
:102F5000CE010E94EC15CE010E945915CE01DF91E1
:102F6000CF91FF90EF90DF90CF900C943717EF92B6
:102F7000FF920F931F93CF93DF931F92CDB7DEB7CE
:102F80007C018B0149830E944D15F701618189E025
:102F900095E00E94B71CF701608189E095E00E94EE
:102FA000B71C64E170E089E095E00E944015B8012B
:102FB00089E095E00E9440154981642F89E095E001
:102FC0000E94B71CC7010E945915C7010F90DF91DD
:102FD000CF911F910F91FF90EF900C9437170F93A3
:102FE0001F93CF93DF93EC018B010E944D156981F4
:102FF00089E095E00E94B71C688189E095E00E9415
:10300000B71C64E170E089E095E00E944015B801CA
:1030100089E095E00E944015CE010E945915CE012D
:10302000DF91CF911F910F910C943717CF92DF92C0
:10303000EF92FF920F931F93CF93DF93CDB7DEB73D
:1030400028970FB6F894DEBF0FBECDBF7C016B0191
:10305000042F0E944D15F701618189E095E00E94DF
:10306000B71CF701608189E095E00E94B71C6AE116
:1030700070E089E095E00E94401563E070E089E02F
:1030800095E00E944015B60189E095E00E94401548
:10309000CA94CD2889F410E020E030E044E0BE017D
:1030A0006F5F7F4FC7010E945F156A8189E095E0DD
:1030B0000E94B71C698101C0602F89E095E00E94E1
:1030C000B71CC7010E945915C7010E9437172896DF
:1030D0000FB6F894DEBF0FBECDBFDF91CF911F9129
:1030E0000F91FF90EF90DF90CF900895853008F01A
:1030F0004CC0E82FF0E0EE0FFF1FEA55FB4F718345
:1031000060838230E1F018F4813069F004C08330CC
:1031100019F1843071F1809169008C7F842B809348
:103120006900E89A089580916900440F551F440F83
:10313000551F837F842B80936900E99A08958091BD
:10314000690034E0440F551F3A95E1F78F7C842BDA
:1031500080936900EA9A08958091690026E0440FFF
:10316000551F2A95E1F78F73842B80936900EB9AA2
:10317000089580916A0094E0440F551F9A95E1F7F5
:103180008F7C842B80936A00EE9A08951F920F9291
:103190000FB60F9211242F933F934F935F936F932A
:1031A0007F938F939F93AF93BF93EF93FF93809100
:1031B000A6049091A704892B29F0E091A604F09130
:1031C000A7040995FF91EF91BF91AF919F918F91C6
:1031D0007F916F915F914F913F912F910F900FBE13
:1031E0000F901F9018951F920F920FB60F921124F7
:1031F0002F933F934F935F936F937F938F939F93FF
:10320000AF93BF93EF93FF938091A8049091A9048B
:10321000892B29F0E091A804F091A9040995FF9168
:10322000EF91BF91AF919F918F917F916F915F913E
:103230004F913F912F910F900FBE0F901F901895B7
:103240001F920F920FB60F9211242F933F934F931B
:103250005F936F937F938F939F93AF93BF93EF93FE
:10326000FF938091AA049091AB04892B29F0E091FF
:10327000AA04F091AB040995FF91EF91BF91AF9132
:103280009F918F917F916F915F914F913F912F917E
:103290000F900FBE0F901F9018951F920F920FB6B0
:1032A0000F9211242F933F934F935F936F937F93CC
:1032B0008F939F93AF93BF93EF93FF938091AC0451
:1032C0009091AD04892B29F0E091AC04F091AD040C
:1032D0000995FF91EF91BF91AF919F918F917F9150
:1032E0006F915F914F913F912F910F900FBE0F9073
:1032F0001F9018951F920F920FB60F9211242F93C3
:103300003F934F935F936F937F938F939F93AF936D
:10331000BF93EF93FF938091AE049091AF04892BFC
:1033200029F0E091AE04F091AF040995FF91EF917F
:10333000BF91AF919F918F917F916F915F914F91CD
:103340003F912F910F900FBE0F901F9018951F92D5
:103350000F920FB60F9211242F933F938F939F9349
:10336000AF93BF938091B1049091B204A091B30444
:10337000B091B4043091B00423E0230F2D3720F432
:103380000196A11DB11D05C026E8230F0296A11DBF
:10339000B11D2093B0048093B1049093B204A09324
:1033A000B304B093B4048091B5049091B604A09195
:1033B000B704B091B8040196A11DB11D8093B50466
:1033C0009093B604A093B704B093B804BF91AF91A3
:1033D0009F918F913F912F910F900FBE0F901F9053
:1033E00018952FB7F8946091B1047091B204809150
:1033F000B3049091B4042FBF08953FB7F89480911F
:10340000B5049091B604A091B704B091B80426B564
:10341000A89B05C02F3F19F00196A11DB11D3FBF0C
:103420006627782F892F9A2F620F711D811D911D9C
:1034300042E0660F771F881F991F4A95D1F70895BC
:10344000CF92DF92EF92FF92CF93DF936B017C01DB
:103450000E94FD19EB01C114D104E104F10489F0CB
:103460000E94AB240E94FD196C1B7D0B683E7340CB
:1034700090F381E0C81AD108E108F108C851DC4F87
:10348000EACFDF91CF91FF90EF90DF90CF9008953A
:10349000789484B5826084BD84B5816084BD85B52F
:1034A000826085BD85B5816085BDEEE6F0E08081F6
:1034B00081608083E1E8F0E0108280818260808317
:1034C000808181608083E0E8F0E08081816080839A
:1034D000E1E9F0E080818260808380818160808387
:1034E000E0E9F0E0808181608083E1ECF0E08081C0
:1034F000846080838081826080838081816080831A
:10350000E3ECF0E0808181608083E0ECF0E080819A
:1035100082608083E2ECF0E0808181608083EAE772
:10352000F0E08081846080838081826080838081FC
:1035300081608083808180688083089590E0FC01B1
:103540003197EF30F105B0F5E158FF4F0C94C927E2
:10355000809180008F7703C0809180008F7D809361
:103560008000089580918000877FF9CF84B58F77A0
:1035700002C084B58F7D84BD0895809190008F77BF
:1035800007C0809190008F7D03C080919000877F5D
:103590008093900008958091C0008F7703C0809140
:1035A000C0008F7D8093C00008958091C200877F06
:1035B0008093C2000895CF93DF9390E0FC01E75B16
:1035C000FC4F2491FC01E959FC4F8491882349F177
:1035D00090E0880F991FFC01EF55FC4FA591B49125
:1035E0008D569C4FFC01C591D4919FB7611108C0C5
:1035F000F8948C91209582238C93888182230AC031
:10360000623051F4F8948C91322F309583238C934F
:103610008881822B888304C0F8948C91822B8C93B0
:103620009FBFDF91CF9108950F931F93CF93DF93A7
:103630001F92CDB7DEB7282F30E0F901E55DFC4FD2
:103640008491F901E75BFC4F1491F901E959FC4FB2
:1036500004910023C9F0882321F069830E949E1AF7
:103660006981E02FF0E0EE0FFF1FED56FC4FA591B2
:10367000B4919FB7F8948C91611103C01095812388
:1036800001C0812B8C939FBF0F90DF91CF911F9131
:103690000F910895CF93DF931F92CDB7DEB7698363
:1036A000DC01ED91FC910280F381E02D41E050E0DE
:1036B000BE016F5F7F4F09950F90DF91CF91089505
:1036C000CF93DF93EC018C859D8597FF05C082E049
:1036D0000E942B219D878C878C859D85DF91CF91C2
:1036E000089583E00C948023FC018485958597FDE3
:1036F00006C082E00E94D32090E00196089582E007
:103700000E94D32090E00895FC018485958597FD63
:1037100005C02FEF3FEF35872487089582E00C9492
:103720002B21CF93DF93EC0180911D01882331F091
:1037300083E00E945C211816190634F081E090E0C5
:103740009B838A8380E090E0DF91CF910895FC0114
:1037500020812E5F208342E450E06FEA73E080E82E
:103760000C94F721FC0181819081913A59F48132C6
:1037700009F03CC047E050E066E171E080E00E9463
:10378000F72143C0913291F5803239F467E070E05F
:1037900086E191E00E94282206C0823209F035C0FD
:1037A000828180931D018091160190911701A09153
:1037B0001801B0911901803B9440A105B105C1F4F5
:1037C00080911D0180FD14C087E797E79093010861
:1037D000809300082BE088E190E00FB6F894A8955C
:1037E000809360000FBE209360000FC080E00895BA
:1037F00088E10FB6F89480936000109260000FBECD
:10380000A895109201081092000881E008952FEF0A
:103810003FEFFC01358724870895CF93C0911D01A8
:103820006AE070E080E090E00E94201A81E0C1111F
:1038300001C080E0CF9108951092BC041092BB04A7
:1038400088EE93E0A0E0B0E08093BD049093BE04C6
:10385000A093BF04B093C00488E992E09093BA04A7
:103860008093B9048FEF9FEF9093C6048093C504B3
:103870000895FC01818D228D90E0805C9F4F821B1A
:1038800091098F7399270895FC01918D828D981766
:1038900031F0828DE80FF11D858D90E008958FEF56
:1038A0009FEF0895FC01918D828D981761F0828DB4
:1038B000DF01A80FB11D5D968C91928D9F5F9F7364
:1038C000928F90E008958FEF9FEF089586ED9DE130
:1038D000892B49F080E090E0892B29F00E94D61DC9
:1038E00081110C9400000895FC01848DDF01A80F64
:1038F000B11DA35ABF4F2C91848D90E001968F7318
:103900009927848FA689B7892C93A089B1898C9136
:1039100080648C93938D848D981306C00288F389FC
:10392000E02D80818F7D80830895CF93DF93EC011C
:10393000888D8823C9F0EA89FB89808185FD05C0CF
:10394000A889B9898C9186FD0FC00FB607FCF5CF09
:10395000808185FFF2CFA889B9898C9185FFEDCF51
:10396000CE010E94741CE7CFDF91CF910895CF92D2
:10397000DF92FF920F931F93CF93DF931F92CDB7E8
:10398000DEB76C01DC015B969C915B975C968C9139
:103990005C97981307C05096ED91FC9151978081E8
:1039A00085FD32C0F601038D10E00F5F1F4F0F73CE
:1039B0001127F02EF601848DF81211C00FB607FC06
:1039C000F9CFD6015096ED91FC915197808185FFFA
:1039D000F1CFC60169830E94741C6981EBCF838D8E
:1039E000E80FF11DE35AFF4F6083D6015B960C93FD
:1039F0005B975296ED91FC91539780818062808312
:103A000081E058968C930DC0D6015696ED91FC91AD
:103A1000579760835096ED91FC9151978081806417
:103A2000808381E090E00F90DF91CF911F910F9103
:103A3000FF90DF90CF900895BF92CF92DF92EF92E8
:103A4000FF92CF93DF93EC016A017B01B22EE889EC
:103A5000F98982E08083411581EE5807610571057F
:103A6000A1F060E079E08DE390E0A70196010E946B
:103A700088272150310941095109569547953795B5
:103A80002795211580E1380798F0E889F989108297
:103A900060E874E88EE190E0A70196010E94882713
:103AA0002150310941095109569547953795279578
:103AB000EC85FD853083EE85FF852083188EEC89AB
:103AC000FD89B082EA89FB89808180618083EA89EF
:103AD000FB89808188608083EA89FB898081806896
:103AE0008083EA89FB8980818F7D8083DF91CF91FC
:103AF000FF90EF90DF90CF90BF9008951F920F92AC
:103B00000FB60F9211242F938F939F93EF93FF93F0
:103B1000E0911905F0911A058081E0911F05F0915F
:103B2000200582FD12C09081809122058F5F8F73E6
:103B300020912305821751F0E0912205F0E0E75F24
:103B4000FA4F958F8093220501C08081FF91EF91FC
:103B50009F918F912F910F900FBE0F901F901895EE
:103B60001F920F920FB60F9211242F933F934F93F2
:103B70005F936F937F938F939F93AF93BF93EF93D5
:103B8000FF9389E095E00E94741CFF91EF91BF9133
:103B9000AF919F918F917F916F915F914F913F91E5
:103BA0002F910F900FBE0F901F90189589E095E010
:103BB0000E94391C21E0892B09F420E0822F08950E
:103BC00010920C0510920B0588EE93E0A0E0B0E097
:103BD00080930D0590930E05A0930F05B0931005EB
:103BE00088EA92E090930A05809309058DEC90E0B5
:103BF00090931605809315058CEC90E09093180532
:103C00008093170588EC90E090931A05809319052E
:103C100089EC90E090931C0580931B058AEC90E062
:103C200090931E0580931D058EEC90E090932005E7
:103C300080931F05109222051092230510922405EF
:103C400010922505089508950E94481A0E94231E87
:103C50008DEA95E00E94E0230E945406C6E6DCE16E
:103C60000E9414082097E1F30E94661CF9CFCF92BE
:103C7000DF92EF92FF920F931F93CF93DF936C012C
:103C80007A01EB01E60EF71E00E010E0CE15DF052D
:103C900061F06991D601ED91FC910190F081E02DE8
:103CA000C6010995080F191FF1CFC801DF91CF9107
:103CB0001F910F91FF90EF90DF90CF9008956115C5
:103CC000710581F0DB010D900020E9F7AD01415055
:103CD0005109461B570BDC01ED91FC910280F381E9
:103CE000E02D099480E090E00895EF92FF920F9309
:103CF0001F93CF93DF938C01FB01C0E0D0E0649170
:103D00007F018FEFE81AF80A662361F0D801ED9180
:103D1000FC910190F081E02DC8010995C80FD91FD1
:103D2000F701EDCFCE01DF91CF911F910F91FF9061
:103D3000EF9008950C945F1EDC01ED91FC910190D1
:103D4000F081E02D09940F931F93CF93DF93EC0143
:103D50006DE00E949C1E8C016AE0CE010E949C1EB8
:103D6000800F911FDF91CF911F910F9108950F93B5
:103D70001F93CF93DF93EC010E94751E8C01CE013F
:103D80000E94A31E800F911FDF91CF911F910F9171
:103D900008950F931F93CF93DF93EC010E945F1E52
:103DA0008C01CE010E94A31E800F911FDF91CF9145
:103DB0001F910F9108958F929F92AF92BF92CF92D1
:103DC000DF92EF92FF920F931F93CF93DF93CDB7C4
:103DD000DEB7A1970FB6F894DEBF0FBECDBF7C0152
:103DE000C42EE52FCB01D22E19A221E02D1510F003
:103DF0002AE0D22E8E010F5D1F4F8D2C912CA12C0D
:103E0000B12C6C2D7E2FA50194010E9488278C2D4A
:103E1000D29E80191124015011098A3014F4805D5A
:103E200001C0895CF80180832115310541055105E8
:103E300021F0C22EE32FCA01E4CFB801C7010E94CE
:103E40005F1EA1960FB6F894DEBF0FBECDBFDF9107
:103E5000CF911F910F91FF90EF90DF90CF90BF9087
:103E6000AF909F908F900895CF92DF92EF92FF9244
:103E70000F931F93CF93DF93EC016A017B01211510
:103E8000310579F4E881F9810190F081E02D642F0A
:103E9000DF91CF911F910F91FF90EF90DF90CF9026
:103EA00009942A303105E9F477FF1AC06DE20E94C7
:103EB0009C1E8C0144275527BA014C195D096E09D7
:103EC0007F092AE0CE010E94DB1E800F911FDF9147
:103ED000CF911F910F91FF90EF90DF90CF900895B9
:103EE0002AE0B701A601CE01DF91CF911F910F917A
:103EF000FF90EF90DF90CF900C94DB1E9A01AB0106
:103F0000662757FD6095762F0C94341F0F931F93EF
:103F1000CF93DF93EC019A01AB01662757FD6095C3
:103F2000762F0E94341F8C01CE010E94A31E800FA9
:103F3000911FDF91CF911F910F91089521153105A8
:103F400041F4DC01ED91FC910190F081E02D642FB2
:103F500009940C94DB1E9A01462F50E060E070E05B
:103F60000C949E1F0F931F93CF93DF93EC019A0144
:103F7000462F50E060E070E00E949E1F8C01CE0151
:103F80000E94A31E800F911FDF91CF911F910F916F
:103F900008958230A1F028F4882341F0813049F05F
:103FA0000895833091F08430B1F0089510926E003E
:103FB000089580916F008D7F80936F0008958091A8
:103FC00070008D7F809370000895809171008D7FC7
:103FD000809371000895809172008F7B80937200AE
:103FE00008951F920F920FB60F9211242F933F93B3
:103FF0004F935F936F937F938F939F93AF93BF93F1
:10400000EF93FF938091A9059091AA05A091AB052C
:10401000B091AC05892B8A2B8B2B51F19091A60581
:10402000E091A705F091A805808189278083809180
:10403000A9059091AA05A091AB05B091AC05181601
:1040400019061A061B062CF58091A9059091AA0560
:10405000A091AB05B091AC050197A109B10980937E
:10406000A9059093AA05A093AB05B093AC0511C028
:1040700083E00E94C91F2091A605E091A705F09159
:10408000A805808190E030E020953095822393232D
:104090008083FF91EF91BF91AF919F918F917F911D
:1040A0006F915F914F913F912F910F900FBE0F90A5
:1040B0001F9018954091B1055091B2052091AF0520
:1040C0003091B00542175307B4F49091E800957011
:1040D000E1F39091E80092FD19C08093F100809186
:1040E000B1059091B20501968F739927892B19F428
:1040F0008EEF8093E8008091B1059091B205019612
:104100009093B2058093B10581E0089580E0089511
:10411000CF92DF92FF920F931F93CF93DF931F9263
:10412000CDB7DEB7082F162F862F880F8E5F9983A5
:104130000E945A2083E00E945A20F02EC02E9981BE
:10414000D92E8C2D8F19811778F4F60184910E9455
:104150005A20082F80E00E945A208023FFEFCF1AB8
:10416000DF0A8111EECF01C081E00F90DF91CF9186
:104170001F910F91FF90DF90CF900895615030F024
:104180002091F100FC0120830196F8CF289884E665
:104190008093B40508952FB7FC012083F8946770CD
:1041A0006093E9000895CF93DF931F92CDB7DEB7F8
:1041B000682FCE0101960E94CB208091F200998158
:1041C0009FBF0F90DF91CF910895FF920F931F93A0
:1041D000CF93DF9300D0CDB7DEB7F62E8A01909152
:1041E000B305992311F057FF03C08FEF9FEF2BC04A
:1041F000682FCE0101967A830E94CB208091F20035
:1042000090E0A8017A81801791070CF4AC01EF2DA2
:10421000F72FF40E84E6FE1639F028988093B40543
:104220009091F1009193F7CF4115510521F08091C4
:10423000F200882321F089818FBFCA0104C08BE678
:104240008093E800F8CF0F900F90DF91CF911F91EE
:104250000F91FF900895CF93DF931F92CDB7DEB7F4
:1042600041E050E0BE016F5F7F4F0E94E520019763
:1042700019F4898190E002C08FEF9FEF0F90DF91DA
:10428000CF910895CF93DF931F92CDB7DEB7682FFC
:10429000CE0101960E94CB209091E800892F807278
:1042A00095FF04C09091F20080E4891B99819FBF23
:1042B0000F90DF91CF9108956F927F928F929F928E
:1042C000AF92BF92CF92DF92EF92FF920F931F9324
:1042D000CF93DF931F92CDB7DEB7782E7B01C42E2C
:1042E000B52E8091B305882369F0042F152F8AEF2E
:1042F000D82E872D8072982E9AE3A92E872D807450
:10430000882E11C08FEF9FEF57C0872D0E9442214A
:10431000682E81110CC0DA94A9F361E070E080E0AE
:1043200090E00E94201A0115110579F73BC0282F53
:1043300030E0021713070CF4602E672DCE010196B2
:104340000E94CB208091E80085FF29C0262D30E017
:10435000021B130B992039F06A948FEF6816B1F0A5
:104360001092F100F9CFF701862D77FE07C081503A
:1043700058F094919093F1003196F9CF815020F04C
:1043800091919093F100FACFE20EF31E8091E80034
:1043900085FF0FC00115110511F481100AC0898134
:1043A0008FBFC1CF5D9884E68093B5058C2D9B2D82
:1043B00003C0A092E800F3CF0F90DF91CF911F913F
:1043C0000F91FF90EF90DF90CF90BF90AF909F90B4
:1043D0008F907F906F9008951092E9001092B2052F
:1043E0001092B1059093B0058093AF050895CF92D8
:1043F000DF92FF920F931F93CF93DF9300D0CDB73F
:10440000DEB7F82E8A016B0101151105B1F0F60136
:10441000F7FE02C0849101C0808149835A830E94C3
:104420005A2001501109FFEFCF1ADF0A49815A8142
:104430008111EACF8FEF9FEF01C0CA010F900F905B
:10444000DF91CF911F910F91FF90DF90CF90089552
:104450001F93CF93DF931F92CDB7DEB7162F209116
:10446000E80022FFFCCF612F79830E94BE208BEFF2
:104470008093E800812F7981972F0F90DF91CF9162
:104480001F910895CF93DF931F92CDB7DEB71982A6
:10449000CE0101960E94A71BCE0101960E94CA245C
:1044A000898190E00F90DF91CF9108951F920F9234
:1044B0000FB60F921124EF92FF920F931F932F9339
:1044C0003F934F935F936F937F938F939F93AF939C
:1044D000BF93EF93FF93CF93DF93CDB7DEB7629790
:1044E000DEBFCDBF1092E9008091E80083FFEBC0F2
:1044F00068E0CE010A960E94BE2082EF8093E80019
:104500009A8597FF05C08091E80080FFFCCF03C02B
:104510008EEF8093E800892F807609F0B9C08B85F3
:10452000811105C01092F1001092F100C5C0282F32
:104530002D7F213009F4C0C0853049F48091E80016
:1045400080FFFCCF8C8580688093E300B5C0863007
:1045500009F076C02D85E888F988223071F580E071
:1045600090E02A8B0E94EC210E94422299E08E0169
:104570000F5F1F4FF801392F11923A95E9F7998390
:104580002A892A8391E09E8390E898879AEF9987F9
:104590002091B1053091B205275F3F4F3C832B83BB
:1045A0008D83C7010E94EC2149E050E0B80180E012
:1045B0000E94F7210E9442227FC0C7012A8B0E94DD
:1045C000EC212A89223241F482E290E00E94D52433
:1045D000892B09F071C074C0213069F488899989E8
:1045E000089711F42093AE058091AE05811118C093
:1045F00068E074E01AC0233009F062C08C8588231B
:1046000091F0823021F460E186E294E006C08130CE
:1046100009F056C06BE08AE194E00E9488204AC00D
:1046200066EF73E002C067E374E06115710509F499
:1046300047C0FB01449150E080E80E94F7213CC054
:10464000873009F43DC0883021F481E08093F10087
:1046500033C0893089F5937099F5E2EFF3E081E09A
:1046600021E096E38093E9002093EB0034913093AE
:10467000EC009093ED008F5F3196853099F78EE7CF
:104680008093EA001092EA008C858093B30514C0F1
:10469000888999890E94EC218E85811105C0CE01FF
:1046A0000A960E94B21B06C0823051F4CE010A96CF
:1046B0000E94FD24882321F08EEF8093E80003C040
:1046C00081E28093EB0062960FB6F894DEBF0FBED6
:1046D000CDBFDF91CF91FF91EF91BF91AF919F91AE
:1046E0008F917F916F915F914F913F912F911F918A
:1046F0000F91FF90EF900F900FBE0F901F901895A5
:104700008093E9008091F200882319F08AE3809376
:10471000E80008951F920F920FB60F9211242F9365
:104720003F934F935F936F937F938F939F93AF9339
:10473000BF93EF93FF938091E1001092E10083FF1C
:104740000FC01092E90091E09093EB001092EC0002
:1047500092E39093ED001092B30598E09093F000EF
:1047600082FF1DC083E00E9480238091B5058823CD
:1047700039F08091B50581508093B505882369F0A3
:104780008091B405882359F08091B40581508093BD
:10479000B405811104C0289A02C05D9AF1CFFF913F
:1047A000EF91BF91AF919F918F917F916F915F91A9
:1047B0004F913F912F910F900FBE0F901F90189522
:1047C0001092B30581E08093D70080EA8093D800EF
:1047D00082E189BD09B400FEFDCF61E070E080E0B8
:1047E00090E00E94201A80E98093D8008CE08093AA
:1047F000E2001092E000559A209A0895FC01808111
:1048000091810C949D28CF93DF93EC01888199814D
:10481000009711F00E949D28198218821D821C8227
:104820001B821A82DF91CF9108950F931F93CF932C
:10483000DF93EC018B016F5F7F4F888199810E942C
:104840002C29009731F0998388831B830A8381E0A8
:1048500001C080E0DF91CF911F910F910895CF9318
:10486000DF93EC0188819981892B29F08A819B81D2
:104870008617970760F4CE010E941524882341F023
:104880008C819D81892B19F4E881F981108281E066
:10489000DF91CF910895EF92FF920F931F93CF93E3
:1048A000DF93EC017B018A01BA010E942F24811160
:1048B00004C0CE010E94032407C01D830C83B701EE
:1048C000888199810E941D2ACE01DF91CF911F918D
:1048D0000F91FF90EF900895FC01118210821382D6
:1048E0001282158214826115710559F0FB01019045
:1048F0000020E9F7AF0141505109461B570B0C94BA
:104900004B240895CF93DF93EC01FB0186179707A3
:1049100061F0608171816115710529F044815581D3
:104920000E944B2402C00E940324CE01DF91CF914C
:104930000895FC01848195816817790720F48081AE
:104940009181009729F41092B60586EB95E00895C1
:10495000860F971F08950895FF920F931F93CF938B
:10496000DF93EC01F62EE881F9810480F581E02DDA
:1049700009958C01E881F9810680F781E02D6F2D82
:10498000CE010995C8019927DF91CF911F910F9111
:10499000FF900895FC0120812F5F208349E150E0C2
:1049A0006BEB74E080E80C94F72145E650E064ED91
:1049B00074E080E80C94F721EF92FF920F931F931D
:1049C000CF93DF931F92CDB7DEB789838B017A0136
:1049D00041E050E0BE016F5F7F4F84E00E945C21A8
:1049E000A701B80184E40E945C210F90DF91CF9170
:1049F0001F910F91FF90EF900895FC0191818081AC
:104A0000813A31F481E0913091F0933089F411C012
:104A1000813271F49B3021F4828180931F0105C0A3
:104A20009A3031F4828180931E0181E008950895C7
:104A300080E0089548E050E082E00C94DC24CF93BD
:104A4000DF93DC01683818F0E8E7E60F25C0E62FB1
:104A5000F0E067FF11C0E058F10981E090E001C08B
:104A6000880FEA95EAF714969C911497982B149660
:104A70009C931497E0E010C0E55CFB4FE491EE23BB
:104A800009F440C0E7FF08C014968C911497826027
:104A900014968C931497EF7716968C9116978E1721
:104AA00041F117968C9117978E1719F118968C91E2
:104AB00018978E17F1F019968C9119978E17C9F0E7
:104AC0001A968C911A978E17A1F01B968C911B97B2
:104AD0008E1779F080E090E0ED01C80FD91F2E818C
:104AE000211102C0EE8305C0019686309105A1F721
:104AF00009C0BD016C5F7F4FCD010E941A2581E086
:104B000090E008C081E090E013969C938E931297FA
:104B100080E090E0DF91CF910895683818F0E8E7E1
:104B2000E60F25C0E62FF0E067FF12C0E058F1095C
:104B300021E030E001C0220FEA95EAF72095DC0180
:104B400014963C911497322314963C93E0E00FC0E6
:104B5000E55CFB4FE491EE2329F1E7FF08C0DC019F
:104B600014962C9114972D7F14962C93EF7720E0B8
:104B700030E0EE2351F0DC01A20FB31F16964C91EA
:104B800016974E1302C016961C922F5F3F4F263089
:104B9000310579F7BC016C5F7F4F0E941A2581E0D7
:104BA00090E0089580E090E00895FC01168217825D
:104BB00010861186128613861482BC016C5F7F4FAB
:104BC0000C941A251092C3051092BA051092B905DB
:104BD00088EB92E09093B8058093B70508959CD038
:104BE00008F481E008950CD0D2C0CAD040F0C1D002
:104BF00030F021F45F3F19F0B3C05111FCC0B6C0D2
:104C0000D7D098F39923C9F35523B1F3951B550BCE
:104C1000BB27AA2762177307840738F09F5F5F4F8F
:104C2000220F331F441FAA1FA9F333D00E2E3AF0D0
:104C3000E0E830D091505040E695001CCAF729D0EA
:104C4000FE2F27D0660F771F881FBB1F2617370739
:104C50004807AB07B0E809F0BB0B802DBF01FF2769
:104C600093585F4F2AF09E3F510568F079C0C3C04A
:104C70005F3FECF3983EDCF3869577956795B795A3
:104C8000F7959F5FC9F7880F911D9695879597F9BE
:104C90000895E1E0660F771F881FBB1F6217730737
:104CA0008407BA0720F0621B730B840BBA0BEE1F4C
:104CB00088F7E095089504D06894B1119CC00895D8
:104CC0007FD088F09F5790F0B92F9927B751A0F067
:104CD000D1F0660F771F881F991F1AF0BA95C9F790
:104CE00012C0B13081F086D0B1E0089583C0672F43
:104CF000782F8827B85F39F0B93FCCF38695779540
:104D00006795B395D9F73EF4909580957095619528
:104D10007F4F8F4F9F4F0895990F0008550FAA0B93
:104D2000E0E8FEEF16161706E807F907C0F01216BE
:104D30001306E407F50798F0621B730B840B950BC1
:104D400039F40A2661F0232B242B252B21F4089516
:104D50000A2609F4A140A6958FEF811D811D0895B3
:104D600097F99F6780E870E060E008959FEF80EC1E
:104D7000089500240A9416161706180609060895C1
:104D800000240A9412161306140605060895092E27
:104D90000394000C11F4882352F0BB0F40F4BF2B96
:104DA00011F460FF04C06F5F7F4F8F4F9F4F0895D6
:104DB00057FD9058440F551F59F05F3F71F04795CC
:104DC000880F97FB991F61F09F3F79F087950895B1
:104DD000121613061406551FF2CF4695F1DF08C0D0
:104DE000161617061806991FF1CF869571056105ED
:104DF00008940895E894BB2766277727CB0197F995
:104E000008950BD0C4CFB5DF28F0BADF18F0952392
:104E100009F0A6CFABCF1124EECFCADFA0F3959F48
:104E2000D1F3950F50E0551F629FF001729FBB2791
:104E3000F00DB11D639FAA27F00DB11DAA1F649F3D
:104E40006627B00DA11D661F829F2227B00DA11DF0
:104E5000621F739FB00DA11D621F839FA00D611D76
:104E6000221F749F3327A00D611D231F849F600D97
:104E7000211D822F762F6A2F11249F5750408AF0D0
:104E8000E1F088234AF0EE0FFF1FBB1F661F771F5C
:104E9000881F91505040A9F79E3F510570F060CF98
:104EA000AACF5F3FECF3983EDCF386957795679544
:104EB000B795F795E7959F5FC1F7FE2B880F911D7A
:104EC0009695879597F90895DB018F939F930E949C
:104ED000CF27BF91AF91A29F800D911DA39F900DF1
:104EE000B29F900D1124089597FB072E16F400949D
:104EF00007D077FD09D00E94E22707FC05D03EF4D9
:104F0000909581959F4F0895709561957F4F089575
:104F1000A1E21A2EAA1BBB1BFD010DC0AA1FBB1FBD
:104F2000EE1FFF1FA217B307E407F50720F0A21B2F
:104F3000B30BE40BF50B661F771F881F991F1A949C
:104F400069F760957095809590959B01AC01BD01C6
:104F5000CF010895052E97FB1EF400940E94C127EF
:104F600057FD07D00E94882707FC03D04EF40C940D
:104F7000C12750954095309521953F4F4F4F5F4F3A
:104F8000089590958095709561957F4F8F4F9F4FB5
:104F90000895EE0FFF1F0590F491E02D09940E94F3
:104FA000F627A59F900DB49F900DA49F800D911D95
:104FB00011240895B7FF0C94CF270E94CF27821B9E
:104FC000930B0895AA1BBB1B51E107C0AA1FBB1F6F
:104FD000A617B70710F0A61BB70B881F991F5A9585
:104FE000A9F780959095BC01CD010895A29FB001CD
:104FF000B39FC001A39F700D811D1124911DB29F0D
:10500000700D811D1124911D0895CF93DF9382307F
:10501000910510F482E090E0E091C605F091C7059B
:1050200020E030E0A0E0B0E0309739F140815181DC
:1050300048175907B8F04817590771F482819381CE
:10504000109729F013969C938E9312972CC09093EF
:10505000C7058093C60527C02115310531F04217D9
:10506000530718F0A901DB0101C0EF019A01BD014E
:10507000DF010280F381E02DD7CF21153105F9F052
:10508000281B390B2430310580F48A819B816115FE
:10509000710521F0FB019383828304C09093C705BF
:1050A0008093C605FE01329644C0FE01E20FF31F55
:1050B0008193919322503109398328833AC02091FA
:1050C000C4053091C505232B41F420910201309194
:1050D00003013093C5052093C40520910001309150
:1050E00001012115310541F42DB73EB7409104016E
:1050F00050910501241B350BE091C405F091C505C5
:10510000E217F307A0F42E1B3F0B2817390778F09E
:10511000AC014E5F5F4F2417350748F04E0F5F1FFD
:105120005093C5054093C4058193919302C0E0E07C
:10513000F0E0CF01DF91CF910895CF93DF930097F7
:1051400009F487C0FC01329713821282C091C60510
:10515000D091C705209781F420813181280F391F14
:105160008091C4059091C5058217930779F5F09356
:10517000C505E093C4056DC0DE0120E030E0AE1748
:10518000BF0750F412964D915C9113979D01411504
:10519000510509F1DA01F3CFB383A2834081518134
:1051A000840F951F8A179B0771F48D919C9111971D
:1051B000840F951F02969183808312968D919C9106
:1051C0001397938382832115310529F4F093C70542
:1051D000E093C6053EC0D9011396FC93EE93129757
:1051E0004D915D91A40FB51FEA17FB0779F48081FB
:1051F0009181840F951F0296D90111969C938E93ED
:105200008281938113969C938E931297E0E0F0E055
:105210008A819B81009719F0FE01EC01F9CFCE0144
:10522000029628813981820F931F2091C405309105
:10523000C5052817390769F4309729F41092C70576
:105240001092C60502C013821282D093C505C09386
:10525000C405DF91CF910895A0E0B0E0E2E3F9E268
:105260000C94302AEC01CB01209719F40E940528F8
:10527000B8C0FE01E60FF71F9E0122503109E21768
:10528000F30708F4ACC0D9010D911C9111970617D2
:105290001707B8F00530110508F49FC0A801445065
:1052A00051094617570708F498C002501109061B08
:1052B000170B019311936D937C93CF010E949D284E
:1052C0008CC05B01A01AB10A4E01800E911EA09104
:1052D000C605B091C705612C712C60E070E0109795
:1052E00009F449C0A815B905C9F5ED90FC901197CE
:1052F000670142E0C40ED11CCA14DB0478F14701F7
:105300008A189B08640142E0C40ED11C1296BC901E
:1053100012971396AC91B5E0CB16D10440F0B2824F
:10532000A38391828082D9018D939C9309C00E5FE3
:105330001F4F0E0D1F1DF90111830083EB2DFA2F56
:105340006115710531F0DB011396FC93EE93129712
:1053500044C0F093C705E093C6053FC06D917C91B2
:1053600011976616770608F43B01BD0112960D9061
:10537000BC91A02DB4CF6091C4057091C50568158E
:105380007905E9F468167906D0F44091000150914E
:1053900001014115510541F44DB75EB7609104011B
:1053A00070910501461B570BE417F507C0F4F09305
:1053B000C505E093C405F901918380830EC00E9466
:1053C00005287C01009759F0A801BE010E94142A0B
:1053D000CE010E949D28C70104C0CE0102C080E01A
:1053E00090E0CDB7DEB7EEE00C944C2AFC018827A4
:1053F0009927E89421912032E9F3293010F02E30DA
:10540000C8F32B3241F02D3239F4689404C00E9465
:10541000242A820F911D219120532A30C0F31EF4BB
:10542000909581959F4F0895FB01DC0102C001908A
:105430000D9241505040D8F70895FB01DC010190D6
:105440000D920020E1F708957AE0979F902D879FB5
:10545000802D910D112408952F923F924F925F92CB
:105460006F927F928F929F92AF92BF92CF92DF9274
:10547000EF92FF920F931F93CF93DF93CDB7DEB7D9
:10548000CA1BDB0B0FB6F894DEBF0FBECDBF09946D
:105490002A88398848885F846E847D848C849B84C4
:1054A000AA84B984C884DF80EE80FD800C811B81D2
:1054B000AA81B981CE0FD11D0FB6F894DEBF0FBE01
:1054C000CDBFED01089515E0C4E4D5E004C0FE01B0
:1054D0000E94CB272296C634D107C9F7F894FFCF94
:1054E0000000C8058000EE02FFD001D501DC011EDE
:1054F00032002800140400E1000000000000010157
:1055000032204243442042453A20000053656E74E5
:10551000205061636B65743A2000005265636569D1
:1055200076656420526177205061636B65743A2020
:1055300000005061796C6F616420646174613A208D
:105540000000323000313700313500313200313067
:105550000056322E34202020202020005152582086
:1055600053657269616C20434E534F4C0051525841
:1055700020494E49542020202020200051525820FC
:10558000494E49542047505320444F00515258200F
:10559000494E495420524144494F002020202020A8
:1055A00020202020202020202020004F5045520085
:1055B0006B36746400486177616969004B36544406
:1055C00000010101010101010101010201010101CB
:1055D00001010101011E010101010101010101F9A6
:1055E0004750524D43004750474741004E004E4EF2
:1055F0004500454E45004553450053534500530073
:105600005353570057535700574E57004E4E5700AD
:1056100000000000EB0C371E570DCA0C3D0D6F0D3E
:1056200000000000BF0F920F670F6F0F820F910FE6
:1056300000000000A312371E05181A0C02120E10EB
:1056400004170D1407060F161D0A080309110B197C
:105650001B1C2E553F4C53454B36000100000000EB
:10566000C212C312C412C51200000000C612CB122F
:10567000C412C512000000004A1B911B741B841B3E
:10568000601B711B00000000B71C371E391C521C28
:10569000441C951C00000000AC24371E1F258D25DE
:0256A000D5250E
:00000001FF
