:100000000C9418020C94D51D0C94021E0C942F1EF7
:100010000C945C1E0C9440020C9440020C94891EBB
:100020000C9440020C94E0100C94B0280C947C27A3
:100030000C9440020C9440020C9440020C94400238
:100040000C9440020C9440020C9440020C94400228
:100050000C9440020C9440020C9440020C94B61E86
:100060000C9440020C94B6220C94E8220C944002AA
:100070000C9440020C9440020C9440020C944002F8
:100080000C9417250C9440020C9440020C944002EE
:100090000C94EB130C9440020C9440020C9440021C
:1000A0000C9440020C9440020C944002B50DC80D13
:1000B000D80DEB0DF30D1F0E270E2F0E370E3E0E33
:1000C0003E0E3E0E3E0E3E0E3E0E3E0E3E0E3E0ED0
:1000D0003E0E3E0E3E0E3E0E3E0E3E0E3E0E3E0EC0
:1000E0003E0E3E0E3E0E3E0E3E0E3E0EB50DC10DB8
:1000F000C80DD80DEB0DF30D060E0E0E160EC51F16
:10010000C81FB71FBB1FC11FE91FE91FE91FCC1F75
:10011000D01FD41FDA1FDE1FE91FE41F202020207C
:10012000202020202000202020202020202020000F
:1001300020202020006379636C657300466F723A5B
:1001400000534B495020456E61626C65642020204D
:10015000202020003220323520343900534B4950C2
:10016000202D20484F555253204F6666006669780F
:100170002061676520494E56414C494400434F4E2B
:100180005320636F6E6E65637465640020202020C9
:100190002020202020002020202020200052414428
:1001A000494F206572726F7200202020202020208D
:1001B00020202020202020200024504D544B33307C
:1001C000302C313030302C302C302C302C302A3147
:1001D000430024504D544B3232302C313030302AD1
:1001E00031460024504D544B3331342C302C312CBB
:1001F000302C302C302C302C302C302C302C302C1F
:10020000302C302C302C302C302C302C302C302C0E
:10021000302A3239000000000200090F00000304F8
:1002200001000C00000000000000000000000000C1
:10023000000000040802011040804010204080406F
:10024000800802040180402010020110801020402C
:10025000400404040404030405020202020403022D
:100260000202020606060606060404020202040052
:100270000000002300260029002C002F00000000B1
:1002800000250028002B002E003100000000002473
:100290000027002A002D003000080B000202020196
:1002A00000090400000102020000052400100105FD
:1002B000240101010424020605240600010705812A
:1002C0000310004009040100020A000000070502B3
:1002D000024000000705830240000000C18081C188
:1002E0001201000202000040412336800001010299
:1002F000000112010002000000404123368000018D
:100300000102000141726475696E6F204C4C43001C
:1003100041726475696E6F204C656F6E6172646FB7
:10032000000403090400000000000000002A2B283C
:1003300000000000000000000000000000000000BD
:1003400000000000002C9EB4A0A1A2A434A6A7A582
:10035000AE362D3738271E1F20212223242526B311
:1003600033B62EB7B89F8485868788898A8B8C8D13
:100370008E8F909192939495969798999A9B9C9D25
:100380002F3130A3AD350405060708090A0B0C0D03
:100390000E0F101112131415161718191A1B1C1D05
:1003A000AFB1B0B50009040200010300000009214B
:1003B00001010001226500070584034000010501D9
:1003C0000902A1010901A1008501050919012903FB
:1003D00015002501950375018102950175058103BD
:1003E00005010930093109381581257F7508950304
:1003F0008106C0C005010906A1018502050719E0B3
:1004000029E71500250175019508810295017508F8
:1004100081039506750815002565050719002965EE
:100420008100C00028074D1354211823082B5C07B6
:1004300011241FBECFEFDAE0DEBFCDBF15E0A0E094
:10044000B1E0E6EFFFE502C005900D92A230B107E2
:10045000D9F728E0A2E0B5E001C01D92A334B207AD
:10046000E1F714E0CEE2D4E004C02297FE010E943E
:10047000F12CC432D107C9F70E945C230C94EE2FF3
:100480000C940000CF93DF938091730590E0019668
:1004900024EB30E0B9010E949A2C8093730580917F
:1004A0000A0190910B010196B9010E949A2C909338
:1004B0000B0180930A0180917205882391F0C0910D
:1004C0006E05D0916F050E94001F70936F056093B9
:1004D0006E050E94001F6C1B7D0B7093710560936D
:1004E000700581E080937405DF91CF91089569EEE6
:1004F00071E084E397E00C9401240C949E2F1F93E9
:10050000CF93DF9381E495E00E94B216009719F132
:100510000E941C2FEC010E947D02182F6FEE71E0EB
:1005200084E397E00E94D2234AE050E0BE0184E3D6
:1005300097E00E94E92460EF71E084E397E00E9475
:10054000D22340E150E0612F84E397E0DF91CF9127
:100550001F910C94D22462EF71E084E397E0DF9165
:10056000CF911F910C9401241F93CF93DF9381E4CB
:1005700095E00E94B216009749F00E941C2FEC01F2
:1005800081E495E00E94B216009749F46DE172E0B3
:1005900084E397E0DF91CF911F910C9401240E9496
:1005A0001C2F182F682FCE010E94A62F66E472E040
:1005B00084E397E00E94D2234AE050E0BE0184E346
:1005C00097E00E94E92460EF71E084E397E00E94E5
:1005D000D22340E150E0612F84E397E0DF91CF9197
:1005E0001F910C94D2244FE752E06EEC72E081E44C
:1005F00095E00E94771644EB52E06EE674E081E4E9
:1006000095E00E94771667E772E081E495E00E942A
:10061000AE168DE795E00E94A21560E086E00E948C
:10062000232060E089E00E94232061E084E00E94B2
:10063000232040E060E08DE795E00E9435156DE7EE
:1006400071E08DE795E00E94AD2369E472E084E3F8
:1006500097E00E94012481E495E00E94BC16FBCF44
:1006600084E090E00E947D02823108F08FEF0895CF
:10067000CF93DF9387E090E00E947D02C82FD0E007
:1006800088E090E00E947D0290E0982F88278C0FF0
:100690009D1FDF91CF910895109272058091700592
:1006A00090917105892B99F0209170053091710519
:1006B000C901880F991F820F931F97FD0396959587
:1006C00087959595879590930701809306010895E6
:1006D0000F931F93CF93DF9300D000D000D0CDB7FE
:1006E000DEB78C018BE095E00E94701840E050E08E
:1006F00060EB71E48BE095E00E947518B801CE01C3
:1007000001960E949229BE016F5F7F4F8BE095E0BA
:100710000E94E118CE0101960E94242926960FB668
:10072000F894DEBF0FBECDBFDF91CF911F910F9127
:10073000089560E085E00E94232060E08CE00E9444
:1007400023208BE095E00E94B01981E080936D0535
:1007500060E085E00C942320CF92DF92EF92FF922D
:1007600085E795E00E9410160E94001F6B017C0136
:1007700085E795E00E945C16882391F085E795E077
:100780000E9410160E94001F6C197D098E099F0996
:10079000613177428105910558F383E090E040C0D4
:1007A0000E94001F6B017C0185E795E00E945C16AA
:1007B000811110C085E795E00E9410160E94001F6D
:1007C0006C197D098E099F09613177428105910578
:1007D00058F3E3CFC12CD12C760185E795E00E9438
:1007E0005C168823A1F085E795E00E9410168FEF34
:1007F000C81AD80AE80AF80A21E7C21621E1D20687
:1008000021E0E206F10449F782E090E009C080E2CD
:10081000C8168EE4D806E104F104B0F781E090E058
:10082000FF90EF90DF90CF900895EF92FF920F939B
:100830001F93CF93DF93CDB7DEB72C970FB6F89405
:10084000DEBF0FBECDBF86E0EBE9F1E0DE0117961B
:1008500001900D928A95E1F786E0E1EAF1E0DE0190
:10086000119601900D928A95E1F70E94AC030397CF
:1008700009F4B8C084E397E00E94452181110E94E9
:10088000F3028DE795E00E94A21560E086E00E94E9
:10089000232060E089E00E94232061E084E00E9440
:1008A000232040E060E08DE795E00E9435156CE57F
:1008B00071E08DE795E00E94AD2340E061E08DE7B7
:1008C00095E00E94351564E571E08DE795E00E94A2
:1008D000AD238DE795E00E94AB1540E061E08DE728
:1008E00095E00E94351585E795E00E94101685E792
:1008F00095E00E945C168111F6CF00E010E073E0F5
:10090000E72EF12C0E94AC0382309105E1F0833098
:10091000910509F467C00197A9F7C8010196B701CD
:100920000E949A2C8C01FC01EE0FFF1F81E090E0E9
:100930008C0F9D1FE80FF91F468161E08DE795E060
:100940000E943515DFCFF801EE0FFF1F81E090E028
:100950008C0F9D1FE80FF91F8081918190931706DE
:100960008093160681E090E090931506809314061C
:1009700040E060E08DE795E00E94351561E471E0AC
:100980008DE795E00E94AD2340E061E08DE795E0C2
:100990000E9435156CE371E08DE795E00E94AD2370
:1009A00045E061E08DE795E00E94351560911606FF
:1009B000709117064AE050E08DE795E00E94B6245A
:1009C00049E061E08DE795E00E94351565E371E04F
:1009D0008DE795E00E94AD2368E873E180E090E048
:1009E0000E942F1F80E090E02C960FB6F894DEBF97
:1009F0000FBECDBFDF91CF911F910F91FF90EF9070
:100A0000089561E08DE00E94EA1F61E085E00E94A8
:100A1000EA1F61E08CE00E94EA1F61E08CE00E9426
:100A2000232060E085E00E94232060E08DE00C94AC
:100A300023200F931F93CF93DF9361E08CE00E94FC
:100A4000232061E085E00E94EA1F61E08CE00E94C3
:100A5000EA1F60E08DE00E94232026E040E05BE496
:100A600060E070E084E897E00E94542200E010E02B
:100A700063E070E082E095E00E94EB1BEC018230C5
:100A8000910511F40F5F1F4F68EE73E080E090E076
:100A90000E942F1F0A30110508F44BC0209709F45B
:100AA0004DC0229709F44AC040E067E470E082E05C
:100AB00095E00E949F1C60E070E082E095E00E945B
:100AC000FE1C60E070E082E095E00E94D71C40E0F0
:100AD00062E470E082E095E00E94251D6AE070E02B
:100AE00082E095E00E94781C40E86AE070E082E0D5
:100AF00095E00E94401C6AE070E082E095E00E9470
:100B0000781C80E296E2A7EDB0E080930705909311
:100B10000805A0930905B0930A0540E256E267ED87
:100B200070E082E095E0DF91CF911F910F910C94DE
:100B3000121CC230D10509F49BCFB0CF8FEF9FEFCD
:100B4000DF91CF911F910F910895CF93C82F61E04E
:100B500083E10E942320CF3009F44BC0D8F4CA307F
:100B600009F45CC0CC3009F06EC080ED96E6ACE7CD
:100B7000B1E08093070590930805A0930905B09311
:100B80000A0547E061E08DE795E00E9435156CE5C8
:100B900072E06DC0C131C1F0C43109F054C080E2CF
:100BA00096E2A7EDB0E08093070590930805A09327
:100BB0000905B0930A0547E061E08DE795E00E94E2
:100BC000351560E572E053C080E396E5A4E1B1E03D
:100BD0008093070590930805A0930905B0930A0533
:100BE00047E061E08DE795E00E94351564E572E02D
:100BF0003EC080E399EBA2E4B1E0809307059093B7
:100C00000805A0930905B0930A0547E061E08DE768
:100C100095E00E94351568E572E029C080E49CE407
:100C2000AEEAB1E08093070590930805A09309050B
:100C3000B0930A0547E061E08DE795E00E94351525
:100C400060E672E014C080E49CE4AEEAB1E0809318
:100C5000070590930805A0930905B0930A0547E09E
:100C600061E08DE795E00E94351564E672E08DE75E
:100C700095E00E94D22340910705509108056091AC
:100C8000090570910A0582E095E00E94121C1092FD
:100C90006D0560E083E1CF910C9423201F93CF93E7
:100CA000DF931F92CDB7DEB7182F61E083E10E947A
:100CB00023204BE061E08DE795E00E9435154AE086
:100CC00050E0612F8DE795E00E94CB2460E085E045
:100CD0000E9423204DE061E08DE795E00E943515EC
:100CE00068E672E08DE795E00E94D22360E083E140
:100CF0000E94232060E08DE00E9423201E3171F0CD
:100D000038F4143159F461E08DE00E94232006C0CC
:100D1000183231F0123311F446EE03C040E001C046
:100D200047E161E084E149830E942320498161E039
:100D300070E082E095E00E94251D60E084E10F9064
:100D4000DF91CF911F910C94232060E085E00E94F9
:100D5000232060E08DE00E94232061E08CE00E946F
:100D6000232060E086E00E94232060E089E00E946A
:100D7000232061E084E00C9423202091140630911C
:100D80001506232B09F063C00E94A50582E30E948B
:100D90004E06609118067091190680E090E00E945E
:100DA0002F1F60E086E00E94232060E084E00E9424
:100DB000232061E089E00E9423200E9499036AEDCC
:100DC00070E080E090E00E942F1F61E085E00E94CB
:100DD000232063EB72E080E090E00E942F1F88E206
:100DE0000E944E0661E085E00E94232063EB72E0E2
:100DF00080E090E00E942F1F8EE10E944E0661E08D
:100E000085E00E94232063EB72E080E090E00E9486
:100E10002F1F84E10E944E0661E085E00E9423209E
:100E200063EB72E080E090E00E942F1F0E94A50615
:100E300082E30E944E0647E061E08DE795E00E9464
:100E400035156CE171E08DE795E00C94AD230895C4
:100E50000F9320E04BE068E084EF95E00E94B3112F
:100E600081E895E00E94400B00E028E230E040E19C
:100E700062E08DE795E00E941F1585E795E00E94EE
:100E8000EB1581E495E00E94601620E030E040E43C
:100E900051E465E070E08BE095E00E94BD1986E0CA
:100EA00095E00E944B1726E035E046E760EE82E0D1
:100EB00095E00F910C94D01980EC94E090930C0580
:100EC00080930B0583E195E00E94242984EF95E04F
:100ED0000C945A118F929F92AF92BF92CF92DF9251
:100EE000EF92FF920F931F93CF93DF93CDB7DEB7AF
:100EF0002C970FB6F894DEBF0FBECDBF6B017C01FF
:100F000084E397E00E94A92084EF95E00E94B71047
:100F100081E0C81AD108E108F1081C141D041E0460
:100F20001F040CF070C084EF95E00E947A10892BAA
:100F300009F462C084EF95E00E94ED0F182F682F2E
:100F400084E397E00E94822084E397E00E94A92036
:100F5000612F81E895E00E94470E8823C9F284E35F
:100F600097E00E94DB239E012F5F3F4F4901CE0196
:100F700007965C01295F3F4F690102967C018E0153
:100F8000065F1F4F2D5F3F4FAE01445F5F4FBE01B5
:100F90006B5F7F4F81E895E00E941D0F89819A81E8
:100FA000AB81BC818F3F9F4FAF4FBF4FE1F0298591
:100FB000888590E03CE3239F800D911D112464EB14
:100FC00070E00E949A2C01962091730530E028175A
:100FD000390781F021E030E03093090120930801C6
:100FE0008093730507C06DE671E084E397E00E948B
:100FF000AD2309C011E008C064E670E080E090E035
:101000000E942F1F85CF10E084EF95E00E94A11071
:1010100084E397E00E94A920812F2C960FB6F894C4
:10102000DEBF0FBECDBFDF91CF911F910F91FF901B
:10103000EF90DF90CF90BF90AF909F908F900895EA
:10104000CF930E9401050E94300380930C010E94FF
:101050003803909319068093180640E052EC61E043
:1010600070E084E397E00E943F2162E08AE00E9402
:10107000EA1F61E086E00E94EA1F61E084E00E94CE
:10108000EA1F61E089E00E94EA1F61E082E10E94BC
:10109000EA1F61E083E10E94EA1F61E084E10E94AF
:1010A000EA1F61E085E10E94EA1F61E086E10E949B
:1010B000EA1F61E088E10E94EA1F60E082E10E948D
:1010C000232060E083E10E94232060E084E10E940D
:1010D000232060E085E10E94232060E086E10E94F9
:1010E000232060E087E10E94232060E084E00E94EA
:1010F000232060E089E00E94232061E086E00E94D6
:1011000023208DE795E00E94B1158DE795E00E94C0
:10111000A81540E060E08DE795E00E9435156CE68B
:1011200072E08DE795E00E94D22346E060E08DE713
:1011300095E00E943515A0910C01C7E0CA9FD0012F
:101140001124A35FBE4F6D917C918DE795E00E94C5
:10115000D2234DE060E08DE795E00E943515E091E7
:101160000C01CE9FF0011124E35FFE4F4AE050E0F6
:1011700066818DE795E00E94CB2440E061E08DE739
:1011800095E00E94351561E772E08DE795E00E94D9
:10119000D22340E061E08DE795E00E94351562E8DA
:1011A00072E08DE795E00E94D22362E083E00E9426
:1011B000EA1F43E050E062E472E084E00E94851D93
:1011C00040E855E260E070E084EF95E00E94E311B2
:1011D00063EE71E084EF95E00E94EF2362ED71E031
:1011E00084EF95E00E94EF2369EB71E084EF95E0D6
:1011F0000E94EF2368EE73E080E090E00E942F1FD2
:1012000084EF95E00E94A11040E061E08DE795E059
:101210000E94351563E972E08DE795E00E94D223C4
:101220006FEF7FEF8FEF9FE70E946A078823C1F37C
:1012300081E08093720568E873E180E090E00E94AD
:101240002F1F0E944C0340E061E08DE795E00E9473
:10125000351560EA72E08DE795E00E94D2230E9486
:10126000190597FF2BC040E061E08DE795E00E94F3
:10127000351569EA71E08DE795E00E94AD2340E005
:1012800061E08DE795E00E9435156DE971E08DE72D
:1012900095E00E94AD2360E086E00E94232060E09C
:1012A00084E00E94232061E089E00E94232068EE10
:1012B00073E080E090E00E942F1FF9CFE0910C01D5
:1012C00087E0E89FF0011124E35FFE4F8081918168
:1012D0000E9468036AE070E085E795E00E94F715D8
:1012E0006AE070E085E795E00E940C1640E061E05E
:1012F0008DE795E00E94351561EB72E08DE795E092
:101300000E94D22340E061E08DE795E00E94351510
:1013100061EC72E08DE795E00E94D2230E941504F3
:101320008DE795E00E94AE158DE795E00E94A81527
:10133000809114069091150640E061E0892B39F107
:101340008DE795E00E94351566EC72E08DE795E03B
:101350000E94D22349E061E08DE795E00E943515B7
:1013600066E971E08DE795E00E94AD2349E061E018
:101370008DE795E00E94351560911606709117066D
:101380004AE050E08DE795E00E94B6240AC08DE760
:1013900095E00E9435156BEC72E08DE795E00E94B8
:1013A000D22340E060E08DE795E00E9435156CE6C1
:1013B00072E08DE795E00E94D22345E060E08DE782
:1013C00095E00E9435156CE871E08DE795E00E948C
:1013D000AD2346E060E08DE795E00E943515A091D1
:1013E0000C01C7E0CA9FD0011124A35FBE4F6D91CD
:1013F0007C918DE795E00E94D2234DE060E08DE77F
:1014000095E00E943515E0910C01CE9FF00111246A
:10141000E35FFE4F4AE050E066818DE795E00E9471
:10142000CB2460E086E00E94232060E089E00E94F7
:10143000232061E084E0CF910C9423208091130657
:1014400081111AC045E061E08DE795E00E943515F5
:101450006DEB72E08DE795E00E94D22345E061E0FC
:101460008DE795E00E943515609173054AE050E0E4
:101470008DE795E00E94CB248091080190910901AD
:10148000892B09F180917305E0910C0137E0E39F0E
:10149000F0011124E35FFE4F268190E0821B910949
:1014A000029639F080917305823B09F0DFC021116B
:1014B0000895109209011092080182EB90E0909338
:1014C0000B0180930A0180910A0190910B018832EF
:1014D000910509F492C08CF48A30910509F486C014
:1014E00024F4892B09F480C008958431910509F40E
:1014F00080C04E9709F47FC008958639910509F49C
:10150000B3C04CF48C33910509F48FC08C3891052D
:1015100009F4A6C00895803A910509F49BC0833B65
:10152000910509F008958091140690911506892B74
:1015300009F445C080911606909117060197909383
:1015400017068093160618161906E4F449E061E0C0
:101550008DE795E00E94351560E371E08DE795E039
:101560000E94AD2349E061E08DE795E00E943515CA
:1015700060911606709117064AE050E08DE795E0FD
:101580000C94B62440E061E08DE795E00E943515AB
:101590006BEC72E08DE795E00E94D22349E061E0B8
:1015A0008DE795E00E9435156CEB72E08DE795E0D4
:1015B0000E94D2231092150610921406089581E01D
:1015C0008093130640E061E08DE795E00E943515B9
:1015D00060ED72E08DE795E00E94D22384E10E94E5
:1015E000A50582E30C944E0684E101C081E10C94D0
:1015F000BD068FE0FCCF8CE0FACF8AE00E94BD06EA
:101600008091140690911506892B61F440E061E009
:101610008DE795E00E9435156BEC72E08DE795E063
:101620000E94D2231092130608958091140690917F
:101630001506892B19F484E10E94A50547E061E0B5
:101640008DE795E00E94351566E271E08DE795E043
:101650000E94AD2360E070E880E090E00C946A079F
:1016600081E08093720508950C944C030895809155
:101670007405882321F0109274050C941E0A0895B5
:101680000F931F93FC010FEF1FEF9801008311834D
:101690002283338310861186128613864FEF59EC0E
:1016A0006AE97BE3408B518B628B738B408F518F48
:1016B000628F738F40A351A362A373A340A751A766
:1016C00062A773A740AB51AB62AB73AB00AF11AF76
:1016D00022AF33AFDC01A05CBF4F8FEF90E01196DB
:1016E0009C938E9314960D931D932D933C93139777
:1016F00018960D931D932D933C93139718961C9257
:1017000011961C92509682E08C9311961C92119621
:101710001C9211961C9211961D921D921D921C9264
:101720001397149611961C921E9212961D921C925B
:10173000EA5AFF4F10821F910F9108952FEB260F49
:10174000862F992787FD9095263010F4C797089526
:101750006156663018F4875591090895C097089529
:101760000F931F93FB0160E070E0CB01019120ED2E
:10177000200F2A30A0F4AAE0B0E09B01AC010E9447
:10178000F52C112707FD1095212F312F600F711FA8
:10179000821F931F6053710981099109E7CF1F913F
:1017A0000F9108950F931F93CF93FC01EA5AFF4FB7
:1017B000C1E020812D3219F0C0E08F0103C08C01FF
:1017C000095A1F4FB8010E94B00B9B01AC01A4E65F
:1017D000B0E00E94F52CF801DF01219130ED320FCD
:1017E0003A30D0F32E3269F511962C91119730EDE5
:1017F000320F3A3030F5332727FD30952053310929
:101800004AE0429F8001439F100D1124222717FDBB
:101810002095322F600F711F821F931F12960C911B
:1018200020ED200F2A3068F4112707FD1095005392
:101830001109222717FD2095322F600F711F821F7B
:10184000931FCC2339F090958095709561957F4FCB
:101850008F4F9F4FCF911F910F9108954F925F929D
:101860006F927F928F929F92AF92BF92CF92DF92B0
:10187000EF92FF92CF93DF93EC01CA5ADF4FBE0184
:101880000E94B00B2B013C0124E630E040E050E028
:101890000E94AE2C9B01AC0160EA76E881E090E00A
:1018A0000E948A2C6B017C01FE01819190ED980FC2
:1018B0009A30D8F38E3219F5EF0180E1882E87E255
:1018C000982EA12CB12CA99180ED8A0F8A30B8F402
:1018D000BB27A7FDB095D097A50194010E94002DCC
:1018E000C60ED71EE81EF91EC501B4012AE030E07D
:1018F00040E050E00E94AE2C49015A01E4CFC701FC
:10190000B6016D5F7F4F8F4F9F4F26E030E040E084
:1019100050E00E94AE2C69017A01C301B20124E6B5
:1019200030E040E050E00E94AE2C60E472E48FE0D2
:1019300090E00E948A2CC60ED71EE81EF91EC70131
:10194000B601DF91CF91FF90EF90DF90CF90BF90E5
:10195000AF909F908F907F906F905F904F90089581
:10196000DB01FA018D91882319F091918917D1F348
:10197000992787FD90950895CF92DF92EF92FF927D
:101980001F93CF93DF93EC01FC01EB5AFF4F1081C3
:10199000112309F4A9C0319660810E949E0B182F73
:1019A000FE01E95AFF4F6081CE010E949E0B40E18B
:1019B000149F800D1124FE01EC5AFF4F9081891372
:1019C0008AC074961081112309F458C1359680811C
:1019D0009181019691838083B59780819181A281C5
:1019E000B381349780839183A283B3833C968081B3
:1019F0009181A281B381349780839183A283B38341
:101A0000799680818823A1F1813009F037C18C81DA
:101A10009D81AE81BF8188839983AA83BB838C8596
:101A20009D85AE85BF8588879987AA87BB878C8966
:101A30009D89AE89BF89888B998BAA8BBB8B8C8D36
:101A40009D8DAE8DBF8D888F998FAA8FBB8F8CA5F2
:101A50009DA5AEA5BFA588A799A7AAA7BBA78CA936
:101A60009DA9AEA9BFA988AB99ABAAABBBAB06C178
:101A70008CA19DA1AEA1BFA188A399A3AAA3BBA33A
:101A80008C819D81AE81BF8188839983AA83BB832A
:101A90008C899D89AE89BF89888B998BAA8BBB8BDA
:101AA0008C8D9D8DAE8DBF8D888F998FAA8FBB8FAA
:101AB000FE01E05CFF4FDE01AE5BBF4F8D919C915C
:101AC000918380838CAD9DADAEADBFAD88AF99AF36
:101AD000AAAFBBAFD3C0C159DF4F888199810196AE
:101AE0009983888310E0CAC0FC01EA59FF4F308116
:101AF0008B599F4F7C0131111DC06E0196E5C90EB7
:101B0000D11C44E454E0B601CE010E94B00C892BF4
:101B100011F481E00CC04AE454E0B601CE010E9409
:101B2000B00C892B19F4F7011082A8C082E0D7010C
:101B30008C93A4C0DC01EC91E23009F49FC0CE018B
:101B40008A5A9F4FDC012C91222309F497C0B0E2FE
:101B5000EB9FF0011124E32B3197E932F10508F0F6
:101B60008DC0EA5AFF4F0C94EF2CCE010E94D20B8D
:101B70006C837D838E839F830E94001FC85BDF4F31
:101B800012C0C859DF4F81E0213409F05DC05DC04B
:101B9000CE010E942E0C6C8B7D8B8E8B9F8B0E94B6
:101BA000001FC05BDF4F688379838A839B8366C095
:101BB000233509F063C08C899D89AE89BF89B095B2
:101BC000A095909581959F4FAF4FBF4F8C8B9D8B6C
:101BD000AE8BBF8B53C0CE010E942E0C6C8F7D8FBD
:101BE0008E8F9F8F4BC0273509F048C08C8D9D8DFF
:101BF000AE8DBF8DB095A095909581959F4FAF4FBD
:101C0000BF4F8C8F9D8FAE8FBF8F38C0CE010E948B
:101C1000D20B6CA77DA78EA79FA730C0CE010E94D4
:101C2000D20B6CAB7DAB8EAB9FAB28C0BC01CE01A1
:101C30000E94B00B6C877D878E879F871FC0C85915
:101C4000DF4F81E021330CF480E0888317C00E94CD
:101C50001C2FCE5BDF4F9927998388830FC0CE015D
:101C60000E94D20B6CAF7DAF8EAF9FAF07C0CE018D
:101C70000E94D20B6CA37DA38EA39FA3812FDF9123
:101C8000CF911F91FF90EF90DF90CF900895CF926A
:101C9000DF92EF92FF920F931F93CF93DF931F92E8
:101CA000CDB7DEB76C01262FFC01E759FF4F40810D
:101CB0005181628173814F5F5F4F6F4F7F4F4083D0
:101CC0005183628373838C0109591F4F8B5A9F4F35
:101CD0007C01243281F12CF42A3069F02D30E9F5B1
:101CE0000AC02A3241F02C32C1F5F601EC5AFF4FFE
:101CF000808182278083F80180818F3060F4F60133
:101D0000E80FF11DEA5AFF4F1082C60129830E9495
:101D1000BC0C298101C080E0F601EA59FF4F908197
:101D20009F5F9083F801108291E02A3209F090E0E1
:101D3000F70190832AC0F8011082F601EA59FF4F9B
:101D4000108272971082719682E08083F701108270
:101D5000F601E859FF4F108217C0F80180818E30DC
:101D600048F491E0980F9083F601E80FF11DEA5ACC
:101D7000FF4F2083F7018081811106C0F601EC5AE4
:101D8000FF4F80818227808380E00F90DF91CF9189
:101D90001F910F91FF90EF90DF90CF900895CF9219
:101DA000DF92EF92FF920F931F93CF93DF93E9019E
:101DB0006115710551F0FC01C084D184E284F38483
:101DC000FB01C082D182E282F3824115510551F0BC
:101DD000FC01C080D180E280F380FA01C082D18210
:101DE000E282F382209701F18C010C5B1F4FF80116
:101DF00080819181A281B3818F3F9F4FAF4FBF4FB1
:101E000061F00E94001FF80100811181228133815D
:101E1000601B710B820B930B03C06FEF7FEFCB0145
:101E2000688379838A839B83DF91CF911F910F9180
:101E3000FF90EF90DF90CF9008952F923F924F92B6
:101E40005F926F927F928F929F92AF92BF92CF924A
:101E5000DF92EF92FF920F931F93CF93DF93CDB753
:101E6000DEB72A970FB6F894DEBF0FBECDBF2B01A9
:101E70005A87498719019401AE014F5F5F4FBE0138
:101E80006B5F7F4F0E94CF0E41145104B9F06D81FA
:101E90007E818F81988524E630E040E050E00E940A
:101EA000AE2C613571051CF02CE637E002C020ED48
:101EB00037E0620F731FF2017183608389859A8511
:101EC000892BB1F06D817E818F81988544E6442E07
:101ED000512C612C712CA30192010E94AE2CCA01DD
:101EE000B901A30192010E94AE2CE985FA856083B5
:101EF0002114310461F06D817E818F81988520E10C
:101F000037E240E050E00E94AE2CF1012083011541
:101F1000110561F069817A818B819C8120E432E432
:101F20004FE050E00E94AE2CF8012083E114F10450
:101F3000A1F069817A818B819C8120E137E240E0C8
:101F400050E00E94AE2CCA01B90124E630E040E026
:101F500050E00E94AE2CF7016083C114D104A9F0B7
:101F600069817A818B819C8134E6432E512C612CCE
:101F7000712CA30192010E94AE2CCA01B901A301E8
:101F800092010E94AE2CF6016083A114B10461F0AD
:101F900069817A818B819C8124E630E040E050E0C9
:101FA0000E94AE2CF50160832A960FB6F894DEBF2E
:101FB0000FBECDBFDF91CF911F910F91FF90EF909A
:101FC000DF90CF90BF90AF909F908F907F906F9059
:101FD0005F904F903F902F90089520915C06309134
:101FE0005D0628173907B9F490911A0680911B06EF
:101FF000981789F0E0911A06F0E0E45EF94F8081CD
:1020000020911A0630E02F5F3F4F2F733327209324
:102010001A0690E008958FEF9FEF08951F93CF93D6
:10202000DF93DC015C968D919C915D97009749F45C
:1020300081E090E013969C938E93129780E090E05D
:102040003BC05196ED91FC91529750962C91509730
:10205000322F30951FB75E964C915E9741FB7727E4
:1020600070F941FD6095F8944081772311F0422B7F
:1020700001C043234083EC012197F1F748E05081F0
:1020800060FF02C0522B01C053235083EC01219703
:10209000F1F76695415099F78081772311F08323FA
:1020A00001C0822B80831FBF5C968D919C915D97B0
:1020B0000197F1F781E090E0DF91CF911F910895B2
:1020C00020915C0630915D062817390781F49091C4
:1020D0001A0680911B06981751F0E0911A06F0E05D
:1020E000E45EF94F8081992787FD909508958FEFE1
:1020F0009FEF089520915C0630915D0628173907FF
:1021000071F480911B0620911A0690E0805C9F4F2D
:10211000821B910960E470E00E949A2C089580E08F
:1021200090E0089520915C0630915D0628173907EC
:1021300039F48FB7F89410921B0610921A068FBFCD
:102140000895E0915C06F0915D06E817F90769F4DF
:10215000A389B4899C918589809589238C93109259
:102160005D0610925C0681E0089580E00895CF93AB
:10217000DF93EC018A8D9B8D892BF1F080915C06B9
:1021800090915D068C179D07B9F0009711F00E94A1
:10219000A1108E8D8E7F8E8F10921B0610921A06C4
:1021A000D0935D06C0935C06EB89FC8980819D8994
:1021B000892B808381E001C080E0DF91CF91089579
:1021C0001F920F920FB60F9211242F933F934F93AC
:1021D0005F936F937F938F939F93AF93BF93EF938F
:1021E000FF93E0915C06F0915D06309709F451C0D1
:1021F000868DA685B785958581FF04C08C9189233E
:1022000029F447C08C91892309F043C0A389B4897C
:102210009C918589809589238C93868997890197DC
:10222000F1F7208D318DA685B785758558E040E0A2
:10223000C9010197F1F7842F90E095958795482F74
:102240006C91672309F04068515091F7868D81FDAC
:10225000409580911B0690E001968F7399272091FD
:102260001A06281749F0A0911B06B0E0A45EB94FEA
:102270004C9380931B0603C0868D8160868F828D70
:10228000938D0197F1F7A389B4898C919589892B56
:102290008C93FF91EF91BF91AF919F918F917F911F
:1022A0006F915F914F913F912F910F900FBE0F90C3
:1022B0001F90189524E734E0FC01318320830C94AF
:1022C000A1101F93CF93DF93EC01162F6E8D6695AF
:1022D000617081E06827812F0E94232061E0812FB7
:1022E0000E94EA1F812F90E0FC01ED5CFD4FE4911C
:1022F000E88BFC01EF5AFD4FE491F0E0EE0FFF1F79
:10230000E358FD4F859194919A8B898BDF91CF9102
:102310001F9108951F93CF93DF93EC01162F60E078
:10232000812F0E94EA1F8E8D81FD04C061E0812F04
:102330000E9423201C87812F90E0FC01ED5CFD4F63
:10234000E491ED87FC01EF5AFD4FE491F0E0EE0FD0
:10235000FF1FE159FD4F859194919F878E87DF91F3
:10236000CF911F910895FF920F931F93CF93DF9307
:10237000EC01F62E522F1B821A8208EE13E020E0A9
:1023800030E00C831D832E833F8384E794E09983A0
:1023900088831F8A1E8A198E188E1B8E1A8E1D8E98
:1023A0001C8E8E8D8E7F50FB81F98E8F642FCE0117
:1023B0000E9461116F2DCE01DF91CF911F910F917E
:1023C000FF900C948A11CF93DF93EC019A01AB013B
:1023D0001B8E1A8E198E188E1F8A1E8A60E079E075
:1023E0008DE390E00E94D02CC9012430310520F00B
:1023F000B9016350710902C061E070E07D8F6C8F9C
:10240000EC85F8EFFE0FF43048F062EF6E0F6430A9
:1024100028F066EE6E0F633008F06FC0B901769554
:1024200067956431710518F06351710902C061E06C
:1024300070E07F8B6E8B069718F0C901059702C07C
:1024400081E090E0998F888FC901880F991F820FD2
:10245000931F96958795969587958D30910510F0E9
:102460000C9702C081E090E09B8F8A8FF43058F087
:1024700082EF8E0F843038F0EA51E33008F042C02A
:10248000A8E6B0E041C0A8E6B0E0E8E6F0E0808170
:1024900081608C932C8538EF320F343040F082EF1E
:1024A000820F843020F086EE820F833018F48BE6A2
:1024B00090E002C080E090E09C8B8B8B343010F475
:1024C000245009C02E3069F02F3069F0203169F0B6
:1024D000213169F0265181E001C0880F2A95EAF781
:1024E00007C088E005C082E003C084E001C081E04D
:1024F0008D8B8C8D9D8D0197F1F7CE01DF91CF9162
:102500000C94B710A0E0B0E0E33008F4BECFE0E0F8
:10251000F0E0BDCF80918E0690E020918F06821B67
:102520009109089520918F0680918E06281750F406
:10253000E22FF0E0E057F94F808190E02F5F209389
:102540008F0608958FEF9FEF0895E0918F06809199
:102550008E06E81730F4F0E0E057F94F808190E004
:1025600008958FEF9FEF08950895CF92DF92EF9235
:10257000FF920F931F93CF93DF937C01CB018A01CE
:1025800020916A06222389F0EB016B01C40ED51E4F
:10259000CC15DD0569F06991D701ED91FC910190B1
:1025A000F081E02DC7010995F3CF642F0E94C2137B
:1025B000C801DF91CF911F910F91FF90EF90DF90B5
:1025C000CF900895CF93DF931F92CDB7DEB7698385
:1025D00020916A062223D1F020916B06203240F030
:1025E00021E030E0FC013383228380E090E015C0DD
:1025F00080916C06E82FF0E0E359F94F99819083C0
:102600008F5F80936C0680936B0605C061E0CE01FE
:1026100001960E94C21381E090E00F90DF91CF916C
:102620000895FC011382128248EE53E060E070E0EE
:10263000448355836683778384E894E09183808321
:10264000089510928F0610928E0610926C061092CA
:102650006B060C94511381E080936A0660938D069B
:1026600010926C0610926B0608950C942B130F9326
:10267000062F21E040916B066DE676E080918D0695
:102680000E946F1310926C0610926B0610926A06ED
:102690000F91089561E00C9437138EE596E00C9449
:1026A000111310921D0781E080931B0710921A07E7
:1026B00061E082E00E94232061E083E00E94232009
:1026C000E9EBF0E080818E7F808380818D7F808345
:1026D00088E48093B80085E48093BC0008950F934C
:1026E000413208F046C090911D079111FCCF92E055
:1026F00090931D0700931B079FEF9093B0061092D5
:10270000F5064093F406FB0166EF76E0DB019A2FB5
:10271000961B941718F491919D93F9CF10921C0772
:1027200090911C07880F892B80931C0780911A07B2
:10273000813041F410921A0780911C078093BB00EE
:1027400085EC01C085EE8093BC00222321F08091AE
:102750001D078230E1F38091B0068F3F61F08091D8
:10276000B006803251F08091B006803341F483E0AE
:1027700007C081E005C080E003C082E001C084E0C2
:102780000F910895613298F420911D07243089F447
:102790006093D206FC0184ED96E0DC012A2F281B11
:1027A000261718F421912D93F9CF80E0089581E048
:1027B000089582E0089585ED8093BC008091BC006F
:1027C00084FDFCCF10921D07089585EC8093BC001A
:1027D00010921D0708951F920F920FB60F921124A9
:1027E0002F933F934F935F936F937F938F939F9319
:1027F000AF93BF93EF93FF938091B900887F8036AA
:1028000009F49CC068F5883209F45BC090F480310B
:1028100009F454C038F4882309F4F5C0883009F469
:102820004DC0F5C0883109F44CC0803209F45DC058
:10283000EEC0803409F468C048F4803309F455C010
:10284000883309F0E4C08093B006A8C0803509F44D
:102850004FC0883509F45DC0883409F0D8C0D5C0B0
:10286000883909F4C6C0A8F4883709F467C038F479
:10287000883609F463C0803709F460C0C8C088385E
:1028800009F4B7C0803909F45FC0803809F0BFC0CF
:102890005BC0803B09F485C038F4803A09F466C017
:1028A000883A09F47EC0B3C0803C09F4A6C0883CD5
:1028B00009F4A3C0883B09F489C0A9C080911C0712
:1028C00010C09091F5068091F406981770F5E0918C
:1028D000F50681E08E0F8093F506F0E0EA50F94F9F
:1028E00080818093BB0085EC85C08093B0068DC04D
:1028F000E091F50681E08E0F8093F5068091BB0094
:10290000F0E0EA50F94F80839091F5068091F4064B
:102910006DC0E091F50681E08E0F8093F506809101
:10292000BB00F0E0EA50F94F808380911B078111D2
:102930006CC081E080931A0784EA60C083E08093D2
:102940001D071092B106CFCF8091B106803208F0FA
:1029500050C0E091B10681E08E0F8093B106809166
:10296000BB00F0E0EE54F94F8083BDCF8091B106FB
:10297000803230F4E091B106F0E0EE54F94F10826D
:102980000E94DB136091B10670E0E0911607F091B0
:10299000170782EB96E009951092B1060E94E513A5
:1029A00036C084E080931D071092D3061092D206A1
:1029B000E0911807F091190709958091D2068111CD
:1029C00005C081E08093D2061092D406E091D30630
:1029D00081E08E0F8093D306F0E0EC52F94F8081B6
:1029E0008093BB009091D3068091D206981708F48B
:1029F0007ACF85E88093BC000AC085EC8093BC0048
:102A000010921D0704C01092B0060E94DB13FF91C4
:102A1000EF91BF91AF919F918F917F916F915F9156
:102A20004F913F912F910F900FBE0F901F901895CF
:102A3000DC01ED91FC910190F081E02D09940F9360
:102A4000DC0113961C921E921297E4E9F4E0ED93D8
:102A5000FC936093900140938F0130938E012093FB
:102A60008D01009320070F9108951F93CF93DF935B
:102A70001F92CDB7DEB7613031F0623031F0633094
:102A800031F010E005C010E403C014E101C014E50A
:102A900060918D0170918E018EE596E049830E94D0
:102AA00035136EEF70E08EE596E00E94181565E430
:102AB00070E08EE596E00E9418154981642F70E061
:102AC000610F711D8EE596E00E9418158EE596E067
:102AD0000E944A1360918B0170918C01660F771FE1
:102AE000882777FD8095982F0F90DF91CF911F91C8
:102AF0000C942F1F40E060E00C943515CF93C62F47
:102B000060918D0170918E018EE596E00E943513E3
:102B10006EEF70E08EE596E00E9418156C2F8EE542
:102B200096E00E94E2128EE596E00E944A136091C0
:102B30008B0170918C01882777FD8095982FCF911C
:102B40000C942F1F61E50C947E1561E40C947E15A6
:102B500068E40C947E156BE40C947E156CE40C9484
:102B60007E15CF93DF93EC018EE596E00E94211352
:102B700088E98093B800CE010E94A515CE010E947D
:102B8000A215CE010E94AE15CE010E94A815CE015D
:102B9000DF91CF910C947A15CF93C62F60918D0160
:102BA00070918E018EE596E00E9435136C2F8EE5B4
:102BB00096E00E94E2128EE596E00E944A13609130
:102BC0001E0770911F07882777FD8095982F0E9418
:102BD0002F1FCF910895FC0110821182128213825F
:102BE0008AE090E095838483168217820895CF93BC
:102BF000DF93EC01862F6F831E820E945920892B60
:102C000011F083E08E830E94001F688379838A839A
:102C10009B83DF91CF910895FC01758364830895B0
:102C2000FF920F931F93CF93DF93EC018F810E944C
:102C30005920FF24F394892B09F4F12C8E81982FCD
:102C4000977F9E8386958170F81651F00E94001F31
:102C5000688379838A839B838E8192E0892721C050
:102C60000E94001F088119812A813B81601B710B22
:102C7000820B930B0C811D8120E030E060177107FF
:102C80008207930778F08E8181708F1559F00E942A
:102C9000001F688379838A839B838E8191E08927D3
:102CA00088608E838E8183FB882780F9DF91CF91A6
:102CB0001F910F91FF900895FC0186818170089506
:102CC000CF93DF93EC01198218821A821C821B8237
:102CD0008AE08F831BA61AA66FEB72E0CE010596E1
:102CE0000E944B2F188619A6DF91CF910895EF927D
:102CF000FF920F931F93CF93DF93EC017B018A0127
:102D00008A8190E001962BE0289FB001299F700DE9
:102D10001124888199810E94522E998388832A8167
:102D200048E050E0B7013BE0239F800D911D112446
:102D30000E94602F8A81E881F9819BE0899FE00DE4
:102D4000F11D1124128701878A818F5F8A83DF91A9
:102D5000CF911F910F91FF90EF900895FC01748324
:102D600063830895AC01465D5F4FBC016B5F7F4F8D
:102D700080E090E00C946F2F2F923F924F925F92E1
:102D80006F927F928F929F92AF92BF92CF92DF927B
:102D9000EF92FF920F931F93CF93DF93EC011C01EF
:102DA0002AE2220E311C2C0185E0480E511C5E01E6
:102DB000A8E0AA0EB11C84E397E00E94AC2018168C
:102DC00019060CF055C084E397E00E94BC20182F30
:102DD0008F81181334C0A101B201C5010E946F2F69
:102DE0007C01009749F18A80912C612C712CC12CB7
:102DF000D12CC814D904D4F408811981060D171DEB
:102E000048E050E0B801C7010E94522FBBE06B0EB2
:102E1000711C892B39F4D8011996ED91FC911A9700
:102E200009950AC0BFEFCB1ADB0AE3CFEB81FC8127
:102E3000309711F0C7010995188619A6BCCF812FCC
:102E4000992787FD90950E943C2F892B09F4B3CFD9
:102E500089A5803208F0AFCF91E0980F99A7FE01C5
:102E6000E80FF11D1087FE01E90FF11D1086A3CFB9
:102E7000DF91CF911F910F91FF90EF90DF90CF9056
:102E8000BF90AF909F908F907F906F905F904F908A
:102E90003F902F900895FC0110820895AF92BF9249
:102EA000DF92EF92FF920F931F93CF93DF93CDB7F3
:102EB000DEB7EDB6FEB6842F90E0880F991FFC01B7
:102EC0003196ADB7BEB7AE1BBF0B0FB6F894BEBF01
:102ED0000FBEADBF0DB71EB70F5F1F4FD801D62E67
:102EE0005B015A2D5D195417C8F4B501F5015081E5
:102EF00052955F7050635A3308F0595F5C93FFEF4F
:102F0000AF1ABF0AFB0150815F7050635A3308F05B
:102F1000595F11965C9311971296E3CFF801E80F71
:102F2000F91F1082B90184E397E00E94D223B8010F
:102F300084E397E00E9401240FB6F894FEBE0FBE12
:102F4000EDBEDF91CF911F910F91FF90EF90DF9039
:102F5000BF90AF900895FC01508150FD0C944E1726
:102F60000895089508950895089561E0FC0182810F
:102F70000C94232060E0FC0182810C9423200F93A9
:102F80001F93CF93DF93DC0128E030E000E810E0EE
:102F900080E090E051E0E02FE42309F450E01123B9
:102FA000E1F0FC01EE0FFF1FEE0FFF1FE60FF71F12
:102FB000552329F01696CD91DC91179704C01496ED
:102FC000CD91DC911597D183C0831496CD91DC917E
:102FD0001597D383C2830196512F0695215031094D
:102FE00011F0152FD7CFDF91CF911F910F91089539
:102FF000CF93DF93EC018FE9860F8A3140F4E62FFF
:10300000FF27E7FDF095E95CFB4F408143C080ED71
:10301000860F8A3028F0E2EBF4E080E090E02EC0EA
:10302000E62FFF27E7FDF0959F0120533109A1E02E
:10303000263031051CF0A0E0255031096C817D81DE
:10304000FE0180E090E0B0E041E050E0821793079D
:1030500014F040E050E04A175B0719F44C815D81A1
:1030600002C04E815F8157874687718B608B0196C6
:1030700034968530910541F719C0019620812223AD
:1030800081F032962613F9CFFC01EE0FFF1FEE54AC
:10309000FB4F4181BE01625F7F4FCE010E94BF178F
:1030A00005C021E030E081E090E002C020E030E0A7
:1030B000FC01EE0FFF1FDF011696AA0FBB1FAC0F1E
:1030C000BD1F8E819F818D939C933796EE0FFF1FBE
:1030D000EC0FFD1F11821082C901DF91CF9108957D
:1030E00061E0FC0182810C94EA1FCF92DF92EF92A3
:1030F000FF92CF93DF93EC016A017B0120E030E087
:1031000040E85FE3C701B6010E94152B87FD15C09B
:1031100020E030E048E452E4C701B6010E94272CC9
:103120009B01AC0160E070E68AE697E40E94192BEF
:103130000E94812B362F272F02C030EB24E0832FF3
:10314000922F1816190614F081E090E09D838C836D
:103150009C01220F331F280F391F3F832E83DF91DD
:10316000CF91FF90EF90DF90CF9008950F931F9332
:10317000CF93DF9300D000D0CDB7DEB78C0180ECC9
:1031800094E0F801918380837383628360EC72E042
:10319000C801089629833A834B835C830E94922955
:1031A00029813A814B815C81BA01A901C8010F9044
:1031B0000F900F900F90DF91CF911F910F910C9472
:1031C0007518CF93DF93EC0108960E94A8298C858F
:1031D0009D859FA78EA788A980FD09C0E881F981F8
:1031E0000280F381E02DCE01DF91CF910994DF9130
:1031F000CF910895CF93DF93EC011FA61EA68C8577
:103200009D85892B21F160E070E0CE0108960E9437
:10321000BF29FC016081CE010E94F81799AB88ABF1
:10322000E881F9810480F581E02DCE01099588A916
:1032300080FD07C0E881F9810190F081E02DCE0189
:1032400009950E94001F6AAB7BAB8CAB9DABDF91F5
:10325000CF910895CF92DF92EF92FF92CF93DF93B9
:10326000EC012EA53FA58C859D852817390708F010
:103270006DC00E94001F6B017C018AA99BA9ACA9AB
:10328000BDA9C81AD90AEA0AFB0AE8A9F9A9DF0107
:103290001796AA0FBB1FAC0FBD1F8D919C91AA273B
:1032A00097FDA095BA2FC816D906EA06FB0608F4C2
:1032B0004FC0CF01019699AB88AB3896EE0FFF1F38
:1032C000EC0FFD1F80819181892B29F56EA57FA5CB
:1032D0006F5F7F4F7FA76EA78C859D8568177907E5
:1032E00078F0E881F9810280F381E02DCE01099523
:1032F000E881F9810680F781E02DCE01099526C08D
:10330000CE0108960E94BF29FC016081CE010E9477
:10331000F81799AB88AB4AA95BA96CA97DA94C0D9C
:103320005D1D6E1D7F1D4AAB5BAB6CAB7DAB88A991
:10333000E881F98180FD04C00190F081E02D03C097
:103340000280F381E02DCE01099502C080E001C02A
:1033500081E0DF91CF91FF90EF90DF90CF900895C3
:10336000CF93DF93EC010E94FA18CE010E942A1934
:103370008111FBCFDF91CF910895CF93DF93EC01C3
:103380000E94B6188CEC94E099838883DF91CF91EA
:103390000895DC01ED91FC910190F081E02D0994FC
:1033A000FC01608341833383228308956EEF70E0D4
:1033B00084E897E00E94C9196EEF70E084E897E016
:1033C0000C94C9196DEF70E084E897E00C94C9196A
:1033D0002F923F924F925F926F927F928F929F9225
:1033E000AF92BF92CF92DF92EF92FF920F931F9313
:1033F000CF93DF93CDB7DEB72B970FB6F894DEBF30
:103400000FBECDBF9B878A874B014987493008F0A3
:1034100053C0CE0101965C01E12CF12CC12CD12CC2
:10342000242E312C9AE0492E512C612C712CE2145F
:10343000F30404F5B801C901A30192010E94AE2C66
:10344000F50161935F0189019A01E0FE0FC0D4018B
:10345000AC0DBD1D84E0660F771F8A95E1F73297AA
:103460008081862B8C93FFEFCF1ADF0A8FEFE81A4B
:10347000F80ADDCF27EA31E04985B401EA85FB850A
:10348000828193812B960FB6F894DEBF0FBECDBF1D
:10349000DF91CF911F910F91FF90EF90DF90CF9030
:1034A000BF90AF909F908F907F906F905F904F9064
:1034B0003F902F900C94AB172B960FB6F894DEBF6D
:1034C0000FBECDBFDF91CF911F910F91FF90EF9075
:1034D000DF90CF90BF90AF909F908F907F906F9034
:1034E0005F904F903F902F9008952F923F924F9270
:1034F0005F926F927F928F929F92AF92BF92CF9284
:10350000DF92EF92FF920F931F93CF93DF93CDB78C
:10351000DEB762970FB6F894DEBF0FBECDBF9F87B0
:103520008E87342E252EAB0149017E0189E0E80EFD
:10353000F11C85E0F70111928A95E9F729303105F0
:1035400008F044C0CE0101965C0100E010E0C12CFF
:10355000D12C9AE0492E512C612C712C081519059B
:1035600059F1632D722DCA01A30192010E94AE2C64
:10357000F50161935F01322E232E00FF1AC084E013
:10358000660F771F8A95E1F732972081262B622FED
:1035900084E897E0288B498B5A8B0E94EF21F70132
:1035A000EC0DFD1D28892083FFEFCF1ADF0A5A8911
:1035B00049890F5F1F4FD2CF23EB31E0402FB70176
:1035C000EE85FF85828193810E94AB1762960FB6CC
:1035D000F894DEBF0FBECDBFDF91CF911F910F9149
:1035E000FF90EF90DF90CF90BF90AF909F908F9023
:1035F0007F906F905F904F903F902F900895DF9253
:10360000EF92FF920F931F93CF93DF937C01EB0117
:1036100010E084E897E00E947C21019621F41A30A2
:1036200031F5D12C2CC0D12C1A3049F184E897E027
:103630000E947121892B51F08E010D0D111D84E81E
:1036400097E00E948A21F8018083D394FE01ED0D5A
:10365000F11D319780818D3F49F722EC31E04D2DEE
:10366000BE01F701828193810E94AB1708C06AE016
:1036700070E080E090E00E942F1F1F5FCACF8D2D69
:10368000DF91CF911F910F91FF90EF90DF90089500
:10369000CF92DF92EF92FF920F931F93CF93DF931E
:1036A000CDB7DEB7C058D1090FB6F894DEBF0FBE54
:1036B000CDBF8C017B01C42E25E0D22EBE016F5FF1
:1036C0007F4FC8010E94FF1A882309F43FC09981E7
:1036D0009E3FE1F59A819E3FC9F52B81F8019081CB
:1036E000291334C02C819181291330C0FE01E80FC9
:1036F000F11D90819D3F51F5C11002C064E001C0F1
:1037000066E0D12C70E08250282F30E0261B370B6A
:10371000ED2DF0E02E173F077CF0D701AE0FBF1F55
:1037200081E090E08C0F9D1FE80FF91FE60FF71F57
:1037300080818C93D394ECCF29ED31E04D2DB701EE
:10374000F801828193810E94AB1709C064E670E0A2
:1037500080E090E00E942F1FDA9409F0AFCF8D2D0A
:10376000C058DF4F0FB6F894DEBF0FBECDBFDF915C
:10377000CF911F910F91FF90EF90DF90CF90089520
:10378000CF93DF93CDB7DEB7C058D1090FB6F89409
:10379000DEBF0FBECDBF40E0BE016F5F7F4F0E9416
:1037A000481B882361F089818B3F31F08A818A3FF1
:1037B00031F480E090E005C081E090E002C082E05A
:1037C00090E0C058DF4F0FB6F894DEBF0FBECDBFFC
:1037D000DF91CF9108950F931F93CF93DF93EC0167
:1037E0008B010E94D619698184E897E00E94EF213D
:1037F000688184E897E00E94EF2166E070E084E849
:1038000097E00E94C919B80184E897E00E94C9199D
:10381000CE010E94E219CE01DF91CF911F910F914D
:103820000C94C01BCF92DF92EF92FF92CF93DF9365
:10383000EC016A017B010E94D619698184E897E056
:103840000E94EF21688184E897E00E94EF2165E003
:1038500070E084E897E00E94C91928E030E0B701E1
:10386000A601CE010E94751ACE010E94E219CE0176
:10387000DF91CF91FF90EF90DF90CF900C94C01B21
:10388000EF92FF920F931F93CF93DF931F92CDB7C9
:10389000DEB77C018B0149830E94D619F701618153
:1038A00084E897E00E94EF21F701608184E897E0C7
:1038B0000E94EF2164E170E084E897E00E94C9195A
:1038C000B80184E897E00E94C9194981642F84E80F
:1038D00097E00E94EF21C7010E94E219C7010F90F3
:1038E000DF91CF911F910F91FF90EF900C94C01B2F
:1038F0000F931F93CF93DF93EC018B010E94D61996
:10390000698184E897E00E94EF21688184E897E06C
:103910000E94EF2164E170E084E897E00E94C919F9
:10392000B80184E897E00E94C919CE010E94E2190B
:10393000CE01DF91CF911F910F910C94C01BEF929C
:10394000FF920F931F93CF93DF931F92CDB7DEB7F4
:103950007C018B0149830E94D619F701618184E8BB
:1039600097E00E94EF21F701608184E897E00E94D0
:10397000EF2166E170E084E897E00E94C919B80180
:1039800084E897E00E94C9194981642F84E897E090
:103990000E94EF21C7010E94E219C7010F90DF9139
:1039A000CF911F910F91FF90EF900C94C01B0F933C
:1039B0001F93CF93DF93EC018B010E94D61969818D
:1039C00084E897E00E94EF21688184E897E00E94F4
:1039D000EF2167E070E084E897E00E94C919B80120
:1039E00084E897E00E94C919CE010E94E219CE0135
:1039F000DF91CF911F910F910C94C01B0F931F93D8
:103A0000CF93DF93EC018B010E94D619698184E882
:103A100097E00E94EF21688184E897E00E94EF21FF
:103A20006FE070E084E897E00E94C919B80184E86B
:103A300097E00E94C919CE010E94E219CE01DF91E0
:103A4000CF911F910F910C94C01BCF92DF92EF92F8
:103A5000FF920F931F93CF93DF93CDB7DEB72897D5
:103A60000FB6F894DEBF0FBECDBF7C016B01042FF3
:103A70000E94D619F701618184E897E00E94EF2146
:103A8000F701608184E897E00E94EF216AE170E02D
:103A900084E897E00E94C91963E070E084E897E049
:103AA0000E94C919B60184E897E00E94C919CA9416
:103AB000CD2889F410E020E030E044E0BE016F5FE3
:103AC0007F4FC7010E94E8196A8184E897E00E944D
:103AD000EF21698101C0602F84E897E00E94EF2107
:103AE000C7010E94E219C7010E94C01B28960FB6A9
:103AF000F894DEBF0FBECDBFDF91CF911F910F9124
:103B0000FF90EF90DF90CF900895853008F04CC083
:103B1000E82FF0E0EE0FFF1FEF5DF84F7183608339
:103B20008230E1F018F4813069F004C0833019F17B
:103B3000843071F1809169008C7F842B80936900BF
:103B4000E89A089580916900440F551F440F551F4E
:103B5000837F842B80936900E99A0895809169009E
:103B600034E0440F551F3A95E1F78F7C842B809306
:103B70006900EA9A08958091690026E0440F551F74
:103B80002A95E1F78F73842B80936900EB9A08954F
:103B900080916A0094E0440F551F9A95E1F78F7C5D
:103BA000842B80936A00EE9A08951F920F920FB6AD
:103BB0000F9211242F933F934F935F936F937F93B3
:103BC0008F939F93AF93BF93EF93FF9380912107C0
:103BD00090912207892B29F0E0912107F09122078B
:103BE0000995FF91EF91BF91AF919F918F917F9137
:103BF0006F915F914F913F912F910F900FBE0F905A
:103C00001F9018951F920F920FB60F9211242F93A9
:103C10003F934F935F936F937F938F939F93AF9354
:103C2000BF93EF93FF938091230790912407892BF3
:103C300029F0E0912307F09124070995FF91EF9176
:103C4000BF91AF919F918F917F916F915F914F91B4
:103C50003F912F910F900FBE0F901F9018951F92BC
:103C60000F920FB60F9211242F933F934F935F93B0
:103C70006F937F938F939F93AF93BF93EF93FF9334
:103C80008091250790912607892B29F0E09125073F
:103C9000F09126070995FF91EF91BF91AF919F9108
:103CA0008F917F916F915F914F913F912F910F90E5
:103CB0000FBE0F901F9018951F920F920FB60F9284
:103CC00011242F933F934F935F936F937F938F9321
:103CD0009F93AF93BF93EF93FF93809127079091AA
:103CE0002807892B29F0E0912707F09128070995EB
:103CF000FF91EF91BF91AF919F918F917F916F91C4
:103D00005F914F913F912F910F900FBE0F901F9099
:103D100018951F920F920FB60F9211242F933F9375
:103D20004F935F936F937F938F939F93AF93BF93C3
:103D3000EF93FF938091290790912A07892B29F00F
:103D4000E0912907F0912A070995FF91EF91BF9122
:103D5000AF919F918F917F916F915F914F913F9123
:103D60002F910F900FBE0F901F9018951F920F92DA
:103D70000FB60F9211242F933F938F939F93AF937E
:103D8000BF9380912C0790912D07A0912E07B091A1
:103D90002F0730912B0723E0230F2D3720F40196B6
:103DA000A11DB11D05C026E8230F0296A11DB11D5E
:103DB00020932B0780932C0790932D07A0932E0719
:103DC000B0932F078091300790913107A09132076F
:103DD000B09133070196A11DB11D809330079093D8
:103DE0003107A0933207B0933307BF91AF919F91F2
:103DF0008F913F912F910F900FBE0F901F901895AC
:103E00002FB7F89460912C0770912D0780912E07A1
:103E100090912F072FBF08953FB7F89480913007F6
:103E200090913107A0913207B091330726B5A89B36
:103E300005C02F3F19F00196A11DB11D3FBF662798
:103E4000782F892F9A2F620F711D811D911D42E0DD
:103E5000660F771F881F991F4A95D1F70895CF9253
:103E6000DF92EF92FF92CF93DF936B017C010E9470
:103E70000C1FEB01C114D104E104F10489F00E948C
:103E8000D1290E940C1F6C1B7D0B683E734090F380
:103E900081E0C81AD108E108F108C851DC4FEACF27
:103EA000DF91CF91FF90EF90DF90CF9008957894BD
:103EB00084B5826084BD84B5816084BD85B582602F
:103EC00085BD85B5816085BDEEE6F0E080818160CD
:103ED0008083E1E8F0E010828081826080838081CD
:103EE00081608083E0E8F0E0808181608083E1E9A7
:103EF000F0E0808182608083808181608083E0E95E
:103F0000F0E0808181608083E1ECF0E0808184607A
:103F10008083808182608083808181608083E3EC04
:103F2000F0E0808181608083E0ECF0E0808182605D
:103F30008083E2ECF0E0808181608083EAE7F0E05A
:103F400080818460808380818260808380818160C1
:103F50008083808180688083089590E0FC013197A0
:103F6000EF30F105B0F5E158FF4F0C94EF2C809144
:103F700080008F7703C0809180008F7D80938000C8
:103F8000089580918000877FF9CF84B58F7702C034
:103F900084B58F7D84BD0895809190008F7707C090
:103FA000809190008F7D03C080919000877F8093E7
:103FB000900008958091C0008F7703C08091C00069
:103FC0008F7D8093C00008958091C200877F809389
:103FD000C2000895CF93DF9390E0FC01ED5CFD4FAC
:103FE0002491FC01EF5AFD4F8491882349F190E020
:103FF000880F991FFC01E557FD4FA591B491835897
:104000009D4FFC01C591D4919FB7611108C0F894F0
:104010008C91209582238C93888182230AC0623000
:1040200051F4F8948C91322F309583238C938881AE
:10403000822B888304C0F8948C91822B8C939FBF31
:10404000DF91CF9108950F931F93CF93DF931F922A
:10405000CDB7DEB7282F30E0F901EB5EFD4F84913C
:10406000F901ED5CFD4F1491F901EF5AFD4F0491F8
:104070000023C9F0882321F069830E94AD1F698164
:10408000E02FF0E0EE0FFF1FE358FD4FA591B49134
:104090009FB7F8948C91611103C01095812301C0E2
:1040A000812B8C939FBF0F90DF91CF911F910F9128
:1040B0000895CF93DF93282F30E0F901EB5EFD4F99
:1040C0008491F901ED5CFD4FD491F901EF5AFD4F58
:1040D000C491CC2391F081110E94AD1FEC2FF0E030
:1040E000EE0FFF1FE159FD4FA591B4912C912D23A7
:1040F00081E090E021F480E002C080E090E0DF9178
:10410000CF910895CF93DF931F92CDB7DEB7698328
:10411000DC01ED91FC910280F381E02D41E050E063
:10412000BE016F5F7F4F09950F90DF91CF9108958A
:10413000CF93DF93EC018C859D8597FF05C082E0CE
:104140000E9451269D878C878C859D85DF91CF911C
:10415000089583E00C94A628FC018485958597FD3D
:1041600006C082E00E94F92590E00196089582E061
:104170000E94F92590E00895FC018485958597FDBE
:1041800005C02FEF3FEF35872487089582E00C9418
:104190005126CF93DF93EC0180919801882331F071
:1041A00083E00E9482261816190634F081E090E020
:1041B0009B838A8380E090E0DF91CF910895FC019A
:1041C00020812E5F208342E450E069E972E080E8BC
:1041D0000C941D27FC0181819081913A59F4813220
:1041E00009F03CC047E050E061E971E080E00E94E6
:1041F0001D2743C0913291F5803239F467E070E0B9
:1042000081E991E00E944E2706C0823209F035C054
:104210008281809398018091910190919201A09167
:104220009301B0919401803B9440A105B105C1F484
:104230008091980180FD14C087E797E7909301086B
:10424000809300082BE088E190E00FB6F894A895E1
:10425000809360000FBE209360000FC080E008953F
:1042600088E10FB6F89480936000109260000FBE52
:10427000A895109201081092000881E008952FEF90
:104280003FEFFC01358724870895CF93C0919801B3
:104290006AE070E080E090E00E942F1F81E0C11191
:1042A00001C080E0CF910895109237071092360731
:1042B00088EE93E0A0E0B0E0809338079093390750
:1042C000A0933A07B0933B0788ED94E090933507AD
:1042D000809334078FEF9FEF9093410780934007BF
:1042E0000895FC01818D228D90E0805C9F4F821BA0
:1042F00091098F7399270895FC01918D828D9817EC
:1043000031F0828DE80FF11D858D90E008958FEFDB
:104310009FEF0895FC01918D828D981761F0828D39
:10432000DF01A80FB11D5D968C91928D9F5F9F73E9
:10433000928F90E008958FEF9FEF08958EE093E2C3
:10434000892B49F080E090E0892B29F00E940E2310
:1043500081110C9400000895FC01848DDF01A80FE9
:10436000B11DA35ABF4F2C91848D90E001968F739D
:104370009927848FA689B7892C93A089B1898C91BC
:1043800080648C93938D848D981306C00288F38982
:10439000E02D80818F7D80830895CF93DF93EC01A2
:1043A000888D8823C9F0EA89FB89808185FD05C055
:1043B000A889B9898C9186FD0FC00FB607FCF5CF8F
:1043C000808185FFF2CFA889B9898C9185FFEDCFD7
:1043D000CE010E94AC21E7CFDF91CF910895CF921B
:1043E000DF92FF920F931F93CF93DF931F92CDB76E
:1043F000DEB76C01DC015B969C915B975C968C91BF
:104400005C97981307C05096ED91FC91519780816D
:1044100085FD32C0F601038D10E00F5F1F4F0F7353
:104420001127F02EF601848DF81211C00FB607FC8B
:10443000F9CFD6015096ED91FC915197808185FF7F
:10444000F1CFC60169830E94AC216981EBCF838DD6
:10445000E80FF11DE35AFF4F6083D6015B960C9382
:104460005B975296ED91FC91539780818062808397
:1044700081E058968C930DC0D6015696ED91FC9133
:10448000579760835096ED91FC915197808180649D
:10449000808381E090E00F90DF91CF911F910F9189
:1044A000FF90DF90CF900895BF92CF92DF92EF926E
:1044B000FF92CF93DF93EC016A017B01B22EE88972
:1044C000F98982E08083411581EE58076105710505
:1044D000A1F060E079E08DE390E0A70196010E94F1
:1044E000AE2C215031094109510956954795379510
:1044F0002795211580E1380798F0E889F98910821D
:1045000060E874E88EE190E0A70196010E94AE2C6D
:1045100021503109410951095695479537952795FD
:10452000EC85FD853083EE85FF852083188EEC8930
:10453000FD89B082EA89FB89808180618083EA8974
:10454000FB89808188608083EA89FB89808180681B
:104550008083EA89FB8980818F7D8083DF91CF9181
:10456000FF90EF90DF90CF90BF9008951F920F9231
:104570000FB60F9211242F938F939F93EF93FF9376
:10458000E0919407F09195078081E0919A07F0916E
:104590009B0782FD12C0908180919D078F5F8F7372
:1045A00020919E07821751F0E0919D07F0E0EC57B3
:1045B000F84F958F80939D0701C08081FF91EF9107
:1045C0009F918F912F910F900FBE0F901F90189574
:1045D0001F920F920FB60F9211242F933F934F9378
:1045E0005F936F937F938F939F93AF93BF93EF935B
:1045F000FF9384E897E00E94AC21FF91EF91BF9177
:10460000AF919F918F917F916F915F914F913F916A
:104610002F910F900FBE0F901F90189584E897E090
:104620000E94712121E0892B09F420E0822F089556
:10463000109287071092860788EE93E0A0E0B0E022
:104640008093880790938907A0938A07B0938B077C
:1046500088EE94E090938507809384078DEC90E03A
:1046600090939107809390078CEC90E09093930740
:104670008093920788EC90E090939507809394073D
:1046800089EC90E090939707809396078AEC90E0EE
:1046900090939907809398078EEC90E090939B07F6
:1046A00080939A0710929D0710929E0710929F0781
:1046B0001092A007089508950E94571F0E945B233F
:1046C00088E298E00E9406290E942008CEE9D1E203
:1046D0000E94370B2097E1F30E949E21F9CFCF92E1
:1046E000DF92EF92FF920F931F93CF93DF936C01B2
:1046F0007A01EB01E60EF71E00E010E0CE15DF05B3
:1047000061F06991D601ED91FC910190F081E02D6D
:10471000C6010995080F191FF1CFC801DF91CF918C
:104720001F910F91FF90EF90DF90CF90089561154A
:10473000710581F0DB010D900020E9F7AD014150DA
:104740005109461B570BDC01ED91FC910280F3816E
:10475000E02D099480E090E00895EF92FF920F938E
:104760001F93CF93DF938C01FB01C0E0D0E06491F5
:104770007F018FEFE81AF80A662361F0D801ED9106
:10478000FC910190F081E02DC8010995C80FD91F57
:10479000F701EDCFCE01DF91CF911F910F91FF90E7
:1047A000EF9008950C949723DC01ED91FC9101901A
:1047B000F081E02D09940F931F93CF93DF93EC01C9
:1047C0006DE00E94D4238C016AE0CE010E94D423C4
:1047D000800F911FDF91CF911F910F9108950F933B
:1047E0001F93CF93DF93EC010E94AD238C01CE0188
:1047F0000E94DB23800F911FDF91CF911F910F91BA
:1048000008950F931F93CF93DF93EC010E9497239A
:104810008C01CE010E94DB23800F911FDF91CF918D
:104820001F910F9108958F929F92AF92BF92CF9256
:10483000DF92EF92FF920F931F93CF93DF93CDB749
:10484000DEB7A1970FB6F894DEBF0FBECDBF7C01D7
:10485000C42EE52FCB01D22E19A221E02D1510F088
:104860002AE0D22E8E010F5D1F4F8D2C912CA12C92
:10487000B12C6C2D7E2FA50194010E94AE2C8C2DA5
:10488000D29E80191124015011098A3014F4805DE0
:1048900001C0895CF801808321153105410551056E
:1048A00021F0C22EE32FCA01E4CFB801C7010E9454
:1048B0009723A1960FB6F894DEBF0FBECDBFDF9150
:1048C000CF911F910F91FF90EF90DF90CF90BF900D
:1048D000AF909F908F900895CF92DF92EF92FF92CA
:1048E0000F931F93CF93DF93EC016A017B01211596
:1048F000310579F4E881F9810190F081E02D642F90
:10490000DF91CF911F910F91FF90EF90DF90CF90AB
:1049100009942A303105E9F477FF1AC06DE20E944C
:10492000D4238C0144275527BA014C195D096E091F
:104930007F092AE0CE010E941324800F911FDF918E
:10494000CF911F910F91FF90EF90DF90CF9008953E
:104950002AE0B701A601CE01DF91CF911F910F91FF
:10496000FF90EF90DF90CF900C9413249A01AB014D
:10497000662757FD6095762F0C946C242115310520
:1049800041F4DC01ED91FC910190F081E02D642F68
:1049900009940C9413249A01462F50E060E070E0D3
:1049A0000C94BE240F931F93CF93DF93EC019A01D5
:1049B000462F50E060E070E00E94BE248C01CE01E2
:1049C0000E94DB23800F911FDF91CF911F910F91E8
:1049D00008959A01AB0160E070E00C94BE2482302F
:1049E000A1F028F4882341F0813049F00895833004
:1049F00091F08430B1F0089510926E000895809186
:104A00006F008D7F80936F000895809170008D7F7F
:104A1000809370000895809171008D7F8093710064
:104A20000895809172008F7B8093720008951F9289
:104A30000F920FB60F9211242F933F934F935F93D2
:104A40006F937F938F939F93AF93BF93EF93FF9356
:104A50008091240890912508A0912608B0912708FC
:104A6000892B8A2B8B2B51F190912108E091220800
:104A7000F091230880818927808380912408909178
:104A80002508A0912608B0912708181619061A06BD
:104A90001B062CF58091240890912508A0912608EA
:104AA000B09127080197A109B10980932408909338
:104AB0002508A0932608B093270811C083E00E9420
:104AC000EF2420912108E0912208F09123088081B1
:104AD00090E030E020953095822393238083FF91EE
:104AE000EF91BF91AF919F918F917F916F915F9166
:104AF0004F913F912F910F900FBE0F901F901895DF
:104B000040912C0850912D0820912A0830912B08B3
:104B100042175307B4F49091E8009570E1F3909137
:104B2000E80092FD19C08093F10080912C089091CB
:104B30002D0801968F739927892B19F48EEF809396
:104B4000E80080912C0890912D08019690932D08F3
:104B500080932C0881E0089580E00895CF92DF9241
:104B6000FF920F931F93CF93DF931F92CDB7DEB7C2
:104B7000082F162F862F880F8E5F99830E9480251D
:104B800083E00E948025F02EC02E9981D92E8C2D95
:104B90008F19811778F4F60184910E948025082FDF
:104BA00080E00E9480258023FFEFCF1ADF0A811169
:104BB000EECF01C081E00F90DF91CF911F910F9157
:104BC000FF90DF90CF900895615030F02091F10078
:104BD000FC0120830196F8CF289884E680932F0863
:104BE00008952FB7FC012083F89467706093E90063
:104BF0000895CF93DF931F92CDB7DEB7682FCE0114
:104C000001960E94F1258091F20099819FBF0F903B
:104C1000DF91CF910895FF920F931F93CF93DF936E
:104C200000D0CDB7DEB7F62E8A0190912E089923D9
:104C300011F057FF03C08FEF9FEF2BC0682FCE01FD
:104C400001967A830E94F1258091F20090E0A801FC
:104C50007A81801791070CF4AC01EF2DF72FF40E39
:104C600084E6FE1639F0289880932F089091F10081
:104C70009193F7CF4115510521F08091F2008823DF
:104C800021F089818FBFCA0104C08BE68093E800C0
:104C9000F8CF0F900F90DF91CF911F910F91FF9060
:104CA0000895CF93DF931F92CDB7DEB741E050E078
:104CB000BE016F5F7F4F0E940B26019719F4898117
:104CC00090E002C08FEF9FEF0F90DF91CF9108959A
:104CD000CF93DF931F92CDB7DEB7682FCE01019639
:104CE0000E94F1259091E800892F807295FF04C001
:104CF0009091F20080E4891B99819FBF0F90DF9112
:104D0000CF9108956F927F928F929F92AF92BF92B0
:104D1000CF92DF92EF92FF920F931F93CF93DF9387
:104D20001F92CDB7DEB7782E7B01C42EB52E8091B1
:104D30002E08882369F0042F152F8AEFD82E872D8F
:104D40008072982E9AE3A92E872D8074882E11C028
:104D50008FEF9FEF57C0872D0E946826682E811124
:104D60000CC0DA94A9F361E070E080E090E00E946A
:104D70002F1F0115110579F73BC0282F30E00217CE
:104D800013070CF4602E672DCE0101960E94F125C9
:104D90008091E80085FF29C0262D30E0021B130B0F
:104DA000992039F06A948FEF6816B1F01092F100F3
:104DB000F9CFF701862D77FE07C0815058F0949106
:104DC0009093F1003196F9CF815020F0919190931A
:104DD000F100FACFE20EF31E8091E80085FF0FC0CC
:104DE0000115110511F481100AC089818FBFC1CF4F
:104DF0005D9884E6809330088C2D9B2D03C0A09293
:104E0000E800F3CF0F90DF91CF911F910F91FF90AA
:104E1000EF90DF90CF90BF90AF909F908F907F905A
:104E20006F9008951092E90010922D0810922C08AE
:104E300090932B0880932A080895CF92DF92FF92D7
:104E40000F931F93CF93DF9300D0CDB7DEB7F82E2B
:104E50008A016B0101151105B1F0F601F7FE02C0E0
:104E6000849101C0808149835A830E94802501502A
:104E70001109FFEFCF1ADF0A49815A818111EACF68
:104E80008FEF9FEF01C0CA010F900F90DF91CF917C
:104E90001F910F91FF90DF90CF9008951F93CF93B4
:104EA000DF931F92CDB7DEB7162F2091E80022FFC7
:104EB000FCCF612F79830E94E4258BEF8093E8007B
:104EC000812F7981972F0F90DF91CF911F910895B6
:104ED000CF93DF931F92CDB7DEB71982CE01019633
:104EE0000E94DF20CE0101960E94F029898190E086
:104EF0000F90DF91CF9108951F920F920FB60F92EE
:104F00001124EF92FF920F931F932F933F934F9390
:104F10005F936F937F938F939F93AF93BF93EF9321
:104F2000FF93CF93DF93CDB7DEB76297DEBFCDBFE0
:104F30001092E9008091E80083FFEBC068E0CE01A9
:104F40000A960E94E42582EF8093E8009A8597FFF5
:104F500005C08091E80080FFFCCF03C08EEF8093F6
:104F6000E800892F807609F0B9C08B85811105C0D2
:104F70001092F1001092F100C5C0282F2D7F213032
:104F800009F4C0C0853049F48091E80080FFFCCF6F
:104F90008C8580688093E300B5C0863009F076C0C8
:104FA0002D85E888F988223071F580E090E02A8B21
:104FB0000E9412270E94682799E08E010F5F1F4F01
:104FC000F801392F11923A95E9F799832A892A83B2
:104FD00091E09E8390E898879AEF998720912C081A
:104FE00030912D08275F3F4F3C832B838D83C70172
:104FF0000E94122749E050E0B80180E00E941D277E
:105000000E9468277FC0C7012A8B0E9412272A8925
:10501000223241F482E290E00E94FB29892B09F0C0
:1050200071C074C0213069F488899989089711F496
:105030002093290880912908811118C062EF72E03D
:105040001AC0233009F062C08C85882391F0823029
:1050500021F460E180E193E006C0813009F056C0A0
:105060006BE084E093E00E94AE254AC060EE72E0FF
:1050700002C061E273E06115710509F447C0FB01EC
:10508000449150E080E80E941D273CC0873009F41D
:105090003DC0883021F481E08093F10033C0893035
:1050A00089F5937099F5ECEDF2E081E021E096E36B
:1050B0008093E9002093EB0034913093EC009093BF
:1050C000ED008F5F3196853099F78EE78093EA0087
:1050D0001092EA008C8580932E0814C088899989E3
:1050E0000E9412278E85811105C0CE010A960E946A
:1050F000EA2006C0823051F4CE010A960E94232A8B
:10510000882321F08EEF8093E80003C081E2809332
:10511000EB0062960FB6F894DEBF0FBECDBFDF91F5
:10512000CF91FF91EF91BF91AF919F918F917F911F
:105130006F915F914F913F912F911F910F91FF9030
:10514000EF900F900FBE0F901F9018958093E9007D
:105150008091F200882319F08AE38093E800089593
:105160001F920F920FB60F9211242F933F934F93DC
:105170005F936F937F938F939F93AF93BF93EF93BF
:10518000FF938091E1001092E10083FF0FC0109225
:10519000E90091E09093EB001092EC0092E3909381
:1051A000ED0010922E0898E09093F00082FF1DC051
:1051B00083E00E94A62880913008882339F08091EE
:1051C0003008815080933008882369F080912F083F
:1051D000882359F080912F08815080932F088111E6
:1051E00004C0289A02C05D9AF1CFFF91EF91BF9160
:1051F000AF919F918F917F916F915F914F913F916F
:105200002F910F900FBE0F901F90189510922E089F
:1052100081E08093D70080EA8093D80082E189BD45
:1052200009B400FEFDCF61E070E080E090E00E94F4
:105230002F1F80E98093D8008CE08093E2001092C9
:10524000E000559A209A0895FC01808191810C9488
:10525000C32DCF93DF93EC0188819981009711F0E2
:105260000E94C32D198218821D821C821B821A8201
:10527000DF91CF9108950F931F93CF93DF93EC01AC
:105280008B016F5F7F4F888199810E94522E00971A
:1052900031F0998388831B830A8381E001C080E019
:1052A000DF91CF911F910F910895CF93DF93EC0180
:1052B00088819981892B29F08A819B81861797079C
:1052C00060F4CE010E943B29882341F08C819D81AE
:1052D000892B19F4E881F981108281E0DF91CF9167
:1052E0000895EF92FF920F931F93CF93DF93EC01FA
:1052F0007B018A01BA010E945529811104C0CE01A7
:105300000E94292907C01D830C83B70188819981D8
:105310000E944B2FCE01DF91CF911F910F91FF90F3
:10532000EF900895FC01118210821382128215827F
:1053300014826115710559F0FB0101900020E9F715
:10534000AF0141505109461B570B0C947129089528
:10535000CF93DF93EC01FB018617970761F0608123
:1053600071816115710529F0448155810E9471296F
:1053700002C00E942929CE01DF91CF910895FC013E
:10538000848195816817790720F480819181009745
:1053900029F41092310881E398E00895860F971F51
:1053A00008950895FF920F931F93CF93DF93EC011D
:1053B000F62EE881F9810480F581E02D09958C01B4
:1053C000E881F9810680F781E02D6F2DCE010995E6
:1053D000C8019927DF91CF911F910F91FF900895F8
:1053E000FC0120812F5F208349E150E065EA73E0F2
:1053F00080E80C941D2745E650E06EEB73E080E8F2
:105400000C941D27EF92FF920F931F93CF93DF937E
:105410001F92CDB7DEB789838B017A0141E050E05E
:10542000BE016F5F7F4F84E00E948226A701B80112
:1054300084E40E9482260F90DF91CF911F910F91FB
:10544000FF90EF900895FC0191818081813A31F4C1
:1054500081E0913091F0933089F411C0813271F480
:105460009B3021F4828180939A0105C09A3031F4F7
:1054700082818093990181E00895089580E00895E4
:1054800048E050E082E00C94022ACF93DF93DC01E5
:10549000683818F0E8E7E60F25C0E62FF0E067FF70
:1054A00011C0E058F10981E090E001C0880FEA9551
:1054B000EAF714969C911497982B14969C93149742
:1054C000E0E010C0EB5DFC4FE491EE2309F440C036
:1054D000E7FF08C014968C911497826014968C9301
:1054E0001497EF7716968C9116978E1741F11796B1
:1054F0008C9117978E1719F118968C9118978E1713
:10550000F1F019968C9119978E17C9F01A968C9113
:105510001A978E17A1F01B968C911B978E1779F016
:1055200080E090E0ED01C80FD91F2E81211102C04B
:10553000EE8305C0019686309105A1F709C0BD0133
:105540006C5F7F4FCD010E94402A81E090E008C04F
:1055500081E090E013969C938E93129780E090E008
:10556000DF91CF910895683818F0E8E7E60F25C07D
:10557000E62FF0E067FF12C0E058F10921E030E0CB
:1055800001C0220FEA95EAF72095DC0114963C91C0
:105590001497322314963C93E0E00FC0EB5DFC4F70
:1055A000E491EE2329F1E7FF08C0DC0114962C9169
:1055B00014972D7F14962C93EF7720E030E0EE23A4
:1055C00051F0DC01A20FB31F16964C9116974E13A3
:1055D00002C016961C922F5F3F4F2630310579F797
:1055E000BC016C5F7F4F0E94402A81E090E00895EB
:1055F00080E090E00895FC011682178210861186E3
:10560000128613861482BC016C5F7F4F0C94402A73
:1056100010923E08109235081092340888EF94E0FA
:10562000909333088093320808959CD008F481E069
:1056300008950CD0D2C0CAD040F0C1D030F021F4CF
:105640005F3F19F0B3C05111FCC0B6C0D7D098F37A
:105650009923C9F35523B1F3951B550BBB27AA27F3
:1056600062177307840738F09F5F5F4F220F331F65
:10567000441FAA1FA9F333D00E2E3AF0E0E830D031
:1056800091505040E695001CCAF729D0FE2F27D034
:10569000660F771F881FBB1F261737074807AB0702
:1056A000B0E809F0BB0B802DBF01FF2793585F4F77
:1056B0002AF09E3F510568F079C0C3C05F3FECF30C
:1056C000983EDCF3869577956795B795F7959F5F3C
:1056D000C9F7880F911D9695879597F90895E1E090
:1056E000660F771F881FBB1F621773078407BA07EF
:1056F00020F0621B730B840BBA0BEE1F88F7E0954A
:10570000089504D06894B1119CC008957FD088F0AA
:105710009F5790F0B92F9927B751A0F0D1F0660F9D
:10572000771F881F991F1AF0BA95C9F712C0B130B8
:1057300081F086D0B1E0089583C0672F782F882745
:10574000B85F39F0B93FCCF3869577956795B395F7
:10575000D9F73EF490958095709561957F4F8F4F66
:105760009F4F0895990F0008550FAA0BE0E8FEEF30
:1057700016161706E807F907C0F012161306E40715
:10578000F50798F0621B730B840B950B39F40A260E
:1057900061F0232B242B252B21F408950A2609F4EC
:1057A000A140A6958FEF811D811D089597F99F67F0
:1057B00080E870E060E008959FEF80EC0895002499
:1057C0000A941616170618060906089500240A9466
:1057D00012161306140605060895092E0394000CEC
:1057E00011F4882352F0BB0F40F4BF2B11F460FF7B
:1057F00004C06F5F7F4F8F4F9F4F089557FD9058A4
:10580000440F551F59F05F3F71F04795880F97FB84
:10581000991F61F09F3F79F087950895121613063E
:105820001406551FF2CF4695F1DF08C0161617066D
:105830001806991FF1CF86957105610508940895A2
:10584000E894BB2766277727CB0197F908950BD0FB
:10585000C4CFB5DF28F0BADF18F0952309F0A6CF42
:10586000ABCF1124EECFCADFA0F3959FD1F3950FF4
:1058700050E0551F629FF001729FBB27F00DB11DD4
:10588000639FAA27F00DB11DAA1F649F6627B00D64
:10589000A11D661F829F2227B00DA11D621F739F4D
:1058A000B00DA11D621F839FA00D611D221F749F5B
:1058B0003327A00D611D231F849F600D211D822FA2
:1058C000762F6A2F11249F5750408AF0E1F08823E9
:1058D0004AF0EE0FFF1FBB1F661F771F881F9150F6
:1058E0005040A9F79E3F510570F060CFAACF5F3FAF
:1058F000ECF3983EDCF3869577956795B795F79529
:10590000E7959F5FC1F7FE2B880F911D96958795B0
:1059100097F90895DB018F939F930E94F52CBF9117
:10592000AF91A29F800D911DA39F900DB29F900DEE
:105930001124089597FB072E16F4009407D077FDE5
:1059400009D00E94082D07FC05D03EF49095819562
:105950009F4F0895709561957F4F0895A1E21A2E8B
:10596000AA1BBB1BFD010DC0AA1FBB1FEE1FFF1F03
:10597000A217B307E407F50720F0A21BB30BE40B53
:10598000F50B661F771F881F991F1A9469F760959A
:105990007095809590959B01AC01BD01CF01089554
:1059A000052E97FB1EF400940E94E72C57FD07D0AC
:1059B0000E94AE2C07FC03D04EF40C94E72C5095BB
:1059C0004095309521953F4F4F4F5F4F08959095EB
:1059D0008095709561957F4F8F4F9F4F0895EE0F83
:1059E000FF1F0590F491E02D09940E941C2DA59FA6
:1059F000900DB49F900DA49F800D911D11240895CA
:105A0000B7FF0C94F52C0E94F52C821B930B089584
:105A1000AA1BBB1B51E107C0AA1FBB1FA617B707D4
:105A200010F0A61BB70B881F991F5A95A9F78095F0
:105A30009095BC01CD010895A29FB001B39FC00114
:105A4000A39F700D811D1124911DB29F700D811DAA
:105A50001124911D0895CF93DF938230910510F4A6
:105A600082E090E0E0914108F091420820E030E0CF
:105A7000A0E0B0E0309739F14081518148175907D3
:105A8000B8F04817590771F482819381109729F073
:105A900013969C938E9312972CC0909342088093F8
:105AA000410827C02115310531F04217530718F07E
:105AB000A901DB0101C0EF019A01BD01DF010280F4
:105AC000F381E02DD7CF21153105F9F0281B390BD3
:105AD0002430310580F48A819B816115710521F0A4
