:100000000C9402020C94A11A0C94CE1A0C94FB1AB4
:100010000C94281B0C942A020C942A020C94551B55
:100020000C942A020C941D0F0C944A250C9416244F
:100030000C942A020C942A020C942A020C942A0290
:100040000C942A020C942A020C942A020C942A0280
:100050000C942A020C942A020C942A020C94821BFF
:100060000C942A020C946D1F0C949F1F0C942A026E
:100070000C942A020C942A020C942A020C942A0250
:100080000C94B1210C942A020C942A020C942A029A
:100090000C9428120C942A020C942A020C942A0222
:1000A0000C942A020C942A020C942A02F20B050CDE
:1000B000150C280C300C5C0C640C6C0C740C7B0C58
:1000C0007B0C7B0C7B0C7B0C7B0C7B0C7B0C7B0CF8
:1000D0007B0C7B0C7B0C7B0C7B0C7B0C7B0C7B0CE8
:1000E0007B0C7B0C7B0C7B0C7B0C7B0CF20BFE0BE0
:1000F000050C150C280C300C430C4B0C530C911CAC
:10010000941C831C871C8D1CB51CB51CB51C981C2D
:100110009C1CA01CA61CAA1CB51CB01C20202020C6
:10012000202020202000202020202020202020000F
:1001300020202020006379636C657300466F723A5B
:1001400000534B495020456E61626C65642020204D
:10015000202020003220323520343900534B4950C2
:10016000202D20484F555253204F6666006669780F
:100170002061676520494E56414C494400202020AB
:10018000202020202020002020202020200024507B
:100190004D544B3330302C313030302C302C302C0F
:1001A000302C302A31430024504D544B3232302C05
:1001B000313030302A31460024504D544B333134E5
:1001C0002C302C312C302C302C302C302C302C304E
:1001D0002C302C302C302C302C302C302C302C303F
:1001E0002C302C302C302A3239000000000200095B
:1001F0000F0000030401000C0000000000000000DC
:1002000000000000000000000408020110408040CF
:10021000102040804080080204018040201002012C
:10022000108010204040040404040403040502026A
:10023000020204030202020206060606060604047F
:1002400002020204000000002300260029002C0006
:100250002F0000000000250028002B002E00310098
:1002600000000000240027002A002D003000080BA9
:100270000002020201000904000001020200000560
:1002800024001001052401010104240206052406AE
:1002900000010705810310004009040100020A0063
:1002A000000007050202400000070583024000002D
:1002B00000C18081C11201000202000040412336CA
:1002C0008000010102000112010002000000404113
:1002D00023368000010102000141726475696E6F6E
:1002E000204C4C430041726475696E6F204C656F01
:1002F0006E6172646F0004030904000000000000D6
:1003000000002A2B28000000000000000000000070
:10031000000000000000000000002C9EB4A0A1A27C
:10032000A434A6A7A5AE362D3738271E1F202122BC
:1003300023242526B333B62EB7B89F8485868788B5
:10034000898A8B8C8D8E8F909192939495969798A5
:10035000999A9B9C9D2F3130A3AD35040506070863
:10036000090A0B0C0D0E0F10111213141516171885
:10037000191A1B1C1DAFB1B0B5000904020001031E
:100380000000000921010100012265000705840326
:1003900040000105010902A1010901A10085010533
:1003A000091901290315002501950375018102959D
:1003B00001750581030501093009310938158125C9
:1003C0007F750895038106C0C005010906A1018556
:1003D00002050719E029E715002501750195088137
:1003E00002950175088103950675081500256505B8
:1003F00007190029658100C0E7058A110B1ECF1F70
:10040000A227170611241FBECFEFDAE0DEBFCDBF53
:1004100014E0A0E0B1E0E0E7F8E502C005900D923D
:10042000A23AB107D9F727E0A2EAB4E001C01D92D1
:10043000A43BB207E1F713E0C2E0D4E004C0229786
:10044000FE010E948B29C83FD107C9F70E941320E3
:100450000C942B2C0C940000CF93DF938091E70435
:1004600090E0019624EB30E0B9010E94342980939A
:10047000E70480910B0190910C010196B9010E9453
:10048000342990930C0180930B018091E60488231A
:1004900091F0C091E204D091E3040E94CC1B7093D0
:1004A000E3046093E2040E94CC1B6C1B7D0B7093F1
:1004B000E5046093E40481E08093E804DF91CF9148
:1004C000089584E090E00E94EC2B9FEF980F91310B
:1004D00008F08FEF08951092E6048091E404909163
:1004E000E504892B99F02091E4043091E504C901D9
:1004F000880F991F820F931F97FD039695958795F7
:1005000095958795909307018093060108950F9321
:100510001F93CF93DF9300D000D000D0CDB7DEB7CC
:100520008C018BEA94E00E945C1540E050E060EBA7
:1005300071E48BEA94E00E946115B801CE01019646
:100540000E942C26BE016F5F7F4F8BEA94E00E94D1
:10055000CD15CE0101960E94BE2526960FB6F894C1
:10056000DEBF0FBECDBFDF91CF911F910F910895D8
:1005700060E085E00E94EF1C60E08CE00E94EF1CD0
:100580008BEA94E00E949C1681E08093E10460E095
:1005900085E00C94EF1CCF92DF92EF92FF9289EEF0
:1005A00094E00E944D140E94CC1B6B017C0189EEEB
:1005B00094E00E949914882391F089EE94E00E94BF
:1005C0004D140E94CC1B6C197D098E099F09613165
:1005D00077428105910558F383E090E040C00E9486
:1005E000CC1B6B017C0189EE94E00E94991481116F
:1005F00010C089EE94E00E944D140E94CC1B6C192F
:100600007D098E099F09613177428105910558F373
:10061000E3CFC12CD12C760189EE94E00E9499148D
:100620008823A1F089EE94E00E944D148FEFC81A40
:10063000D80AE80AF80A21E7C21621E1D20621E029
:10064000E206F10449F782E090E009C080E2C816B2
:100650008EE4D806E104F104B0F781E090E0FF9069
:10066000EF90DF90CF900895EF92FF920F931F933A
:10067000CF93DF93CDB7DEB72C970FB6F894DEBFDC
:100680000FBECDBF86E0ECE9F1E0DE0117960190E8
:100690000D928A95E1F786E0E2EAF1E0DE0111963B
:1006A00001900D928A95E1F70E94CB02039709F41D
:1006B000B1C081EF94E00E94DF1360E086E00E9409
:1006C000EF1C60E089E00E94EF1C61E084E00E9482
:1006D000EF1C40E060E081EF94E00E9472136CE553
:1006E00071E081EF94E00E94642040E061E081EFDE
:1006F00094E00E94721364E571E081EF94E00E943F
:10070000642081EF94E00E94E81340E061E081EF13
:1007100094E00E94721389EE94E00E944D1489EED9
:1007200094E00E9499148111F6CF00E010E073E08C
:10073000E72EF12C0E94CB0282309105E1F083304C
:10074000910509F467C00197A9F7C8010196B7019F
:100750000E9434298C01FC01EE0FFF1F81E090E024
:100760008C0F9D1FE80FF91F468161E081EF94E037
:100770000E947213DFCFF801EE0FFF1F81E090E0BF
:100780008C0F9D1FE80FF91F8081918190938A053E
:100790008093890581E090E0909388058093870598
:1007A00040E060E081EF94E00E94721361E471E048
:1007B00081EF94E00E94642040E061E081EF94E0EA
:1007C0000E9472136CE371E081EF94E00E94642058
:1007D00045E061E081EF94E00E9472136091890529
:1007E00070918A054AE050E081EF94E00E946D210B
:1007F00049E061E081EF94E00E94721365E371E0EB
:1008000081EF94E00E94642068E873E180E090E06A
:100810000E94FB1B80E090E02C960FB6F894DEBFA0
:100820000FBECDBFDF91CF911F910F91FF90EF9041
:10083000089561E08DE00E94B61C61E085E00E94B1
:10084000B61C61E08CE00E94B61C61E08CE00E9466
:10085000EF1C60E085E00E94EF1C60E08DE00C94EE
:10086000EF1C61E08CE00E94EF1C61E085E00E94DB
:10087000B61C61E08CE00E94B61C60E08DE00E9436
:10088000EF1C26E040EC52E160E070E085EF96E07E
:100890000E940B1F63E070E082EA94E00E943D1921
:1008A00040E062E470E082EA94E00E94F1196AE0BC
:1008B00070E082EA94E00E94CA1940E86AE070E0C1
:1008C00082EA94E00E9492196AE070E082EA94E081
:1008D0000E94CA1980E296E2A7EDB0E08093A704D7
:1008E0009093A804A093A904B093AA0440E256E20E
:1008F00067ED70E082EA94E00C9464198F3009F49B
:100900004BC0D8F48A3009F45CC08C3009F06EC05A
:1009100080ED96E6ACE7B1E08093A7049093A8043D
:10092000A093A904B093AA0447E061E081EF94E0AA
:100930000E94721368EF71E06DC08131C1F08431A3
:1009400009F054C080E296E2A7EDB0E08093A704DE
:100950009093A804A093A904B093AA0447E061E08F
:1009600081EF94E00E9472136CEE71E053C080E35B
:1009700096E5A4E1B1E08093A7049093A804A09326
:10098000A904B093AA0447E061E081EF94E00E94DB
:10099000721360EF71E03EC080E399EBA2E4B1E036
:1009A0008093A7049093A804A093A904B093AA04E9
:1009B00047E061E081EF94E00E94721364EF71E020
:1009C00029C080E49CE4AEEAB1E08093A704909350
:1009D000A804A093A904B093AA0447E061E081EFC2
:1009E00094E00E9472136CEF71E014C080E49CE408
:1009F000AEEAB1E08093A7049093A804A093A90461
:100A0000B093AA0447E061E081EF94E00E94721382
:100A100060E072E081EF94E00E9489204091A70499
:100A20005091A8046091A9047091AA0482EA94E00C
:100A30000E9464191092E1040895CF93C82F4BE0EF
:100A400061E081EF94E00E9472134AE050E06C2F65
:100A500081EF94E00E9482214DE061E081EF94E01B
:100A60000E94721364E072E081EF94E00E9489209A
:100A700060E08DE00E94EF1CCE3171F038F4C4319B
:100A800059F461E08DE00E94EF1C06C0C83231F0DD
:100A9000C23311F446EE03C040E001C047E161E01B
:100AA00070E082EA94E0CF910C94F11960E085E067
:100AB0000E94EF1C60E08DE00E94EF1C61E08CE082
:100AC0000E94EF1C60E086E00E94EF1C60E089E07D
:100AD0000E94EF1C61E084E00C94EF1C20918705DC
:100AE00030918805232B09F071C00E947E0482E3B7
:100AF0000E941D0568EF70E080E090E00E94FB1B03
:100B000060E086E00E94EF1C60E084E00E94EF1C41
:100B100061E089E00E94EF1C0E94B8026AEF70E079
:100B200080E090E00E94FB1B61E085E00E94EF1CEA
:100B300063EE73E080E090E00E94FB1B60E085E0E4
:100B40000E94EF1C88E20E941D0561E085E00E9482
:100B5000EF1C63EE73E080E090E00E94FB1B60E01E
:100B600085E00E94EF1C8EE10E941D0561E085E09A
:100B70000E94EF1C63EE73E080E090E00E94FB1B9C
:100B800060E085E00E94EF1C84E10E941D0561E0A9
:100B900085E00E94EF1C63EE73E080E090E00E942D
:100BA000FB1B60E085E00E94EF1C0E94560582E37B
:100BB0000E941D0547E061E081EF94E00E947213FE
:100BC0006CE171E081EF94E00C94642008950F9340
:100BD00020E04BE068E088E695E00E94F00F85EFAA
:100BE00094E00E947D0900E028E230E040E162E00C
:100BF00081EF94E00E945C1389EE94E00E94281437
:100C000020E030E040E451E465E070E08BEA94E0FD
:100C10000E94A91686EA94E00E94B51626EA34E0FE
:100C200046E760EE82EA94E00F910C9422178FE57C
:100C300094E09093AC048093AB0483EB94E00E9427
:100C4000BE2588E695E00C94970F8F929F92AF9205
:100C5000BF92CF92DF92EF92FF920F931F93CF93A9
:100C6000DF93CDB7DEB72C970FB6F894DEBF0FBE7B
:100C7000CDBF6B017C0185EA96E00E94751D88E678
:100C800095E00E94F40E81E0C81AD108E108F1084D
:100C90001C141D041E041F040CF070C088E695E0AF
:100CA0000E94B70E892B09F462C088E695E00E9485
:100CB0002A0E182F682F85EA96E00E944E1D85EABD
:100CC00096E00E94751D612F85EF94E00E94840CD0
:100CD0008823C9F285EA96E00E9492209E012F5F48
:100CE0003F4F4901CE0107965C01295F3F4F6901E3
:100CF00002967C018E01065F1F4F2D5F3F4FAE01B4
:100D0000445F5F4FBE016B5F7F4F85EF94E00E94B1
:100D10005A0D89819A81AB81BC818F3F9F4FAF4F24
:100D2000BF4FE1F02985888590E03CE3239F800D4B
:100D3000911D112464EB70E00E94342901962091EA
:100D4000E70430E02817390781F021E030E03093E4
:100D50000A01209309018093E70407C06DE671E062
:100D600085EA96E00E94642009C011E008C064E6AC
:100D700070E080E090E00E94FB1B85CF10E088E6E9
:100D800095E00E94DE0E85EA96E00E94751D812F97
:100D90002C960FB6F894DEBF0FBECDBFDF91CF917A
:100DA0001F910F91FF90EF90DF90CF90BF90AF9089
:100DB0009F908F900895CF930E9419040E94610222
:100DC00080930D0162E08AE00E94B61C61E086E03B
:100DD0000E94B61C61E084E00E94B61C61E089E0DC
:100DE0000E94B61C60E084E00E94EF1C60E089E095
:100DF0000E94EF1C61E086E00E94EF1C81EF94E00E
:100E00000E94EE1381EF94E00E94E51340E060E061
:100E100081EF94E00E94721368E072E081EF94E049
:100E20000E94892046E060E081EF94E00E94721306
:100E3000A0910D01C7E0CA9FD0011124A25FBE4F4F
:100E40006D917C9181EF94E00E9489204DE060E0FB
:100E500081EF94E00E947213E0910D01CE9FF001AA
:100E60001124E25FFE4F4AE050E0668181EF94E09A
:100E70000E94822140E061E081EF94E00E947213C1
:100E80006DE072E081EF94E00E94892040E061E033
:100E900081EF94E00E9472136EE172E081EF94E0C2
:100EA0000E94892062E083E00E94B61C43E050E08B
:100EB0006CE272E084E00E94511A40E855E260E082
:100EC00070E088E695E00E94201068EB71E088E60B
:100ED00095E00E94A62067EA71E088E695E00E940E
:100EE000A6206EE871E088E695E00E94A62068EEF4
:100EF00073E080E090E00E94FB1B88E695E00E9492
:100F0000DE0E40E061E081EF94E00E9472136FE238
:100F100072E081EF94E00E9489206FEF7FEF8FEF06
:100F20009FE70E9425068823C1F381E08093E604B1
:100F300068E873E180E090E00E94FB1B0E946B0276
:100F400040E061E081EF94E00E9472136FE372E091
:100F500081EF94E00E9489200E943104E0910D010C
:100F600087E0E89FF0011124E25FFE4F80819181CC
:100F70000E9487026AE070E089EE94E00E943414D7
:100F80006AE070E089EE94E00E94491440E061E07C
:100F900081EF94E00E94721360E572E081EF94E0CB
:100FA0000E94892040E061E081EF94E00E9472138A
:100FB00060E672E081EF94E00E9489200E94340391
:100FC00081EF94E00E94EB1381EF94E00E94E5131F
:100FD000809187059091880540E061E0892B39F187
:100FE00081EF94E00E94721365E672E081EF94E075
:100FF0000E94892049E061E081EF94E00E94721331
:1010000067E871E081EF94E00E94642049E061E0CC
:1010100081EF94E00E9472136091890570918A05B6
:101020004AE050E081EF94E00E946D210AC081EF18
:1010300094E00E9472136AE672E081EF94E00E94ED
:10104000892040E060E081EF94E00E94721368E044
:1010500072E081EF94E00E94892045E060E081EF3A
:1010600094E00E9472136DE771E081EF94E00E94BA
:10107000642046E060E081EF94E00E947213A0914A
:101080000D01C7E0CA9FD0011124A25FBE4F6D9130
:101090007C9181EF94E00E9489204DE060E081EF37
:1010A00094E00E947213E0910D01CE9FF001112493
:1010B000E25FFE4F4AE050E0668181EF94E00E94DB
:1010C000822160E086E00E94EF1C60E089E00E94DF
:1010D000EF1C61E084E0CF910C94EF1C45E061E0EF
:1010E00081EF94E00E9472136CE572E081EF94E06E
:1010F0000E94892045E061E081EF94E00E94721334
:101100006091E7044AE050E081EF94E00E94822180
:101110008091090190910A01892BA9F09091E7042F
:10112000E0910D0187E0E89FF0011124E25FFE4F9E
:1011300086819813D8C010920A011092090110926A
:101140000C0110920B0180910B0190910C018832DF
:10115000910509F492C08CF48A30910509F486C097
:1011600024F4892B09F480C008958431910509F491
:1011700080C04E9709F47FC008958639910509F41F
:10118000B0C04CF48C33910509F48CC08C389105B7
:1011900009F4A3C00895803A910509F498C0833BEF
:1011A000910509F0089585E08093080180918705F5
:1011B00090918805892B09F445C08091890590910B
:1011C0008A05019790938A05809389051816190658
:1011D000E4F449E061E081EF94E00E94721360E37F
:1011E00071E081EF94E00E94642049E061E081EFCA
:1011F00094E00E9472136091890570918A054AE01B
:1012000050E081EF94E00C946D2140E061E081EFCB
:1012100094E00E9472136AE672E081EF94E00E940B
:10122000892049E061E081EF94E00E9472136BE550
:1012300072E081EF94E00E9489201092880510925C
:101240008705089540E061E081EF94E00E94721309
:101250006FE672E081EF94E00E94892084E10E94B1
:101260007E0482E30C941D0584E101C081E10C94AD
:101270006E058FE0FCCF8CE0FACF8AE00E946E050D
:101280008091870590918805892B69F540E061E0A0
:1012900081EF94E00E9472136AE672E081EF94E0BD
:1012A0000C9489208091870590918805892B19F4E9
:1012B00084E10E947E0447E061E081EF94E00E94B7
:1012C000721366E271E081EF94E00E94642060E0B6
:1012D00070E880E090E00C94250681E08093E604BD
:1012E00008950C946B0208958091E804882321F0FE
:1012F0001092E8040C946E0808950F931F93FC015C
:101300000FEF1FEF98010083118322833383108630
:101310001186128613864FEF59EC6AE97BE3408B06
:10132000518B628B738B408F518F628F738F40A371
:1013300051A362A373A340A751A762A773A740ABB1
:1013400051AB62AB73AB00AF11AF22AF33AFDC0177
:10135000A05CBF4F8FEF90E011969C938E931496F4
:101360000D931D932D933C93139718960D931D93F6
:101370002D933C93139718961C9211961C9250969D
:1013800082E08C9311961C9211961C9211961C92DD
:1013900011961D921D921D921C92139714961196F0
:1013A0001C921E9212961D921C92EA5AFF4F1082B6
:1013B0001F910F9108952FEB260F862F992787FDF8
:1013C0009095263010F4C79708956156663018F44A
:1013D000875591090895C09708950F931F93FB01B6
:1013E00060E070E0CB01019120ED200F2A30A0F4E5
:1013F000AAE0B0E09B01AC010E948F29112707FDF4
:101400001095212F312F600F711F821F931F605382
:10141000710981099109E7CF1F910F9108950F93E9
:101420001F93CF93FC01EA5AFF4FC1E020812D3278
:1014300019F0C0E08F0103C08C01095A1F4FB80199
:101440000E94ED099B01AC01A4E6B0E00E948F2947
:10145000F801DF01219130ED320F3A30D0F32E3216
:1014600069F511962C91119730ED320F3A3030F525
:10147000332727FD3095205331094AE0429F8001F0
:10148000439F100D1124222717FD2095322F600F46
:10149000711F821F931F12960C9120ED200F2A308E
:1014A00068F4112707FD109500531109222717FD35
:1014B0002095322F600F711F821F931FCC2339F0AC
:1014C00090958095709561957F4F8F4F9F4FCF91ED
:1014D0001F910F9108954F925F926F927F928F921A
:1014E0009F92AF92BF92CF92DF92EF92FF92CF93F3
:1014F000DF93EC01CA5ADF4FBE010E94ED092B01B8
:101500003C0124E630E040E050E00E9448299B0185
:10151000AC0160EA76E881E090E00E9424296B014A
:101520007C01FE01819190ED980F9A30D8F38E32B4
:1015300019F5EF0180E1882E87E2982EA12CB12CBD
:10154000A99180ED8A0F8A30B8F4BB27A7FDB0952A
:10155000D097A50194010E949A29C60ED71EE81EB5
:10156000F91EC501B4012AE030E040E050E00E94DD
:10157000482949015A01E4CFC701B6016D5F7F4F89
:101580008F4F9F4F26E030E040E050E00E94482916
:1015900069017A01C301B20124E630E040E050E085
:1015A0000E94482960E472E48FE090E00E942429C0
:1015B000C60ED71EE81EF91EC701B601DF91CF91F6
:1015C000FF90EF90DF90CF90BF90AF909F908F9063
:1015D0007F906F905F904F900895DB01FA018D919D
:1015E000882319F091918917D1F3992787FD909558
:1015F0000895CF92DF92EF92FF921F93CF93DF93E4
:10160000EC01FC01EB5AFF4F1081112309F4A9C032
:10161000319660810E94DB09182FFE01E95AFF4FC5
:101620006081CE010E94DB0940E1149F800D1124EE
:10163000FE01EC5AFF4F908189138AC07496108185
:10164000112309F458C135968081918101969183C7
:101650008083B59780819181A281B3813497808303
:101660009183A283B3833C9680819181A281B381CF
:10167000349780839183A283B38379968081882372
:10168000A1F1813009F037C18C819D81AE81BF818C
:1016900088839983AA83BB838C859D85AE85BF850E
:1016A00088879987AA87BB878C899D89AE89BF89DE
:1016B000888B998BAA8BBB8B8C8D9D8DAE8DBF8DAE
:1016C000888F998FAA8FBB8F8CA59DA5AEA5BFA52E
:1016D00088A799A7AAA7BBA78CA99DA9AEA9BFA9AE
:1016E00088AB99ABAAABBBAB06C18CA19DA1AEA147
:1016F000BFA188A399A3AAA3BBA38C819D81AE811E
:10170000BF8188839983AA83BB838C899D89AE8995
:10171000BF89888B998BAA8BBB8B8C8D9D8DAE8D51
:10172000BF8D888F998FAA8FBB8FFE01E05CFF4F22
:10173000DE01AE5BBF4F8D919C91918380838CAD18
:101740009DADAEADBFAD88AF99AFAAAFBBAFD3C0B3
:10175000C159DF4F8881998101969983888310E070
:10176000CAC0FC01EA59FF4F30818B599F4F7C0161
:1017700031111DC06E0196E5C90ED11C43EE53E038
:10178000B601CE010E94ED0A892B11F481E00CC054
:1017900049EE53E0B601CE010E94ED0A892B19F4FF
:1017A000F7011082A8C082E0D7018C93A4C0DC01AD
:1017B000EC91E23009F49FC0CE018A5A9F4FDC01C0
:1017C0002C91222309F497C0B0E2EB9FF001112481
:1017D000E32B3197E932F10508F08DC0EA5AFF4F4B
:1017E0000C948929CE010E940F0A6C837D838E831D
:1017F0009F830E94CC1BC85BDF4F12C0C859DF4FCC
:1018000081E0213409F05DC05DC0CE010E946B0A09
:101810006C8B7D8B8E8B9F8B0E94CC1BC05BDF4FB4
:10182000688379838A839B8366C0233509F063C00C
:101830008C899D89AE89BF89B095A0959095819539
:101840009F4FAF4FBF4F8C8B9D8BAE8BBF8B53C0C9
:10185000CE010E946B0A6C8F7D8F8E8F9F8F4BC045
:10186000273509F048C08C8D9D8DAE8DBF8DB0950C
:10187000A095909581959F4FAF4FBF4F8C8F9D8FB7
:10188000AE8FBF8F38C0CE010E940F0A6CA77DA714
:101890008EA79FA730C0CE010E940F0A6CAB7DAB14
:1018A0008EAB9FAB28C0BC01CE010E94ED096C87B6
:1018B0007D878E879F871FC0C859DF4F81E0213306
:1018C0000CF480E0888317C00E94B62BCE5BDF4FFC
:1018D0009927998388830FC0CE010E940F0A6CAFAD
:1018E0007DAF8EAF9FAF07C0CE010E940F0A6CA3E1
:1018F0007DA38EA39FA3812FDF91CF911F91FF9096
:10190000EF90DF90CF900895CF92DF92EF92FF9209
:101910000F931F93CF93DF931F92CDB7DEB76C0168
:10192000262FFC01E759FF4F40815181628173816D
:101930004F5F5F4F6F4F7F4F40835183628373834D
:101940008C0109591F4F8B5A9F4F7C01243281F122
:101950002CF42A3069F02D30E9F50AC02A3241F022
:101960002C32C1F5F601EC5AFF4F8081822780832B
:10197000F80180818F3060F4F601E80FF11DEA5A1A
:10198000FF4F1082C60129830E94F90A298101C0F4
:1019900080E0F601EA59FF4F90819F5F9083F80144
:1019A000108291E02A3209F090E0F70190832AC07A
:1019B000F8011082F601EA59FF4F108272971082E7
:1019C000719682E08083F7011082F601E859FF4F9B
:1019D000108217C0F80180818E3048F491E0980F92
:1019E0009083F601E80FF11DEA5AFF4F2083F701BB
:1019F0008081811106C0F601EC5AFF4F8081822759
:101A0000808380E00F90DF91CF911F910F91FF9025
:101A1000EF90DF90CF900895CF92DF92EF92FF92F8
:101A20000F931F93CF93DF93E9016115710551F077
:101A3000FC01C084D184E284F384FB01C082D182A2
:101A4000E282F3824115510551F0FC01C080D18042
:101A5000E280F380FA01C082D182E282F382209791
:101A600001F18C010C5B1F4FF80180819181A281F3
:101A7000B3818F3F9F4FAF4FBF4F61F00E94CC1B90
:101A8000F8010081118122813381601B710B820B6F
:101A9000930B03C06FEF7FEFCB01688379838A8359
:101AA0009B83DF91CF911F910F91FF90EF90DF907B
:101AB000CF9008952F923F924F925F926F927F92B4
:101AC0008F929F92AF92BF92CF92DF92EF92FF924E
:101AD0000F931F93CF93DF93CDB7DEB72A970FB63F
:101AE000F894DEBF0FBECDBF2B015A87498719017D
:101AF0009401AE014F5F5F4FBE016B5F7F4F0E944D
:101B00000C0D41145104B9F06D817E818F8198854F
:101B100024E630E040E050E00E944829613571053C
:101B20001CF02CE637E002C020ED37E0620F731F97
:101B3000F2017183608389859A85892BB1F06D816B
:101B40007E818F81988544E6442E512C612C712C26
:101B5000A30192010E944829CA01B901A30192017F
:101B60000E944829E985FA8560832114310461F0D7
:101B70006D817E818F81988520E137E240E050E0E1
:101B80000E944829F10120830115110561F0698146
:101B90007A818B819C8120E432E44FE050E00E9406
:101BA0004829F8012083E114F104A1F069817A81C8
:101BB0008B819C8120E137E240E050E00E9448297F
:101BC000CA01B90124E630E040E050E00E94482913
:101BD000F7016083C114D104A9F069817A818B81F6
:101BE0009C8134E6432E512C612C712CA30192016F
:101BF0000E944829CA01B901A30192010E94482903
:101C0000F6016083A114B10461F069817A818B814E
:101C10009C8124E630E040E050E00E944829F50134
:101C200060832A960FB6F894DEBF0FBECDBFDF915A
:101C3000CF911F910F91FF90EF90DF90CF90BF90C9
:101C4000AF909F908F907F906F905F904F903F905C
:101C50002F9008952091CD053091CE052817390792
:101C6000B9F490918B0580918C05981789F0E091DB
:101C70008B05F0E0E357FA4F808120918B0530E02F
:101C80002F5F3F4F2F73332720938B0590E00895EC
:101C90008FEF9FEF08951F93CF93DF93DC015C9646
:101CA0008D919C915D97009749F481E090E01396A7
:101CB0009C938E93129780E090E03BC05196ED91FB
:101CC000FC91529750962C915097322F30951FB718
:101CD0005E964C915E9741FB772770F941FD6095C8
:101CE000F8944081772311F0422B01C043234083B5
:101CF000EC012197F1F748E0508160FF02C0522BC0
:101D000001C053235083EC012197F1F766954150B0
:101D100099F78081772311F0832301C0822B808380
:101D20001FBF5C968D919C915D970197F1F781E0C3
:101D300090E0DF91CF911F9108952091CD053091D2
:101D4000CE052817390781F490918B0580918C0579
:101D5000981751F0E0918B05F0E0E357FA4F80813E
:101D6000992787FD909508958FEF9FEF0895209113
:101D7000CD053091CE052817390771F480918C0577
:101D800020918B0590E0805C9F4F821B910960E45D
:101D900070E00E943429089580E090E00895209139
:101DA000CD053091CE052817390739F48FB7F8944F
:101DB00010928C0510928B058FBF0895E091CD0590
:101DC000F091CE05E817F90769F4A389B4899C91CD
:101DD0008589809589238C931092CE051092CD052C
:101DE00081E0089580E00895CF93DF93EC018A8D20
:101DF0009B8D892BF1F08091CD059091CE058C17AC
:101E00009D07B9F0009711F00E94DE0E8E8D8E7F37
:101E10008E8F10928C0510928B05D093CE05C093B7
:101E2000CD05EB89FC8980819D89892B808381E0A8
:101E300001C080E0DF91CF9108951F920F920FB6FD
:101E40000F9211242F933F934F935F936F937F9340
:101E50008F939F93AF93BF93EF93FF93E091CD0543
:101E6000F091CE05309709F451C0868DA685B785CF
:101E7000958581FF04C08C91892329F447C08C91FA
:101E8000892309F043C0A389B4899C9185898095F1
:101E900089238C93868997890197F1F7208D318D5D
:101EA000A685B785758558E040E0C9010197F1F72F
:101EB000842F90E095958795482F6C91672309F0C2
:101EC0004068515091F7868D81FD409580918C0539
:101ED00090E001968F73992720918B05281749F080
:101EE000A0918C05B0E0A357BA4F4C9380938C051A
:101EF00003C0868D8160868F828D938D0197F1F767
:101F0000A389B4898C919589892B8C93FF91EF914A
:101F1000BF91AF919F918F917F916F915F914F9101
:101F20003F912F910F900FBE0F901F90189523E1B6
:101F300034E0FC01318320830C94DE0E1F93CF9399
:101F4000DF93EC01162F6E8D6695617081E0682736
:101F5000812F0E94EF1C61E0812F0E94B61C812F0F
:101F600090E0FC01E85FFD4FE491E88BFC01EA5D45
:101F7000FD4FE491F0E0EE0FFF1FEE5AFD4F85910B
:101F800094919A8B898BDF91CF911F9108951F9324
:101F9000CF93DF93EC01162F60E0812F0E94B61CD7
:101FA0008E8D81FD04C061E0812F0E94EF1C1C8793
:101FB000812F90E0FC01E85FFD4FE491ED87FC018B
:101FC000EA5DFD4FE491F0E0EE0FFF1FEC5BFD4F8B
:101FD000859194919F878E87DF91CF911F9108956E
:101FE000FF920F931F93CF93DF93EC01F62E522FA6
:101FF0001B821A8208EE13E020E030E00C831D8380
:102000002E833F8383E194E0998388831F8A1E8A0D
:10201000198E188E1B8E1A8E1D8E1C8E8E8D8E7FA5
:1020200050FB81F98E8F642FCE010E949E0F6F2D81
:10203000CE01DF91CF911F910F91FF900C94C70FAC
:10204000CF93DF93EC019A01AB011B8E1A8E198E90
:10205000188E1F8A1E8A60E079E08DE390E00E946E
:102060006A29C9012430310520F0B9016350710992
:1020700002C061E070E07D8F6C8FEC85F8EFFE0FA1
:10208000F43048F062EF6E0F643028F066EE6E0FA9
:10209000633008F06FC0B9017695679564317105BA
:1020A00018F06351710902C061E070E07F8B6E8BA4
:1020B000069718F0C901059702C081E090E0998F5A
:1020C000888FC901880F991F820F931F9695879556
:1020D000969587958D30910510F00C9702C081E0A0
:1020E00090E09B8F8A8FF43058F082EF8E0F84300F
:1020F00038F0EA51E33008F042C0A8E6B0E041C051
:10210000A8E6B0E0E8E6F0E0808181608C932C8561
:1021100038EF320F343040F082EF820F843020F0FD
:1021200086EE820F833018F48BE690E002C080E0E8
:1021300090E09C8B8B8B343010F4245009C02E30EF
:1021400069F02F3069F0203169F0213169F02651B2
:1021500081E001C0880F2A95EAF707C088E005C032
:1021600082E003C084E001C081E08D8B8C8D9D8D69
:102170000197F1F7CE01DF91CF910C94F40EA0E01E
:10218000B0E0E33008F4BECFE0E0F0E0BDCF8091F6
:10219000FF0590E020910006821B9109089520918F
:1021A00000068091FF05281750F4E22FF0E0EF5F62
:1021B000F94F808190E02F5F2093000608958FEF04
:1021C0009FEF0895E09100068091FF05E81730F435
:1021D000F0E0EF5FF94F808190E008958FEF9FEF7F
:1021E00008950895CF92DF92EF92FF920F931F937D
:1021F000CF93DF937C01CB018A012091DB05222361
:1022000089F0EB016B01C40ED51ECC15DD0569F01C
:102210006991D701ED91FC910190F081E02DC7010A
:102220000995F3CF642F0E94FF11C801DF91CF9170
:102230001F910F91FF90EF90DF90CF900895CF9373
:10224000DF931F92CDB7DEB769832091DB05222390
:10225000D1F02091DC05203240F021E030E0FC019B
:102260003383228380E090E015C08091DD05E82F64
:10227000F0E0E252FA4F998190838F5F8093DD0501
:102280008093DC0505C061E0CE0101960E94FF113C
:1022900081E090E00F90DF91CF910895FC011382CF
:1022A000128248EE53E060E070E044835583668319
:1022B000778383E294E091838083089510920006EF
:1022C0001092FF051092DD051092DC050C948E1122
:1022D00081E08093DB056093FE051092DD0510928E
:1022E000DC0508950C9468110F93062F21E04091AE
:1022F000DC056EED75E08091FE050E94AC11109238
:10230000DD051092DC051092DB050F91089561E068
:102310000C9474118FEC95E00C944E1110928E0673
:1023200081E080938C0610928B0661E082E00E942F
:10233000EF1C61E083E00E94EF1CE9EBF0E080819C
:102340008E7F808380818D7F808388E48093B80036
:1023500085E48093BC0008950F93413208F046C095
:1023600090918E069111FCCF92E090938E0600938F
:102370008C069FEF909321061092660640936506A7
:10238000FB0167E676E0DB019A2F961B941718F4A1
:1023900091919D93F9CF10928D0690918D06880FA3
:1023A000892B80938D0680918B06813041F41092A9
:1023B0008B0680918D068093BB0085EC01C085EE75
:1023C0008093BC00222321F080918E068230E1F3BD
:1023D000809121068F3F61F080912106803251F07B
:1023E00080912106803341F483E007C081E005C07D
:1023F00080E003C082E001C084E00F910895613263
:1024000098F420918E06243089F460934306FC01F1
:1024100085E496E0DC012A2F281B261718F4219169
:102420002D93F9CF80E0089581E0089582E008952A
:1024300085ED8093BC008091BC0084FDFCCF1092A0
:102440008E06089585EC8093BC0010928E06089548
:102450001F920F920FB60F9211242F933F934F9319
:102460005F936F937F938F939F93AF93BF93EF93FC
:10247000FF938091B900887F803609F49CC068F58D
:10248000883209F45BC090F4803109F454C038F408
:10249000882309F4F5C0883009F44DC0F5C08831AF
:1024A00009F44CC0803209F45DC0EEC0803409F4F8
:1024B00068C048F4803309F455C0883309F0E4C09B
:1024C00080932106A8C0803509F44FC0883509F4EF
:1024D0005DC0883409F0D8C0D5C0883909F4C6C0B9
:1024E000A8F4883709F467C038F4883609F463C063
:1024F000803709F460C0C8C0883809F4B7C0803993
:1025000009F45FC0803809F0BFC05BC0803B09F4AC
:1025100085C038F4803A09F466C0883A09F47EC070
:10252000B3C0803C09F4A6C0883C09F4A3C0883B32
:1025300009F489C0A9C080918D0610C090916606EB
:1025400080916506981770F5E091660681E08E0F20
:1025500080936606F0E0E959F94F80818093BB00D3
:1025600085EC85C0809321068DC0E091660681E0F0
:102570008E0F809366068091BB00F0E0E959F94F19
:10258000808390916606809165066DC0E091660635
:1025900081E08E0F809366068091BB00F0E0E959E0
:1025A000F94F808380918C0681116CC081E080930B
:1025B0008B0684EA60C083E080938E061092220628
:1025C000CFCF80912206803208F050C0E0912206E1
:1025D00081E08E0F809322068091BB00F0E0ED5DDC
:1025E000F94F8083BDCF80912206803230F4E09194
:1025F0002206F0E0ED5DF94F10820E941812609102
:10260000220670E0E0918706F091880683E296E06A
:102610000995109222060E94221236C084E080930F
:102620008E061092440610924306E0918906F091BE
:102630008A06099580914306811105C081E0809347
:10264000430610924506E091440681E08E0F809388
:102650004406F0E0EB5BF94F80818093BB009091E2
:10266000440680914306981708F47ACF85E8809352
:10267000BC000AC085EC8093BC0010928E0604C09A
:10268000109221060E941812FF91EF91BF91AF9115
:102690009F918F917F916F915F914F913F912F917A
:1026A0000F900FBE0F901F901895DC01ED91FC91DB
:1026B0000190F081E02D09940F93DC0113961C9298
:1026C0001E921297E3E3F4E0ED93FC936093910183
:1026D0004093900130938F0120938E0100939106D7
:1026E0000F9108951F93CF93DF931F92CDB7DEB75D
:1026F000613031F0623031F0633031F010E005C00C
:1027000010E403C014E101C014E560918E017091E2
:102710008F018FEC95E049830E9472116EEF70E09B
:102720008FEC95E00E94551365E470E08FEC95E026
:102730000E9455134981642F70E0610F711D8FEC69
:1027400095E00E9455138FEC95E00E9487116091EF
:102750008C0170918D01660F771F882777FD80951A
:10276000982F0F90DF91CF911F910C94FB1B40E0AD
:1027700060E00C947213CF93C62F60918E0170911C
:102780008F018FEC95E00E9472116EEF70E08FEC7C
:1027900095E00E9455136C2F8FEC95E00E941F115D
:1027A0008FEC95E00E94871160918C0170918D01F2
:1027B000882777FD8095982FCF910C94FB1B61E5BE
:1027C0000C94BB1361E40C94BB1368E40C94BB132E
:1027D0006BE40C94BB136CE40C94BB13CF93DF93AA
:1027E000EC018FEC95E00E945E1188E98093B800BF
:1027F000CE010E94E213CE010E94DF13CE010E949F
:10280000EB13CE010E94E513CE01DF91CF910C9422
:10281000B713CF93C62F60918E0170918F018FEC0B
:1028200095E00E9472116C2F8FEC95E00E941F11B1
:102830008FEC95E00E94871160918F067091900651
:10284000882777FD8095982F0E94FB1BCF910895D4
:10285000FC0110821182128213828AE090E095833B
:102860008483168217820895CF93DF93EC01862F1D
:102870006F831E820E94251D892B11F083E08E83B9
:102880000E94CC1B688379838A839B83DF91CF91DD
:102890000895FC01758364830895FF920F931F933D
:1028A000CF93DF93EC018F810E94251DFF24F394C9
:1028B000892B09F4F12C8E81982F977F9E83869522
:1028C0008170F81651F00E94CC1B688379838A834B
:1028D0009B838E8192E0892721C00E94CC1B0881B6
:1028E00019812A813B81601B710B820B930B0C8138
:1028F0001D8120E030E0601771078207930778F0B0
:102900008E8181708F1559F00E94CC1B688379836A
:102910008A839B838E8191E0892788608E838E8154
:1029200083FB882780F9DF91CF911F910F91FF9052
:102930000895FC0186818170089508950895089591
:10294000089561E0FC0182810C94EF1C60E0FC01C1
:1029500082810C94EF1C0F931F93CF93DF93DC01C4
:1029600028E030E000E810E080E090E051E0E02F67
:10297000E42309F450E01123E1F0FC01EE0FFF1F06
:10298000EE0FFF1FE60FF71F552329F01696CD9186
:10299000DC91179704C01496CD91DC911597D183E3
:1029A000C0831496CD91DC911597D383C283019691
:1029B000512F06952150310911F0152FD7CFDF91F6
:1029C000CF911F910F910895CF93DF93EC018FE981
:1029D000860F8A3140F4E62FFF27E7FDF095EA5293
:1029E000FC4F408143C080ED860F8A3028F0E1E53E
:1029F000F4E080E090E02EC0E62FFF27E7FDF095A1
:102A00009F0120533109A1E0263031051CF0A0E0E0
:102A1000255031096C817D81FE0180E090E0B0E0BD
:102A200041E050E08217930714F040E050E04A176D
:102A30005B0719F44C815D8102C04E815F8157872D
:102A40004687718B608B019634968530910541F7EE
:102A500019C001962081222381F032962613F9CFE6
:102A6000FC01EE0FFF1FEF5AFB4F4181BE01625F79
:102A70007F4FCE010E94AB1405C021E030E081E021
:102A800090E002C020E030E0FC01EE0FFF1FDF010C
:102A90001696AA0FBB1FAC0FBD1F8E819F818D9311
:102AA0009C933796EE0FFF1FEC0FFD1F11821082D3
:102AB000C901DF91CF91089561E0FC0182810C94FE
:102AC000B61CCF92DF92EF92FF92CF93DF93EC018F
:102AD0006A017B0120E030E040E85FE3C701B60116
:102AE0000E94AF2787FD15C020E030E048E452E4A3
:102AF000C701B6010E94C1289B01AC0160E070E6ED
:102B00008AE697E40E94B3270E941B28362F272FBE
:102B100002C030EB24E0832F922F1816190614F010
:102B200081E090E09D838C839C01220F331F280F4E
:102B3000391F3F832E83DF91CF91FF90EF90DF907D
:102B4000CF9008950F931F93CF93DF9300D000D0C1
:102B5000CDB7DEB78C018FE594E0F80191838083D7
:102B6000738362836FE572E0C801089629833A8314
:102B70004B835C830E942C2629813A814B815C81A6
:102B8000BA01A901C8010F900F900F900F90DF912B
:102B9000CF911F910F910C946115CF93DF93EC01AE
:102BA00008960E9442268C859D859FA78EA788A99E
:102BB00080FD09C0E881F9810280F381E02DCE011A
:102BC000DF91CF910994DF91CF910895CF93DF9357
:102BD000EC011FA61EA68C859D85892B21F160E046
:102BE00070E0CE0108960E945926FC016081CE015A
:102BF0000E94E41499AB88ABE881F9810480F581E7
:102C0000E02DCE01099588A980FD07C0E881F981F2
:102C10000190F081E02DCE0109950E94CC1B6AAB9A
:102C20007BAB8CAB9DABDF91CF910895CF92DF92C0
:102C3000EF92FF92CF93DF93EC012EA53FA58C85F9
:102C40009D852817390708F06DC00E94CC1B6B01C9
:102C50007C018AA99BA9ACA9BDA9C81AD90AEA0A0C
:102C6000FB0AE8A9F9A9DF011796AA0FBB1FAC0F51
:102C7000BD1F8D919C91AA2797FDA095BA2FC816CC
:102C8000D906EA06FB0608F44FC0CF01019699ABBE
:102C900088AB3896EE0FFF1FEC0FFD1F80819181EE
:102CA000892B29F56EA57FA56F5F7F4F7FA76EA744
:102CB0008C859D856817790778F0E881F981028015
:102CC000F381E02DCE010995E881F9810680F78135
:102CD000E02DCE01099526C0CE0108960E94592606
:102CE000FC016081CE010E94E41499AB88AB4AA933
:102CF0005BA96CA97DA94C0D5D1D6E1D7F1D4AABA6
:102D00005BAB6CAB7DAB88A9E881F98180FD04C029
:102D10000190F081E02D03C00280F381E02DCE010F
:102D2000099502C080E001C081E0DF91CF91FF9062
:102D3000EF90DF90CF900895CF93DF93EC010E9446
:102D4000E615CE010E9416168111FBCFDF91CF91BF
:102D50000895CF93DF93EC010E94A2158BE694E0D7
:102D600099838883DF91CF910895FC0110820895A3
:102D7000AF92BF92DF92EF92FF920F931F93CF9388
:102D8000DF93CDB7DEB7EDB6FEB6842F90E0880FA7
:102D9000991FFC013196ADB7BEB7AE1BBF0B0FB686
:102DA000F894BEBF0FBEADBF0DB71EB70F5F1F4F6C
:102DB000D801D62E5B015A2D5D195417C8F4B50100
:102DC000F501508152955F7050635A3308F0595F96
:102DD0005C93FFEFAF1ABF0AFB0150815F70506335
:102DE0005A3308F0595F11965C9311971296E3CF0E
:102DF000F801E80FF91F1082B90185EA96E00E94F8
:102E00008920B80185EA96E00E94B8200FB6F894B0
:102E1000FEBE0FBEEDBEDF91CF911F910F91FF90CF
:102E2000EF90DF90BF90AF900895FC01508150FD6E
:102E30000C94B8160895DC01ED91FC910190F0819D
:102E4000E02D0994FC01608341833383228308953C
:102E50006EEF70E085EF96E00E941B176EEF70E05A
:102E600085EF96E00C941B176DEF70E085EF96E010
:102E70000C941B172F923F924F925F926F927F920A
:102E80008F929F92AF92BF92CF92DF92EF92FF927A
:102E90000F931F93CF93DF93CDB7DEB72B970FB66A
:102EA000F894DEBF0FBECDBF9B878A874B01498751
:102EB000493008F053C0CE0101965C01E12CF12CA1
:102EC000C12CD12C242E312C9AE0492E512C612C6E
:102ED000712CE214F30404F5B801C901A3019201B5
:102EE0000E944829F50161935F0189019A01E0FE82
:102EF0000FC0D401AC0DBD1D84E0660F771F8A950D
:102F0000E1F732978081862B8C93FFEFCF1ADF0A8F
:102F10008FEFE81AF80ADDCF28EA31E04985B401DD
:102F2000EA85FB85828193812B960FB6F894DEBFEC
:102F30000FBECDBFDF91CF911F910F91FF90EF900A
:102F4000DF90CF90BF90AF909F908F907F906F90C9
:102F50005F904F903F902F900C9415172B960FB6C3
:102F6000F894DEBF0FBECDBFDF91CF911F910F91BF
:102F7000FF90EF90DF90CF90BF90AF909F908F9099
:102F80007F906F905F904F903F902F9008952F9279
:102F90003F924F925F926F927F928F929F92AF92E9
:102FA000BF92CF92DF92EF92FF920F931F93CF9336
:102FB000DF93CDB7DEB762970FB6F894DEBF0FBED2
:102FC000CDBF9F878E87342E252EAB0149017E0110
:102FD00089E0E80EF11C85E0F70111928A95E9F786
:102FE0002930310508F044C0CE0101965C0100E0B3
:102FF00010E0C12CD12C9AE0492E512C612C712C5F
:103000000815190559F1632D722DCA01A30192010A
:103010000E944829F50161935F01322E232E00FFA3
:103020001AC084E0660F771F8A95E1F732972081F6
:10303000262B622F85EF96E0288B498B5A8B0E94B6
:10304000A61EF701EC0DFD1D28892083FFEFCF1A86
:10305000DF0A5A8949890F5F1F4FD2CF24EB31E035
:10306000402FB701EE85FF85828193810E9415175D
:1030700062960FB6F894DEBF0FBECDBFDF91CF9141
:103080001F910F91FF90EF90DF90CF90BF90AF9086
:103090009F908F907F906F905F904F903F902F9078
:1030A0000895DF92EF92FF920F931F93CF93DF93D8
:1030B0007C01EB0110E085EF96E00E94331E019643
:1030C00021F41A3031F5D12C2CC0D12C1A3049F111
:1030D00085EF96E00E94281E892B51F08E010D0D80
:1030E000111D85EF96E00E94411EF8018083D39464
:1030F000FE01ED0DF11D319780818D3F49F723ECE5
:1031000031E04D2DBE01F701828193810E94151798
:1031100008C06AE070E080E090E00E94FB1B1F5F47
:10312000CACF8D2DDF91CF911F910F91FF90EF901E
:10313000DF900895CF92DF92EF92FF920F931F934B
:10314000CF93DF93CDB7DEB7C058D1090FB6F8944F
:10315000DEBF0FBECDBF8C017B01C42E25E0D22E79
:10316000BE016F5F7F4FC8010E945118882309F488
:103170003FC099819E3FE1F59A819E3FC9F52B8121
:10318000F8019081291334C02C819181291330C01A
:10319000FE01E80FF11D90819D3F51F5C11002C065
:1031A00064E001C066E0D12C70E08250282F30E04E
:1031B000261B370BED2DF0E02E173F077CF0D701D3
:1031C000AE0FBF1F81E090E08C0F9D1FE80FF91F2D
:1031D000E60FF71F80818C93D394ECCF2AED31E07A
:1031E0004D2DB701F801828193810E94151709C006
:1031F00064E670E080E090E00E94FB1BDA9409F046
:10320000AFCF8D2DC058DF4F0FB6F894DEBF0FBE85
:10321000CDBFDF91CF911F910F91FF90EF90DF9085
:10322000CF900895CF93DF93CDB7DEB7C058D109C3
:103230000FB6F894DEBF0FBECDBF40E0BE016F5F9A
:103240007F4F0E949A18882361F089818B3F31F06B
:103250008A818A3F31F480E090E005C081E090E00F
:1032600002C082E090E0C058DF4F0FB6F894DEBF96
:103270000FBECDBFDF91CF9108950F931F93CF93D2
:10328000DF93EC018B010E942817698185EF96E09E
:103290000E94A61E688185EF96E00E94A61E66E049
:1032A00070E085EF96E00E941B17B80185EF96E06D
:1032B0000E941B17CE010E943417CE01DF91CF91DF
:1032C0001F910F910C941219CF92DF92EF92FF92FF
:1032D000CF93DF93EC016A017B010E94281769817B
:1032E00085EF96E00E94A61E688185EF96E00E9419
:1032F000A61E65E070E085EF96E00E941B1728E0AF
:1033000030E0B701A601CE010E94C717CE010E948E
:103310003417CE01DF91CF91FF90EF90DF90CF90E7
:103320000C941219EF92FF920F931F93CF93DF9398
:103330001F92CDB7DEB77C018B0149830E9428170D
:10334000F701618185EF96E00E94A61EF70160817A
:1033500085EF96E00E94A61E64E170E085EF96E09E
:103360000E941B17B80185EF96E00E941B17498148
:10337000642F85EF96E00E94A61EC7010E943417B5
:10338000C7010F90DF91CF911F910F91FF90EF90A8
:103390000C9412190F931F93CF93DF93EC018B01C1
:1033A0000E942817698185EF96E00E94A61E688119
:1033B00085EF96E00E94A61E64E170E085EF96E03E
:1033C0000E941B17B80185EF96E00E941B17CE01E3
:1033D0000E943417CE01DF91CF911F910F910C9471
:1033E0001219CF92DF92EF92FF920F931F93CF9318
:1033F000DF93CDB7DEB728970FB6F894DEBF0FBEC8
:10340000CDBF7C016B01042F0E942817F701618159
:1034100085EF96E00E94A61EF701608185EF96E099
:103420000E94A61E6AE170E085EF96E00E941B17DD
:1034300063E070E085EF96E00E941B17B60185EF10
:1034400096E00E941B17CA94CD2889F410E020E072
:1034500030E044E0BE016F5F7F4FC7010E943A1722
:103460006A8185EF96E00E94A61E698101C0602FE7
:1034700085EF96E00E94A61EC7010E943417C7017F
:103480000E94121928960FB6F894DEBF0FBECDBF6A
:10349000DF91CF911F910F91FF90EF90DF90CF9030
:1034A0000895853008F04CC0E82FF0E0EE0FFF1FC4
:1034B000EE56F94F718360838230E1F018F4813069
:1034C00069F004C0833019F1843071F18091690092
:1034D0008C7F842B80936900E89A0895809169001D
:1034E000440F551F440F551F837F842B8093690021
:1034F000E99A08958091690034E0440F551F3A9588
:10350000E1F78F7C842B80936900EA9A089580917B
:10351000690026E0440F551F2A95E1F78F73842B2D
:1035200080936900EB9A089580916A0094E0440FBB
:10353000551F9A95E1F78F7C842B80936A00EE9A51
:1035400008951F920F920FB60F9211242F933F935D
:103550004F935F936F937F938F939F93AF93BF939B
:10356000EF93FF938091920690919306892B29F017
:10357000E0919206F09193060995FF91EF91BF912A
:10358000AF919F918F917F916F915F914F913F91FB
:103590002F910F900FBE0F901F9018951F920F92B2
:1035A0000FB60F9211242F933F934F935F936F9316
:1035B0007F938F939F93AF93BF93EF93FF938091EC
:1035C000940690919506892B29F0E0919406F0914C
:1035D00095060995FF91EF91BF91AF919F918F91C2
:1035E0007F916F915F914F913F912F910F900FBEFF
:1035F0000F901F9018951F920F920FB60F921124E3
:103600002F933F934F935F936F937F938F939F93EA
:10361000AF93BF93EF93FF93809196069091970697
:10362000892B29F0E0919606F09197060995FF9174
:10363000EF91BF91AF919F918F917F916F915F912A
:103640004F913F912F910F900FBE0F901F901895A3
:103650001F920F920FB60F9211242F933F934F9307
:103660005F936F937F938F939F93AF93BF93EF93EA
:10367000FF938091980690919906892B29F0E0910B
:103680009806F09199060995FF91EF91BF91AF913E
:103690009F918F917F916F915F914F913F912F916A
:1036A0000F900FBE0F901F9018951F920F920FB69C
:1036B0000F9211242F933F934F935F936F937F93B8
:1036C0008F939F93AF93BF93EF93FF9380919A064D
:1036D00090919B06892B29F0E0919A06F0919B0628
:1036E0000995FF91EF91BF91AF919F918F917F913C
:1036F0006F915F914F913F912F910F900FBE0F905F
:103700001F9018951F920F920FB60F9211242F93AE
:103710003F938F939F93AF93BF9380919D0690911A
:103720009E06A0919F06B091A00630919C0623E0D2
:10373000230F2D3720F40196A11DB11D05C026E8E9
:10374000230F0296A11DB11D20939C0680939D0618
:1037500090939E06A0939F06B093A0068091A10629
:103760009091A206A091A306B091A4060196A11D76
:10377000B11D8093A1069093A206A093A306B093D7
:10378000A406BF91AF919F918F913F912F910F9080
:103790000FBE0F901F9018952FB7F89460919D065B
:1037A00070919E0680919F069091A0062FBF08956C
:1037B0003FB7F8948091A1069091A206A091A3062C
:1037C000B091A40626B5A89B05C02F3F19F001961D
:1037D000A11DB11D3FBF6627782F892F9A2F620F39
:1037E000711D811D911D42E0660F771F881F991F73
:1037F0004A95D1F70895CF92DF92EF92FF92CF933F
:10380000DF936B017C010E94D81BEB01C114D10432
:10381000E104F10489F00E946B260E94D81B6C1B06
:103820007D0B683E734090F381E0C81AD108E1082F
:10383000F108C851DC4FEACFDF91CF91FF90EF90B4
:10384000DF90CF900895789484B5826084BD84B56C
:10385000816084BD85B5826085BD85B5816085BD8B
:10386000EEE6F0E0808181608083E1E8F0E01082A4
:10387000808182608083808181608083E0E8F0E0E5
:10388000808181608083E1E9F0E0808182608083D3
:10389000808181608083E0E9F0E0808181608083C5
:1038A000E1ECF0E0808184608083808182608083AD
:1038B000808181608083E3ECF0E08081816080839F
:1038C000E0ECF0E0808182608083E2ECF0E08081D7
:1038D00081608083EAE7F0E080818460808380817A
:1038E0008260808380818160808380818068808322
:1038F000089590E0FC013197EF30F105B0F5E15803
:10390000FF4F0C948929809180008F7703C08091AC
:1039100080008F7D80938000089580918000877F54
:10392000F9CF84B58F7702C084B58F7D84BD0895AB
:10393000809190008F7707C0809190008F7D03C0A9
:1039400080919000877F8093900008958091C000BF
:103950008F7703C08091C0008F7D8093C000089551
:103960008091C200877F8093C2000895CF93DF9338
:1039700090E0FC01E85FFD4F2491FC01EA5DFD4F02
:103980008491882349F190E0880F991FFC01E05A47
:10399000FD4FA591B4918E5A9D4FFC01C591D491D4
:1039A0009FB7611108C0F8948C91209582238C9365
:1039B000888182230AC0623051F4F8948C91322FAE
:1039C000309583238C938881822B888304C0F8945C
:1039D0008C91822B8C939FBFDF91CF9108950F9391
:1039E0001F93CF93DF931F92CDB7DEB7282F30E020
:1039F000F901E651FE4F8491F901E85FFD4F149102
:103A0000F901EA5DFD4F04910023C9F0882321F0FC
:103A100069830E94791C6981E02FF0E0EE0FFF1F9F
:103A2000EE5AFD4FA591B4919FB7F8948C91611116
:103A300003C01095812301C0812B8C939FBF0F90F1
:103A4000DF91CF911F910F910895CF93DF93282F8E
:103A500030E0F901E651FE4F8491F901E85FFD4F36
:103A6000D491F901EA5DFD4FC491CC2391F081110D
:103A70000E94791CEC2FF0E0EE0FFF1FEC5BFD4F76
:103A8000A591B4912C912D2381E090E021F480E068
:103A900002C080E090E0DF91CF910895CF93DF9353
:103AA0001F92CDB7DEB76983DC01ED91FC910280F6
:103AB000F381E02D41E050E0BE016F5F7F4F09953B
:103AC0000F90DF91CF910895CF93DF93EC018C8518
:103AD0009D8597FF05C082E00E94EB229D878C8721
:103AE0008C859D85DF91CF91089583E00C944025CE
:103AF000FC018485958597FD06C082E00E94932293
:103B000090E00196089582E00E94932290E008954B
:103B1000FC018485958597FD05C02FEF3FEF358724
:103B20002487089582E00C94EB22CF93DF93EC017D
:103B300080919901882331F083E00E941C2318169C
:103B4000190634F081E090E09B838A8380E090E066
:103B5000DF91CF910895FC0120812E5F208342E404
:103B600050E06EE672E080E80C94B723FC0181819E
:103B70009081913A59F4813209F03CC047E050E01D
:103B800062E971E080E00E94B72343C0913291F571
:103B9000803239F467E070E082E991E00E94E82326
:103BA00006C0823209F035C08281809399018091EC
:103BB000920190919301A0919401B0919501803B65
:103BC0009440A105B105C1F48091990180FD14C014
:103BD00087E797E790930108809300082BE088E13E
:103BE00090E00FB6F894A895809360000FBE2093E4
:103BF00060000FC080E0089588E10FB6F8948093CC
:103C00006000109260000FBEA895109201081092FB
:103C1000000881E008951092A8061092A70688EE89
:103C200093E0A0E0B0E08093A9069093AA06A09349
:103C3000AB06B093AC0687E794E09093A60680931A
:103C4000A5068FEF9FEF9093B2068093B10608957B
:103C5000FC01818D228D90E0805C9F4F821B910939
:103C60008F7399270895FC01918D828D981731F0FB
:103C7000828DE80FF11D858D90E008958FEF9FEF05
:103C80000895FC01918D828D981761F0828DDF017E
:103C9000A80FB11D5D968C91928D9F5F9F73928F3F
:103CA00090E008958FEF9FEF089585EC9FE1892BB9
:103CB00049F080E090E0892B29F00E94C51F811116
:103CC0000C9400000895FC01848DDF01A80FB11D44
:103CD000A35ABF4F2C91848D90E001968F73992742
:103CE000848FA689B7892C93A089B1898C9180642F
:103CF0008C93938D848D981306C00288F389E02DF0
:103D000080818F7D80830895CF93DF93EC01888D30
:103D10008823C9F0EA89FB89808185FD05C0A889CF
:103D2000B9898C9186FD0FC00FB607FCF5CF808155
:103D300085FFF2CFA889B9898C9185FFEDCFCE019F
:103D40000E94631EE7CFDF91CF910895CF92DF925B
:103D5000FF920F931F93CF93DF931F92CDB7DEB7E0
:103D60006C01DC015B969C915B975C968C915C97F7
:103D7000981307C05096ED91FC915197808185FD75
:103D800032C0F601038D10E00F5F1F4F0F73112734
:103D9000F02EF601848DF81211C00FB607FCF9CF92
:103DA000D6015096ED91FC915197808185FFF1CF1E
:103DB000C60169830E94631E6981EBCF838DE80F82
:103DC000F11DE35AFF4F6083D6015B960C935B971E
:103DD0005296ED91FC91539780818062808381E0BF
:103DE00058968C930DC0D6015696ED91FC9157973D
:103DF00060835096ED91FC9151978081806480831F
:103E000081E090E00F90DF91CF911F910F91FF9093
:103E1000DF90CF900895BF92CF92DF92EF92FF9202
:103E2000CF93DF93EC016A017B01B22EE889F98917
:103E300082E08083411581EE580761057105A1F08C
:103E400060E079E08DE390E0A70196010E944829A7
:103E500021503109410951095695479537952795C4
:103E6000211580E1380798F0E889F989108260E827
:103E700074E88EE190E0A70196010E944829215044
:103E80003109410951095695479537952795EC8594
:103E9000FD853083EE85FF852083188EEC89FD89B2
:103EA000B082EA89FB89808180618083EA89FB890D
:103EB000808188608083EA89FB8980818068808333
:103EC000EA89FB8980818F7D8083DF91CF91FF908C
:103ED000EF90DF90CF90BF9008951F920F920FB692
:103EE0000F9211242F938F939F93EF93FF93E09161
:103EF0000507F09106078081E0910B07F0910C0710
:103F000082FD12C0908180910E078F5F8F73209188
:103F10000F07821751F0E0910E07F0E0EB50F94FD8
:103F2000958F80930E0701C08081FF91EF919F9143
:103F30008F912F910F900FBE0F901F9018951F9289
:103F40000F920FB60F9211242F933F934F935F93CD
:103F50006F937F938F939F93AF93BF93EF93FF9351
:103F600085EF96E00E94631EFF91EF91BF91AF91A4
:103F70009F918F917F916F915F914F913F912F9181
:103F80000F900FBE0F901F90189585EF96E00E943E
:103F9000281E21E0892B09F420E0822F0895109239
:103FA000F8061092F70688EE93E0A0E0B0E0809368
:103FB000F9069093FA06A093FB06B093FC0687E8F7
:103FC00094E09093F6068093F5068DEC90E0909344
:103FD0000207809301078CEC90E090930407809394
:103FE000030788EC90E0909306078093050789EC1F
:103FF00090E090930807809307078AEC90E09093F5
:104000000A07809309078EEC90E090930C07809349
:104010000B0710920E0710920F07109210071092C4
:104020001107089508950E94231C0E94122089E917
:1040300097E00E94A0250E94DB06C5E5DEE10E9414
:1040400074092097E1F30E94551EF9CFCF92DF92B9
:10405000EF92FF920F931F93CF93DF936C017A013E
:10406000EB01E60EF71E00E010E0CE15DF0561F073
:104070006991D601ED91FC910190F081E02DC6018E
:104080000995080F191FF1CFC801DF91CF911F913A
:104090000F91FF90EF90DF90CF900895611571051B
:1040A00081F0DB010D900020E9F7AD01415051098D
:1040B000461B570BDC01ED91FC910280F381E02D52
:1040C000099480E090E00895EF92FF920F931F9380
:1040D000CF93DF938C01FB01C0E0D0E064917F01BE
:1040E0008FEFE81AF80A662361F0D801ED91FC9190
:1040F0000190F081E02DC8010995C80FD91FF70183
:10410000EDCFCE01DF91CF911F910F91FF90EF90F6
:1041100008950C944E20DC01ED91FC910190F0810A
:10412000E02D09940F931F93CF93DF93EC016DE083
:104130000E948B208C016AE0CE010E948B20800FB0
:10414000911FDF91CF911F910F9108950F931F93AE
:10415000CF93DF93EC010E9464208C01CE010E947A
:104160009220800F911FDF91CF911F910F910895A1
:104170000F931F93CF93DF93EC010E944E208C018D
:10418000CE010E949220800F911FDF91CF911F914D
:104190000F9108958F929F92AF92BF92CF92DF922C
:1041A000EF92FF920F931F93CF93DF93CDB7DEB7BC
:1041B000A1970FB6F894DEBF0FBECDBF7C01C42E11
:1041C000E52FCB01D22E19A221E02D1510F02AE007
:1041D000D22E8E010F5D1F4F8D2C912CA12CB12C56
:1041E0006C2D7E2FA50194010E9448298C2DD29E12
:1041F00080191124015011098A3014F4805D01C026
:10420000895CF8018083211531054105510521F0B4
:10421000C22EE32FCA01E4CFB801C7010E944E208D
:10422000A1960FB6F894DEBF0FBECDBFDF91CF9140
:104230001F910F91FF90EF90DF90CF90BF90AF90C4
:104240009F908F900895CF92DF92EF92FF920F93FD
:104250001F93CF93DF93EC016A017B012115310598
:1042600079F4E881F9810190F081E02D642FDF91EC
:10427000CF911F910F91FF90EF90DF90CF90099415
:104280002A303105E9F477FF1AC06DE20E948B20D5
:104290008C0144275527BA014C195D096E097F0925
:1042A0002AE0CE010E94CA20800F911FDF91CF919A
:1042B0001F910F91FF90EF90DF90CF9008952AE02B
:1042C000B701A601CE01DF91CF911F910F91FF9011
:1042D000EF90DF90CF900C94CA209A01AB01662733
:1042E00057FD6095762F0C9423212115310541F45B
:1042F000DC01ED91FC910190F081E02D642F099497
:104300000C94CA209A01462F50E060E070E00C94B3
:1043100075218230A1F028F4882341F0813049F0E2
:104320000895833091F08430B1F0089510926E00BA
:10433000089580916F008D7F80936F000895809124
:1043400070008D7F809370000895809171008D7F43
:10435000809371000895809172008F7B809372002A
:1043600008951F920F920FB60F9211242F933F932F
:104370004F935F936F937F938F939F93AF93BF936D
:10438000EF93FF938091950790919607A0919707DF
:10439000B0919807892B8A2B8B2B51F19091920722
:1043A000E0919307F0919407808189278083809121
:1043B000950790919607A0919707B09198071816C6
:1043C00019061A061B062CF5809195079091960701
:1043D000A0919707B09198070197A109B10980931F
:1043E000950790939607A0939707B093980711C0ED
:1043F00083E00E94892120919207E0919307F09138
:104400009407808190E030E02095309582239323BB
:104410008083FF91EF91BF91AF919F918F917F9199
:104420006F915F914F913F912F910F900FBE0F9021
:104430001F90189540919D0750919E0720919B07D2
:1044400030919C0742175307B4F49091E80095709F
:10445000E1F39091E80092FD19C08093F100809102
:104460009D0790919E0701968F739927892B19F4C8
:104470008EEF8093E80080919D0790919E070196B2
:1044800090939E0780939D0781E0089580E00895B2
:10449000CF92DF92FF920F931F93CF93DF931F92E0
:1044A000CDB7DEB7082F162F862F880F8E5F998322
:1044B0000E941A2283E00E941A22F02EC02E9981B7
:1044C000D92E8C2D8F19811778F4F60184910E94D2
:1044D0001A22082F80E00E941A228023FFEFCF1AB1
:1044E000DF0A8111EECF01C081E00F90DF91CF9103
:1044F0001F910F91FF90DF90CF900895615030F0A1
:104500002091F100FC0120830196F8CF289884E6E1
:104510008093A00708952FB7FC012083F89467705B
:104520006093E9000895CF93DF931F92CDB7DEB774
:10453000682FCE0101960E948B228091F200998112
:104540009FBF0F90DF91CF910895FF920F931F931C
:10455000CF93DF9300D0CDB7DEB7F62E8A019091CE
:104560009F07992311F057FF03C08FEF9FEF2BC0D8
:10457000682FCE0101967A830E948B228091F200EF
:1045800090E0A8017A81801791070CF4AC01EF2D1F
:10459000F72FF40E84E6FE1639F028988093A007D2
:1045A0009091F1009193F7CF4115510521F0809141
:1045B000F200882321F089818FBFCA0104C08BE6F5
:1045C0008093E800F8CF0F900F90DF91CF911F916B
:1045D0000F91FF900895CF93DF931F92CDB7DEB771
:1045E00041E050E0BE016F5F7F4F0E94A52201971E
:1045F00019F4898190E002C08FEF9FEF0F90DF9157
:10460000CF910895CF93DF931F92CDB7DEB7682F78
:10461000CE0101960E948B229091E800892F807232
:1046200095FF04C09091F20080E4891B99819FBF9F
:104630000F90DF91CF9108956F927F928F929F920A
:10464000AF92BF92CF92DF92EF92FF920F931F93A0
:10465000CF93DF931F92CDB7DEB7782E7B01C42EA8
:10466000B52E80919F07882369F0042F152F8AEFBC
:10467000D82E872D8072982E9AE3A92E872D8074CC
:10468000882E11C08FEF9FEF57C0872D0E94022305
:10469000682E81110CC0DA94A9F361E070E080E02B
:1046A00090E00E94FB1B0115110579F73BC0282FF4
:1046B00030E0021713070CF4602E672DCE0101962F
:1046C0000E948B228091E80085FF29C0262D30E0D2
:1046D000021B130B992039F06A948FEF6816B1F022
:1046E0001092F100F9CFF701862D77FE07C08150B7
:1046F00058F094919093F1003196F9CF815020F0C9
:1047000091919093F100FACFE20EF31E8091E800B0
:1047100085FF0FC00115110511F481100AC08981B0
:104720008FBFC1CF5D9884E68093A1078C2D9B2D10
:1047300003C0A092E800F3CF0F90DF91CF911F91BB
:104740000F91FF90EF90DF90CF90BF90AF909F9030
:104750008F907F906F9008951092E90010929E07BD
:1047600010929D0790939C0780939B070895CF928A
:10477000DF92FF920F931F93CF93DF9300D0CDB7BB
:10478000DEB7F82E8A016B0101151105B1F0F601B3
:10479000F7FE02C0849101C0808149835A830E9440
:1047A0001A2201501109FFEFCF1ADF0A49815A81FD
:1047B0008111EACF8FEF9FEF01C0CA010F900F90D8
:1047C000DF91CF911F910F91FF90DF90CF900895CF
:1047D0001F93CF93DF931F92CDB7DEB7162F209193
:1047E000E80022FFFCCF612F79830E947E228BEFAD
:1047F0008093E800812F7981972F0F90DF91CF91DF
:104800001F910895CF93DF931F92CDB7DEB7198222
:10481000CE0101960E94AB1DCE0101960E948A2610
:10482000898190E00F90DF91CF9108951F920F92B0
:104830000FB60F921124EF92FF920F931F932F93B5
:104840003F934F935F936F937F938F939F93AF9318
:10485000BF93EF93FF93CF93DF93CDB7DEB762970C
:10486000DEBFCDBF1092E9008091E80083FFEBC06E
:1048700068E0CE010A960E947E2282EF8093E800D3
:104880009A8597FF05C08091E80080FFFCCF03C0A8
:104890008EEF8093E800892F807609F0B9C08B8570
:1048A000811105C01092F1001092F100C5C0282FAF
:1048B0002D7F213009F4C0C0853049F48091E80093
:1048C00080FFFCCF8C8580688093E300B5C0863084
:1048D00009F076C02D85E888F988223071F580E0EE
:1048E00090E02A8B0E94AC230E94022499E08E0162
:1048F0000F5F1F4FF801392F11923A95E9F799830D
:104900002A892A8391E09E8390E898879AEF998775
:1049100020919D0730919E07275F3F4F3C832B835B
:104920008D83C7010E94AC2349E050E0B80180E0CC
:104930000E94B7230E9402247FC0C7012A8B0E94D5
:10494000AC232A89223241F482E290E00E9495262B
:10495000892B09F071C074C0213069F48889998964
:10496000089711F420939A0780919A07811118C033
:1049700067EC72E01AC0233009F062C08C8588238E
:1049800091F0823021F460E185EE92E006C0813042
:1049900009F056C06BE089ED92E00E9448224AC0BF
:1049A00065EB72E002C066EF72E06115710509F413
:1049B00047C0FB01449150E080E80E94B7233CC00F
:1049C000873009F43DC0883021F481E08093F10004
:1049D00033C0893089F5937099F5E1EBF2E081E01D
:1049E00021E096E38093E9002093EB00349130932B
:1049F000EC009093ED008F5F3196853099F78EE74C
:104A00008093EA001092EA008C8580939F0714C07F
:104A1000888999890E94AC238E85811105C0CE01B9
:104A20000A960E94B61D06C0823051F4CE010A9645
:104A30000E94BD26882321F08EEF8093E80003C0FA
:104A400081E28093EB0062960FB6F894DEBF0FBE52
:104A5000CDBFDF91CF91FF91EF91BF91AF919F912A
:104A60008F917F916F915F914F913F912F911F9106
:104A70000F91FF90EF900F900FBE0F901F90189521
:104A80008093E9008091F200882319F08AE38093F3
:104A9000E80008951F920F920FB60F9211242F93E2
:104AA0003F934F935F936F937F938F939F93AF93B6
:104AB000BF93EF93FF938091E1001092E10083FF99
:104AC0000FC01092E90091E09093EB001092EC007F
:104AD00092E39093ED0010929F0798E09093F0007E
:104AE00082FF1DC083E00E9440258091A10788239A
:104AF00039F08091A10781508093A107882369F044
:104B00008091A007882359F08091A007815080935D
:104B1000A007811104C0289A02C05D9AF1CFFF91CD
:104B2000EF91BF91AF919F918F917F916F915F9125
:104B30004F913F912F910F900FBE0F901F9018959E
:104B400010929F0781E08093D70080EA8093D8007D
:104B500082E189BD09B400FEFDCF61E070E080E034
:104B600090E00E94FB1B80E98093D8008CE080934A
:104B7000E2001092E000559A209A0895FC0180818D
:104B800091810C945D2ACF93DF93EC018881998108
:104B9000009711F00E945D2A198218821D821C82E2
:104BA0001B821A82DF91CF9108950F931F93CF93A9
:104BB000DF93EC018B016F5F7F4F888199810E94A9
:104BC000EC2A009731F0998388831B830A8381E064
:104BD00001C080E0DF91CF911F910F910895CF9395
:104BE000DF93EC0188819981892B29F08A819B814F
:104BF0008617970760F4CE010E94D525882341F0DF
:104C00008C819D81892B19F4E881F981108281E0E2
:104C1000DF91CF910895EF92FF920F931F93CF935F
:104C2000DF93EC017B018A01BA010E94EF2581111B
:104C300004C0CE010E94C32507C01D830C83B701A9
:104C4000888199810E94DD2BCE01DF91CF911F9148
:104C50000F91FF90EF900895FC0111821082138252
:104C60001282158214826115710559F0FB010190C1
:104C70000020E9F7AF0141505109461B570B0C9436
:104C80000B260895CF93DF93EC01FB01861797075E
:104C900061F0608171816115710529F04481558150
:104CA0000E940B2602C00E94C325CE01DF91CF9146
:104CB0000895FC01848195816817790720F480812B
:104CC0009181009729F41092A20782EA97E0089553
:104CD000860F971F08950895FF920F931F93CF9308
:104CE000DF93EC01F62EE881F9810480F581E02D57
:104CF00009958C01E881F9810680F781E02D6F2DFF
:104D0000CE010995C8019927DF91CF911F910F918D
:104D1000FF900895FC0120812F5F208349E150E03E
:104D20006AE773E080E80C94B72345E650E063E956
:104D300073E080E80C94B723EF92FF920F931F93D8
:104D4000CF93DF931F92CDB7DEB789838B017A01B2
:104D500041E050E0BE016F5F7F4F84E00E941C2362
:104D6000A701B80184E40E941C230F90DF91CF912A
:104D70001F910F91FF90EF900895FC019181808128
:104D8000813A31F481E0913091F0933089F411C08F
:104D9000813271F49B3021F4828180939B0105C0A4
:104DA0009A3031F4828180939A0181E008950895C8
:104DB00080E0089548E050E082E00C949C26CF9378
:104DC000DF93DC01683818F0E8E7E60F25C0E62F2E
:104DD000F0E067FF11C0E058F10981E090E001C008
:104DE000880FEA95EAF714969C911497982B1496DD
:104DF0009C931497E0E010C0E650FD4FE491EE2341
:104E000009F440C0E7FF08C014968C9114978260A3
:104E100014968C931497EF7716968C9116978E179D
:104E200041F117968C9117978E1719F118968C915E
:104E300018978E17F1F019968C9119978E17C9F063
:104E40001A968C911A978E17A1F01B968C911B972E
:104E50008E1779F080E090E0ED01C80FD91F2E8108
:104E6000211102C0EE8305C0019686309105A1F79D
:104E700009C0BD016C5F7F4FCD010E94DA2681E041
:104E800090E008C081E090E013969C938E93129777
:104E900080E090E0DF91CF910895683818F0E8E75E
:104EA000E60F25C0E62FF0E067FF12C0E058F109D9
:104EB00021E030E001C0220FEA95EAF72095DC01FD
:104EC00014963C911497322314963C93E0E00FC063
:104ED000E650FD4FE491EE2329F1E7FF08C0DC0125
:104EE00014962C9114972D7F14962C93EF7720E035
:104EF00030E0EE2351F0DC01A20FB31F16964C9167
:104F000016974E1302C016961C922F5F3F4F263005
:104F1000310579F7BC016C5F7F4F0E94DA2681E092
:104F200090E0089580E090E00895FC0116821782D9
:104F300010861186128613861482BC016C5F7F4F27
:104F40000C94DA261092AF071092A6071092A507CC
:104F500087E994E09093A4078093A30708959CD0D9
:104F600008F481E008950CD0D2C0CAD040F0C1D07E
:104F700030F021F45F3F19F0B3C05111FCC0B6C04E
:104F8000D7D098F39923C9F35523B1F3951B550B4B
:104F9000BB27AA2762177307840738F09F5F5F4F0C
:104FA000220F331F441FAA1FA9F333D00E2E3AF04D
:104FB000E0E830D091505040E695001CCAF729D067
:104FC000FE2F27D0660F771F881FBB1F26173707B6
:104FD0004807AB07B0E809F0BB0B802DBF01FF27E6
:104FE00093585F4F2AF09E3F510568F079C0C3C0C7
:104FF0005F3FECF3983EDCF3869577956795B79520
:10500000F7959F5FC9F7880F911D9695879597F93A
:105010000895E1E0660F771F881FBB1F62177307B3
:105020008407BA0720F0621B730B840BBA0BEE1FC8
:1050300088F7E095089504D06894B1119CC0089554
:105040007FD088F09F5790F0B92F9927B751A0F0E3
:10505000D1F0660F771F881F991F1AF0BA95C9F70C
:1050600012C0B13081F086D0B1E0089583C0672FBF
:10507000782F8827B85F39F0B93FCCF386957795BC
:105080006795B395D9F73EF49095809570956195A5
:105090007F4F8F4F9F4F0895990F0008550FAA0B10
:1050A000E0E8FEEF16161706E807F907C0F012163B
:1050B0001306E407F50798F0621B730B840B950B3E
:1050C00039F40A2661F0232B242B252B21F4089593
:1050D0000A2609F4A140A6958FEF811D811D089530
:1050E00097F99F6780E870E060E008959FEF80EC9B
:1050F000089500240A94161617061806090608953E
:1051000000240A9412161306140605060895092EA3
:105110000394000C11F4882352F0BB0F40F4BF2B12
:1051200011F460FF04C06F5F7F4F8F4F9F4F089552
:1051300057FD9058440F551F59F05F3F71F0479548
:10514000880F97FB991F61F09F3F79F0879508952D
:10515000121613061406551FF2CF4695F1DF08C04C
:10516000161617061806991FF1CF86957105610569
:1051700008940895E894BB2766277727CB0197F911
:1051800008950BD0C4CFB5DF28F0BADF18F095230F
:1051900009F0A6CFABCF1124EECFCADFA0F3959FC5
:1051A000D1F3950F50E0551F629FF001729FBB270E
:1051B000F00DB11D639FAA27F00DB11DAA1F649FBA
:1051C0006627B00DA11D661F829F2227B00DA11D6D
:1051D000621F739FB00DA11D621F839FA00D611DF3
:1051E000221F749F3327A00D611D231F849F600D14
:1051F000211D822F762F6A2F11249F5750408AF04D
:10520000E1F088234AF0EE0FFF1FBB1F661F771FD8
:10521000881F91505040A9F79E3F510570F060CF14
:10522000AACF5F3FECF3983EDCF3869577956795C0
:10523000B795F795E7959F5FC1F7FE2B880F911DF6
:105240009695879597F90895DB018F939F930E9418
:105250008F29BF91AF91A29F800D911DA39F900DAB
:10526000B29F900D1124089597FB072E16F4009419
:1052700007D077FD09D00E94A22907FC05D03EF493
:10528000909581959F4F0895709561957F4F0895F2
:10529000A1E21A2EAA1BBB1BFD010DC0AA1FBB1F3A
:1052A000EE1FFF1FA217B307E407F50720F0A21BAC
:1052B000B30BE40BF50B661F771F881F991F1A9419
:1052C00069F760957095809590959B01AC01BD0143
:1052D000CF010895052E97FB1EF400940E948129AA
:1052E00057FD07D00E94482907FC03D04EF40C94C8
:1052F000812950954095309521953F4F4F4F5F4FF5
:10530000089590958095709561957F4F8F4F9F4F31
:105310000895EE0FFF1F0590F491E02D09940E946F
:10532000B629A59F900DB49F900DA49F800D911D4F
:1053300011240895B7FF0C948F290E948F29821B96
:10534000930B0895AA1BBB1B51E107C0AA1FBB1FEB
:10535000A617B70710F0A61BB70B881F991F5A9501
:10536000A9F780959095BC01CD010895A29FB00149
:10537000B39FC001A39F700D811D1124911DB29F89
:10538000700D811D1124911D0895CF93DF938230FC
:10539000910510F482E090E0E091B207F091B3073C
:1053A00020E030E0A0E0B0E0309739F14081518159
:1053B00048175907B8F04817590771F4828193814B
:1053C000109729F013969C938E9312972CC090936C
:1053D000B3078093B20727C02115310531F042177A
:1053E000530718F0A901DB0101C0EF019A01BD01CB
:1053F000DF010280F381E02DD7CF21153105F9F0CF
:10540000281B390B2430310580F48A819B8161157A
:10541000710521F0FB019383828304C09093B3074D
:105420008093B207FE01329644C0FE01E20FF31FE3
:105430008193919322503109398328833AC0209176
:10544000B0073091B107232B41F420910201309134
:1054500003013093B1072093B007209100013091F0
:1054600001012115310541F42DB73EB740910401EA
:1054700050910501241B350BE091B007F091B10765
:10548000E217F307A0F42E1B3F0B2817390778F01B
:10549000AC014E5F5F4F2417350748F04E0F5F1F7A
:1054A0005093B1074093B0078193919302C0E0E01D
:1054B000F0E0CF01DF91CF910895CF93DF93009774
:1054C00009F487C0FC01329713821282C091B2079F
:1054D000D091B307209781F420813181280F391FA3
:1054E0008091B0079091B1078217930779F5F093F7
:1054F000B107E093B0076DC0DE0120E030E0AE17E9
:10550000BF0750F412964D915C9113979D01411580
:10551000510509F1DA01F3CFB383A28340815181B0
:10552000840F951F8A179B0771F48D919C91119799
:10553000840F951F02969183808312968D919C9182
:105540001397938382832115310529F4F093B307D0
:10555000E093B2073EC0D9011396FC93EE931297E5
:105560004D915D91A40FB51FEA17FB0779F4808177
:105570009181840F951F0296D90111969C938E9369
:105580008281938113969C938E931297E0E0F0E0D2
:105590008A819B81009719F0FE01EC01F9CFCE01C1
:1055A000029628813981820F931F2091B007309194
:1055B000B1072817390769F4309729F41092B30717
:1055C0001092B20702C013821282D093B107C09327
:1055D000B007DF91CF910895A0E0B0E0E2EFFAE2EA
:1055E0000C94F82BEC01CB01209719F40E94C529EB
:1055F000B8C0FE01E60FF71F9E0122503109E217E5
:10560000F30708F4ACC0D9010D911C91119706174E
:105610001707B8F00530110508F49FC0A8014450E1
:1056200051094617570708F498C002501109061B84
:10563000170B019311936D937C93CF010E945D2A08
:105640008CC05B01A01AB10A4E01800E911EA09180
:10565000B207B091B307612C712C60E070E0109735
:1056600009F449C0A815B905C9F5ED90FC9011974A
:10567000670142E0C40ED11CCA14DB0478F1470173
:105680008A189B08640142E0C40ED11C1296BC909B
:1056900012971396AC91B5E0CB16D10440F0B282CC
:1056A000A38391828082D9018D939C9309C00E5F60
:1056B0001F4F0E0D1F1DF90111830083EB2DFA2FD3
:1056C0006115710531F0DB011396FC93EE9312978F
:1056D00044C0F093B307E093B2073FC06D917C9153
:1056E00011976616770608F43B01BD0112960D90DE
:1056F000BC91A02DB4CF6091B0077091B10768152F
:105700007905E9F468167906D0F4409100015091CA
:1057100001014115510541F44DB75EB76091040197
:1057200070910501461B570BE417F507C0F4F09381
:10573000B107E093B007F901918380830EC00E9406
:10574000C5297C01009759F0A801BE010E94D42B05
:10575000CE010E945D2AC70104C0CE0102C080E0D4
:1057600090E0CDB7DEB7EEE00C94142CFC01882756
:105770009927E89421912032E9F3293010F02E3056
:10578000C8F32B3241F02D3239F4689404C00E94E2
:10579000E42B820F911D219120532A30C0F31EF477
:1057A000909581959F4F0895FB01DC0102C0019007
:1057B0000D9241505040D8F70895FB01DC01019053
:1057C0000D920020E1F708957AE0979F902D879F32
:1057D000802D910D11240895F999FECF92BD81BDC0
:1057E000F89A992780B508952F923F924F925F9231
:1057F0006F927F928F929F92AF92BF92CF92DF92E1
:10580000EF92FF920F931F93CF93DF93CDB7DEB745
:10581000CA1BDB0B0FB6F894DEBF0FBECDBF0994D9
:105820002A88398848885F846E847D848C849B8430
:10583000AA84B984C884DF80EE80FD800C811B813E
:10584000AA81B981CE0FD11D0FB6F894DEBF0FBE6D
:10585000CDBFED01089514E0C2E0D4E004C0FE0124
:105860000E948B292296C430D107C9F7F894FFCF44
:105870000000B4078000EE02FF0100FF00FF7D0280
:10588000830292020097029D02A4020AAD02B202B4
:10589000C00214C602CC02D3021ED802DD02E90205
:1058A00028EF02F60200033204030B0311033C1637
:1058B000031B0322034626032B033503503B0340FF
:1058C000034A035A4F03550362036468036D03736D
:1058D000036E78037E038503788A038F0397038220
:1058E0009C03A103A9038CAE03B403BE0396C203B9
:1058F000C703CC03A0D003D503DF03AA32002800DE
:10590000140400E10000000000000101000002009A
:1059100005002800F401D4033220424344204245CC
:105920003A20000053656E74205061636B65743AD1
:1059300020000052656365697665642052617720B6
:105940005061636B65743A2000005061796C6F613F
:105950006420646174613A2000003A0032306D00C6
:1059600031376D0031356D0031326D0031306D00F1
:105970004552520064426D00322E37660051525833
:105980002053657269616C20434E534F4C00515255
:105990005820494E4954202020202020202000510A
:1059A000525820494E49542047505320444F0051EB
:1059B000525820494E495420524144494F2020001A
:1059C00020202020202020202020202020202000F7
:1059D0004D454E5500534B4950004F5045520054D1
:1059E0005820202020202020202020200034753125
:1059F000756E00556E69746564204E6174696F6ED2
:105A00007300554E52430076653861740043616EF1
:105A1000616461005241432F4E4152430077367713
:105A20007800556E69746564205374617465730001
:105A30004E43445846006B68367273004861776184
:105A40006969004D415243007A6C3662004E6577B9
:105A5000205A65616C616E64004E5A415254007662
:105A60006B36726270004175737472616C696100AB
:105A7000574941006A6132696779004A6170616E15
:105A8000004A41524C007272396F0052757373694B
:105A90006100535252007672326200486F6E672086
:105AA0004B6F6E67004841525453003473376200A5
:105AB000537269204C616E6B61005253534C007AF3
:105AC0007336646E00536F75746820416672696343
:105AD00061005A5336444E00357A3462004B656E8D
