:100000000C940A020C947C1C0C94A91C0C94D61C15
:100010000C94031D0C9432020C9432020C94301D8B
:100020000C9432020C940D100C9457270C94232638
:100030000C9432020C9432020C9432020C94320270
:100040000C9432020C9432020C9432020C94320260
:100050000C9432020C9432020C9432020C945D1D0A
:100060000C9432020C945D210C948F210C9432027A
:100070000C9432020C9432020C9432020C94320230
:100080000C94BE230C9432020C9432020C94320273
:100090000C9418130C9432020C9432020C94320219
:1000A0000C9432020C9432020C943202E20CF50CE5
:1000B000050D180D200D4C0D540D5C0D640D6B0DD0
:1000C0006B0D6B0D6B0D6B0D6B0D6B0D6B0D6B0D70
:1000D0006B0D6B0D6B0D6B0D6B0D6B0D6B0D6B0D60
:1000E0006B0D6B0D6B0D6B0D6B0D6B0DE20CEE0C58
:1000F000F50C050D180D200D330D3B0D430D6C1E39
:100100006F1E5E1E621E681E901E901E901E731E45
:10011000771E7B1E811E851E901E8B1E2020202098
:10012000202020202000202020202020202020000F
:1001300020202020006379636C657300466F723A5B
:1001400000534B495020456E61626C65642020204D
:10015000202020003220323520343900534B4950C2
:10016000202D20484F555253204F6666006669780F
:100170002061676520494E56414C494400434F4E2B
:100180005320636F6E6E65637465640020202020C9
:100190002020202020002020202020200024504D3E
:1001A000544B3330302C313030302C302C302C301C
:1001B0002C302A31430024504D544B3232302C31F4
:1001C0003030302A31460024504D544B3331342CDA
:1001D000302C312C302C302C302C302C302C302C3E
:1001E000302C302C302C302C302C302C302C302C2F
:1001F000302C302C302A3239000000000200090F68
:100200000000030401000C000000000000000000DA
:1002100000000000000000040802011040804010AF
:10022000204080408008020401804020100201101C
:100230008010204040040404040403040502020268
:10024000020403020202020606060606060404026F
:10025000020204000000002300260029002C002FC9
:100260000000000000250028002B002E00310000B7
:10027000000000240027002A002D003000080B0099
:10028000020202010009040000010202000005242C
:1002900000100105240101010424020605240600C2
:1002A000010705810310004009040100020A000053
:1002B000000705020240000007058302400000001D
:1002C000C18081C11201000202000040412336803A
:1002D0000001010200011201000200000040412360
:1002E000368000010102000141726475696E6F2061
:1002F0004C4C430041726475696E6F204C656F6EA3
:100300006172646F00040309040000000000000033
:10031000002A2B2800000000000000000000000060
:100320000000000000000000002C9EB4A0A1A2A4C8
:1003300034A6A7A5AE362D3738271E1F202122232D
:10034000242526B333B62EB7B89F8485868788893F
:100350008A8B8C8D8E8F9091929394959697989985
:100360009A9B9C9D2F3130A3AD35040506070809E3
:100370000A0B0C0D0E0F1011121314151617181965
:100380001A1B1C1DAFB1B0B5000904020001030027
:1003900000000921010100012265000705840340D6
:1003A000000105010902A1010901A100850105095A
:1003B0001901290315002501950375018102950195
:1003C0007505810305010930093109381581257F3B
:1003D000750895038106C0C005010906A1018502C3
:1003E000050719E029E71500250175019508810227
:1003F00095017508810395067508150025650507A3
:10040000190029658100C000C5067A12FB1FBF21B3
:10041000AF29F90611241FBECFEFDAE0DEBFCDBF52
:1004200015E0A0E0B1E0E4E4FDE502C005900D9226
:10043000A430B107D9F728E0A4E0B5E001C01D92CF
:10044000A434B207E1F714E0C2E1D4E004C022977B
:10045000FE010E94982BC830D107C9F70E940322E1
:100460000C94952E0C940000CF93DF93809175052A
:1004700090E0019624EB30E0B9010E94412B80937B
:10048000750580910B0190910C010196B9010E94B4
:10049000412B90930C0180930B018091740588236C
:1004A00091F0C0917005D09171050E94A71D7093C5
:1004B0007105609370050E94A71D6C1B7D0B7093E6
:1004C00073056093720581E080937605DF91CF918B
:1004D00008956AEE71E085E397E00C94A8220C94ED
:1004E000452E1F93CF93DF9383E495E00E94DF15A1
:1004F000009719F10E94C32DEC010E946F02182F82
:1005000060EF71E085E397E00E9479224AE050E0D5
:10051000BE0185E397E00E94902361EF71E085E3DF
:1005200097E00E94792240E150E0612F85E397E057
:10053000DF91CF911F910C94792363EF71E085E3F4
:1005400097E0DF91CF911F910C94A8221F93CF9336
:10055000DF9383E495E00E94DF15009749F00E9445
:10056000C32DEC0183E495E00E94DF15009749F468
:100570006EE172E085E397E0DF91CF911F910C94DB
:10058000A8220E94C32D182F682FCE010E944D2E45
:1005900067E472E085E397E00E9479224AE050E048
:1005A000BE0185E397E00E94902361EF71E085E34F
:1005B00097E00E94792240E150E0612F85E397E0C7
:1005C000DF91CF911F910C94792341E752E06FECBA
:1005D00072E083E495E00E94A41546EA52E06FE6DB
:1005E00074E083E495E00E94A41569E672E083E478
:1005F00095E00E94DB158FE795E00E94CF1460E044
:1006000086E00E94CA1E60E089E00E94CA1E61E086
:1006100084E00E94CA1E40E060E08FE795E00E94FF
:1006200062146DE771E08FE795E00E9454226AE45E
:1006300072E085E397E00E94A82283E495E00E949F
:10064000E915FBCF84E090E00E946F029FEF980FC6
:10065000913108F08FEF0895CF93DF9387E090E01A
:100660000E946F02C82FD0E088E090E00E946F02E5
:1006700090E0982F88278C0F9D1FDF91CF910895D0
:10068000109274058091720590917305892B99F0F1
:100690002091720530917305C901880F991F820F4F
:1006A000931F97FD039695958795959587959093BC
:1006B00007018093060108950F931F93CF93DF9353
:1006C00000D000D000D0CDB7DEB78C018DE095E032
:1006D0000E949D1740E050E060EB71E48DE095E0F2
:1006E0000E94A217B801CE0101960E943928BE01CE
:1006F0006F5F7F4F8DE095E00E940E18CE0101964E
:100700000E94CB2726960FB6F894DEBF0FBECDBF52
:10071000DF91CF911F910F91089560E085E00E94D5
:10072000CA1E60E08CE00E94CA1E8DE095E00E9427
:10073000DD1881E080936F0560E085E00C94CA1EAF
:10074000CF92DF92EF92FF9287E795E00E943D15EE
:100750000E94A71D6B017C0187E795E00E94891527
:10076000882391F087E795E00E943D150E94A71D20
:100770006C197D098E099F096131774281059105C8
:1007800058F383E090E040C00E94A71D6B017C01FC
:1007900087E795E00E948915811110C087E795E0F1
:1007A0000E943D150E94A71D6C197D098E099F09A5
:1007B000613177428105910558F3E3CFC12CD12CEB
:1007C000760187E795E00E9489158823A1F087E7E5
:1007D00095E00E943D158FEFC81AD80AE80AF80A7A
:1007E00021E7C21621E1D20621E0E206F10449F731
:1007F00082E090E009C080E2C8168EE4D806E104E9
:10080000F104B0F781E090E0FF90EF90DF90CF909F
:100810000895EF92FF920F931F93CF93DF93CDB77D
:10082000DEB72C970FB6F894DEBF0FBECDBF86E0C3
:10083000ECE9F1E0DE01179601900D928A95E1F75F
:1008400086E0E2EAF1E0DE01119601900D928A95D0
:10085000E1F70E94A003039709F4B8C085E397E08D
:100860000E94EC1F81110E94E5028FE795E00E9433
:10087000CF1460E086E00E94CA1E60E089E00E941A
:10088000CA1E61E084E00E94CA1E40E060E08FE77B
:1008900095E00E9462146CE571E08FE795E00E949C
:1008A000542240E061E08FE795E00E94621464E525
:1008B00071E08FE795E00E9454228FE795E00E9457
:1008C000D81440E061E08FE795E00E94621487E76A
:1008D00095E00E943D1587E795E00E9489158111FA
:1008E000F6CF00E010E073E0E72EF12C0E94A003A9
:1008F00082309105E1F08330910509F467C00197DA
:10090000A9F7C8010196B7010E94412B8C01FC0197
:10091000EE0FFF1F81E090E08C0F9D1FE80FF91F85
:10092000468161E08FE795E00E946214DFCFF80115
:10093000EE0FFF1F81E090E08C0F9D1FE80FF91F65
:1009400080819181909318068093170681E090E052
:10095000909316068093150640E060E08FE795E0DF
:100960000E94621461E471E08FE795E00E945422D6
:1009700040E061E08FE795E00E9462146CE371E073
:100980008FE795E00E94542245E061E08FE795E013
:100990000E94621460911706709118064AE050E0B8
:1009A0008FE795E00E945D2349E061E08FE795E0E5
:1009B0000E94621465E371E08FE795E00E94542283
:1009C00068E873E180E090E00E94D61D80E090E04E
:1009D0002C960FB6F894DEBF0FBECDBFDF91CF913E
:1009E0001F910F91FF90EF90089561E08DE00E94BC
:1009F000911E61E085E00E94911E61E08CE00E9402
:100A0000911E61E08CE00E94CA1E60E085E00E94B9
:100A1000CA1E60E08DE00C94CA1E61E08CE00E946A
:100A2000CA1E61E085E00E94911E61E08CE00E9498
:100A3000911E60E08DE00E94CA1E26E040EC52E16B
:100A400060E070E085E897E00E94FB2063E070E0E2
:100A500084E095E00E94181B40E062E470E084E0CE
:100A600095E00E94CC1B6AE070E084E095E00E9473
:100A7000A51B40E86AE070E084E095E00E946D1BF1
:100A80006AE070E084E095E00E94A51B80E296E2B7
:100A9000A7EDB0E08093090590930A05A0930B059C
:100AA000B0930C0540E256E267ED70E084E095E01B
:100AB0000C943F1B8F3009F44BC0D8F48A3009F4F2
:100AC0005CC08C3009F06EC080ED96E6ACE7B1E01A
:100AD0008093090590930A05A0930B05B0930C052C
:100AE00047E061E08FE795E00E9462146DE572E0F7
:100AF0006DC08131C1F0843109F054C080E296E2CA
:100B0000A7EDB0E08093090590930A05A0930B052B
:100B1000B0930C0547E061E08FE795E00E94621416
:100B200061E572E053C080E396E5A4E1B1E0809313
:100B3000090590930A05A0930B05B0930C0547E0B7
:100B400061E08FE795E00E94621465E572E03EC0C7
:100B500080E399EBA2E4B1E08093090590930A0544
:100B6000A0930B05B0930C0547E061E08FE795E09B
:100B70000E94621469E572E029C080E49CE4AEEA58
:100B8000B1E08093090590930A05A0930B05B093FB
:100B90000C0547E061E08FE795E00E94621461E692
:100BA00072E014C080E49CE4AEEAB1E080930905F1
:100BB00090930A05A0930B05B0930C0547E061E004
:100BC0008FE795E00E94621465E672E08FE795E09A
:100BD0000E9479224091090550910A0560910B0508
:100BE00070910C0584E095E00E943F1B10926F0508
:100BF0000895CF93C82F4BE061E08FE795E00E9406
:100C000062144AE050E06C2F8FE795E00E94722357
:100C10004DE061E08FE795E00E94621469E672E0C2
:100C20008FE795E00E94792260E08DE00E94CA1E65
:100C3000CE3171F038F4C43159F461E08DE00E9496
:100C4000CA1E06C0C83231F0C23311F446EE03C0EA
:100C500040E001C047E161E070E084E095E0CF91C1
:100C60000C94CC1B60E085E00E94CA1E60E08DE021
:100C70000E94CA1E61E08CE00E94CA1E60E086E00D
:100C80000E94CA1E60E089E00E94CA1E61E084E002
:100C90000C94CA1E2091150630911606232B09F0DC
:100CA00073C00E945A0582E30E94F90560911906FB
:100CB00070911A0680E090E00E94D61D60E086E008
:100CC0000E94CA1E60E084E00E94CA1E61E089E0C2
:100CD0000E94CA1E0E948D036AEF70E080E090E0DF
:100CE0000E94D61D61E085E00E94CA1E63EE73E09B
:100CF00080E090E00E94D61D60E085E00E94CA1E60
:100D000088E20E94F90561E085E00E94CA1E63EE58
:100D100073E080E090E00E94D61D60E085E00E94D4
:100D2000CA1E8EE10E94F90561E085E00E94CA1E9C
:100D300063EE73E080E090E00E94D61D60E085E005
:100D40000E94CA1E84E10E94F90561E085E00E94CC
:100D5000CA1E63EE73E080E090E00E94D61D60E062
:100D600085E00E94CA1E0E94320682E30E94F905B5
:100D700047E061E08FE795E00E9462146CE171E06A
:100D80008FE795E00C94542208950F9320E04BE0F8
:100D900068E086EF95E00E94E01083E895E00E940D
:100DA0006D0A00E028E230E040E162E08FE795E084
:100DB0000E944C1487E795E00E94181583E495E0A3
:100DC0000E948D1520E030E040E451E465E070E0E1
:100DD0008DE095E00E94EA1888E095E00E94781680
:100DE00028E035E046E760EE84E095E00F910C9452
:100DF000FD1881EC94E090930E0580930D0585E13C
:100E000095E00E94CB2786EF95E00C9487108F9297
:100E10009F92AF92BF92CF92DF92EF92FF920F9389
:100E20001F93CF93DF93CDB7DEB72C970FB6F8940F
:100E3000DEBF0FBECDBF6B017C0185E397E00E9452
:100E4000501F86EF95E00E94E40F81E0C81AD10898
:100E5000E108F1081C141D041E041F040CF070C0EE
:100E600086EF95E00E94A70F892B09F462C086EFF8
:100E700095E00E941A0F182F682F85E397E00E94D3
:100E8000291F85E397E00E94501F612F83E895E0BA
:100E90000E94740D8823C9F285E397E00E948222A4
:100EA0009E012F5F3F4F4901CE0107965C01295FEC
:100EB0003F4F690102967C018E01065F1F4F2D5F37
:100EC0003F4FAE01445F5F4FBE016B5F7F4F83E8D2
:100ED00095E00E944A0E89819A81AB81BC818F3F47
:100EE0009F4FAF4FBF4FE1F02985888590E03CE3ED
:100EF000239F800D911D112464EB70E00E94412B13
:100F000001962091750530E02817390781F021E01E
:100F100030E030930A01209309018093750507C0E2
:100F20006DE671E085E397E00E94542209C011E06C
:100F300008C064E670E080E090E00E94D61D85CF96
:100F400010E086EF95E00E94CE0F85E397E00E94C7
:100F5000501F812F2C960FB6F894DEBF0FBECDBF69
:100F6000DF91CF911F910F91FF90EF90DF90CF9085
:100F7000BF90AF909F908F900895CF930E94F504FB
:100F80000E94220380930D010E942C0390931A0665
:100F90008093190640E052EC61E070E085E397E051
:100FA0000E94E61F62E08AE00E94911E61E086E0F6
:100FB0000E94911E61E084E00E94911E61E089E040
:100FC0000E94911E60E084E00E94CA1E60E089E0F9
:100FD0000E94CA1E61E086E00E94CA1E8FE795E06B
:100FE0000E94DE148FE795E00E94D51440E060E097
:100FF0008FE795E00E9462146DE672E08FE795E05E
:101000000E94792246E060E08FE795E00E9462143A
:10101000A0910D01C7E0CA9FD0011124A25FBE4F6D
:101020006D917C918FE795E00E9479224DE060E020
:101030008FE795E00E946214E0910D01CE9FF001D0
:101040001124E25FFE4F4AE050E066818FE795E0B1
:101050000E94722340E061E08FE795E00E946214F5
:1010600062E772E08FE795E00E94792240E061E05C
:101070008FE795E00E94621463E872E08FE795E0E5
:101080000E94792262E083E00E94911E43E050E0DA
:1010900064E372E084E00E942C1C40E855E260E0CA
:1010A00070E086EF95E00E94101167EC71E086EF2A
:1010B00095E00E94962266EB71E086EF95E00E9433
:1010C00096226DE971E086EF95E00E94962268EE27
:1010D00073E080E090E00E94D61D86EF95E00E94CC
:1010E000CE0F40E061E08FE795E00E94621464E972
:1010F00072E08FE795E00E9479226FEF7FEF8FEF2C
:101100009FE70E9407078823C1F381E0809374055D
:1011100068E873E180E090E00E94D61D0E944003E1
:1011200040E061E08FE795E00E94621461EA72E0BE
:101130008FE795E00E9479220E940D05E0910D0154
:1011400087E0E89FF0011124E25FFE4F80819181EA
:101150000E945C036AE070E087E795E00E94241536
:101160006AE070E087E795E00E94391540E061E0B1
:101170008FE795E00E94621462EB72E08FE795E0E2
:101180000E94792240E061E08FE795E00E946214BE
:1011900062EC72E08FE795E00E9479220E940904D8
:1011A0008FE795E00E94DB148FE795E00E94D5144D
:1011B000809115069091160640E061E0892B39F187
:1011C0008FE795E00E94621467EC72E08FE795E08C
:1011D0000E94792249E061E08FE795E00E94621465
:1011E00066E971E08FE795E00E94542249E061E0F2
:1011F0008FE795E00E9462146091170670911806BF
:101200004AE050E08FE795E00E945D230AC08FE737
:1012100095E00E9462146CEC72E08FE795E00E940A
:10122000792240E060E08FE795E00E9462146DE66D
:1012300072E08FE795E00E94792245E060E08FE759
:1012400095E00E9462146CE871E08FE795E00E94DF
:10125000542246E060E08FE795E00E946214A0917E
:101260000D01C7E0CA9FD0011124A25FBE4F6D914E
:101270007C918FE795E00E9479224DE060E08FE756
:1012800095E00E946214E0910D01CE9FF0011124BF
:10129000E25FFE4F4AE050E066818FE795E00E94F2
:1012A000722360E086E00E94CA1E60E089E00E942E
:1012B000CA1E61E084E0CF910C94CA1E45E061E053
:1012C0008FE795E00E9462146EEB72E08FE795E085
:1012D0000E94792245E061E08FE795E00E94621468
:1012E000609175054AE050E08FE795E00E94722317
:1012F0008091090190910A01892BA9F090917505BF
:10130000E0910D0187E0E89FF0011124E25FFE4FBC
:1013100086819813D8C010920A0110920901109288
:101320000C0110920B0180910B0190910C018832FD
:10133000910509F492C08CF48A30910509F486C0B5
:1013400024F4892B09F480C008958431910509F4AF
:1013500080C04E9709F47FC008958639910509F43D
:10136000B0C04CF48C33910509F48CC08C389105D5
:1013700009F4A3C00895803A910509F498C0833B0D
:10138000910509F0089585E0809308018091150684
:1013900090911606892B09F445C08091170690910B
:1013A00018060197909318068093170618161906C9
:1013B000E4F449E061E08FE795E00E94621460E3A5
:1013C00071E08FE795E00E94542249E061E08FE7E9
:1013D00095E00E94621460911706709118064AE029
:1013E00050E08FE795E00C945D2340E061E08FE7EB
:1013F00095E00E9462146CEC72E08FE795E00E9429
:10140000792249E061E08FE795E00E9462146DEB7C
:1014100072E08FE795E00E947922109216061092F2
:101420001506089540E061E08FE795E00E946214A0
:1014300061ED72E08FE795E00E94792284E10E94DD
:101440005A0582E30C94F90584E101C081E10C9412
:101450004A068FE0FCCF8CE0FACF8AE00E944A0671
:101460008091150690911606892B69F540E061E0A0
:101470008FE795E00E9462146CEC72E08FE795E0D4
:101480000C9479228091150690911606892B19F4F7
:1014900084E10E945A0547E061E08FE795E00E94F1
:1014A000621466E271E08FE795E00E94542260E0EA
:1014B00070E880E090E00C94070781E08093740569
:1014C00008950C944003089580917605882321F0B7
:1014D000109276050C945E0908950F931F93FC01FA
:1014E0000FEF1FEF9801008311832283338310864F
:1014F0001186128613864FEF59EC6AE97BE3408B25
:10150000518B628B738B408F518F628F738F40A38F
:1015100051A362A373A340A751A762A773A740ABCF
:1015200051AB62AB73AB00AF11AF22AF33AFDC0195
:10153000A05CBF4F8FEF90E011969C938E93149612
:101540000D931D932D933C93139718960D931D9314
:101550002D933C93139718961C9211961C925096BB
:1015600082E08C9311961C9211961C9211961C92FB
:1015700011961D921D921D921C921397149611960E
:101580001C921E9212961D921C92EA5AFF4F1082D4
:101590001F910F9108952FEB260F862F992787FD16
:1015A0009095263010F4C79708956156663018F468
:1015B000875591090895C09708950F931F93FB01D4
:1015C00060E070E0CB01019120ED200F2A30A0F403
:1015D000AAE0B0E09B01AC010E949C2B112707FD03
:1015E0001095212F312F600F711F821F931F6053A1
:1015F000710981099109E7CF1F910F9108950F9308
:101600001F93CF93FC01EA5AFF4FC1E020812D3296
:1016100019F0C0E08F0103C08C01095A1F4FB801B7
:101620000E94DD0A9B01AC01A4E6B0E00E949C2B65
:10163000F801DF01219130ED320F3A30D0F32E3234
:1016400069F511962C91119730ED320F3A3030F543
:10165000332727FD3095205331094AE0429F80010E
:10166000439F100D1124222717FD2095322F600F64
:10167000711F821F931F12960C9120ED200F2A30AC
:1016800068F4112707FD109500531109222717FD53
:101690002095322F600F711F821F931FCC2339F0CA
:1016A00090958095709561957F4F8F4F9F4FCF910B
:1016B0001F910F9108954F925F926F927F928F9238
:1016C0009F92AF92BF92CF92DF92EF92FF92CF9311
:1016D000DF93EC01CA5ADF4FBE010E94DD0A2B01E5
:1016E0003C0124E630E040E050E00E94552B9B0195
:1016F000AC0160EA76E881E090E00E94312B6B015A
:101700007C01FE01819190ED980F9A30D8F38E32D2
:1017100019F5EF0180E1882E87E2982EA12CB12CDB
:10172000A99180ED8A0F8A30B8F4BB27A7FDB09548
:10173000D097A50194010E94A72BC60ED71EE81EC4
:10174000F91EC501B4012AE030E040E050E00E94FB
:10175000552B49015A01E4CFC701B6016D5F7F4F98
:101760008F4F9F4F26E030E040E050E00E94552B25
:1017700069017A01C301B20124E630E040E050E0A3
:101780000E94552B60E472E48FE090E00E94312BC0
:10179000C60ED71EE81EF91EC701B601DF91CF9114
:1017A000FF90EF90DF90CF90BF90AF909F908F9081
:1017B0007F906F905F904F900895DB01FA018D91BB
:1017C000882319F091918917D1F3992787FD909576
:1017D0000895CF92DF92EF92FF921F93CF93DF9302
:1017E000EC01FC01EB5AFF4F1081112309F4A9C051
:1017F000319660810E94CB0A182FFE01E95AFF4FF3
:101800006081CE010E94CB0A40E1149F800D11241B
:10181000FE01EC5AFF4F908189138AC074961081A3
:10182000112309F458C135968081918101969183E5
:101830008083B59780819181A281B3813497808321
:101840009183A283B3833C9680819181A281B381ED
:10185000349780839183A283B38379968081882390
:10186000A1F1813009F037C18C819D81AE81BF81AA
:1018700088839983AA83BB838C859D85AE85BF852C
:1018800088879987AA87BB878C899D89AE89BF89FC
:10189000888B998BAA8BBB8B8C8D9D8DAE8DBF8DCC
:1018A000888F998FAA8FBB8F8CA59DA5AEA5BFA54C
:1018B00088A799A7AAA7BBA78CA99DA9AEA9BFA9CC
:1018C00088AB99ABAAABBBAB06C18CA19DA1AEA165
:1018D000BFA188A399A3AAA3BBA38C819D81AE813C
:1018E000BF8188839983AA83BB838C899D89AE89B4
:1018F000BF89888B998BAA8BBB8B8C8D9D8DAE8D70
:10190000BF8D888F998FAA8FBB8FFE01E05CFF4F40
:10191000DE01AE5BBF4F8D919C91918380838CAD36
:101920009DADAEADBFAD88AF99AFAAAFBBAFD3C0D1
:10193000C159DF4F8881998101969983888310E08E
:10194000CAC0FC01EA59FF4F30818B599F4F7C017F
:1019500031111DC06E0196E5C90ED11C45E454E05D
:10196000B601CE010E94DD0B892B11F481E00CC081
:101970004BE454E0B601CE010E94DD0B892B19F433
:10198000F7011082A8C082E0D7018C93A4C0DC01CB
:10199000EC91E23009F49FC0CE018A5A9F4FDC01DE
:1019A0002C91222309F497C0B0E2EB9FF00111249F
:1019B000E32B3197E932F10508F08DC0EA5AFF4F69
:1019C0000C94962BCE010E94FF0A6C837D838E833C
:1019D0009F830E94A71DC85BDF4F12C0C859DF4F0D
:1019E00081E0213409F05DC05DC0CE010E945B0B37
:1019F0006C8B7D8B8E8B9F8B0E94A71DC05BDF4FF6
:101A0000688379838A839B8366C0233509F063C02A
:101A10008C899D89AE89BF89B095A0959095819557
:101A20009F4FAF4FBF4F8C8B9D8BAE8BBF8B53C0E7
:101A3000CE010E945B0B6C8F7D8F8E8F9F8F4BC072
:101A4000273509F048C08C8D9D8DAE8DBF8DB0952A
:101A5000A095909581959F4FAF4FBF4F8C8F9D8FD5
:101A6000AE8FBF8F38C0CE010E94FF0A6CA77DA742
:101A70008EA79FA730C0CE010E94FF0A6CAB7DAB42
:101A80008EAB9FAB28C0BC01CE010E94DD0A6C87E3
:101A90007D878E879F871FC0C859DF4F81E0213324
:101AA0000CF480E0888317C00E94C32DCE5BDF4F0B
:101AB0009927998388830FC0CE010E94FF0A6CAFDB
:101AC0007DAF8EAF9FAF07C0CE010E94FF0A6CA30F
:101AD0007DA38EA39FA3812FDF91CF911F91FF90B4
:101AE000EF90DF90CF900895CF92DF92EF92FF9228
:101AF0000F931F93CF93DF931F92CDB7DEB76C0187
:101B0000262FFC01E759FF4F40815181628173818B
:101B10004F5F5F4F6F4F7F4F40835183628373836B
:101B20008C0109591F4F8B5A9F4F7C01243281F140
:101B30002CF42A3069F02D30E9F50AC02A3241F040
:101B40002C32C1F5F601EC5AFF4F80818227808349
:101B5000F80180818F3060F4F601E80FF11DEA5A38
:101B6000FF4F1082C60129830E94E90B298101C021
:101B700080E0F601EA59FF4F90819F5F9083F80162
:101B8000108291E02A3209F090E0F70190832AC098
:101B9000F8011082F601EA59FF4F10827297108205
:101BA000719682E08083F7011082F601E859FF4FB9
:101BB000108217C0F80180818E3048F491E0980FB0
:101BC0009083F601E80FF11DEA5AFF4F2083F701D9
:101BD0008081811106C0F601EC5AFF4F8081822777
:101BE000808380E00F90DF91CF911F910F91FF9044
:101BF000EF90DF90CF900895CF92DF92EF92FF9217
:101C00000F931F93CF93DF93E9016115710551F095
:101C1000FC01C084D184E284F384FB01C082D182C0
:101C2000E282F3824115510551F0FC01C080D18060
:101C3000E280F380FA01C082D182E282F3822097AF
:101C400001F18C010C5B1F4FF80180819181A28111
:101C5000B3818F3F9F4FAF4FBF4F61F00E94A71DD1
:101C6000F8010081118122813381601B710B820B8D
:101C7000930B03C06FEF7FEFCB01688379838A8377
:101C80009B83DF91CF911F910F91FF90EF90DF9099
:101C9000CF9008952F923F924F925F926F927F92D2
:101CA0008F929F92AF92BF92CF92DF92EF92FF926C
:101CB0000F931F93CF93DF93CDB7DEB72A970FB65D
:101CC000F894DEBF0FBECDBF2B015A87498719019B
:101CD0009401AE014F5F5F4FBE016B5F7F4F0E946B
:101CE000FC0D41145104B9F06D817E818F8198857E
:101CF00024E630E040E050E00E94552B613571054C
:101D00001CF02CE637E002C020ED37E0620F731FB5
:101D1000F2017183608389859A85892BB1F06D8189
:101D20007E818F81988544E6442E512C612C712C44
:101D3000A30192010E94552BCA01B901A30192018E
:101D40000E94552BE985FA8560832114310461F0E6
:101D50006D817E818F81988520E137E240E050E0FF
:101D60000E94552BF10120830115110561F0698155
:101D70007A818B819C8120E432E44FE050E00E9424
:101D8000552BF8012083E114F104A1F069817A81D7
:101D90008B819C8120E137E240E050E00E94552B8E
:101DA000CA01B90124E630E040E050E00E94552B22
:101DB000F7016083C114D104A9F069817A818B8114
:101DC0009C8134E6432E512C612C712CA30192018D
:101DD0000E94552BCA01B901A30192010E94552B03
:101DE000F6016083A114B10461F069817A818B816D
:101DF0009C8124E630E040E050E00E94552BF50144
:101E000060832A960FB6F894DEBF0FBECDBFDF9178
:101E1000CF911F910F91FF90EF90DF90CF90BF90E7
:101E2000AF909F908F907F906F905F904F903F907A
:101E30002F90089520915D0630915E06281739078E
:101E4000B9F490911B0680911C06981789F0E091D7
:101E50001B06F0E0E35EF94F808120911B0630E025
:101E60002F5F3F4F2F73332720931B0690E0089579
:101E70008FEF9FEF08951F93CF93DF93DC015C9664
:101E80008D919C915D97009749F481E090E01396C5
:101E90009C938E93129780E090E03BC05196ED9119
:101EA000FC91529750962C915097322F30951FB736
:101EB0005E964C915E9741FB772770F941FD6095E6
:101EC000F8944081772311F0422B01C043234083D3
:101ED000EC012197F1F748E0508160FF02C0522BDE
:101EE00001C053235083EC012197F1F766954150CF
:101EF00099F78081772311F0832301C0822B80839F
:101F00001FBF5C968D919C915D970197F1F781E0E1
:101F100090E0DF91CF911F91089520915D0630915F
:101F20005E062817390781F490911B0680911C06E4
:101F3000981751F0E0911B06F0E0E35EF94F8081C5
:101F4000992787FD909508958FEF9FEF0895209131
:101F50005D0630915E062817390771F480911C06E2
:101F600020911B0690E0805C9F4F821B910960E4EA
:101F700070E00E94412B089580E090E00895209148
:101F80005D0630915E062817390739F48FB7F8944B
:101F900010921C0610921B068FBF0895E0915D06FB
:101FA000F0915E06E817F90769F4A389B4899C915A
:101FB0008589809589238C9310925E0610925D0628
:101FC00081E0089580E00895CF93DF93EC018A8D3E
:101FD0009B8D892BF1F080915D0690915E068C17A8
:101FE0009D07B9F0009711F00E94CE0F8E8D8E7F65
:101FF0008E8F10921C0610921B06D0935E06C09323
:102000005D06EB89FC8980819D89892B808381E035
:1020100001C080E0DF91CF9108951F920F920FB61B
:102020000F9211242F933F934F935F936F937F935E
:102030008F939F93AF93BF93EF93FF93E0915D06D0
:10204000F0915E06309709F451C0868DA685B7855C
:10205000958581FF04C08C91892329F447C08C9118
:10206000892309F043C0A389B4899C91858980950F
:1020700089238C93868997890197F1F7208D318D7B
:10208000A685B785758558E040E0C9010197F1F74D
:10209000842F90E095958795482F6C91672309F0E0
:1020A0004068515091F7868D81FD409580911C06C6
:1020B00090E001968F73992720911B06281749F00D
:1020C000A0911C06B0E0A35EB94F4C9380931C0610
:1020D00003C0868D8160868F828D938D0197F1F785
:1020E000A389B4898C919589892B8C93FF91EF9169
:1020F000BF91AF919F918F917F916F915F914F9120
:102100003F912F910F900FBE0F901F90189525E7CC
:1021100034E0FC01318320830C94CE0F1F93CF93C6
:10212000DF93EC01162F6E8D6695617081E0682754
:10213000812F0E94CA1E61E0812F0E94911E812F73
:1021400090E0FC01E95EFD4FE491E88BFC01EB5C63
:10215000FD4FE491F0E0EE0FFF1FEF59FD4F859129
:1021600094919A8B898BDF91CF911F9108951F9342
:10217000CF93DF93EC01162F60E0812F0E94911E18
:102180008E8D81FD04C061E0812F0E94CA1E1C87D4
:10219000812F90E0FC01E95EFD4FE491ED87FC01A9
:1021A000EB5CFD4FE491F0E0EE0FFF1FED5AFD4FA9
:1021B000859194919F878E87DF91CF911F9108958C
:1021C000FF920F931F93CF93DF93EC01F62E522FC4
:1021D0001B821A8208EE13E020E030E00C831D839E
:1021E0002E833F8385E794E0998388831F8A1E8A24
:1021F000198E188E1B8E1A8E1D8E1C8E8E8D8E7FC4
:1022000050FB81F98E8F642FCE010E948E106F2DAE
:10221000CE01DF91CF911F910F91FF900C94B710D9
:10222000CF93DF93EC019A01AB011B8E1A8E198EAE
:10223000188E1F8A1E8A60E079E08DE390E00E948C
:10224000772BC9012430310520F0B90163507109A1
:1022500002C061E070E07D8F6C8FEC85F8EFFE0FBF
:10226000F43048F062EF6E0F643028F066EE6E0FC7
:10227000633008F06FC0B9017695679564317105D8
:1022800018F06351710902C061E070E07F8B6E8BC2
:10229000069718F0C901059702C081E090E0998F78
:1022A000888FC901880F991F820F931F9695879574
:1022B000969587958D30910510F00C9702C081E0BE
:1022C00090E09B8F8A8FF43058F082EF8E0F84302D
:1022D00038F0EA51E33008F042C0A8E6B0E041C06F
:1022E000A8E6B0E0E8E6F0E0808181608C932C8580
:1022F00038EF320F343040F082EF820F843020F01C
:1023000086EE820F833018F48BE690E002C080E006
:1023100090E09C8B8B8B343010F4245009C02E300D
:1023200069F02F3069F0203169F0213169F02651D0
:1023300081E001C0880F2A95EAF707C088E005C050
:1023400082E003C084E001C081E08D8B8C8D9D8D87
:102350000197F1F7CE01DF91CF910C94E40FA0E04B
:10236000B0E0E33008F4BECFE0E0F0E0BDCF809114
:102370008F0690E020919006821B9109089520918C
:10238000900680918F06281750F4E22FF0E0EF5668
:10239000F94F808190E02F5F2093900608958FEF92
:1023A0009FEF0895E091900680918F06E81730F432
:1023B000F0E0EF56F94F808190E008958FEF9FEFA6
:1023C00008950895CF92DF92EF92FF920F931F939B
:1023D000CF93DF937C01CB018A0120916B062223EE
:1023E00089F0EB016B01C40ED51ECC15DD0569F03B
:1023F0006991D701ED91FC910190F081E02DC70129
:102400000995F3CF642F0E94EF12C801DF91CF919D
:102410001F910F91FF90EF90DF90CF900895CF9391
:10242000DF931F92CDB7DEB7698320916B0622231D
:10243000D1F020916C06203240F021E030E0FC0128
:102440003383228380E090E015C080916D06E82FF1
:10245000F0E0E259F94F998190838F5F80936D0688
:1024600080936C0605C061E0CE0101960E94EF12D8
:1024700081E090E00F90DF91CF910895FC011382ED
:10248000128248EE53E060E070E044835583668337
:10249000778385E894E09183808308951092900675
:1024A00010928F0610926D0610926C060C947E129C
:1024B00081E080936B0660938E0610926D061092F9
:1024C0006C0608950C9458120F93062F21E040914A
:1024D0006C066EE676E080918E060E949C12109249
:1024E0006D0610926C0610926B060F91089561E0D4
:1024F0000C9464128FE596E00C943E1210921E0725
:1025000081E080931C0710921B0761E082E00E942B
:10251000CA1E61E083E00E94CA1EE9EBF0E0808100
:102520008E7F808380818D7F808388E48093B80054
:1025300085E48093BC0008950F93413208F046C0B3
:1025400090911E079111FCCF92E090931E0700938B
:102550001C079FEF9093B1061092F6064093F50684
:10256000FB0167EF76E0DB019A2F961B941718F4B6
:1025700091919D93F9CF10921D0790911D07880F9F
:10258000892B80931D0780911B07813041F41092A5
:102590001B0780911D078093BB0085EC01C085EE71
:1025A0008093BC00222321F080911E078230E1F34A
:1025B0008091B1068F3F61F08091B106803251F079
:1025C0008091B106803341F483E007C081E005C00B
:1025D00080E003C082E001C084E00F910895613281
:1025E00098F420911E07243089F46093D306FC01EF
:1025F00085ED96E0DC012A2F281B261718F421917F
:102600002D93F9CF80E0089581E0089582E0089548
:1026100085ED8093BC008091BC0084FDFCCF1092BE
:102620001E07089585EC8093BC0010921E07089544
:102630001F920F920FB60F9211242F933F934F9337
:102640005F936F937F938F939F93AF93BF93EF931A
:10265000FF938091B900887F803609F49CC068F5AB
:10266000883209F45BC090F4803109F454C038F426
:10267000882309F4F5C0883009F44DC0F5C08831CD
:1026800009F44CC0803209F45DC0EEC0803409F416
:1026900068C048F4803309F455C0883309F0E4C0B9
:1026A0008093B106A8C0803509F44FC0883509F47D
:1026B0005DC0883409F0D8C0D5C0883909F4C6C0D7
:1026C000A8F4883709F467C038F4883609F463C081
:1026D000803709F460C0C8C0883809F4B7C08039B1
:1026E00009F45FC0803809F0BFC05BC0803B09F4CB
:1026F00085C038F4803A09F466C0883A09F47EC08F
:10270000B3C0803C09F4A6C0883C09F4A3C0883B50
:1027100009F489C0A9C080911D0710C09091F606E8
:102720008091F506981770F5E091F60681E08E0F1E
:102730008093F606F0E0E950F94F80818093BB006A
:1027400085EC85C08093B1068DC0E091F60681E0EE
:102750008E0F8093F6068091BB00F0E0E950F94FB0
:1027600080839091F6068091F5066DC0E091F606A3
:1027700081E08E0F8093F6068091BB00F0E0E95077
:10278000F94F808380911C0781116CC081E0809398
:102790001B0784EA60C083E080931E071092B20694
:1027A000CFCF8091B206803208F050C0E091B206DF
:1027B00081E08E0F8093B2068091BB00F0E0ED5473
:1027C000F94F8083BDCF8091B206803230F4E09122
:1027D000B206F0E0ED54F94F10820E9408136091A8
:1027E000B20670E0E0911707F091180783EB96E0CE
:1027F00009951092B2060E94121336C084E08093AD
:102800001E071092D4061092D306E0911907F0919A
:102810001A0709958091D306811105C081E0809344
:10282000D3061092D506E091D40681E08E0F8093F6
:10283000D406F0E0EB52F94F80818093BB00909179
:10284000D4068091D306981708F47ACF85E8809350
:10285000BC000AC085EC8093BC0010921E0704C027
:102860001092B1060E940813FF91EF91BF91AF91B2
:102870009F918F917F916F915F914F913F912F9198
:102880000F900FBE0F901F901895DC01ED91FC91F9
:102890000190F081E02D09940F93DC0113961C92B6
:1028A0001E921297E5E9F4E0ED93FC936093910199
:1028B0004093900130938F0120938E010093210764
:1028C0000F9108951F93CF93DF931F92CDB7DEB77B
:1028D000613031F0623031F0633031F010E005C02A
:1028E00010E403C014E101C014E560918E01709101
:1028F0008F018FE596E049830E9462126EEF70E0CF
:102900008FE596E00E94451465E470E08FE596E05F
:102910000E9445144981642F70E0610F711D8FE59D
:1029200096E00E9445148FE596E00E947712609130
:102930008C0170918D01660F771F882777FD809538
:10294000982F0F90DF91CF911F910C94D61D40E0EE
:1029500060E00C946214CF93C62F60918E01709149
:102960008F018FE596E00E9462126EEF70E08FE5B6
:1029700096E00E9445146C2F8FE596E00E940F129E
:102980008FE596E00E94771260918C0170918D0125
:10299000882777FD8095982FCF910C94D61D61E5FF
:1029A0000C94AB1461E40C94AB1468E40C94AB1479
:1029B0006BE40C94AB146CE40C94AB14CF93DF93E6
:1029C000EC018FE596E00E944E1288E98093B800F2
:1029D000CE010E94D214CE010E94CF14CE010E94DB
:1029E000DB14CE010E94D514CE01DF91CF910C945F
:1029F000A714CF93C62F60918E0170918F018FE540
:102A000096E00E9462126C2F8FE596E00E940F12F2
:102A10008FE596E00E94771260911F077091200762
:102A2000882777FD8095982F0E94D61DCF91089515
:102A3000FC0110821182128213828AE090E0958359
:102A40008483168217820895CF93DF93EC01862F3B
:102A50006F831E820E94001F892B11F083E08E83FA
:102A60000E94A71D688379838A839B83DF91CF911E
:102A70000895FC01758364830895FF920F931F935B
:102A8000CF93DF93EC018F810E94001FFF24F3940A
:102A9000892B09F4F12C8E81982F977F9E83869540
:102AA0008170F81651F00E94A71D688379838A838C
:102AB0009B838E8192E0892721C00E94A71D0881F7
:102AC00019812A813B81601B710B820B930B0C8156
:102AD0001D8120E030E0601771078207930778F0CE
:102AE0008E8181708F1559F00E94A71D68837983AC
:102AF0008A839B838E8191E0892788608E838E8173
:102B000083FB882780F9DF91CF911F910F91FF9070
:102B10000895FC01868181700895CF93DF93EC01C5
:102B2000198218821A821C821B828AE08F831BA65C
:102B30001AA660EC72E0CE0105960E94F22D18866E
:102B400019A6DF91CF910895EF92FF920F931F93F3
:102B5000CF93DF93EC017B018A018A8190E001969B
:102B60002BE0289FB001299F700D11248881998145
:102B70000E94F92C998388832A8148E050E0B701AC
:102B80003BE0239F800D911D11240E94072E8A8116
:102B9000E881F9819BE0899FE00DF11D11241287E6
:102BA00001878A818F5F8A83DF91CF911F910F9177
:102BB000FF90EF900895FC01748363830895AC0146
:102BC000465D5F4FBC016B5F7F4F80E090E00C94EF
:102BD000162E2F923F924F925F926F927F928F921A
:102BE0009F92AF92BF92CF92DF92EF92FF920F939C
:102BF0001F93CF93DF93EC011C012AE2220E311CBC
:102C00002C0185E0480E511C5E01A8E0AA0EB11C03
:102C100085E397E00E94531F181619060CF055C063
:102C200085E397E00E94631F182F8F81181334C02B
:102C3000A101B201C5010E94162E7C01009749F145
:102C40008A80912C612C712CC12CD12CC814D904F0
:102C5000D4F408811981060D171D48E050E0B80131
:102C6000C7010E94F92DBBE06B0E711C892B39F452
:102C7000D8011996ED91FC911A9709950AC0BFEFFA
:102C8000CB1ADB0AE3CFEB81FC81309711F0C7014F
:102C90000995188619A6BCCF812F992787FD909595
:102CA0000E94E32D892B09F4B3CF89A5803208F067
:102CB000AFCF91E0980F99A7FE01E80FF11D1087A3
:102CC000FE01E90FF11D1086A3CFDF91CF911F9177
:102CD0000F91FF90EF90DF90CF90BF90AF909F90BB
:102CE0008F907F906F905F904F903F902F900895BE
:102CF000FC0110820895AF92BF92DF92EF92FF9293
:102D00000F931F93CF93DF93CDB7DEB7EDB6FEB62B
:102D1000842F90E0880F991FFC013196ADB7BEB7A4
:102D2000AE1BBF0B0FB6F894BEBF0FBEADBF0DB745
:102D30001EB70F5F1F4FD801D62E5B015A2D5D19AC
:102D40005417C8F4B501F501508152955F70506376
:102D50005A3308F0595F5C93FFEFAF1ABF0AFB01CB
:102D600050815F7050635A3308F0595F11965C933D
:102D700011971296E3CFF801E80FF91F1082B901FD
:102D800085E397E00E947922B80185E397E00E94ED
:102D9000A8220FB6F894FEBE0FBEEDBEDF91CF9114
:102DA0001F910F91FF90EF90DF90BF90AF9008952B
:102DB000FC01508150FD0C947B16089508950895F0
:102DC0000895089561E0FC0182810C94CA1E60E0C0
:102DD000FC0182810C94CA1E0F931F93CF93DF9343
:102DE000DC0128E030E000E810E080E090E051E015
:102DF000E02FE42309F450E01123E1F0FC01EE0F91
:102E0000FF1FEE0FFF1FE60FF71F552329F0169641
:102E1000CD91DC91179704C01496CD91DC91159754
:102E2000D183C0831496CD91DC911597D383C2834F
:102E30000196512F06952150310911F0152FD7CF4A
:102E4000DF91CF911F910F910895CF93DF93EC0104
:102E50008FE9860F8A3140F4E62FFF27E7FDF095D2
:102E6000E85CFB4F408143C080ED860F8A3028F03C
:102E7000E3EBF4E080E090E02EC0E62FFF27E7FDD3
:102E8000F0959F0120533109A1E0263031051CF057
:102E9000A0E0255031096C817D81FE0180E090E049
:102EA000B0E041E050E08217930714F040E050E0BA
:102EB0004A175B0719F44C815D8102C04E815F8126
:102EC00057874687718B608B0196349685309105C4
:102ED00041F719C001962081222381F032962613F2
:102EE000F9CFFC01EE0FFF1FED54FB4F4181BE01F6
:102EF000625F7F4FCE010E94EC1605C021E030E0FA
:102F000081E090E002C020E030E0FC01EE0FFF1F06
:102F1000DF011696AA0FBB1FAC0FBD1F8E819F81CC
:102F20008D939C933796EE0FFF1FEC0FFD1F1182C0
:102F30001082C901DF91CF91089561E0FC01828187
:102F40000C94911ECF92DF92EF92FF92CF93DF937A
:102F5000EC016A017B0120E030E040E85FE3C7015B
:102F6000B6010E94BC2987FD15C020E030E048E48E
:102F700052E4C701B6010E94CE2A9B01AC0160E079
:102F800070E68AE697E40E94C0290E94282A362F1C
:102F9000272F02C030EB24E0832F922F181619063A
:102FA00014F081E090E09D838C839C01220F331FFD
:102FB000280F391F3F832E83DF91CF91FF90EF9031
:102FC000DF90CF9008950F931F93CF93DF9300D09E
:102FD00000D0CDB7DEB78C0181EC94E0F80191838D
:102FE00080837383628361EC72E0C8010896298351
:102FF0003A834B835C830E94392829813A814B8133
:103000005C81BA01A901C8010F900F900F900F9039
:10301000DF91CF911F910F910C94A217CF93DF9363
:10302000EC0108960E944F288C859D859FA78EA74E
:1030300088A980FD09C0E881F9810280F381E02D33
:10304000CE01DF91CF910994DF91CF910895CF9375
:10305000DF93EC011FA61EA68C859D85892B21F18F
:1030600060E070E0CE0108960E946628FC01608155
:10307000CE010E94251799AB88ABE881F9810480C5
:10308000F581E02DCE01099588A980FD07C0E88172
:10309000F9810190F081E02DCE0109950E94A71DD4
:1030A0006AAB7BAB8CAB9DABDF91CF910895CF9298
:1030B000DF92EF92FF92CF93DF93EC012EA53FA515
:1030C0008C859D852817390708F06DC00E94A71DC3
:1030D0006B017C018AA99BA9ACA9BDA9C81AD90A10
:1030E000EA0AFB0AE8A9F9A9DF011796AA0FBB1F94
:1030F000AC0FBD1F8D919C91AA2797FDA095BA2F6B
:10310000C816D906EA06FB0608F44FC0CF0101969F
:1031100099AB88AB3896EE0FFF1FEC0FFD1F808137
:103120009181892B29F56EA57FA56F5F7F4F7FA7C2
:103130006EA78C859D856817790778F0E881F981FD
:103140000280F381E02DCE010995E881F9810680A6
:10315000F781E02DCE01099526C0CE0108960E9488
:103160006628FC016081CE010E94251799AB88ABCF
:103170004AA95BA96CA97DA94C0D5D1D6E1D7F1D23
:103180004AAB5BAB6CAB7DAB88A9E881F98180FD74
:1031900004C00190F081E02D03C00280F381E02D96
:1031A000CE01099502C080E001C081E0DF91CF919E
:1031B000FF90EF90DF90CF900895CF93DF93EC01D5
:1031C0000E942718CE010E9457188111FBCFDF9172
:1031D000CF910895CF93DF93EC010E94E3178DEC1C
:1031E00094E099838883DF91CF910895DC01ED917C
:1031F000FC910190F081E02D0994FC0160834183F2
:103200003383228308956EEF70E085E897E00E9493
:10321000F6186EEF70E085E897E00C94F6186DEF05
:1032200070E085E897E00C94F6182F923F924F9249
:103230005F926F927F928F929F92AF92BF92CF9246
:10324000DF92EF92FF920F931F93CF93DF93CDB74F
:10325000DEB72B970FB6F894DEBF0FBECDBF9B87AE
:103260008A874B014987493008F053C0CE01019647
:103270005C01E12CF12CC12CD12C242E312C9AE0B4
:10328000492E512C612C712CE214F30404F5B80181
:10329000C901A30192010E94552BF50161935F01C1
:1032A00089019A01E0FE0FC0D401AC0DBD1D84E080
:1032B000660F771F8A95E1F732978081862B8C9372
:1032C000FFEFCF1ADF0A8FEFE81AF80ADDCF28EAFE
:1032D00031E04985B401EA85FB85828193812B9693
:1032E0000FB6F894DEBF0FBECDBFDF91CF911F9117
:1032F0000F91FF90EF90DF90CF90BF90AF909F9095
:103300008F907F906F905F904F903F902F900C9494
:10331000D8162B960FB6F894DEBF0FBECDBFDF9147
:10332000CF911F910F91FF90EF90DF90CF90BF90C2
:10333000AF909F908F907F906F905F904F903F9055
:103340002F9008952F923F924F925F926F927F92AB
:103350008F929F92AF92BF92CF92DF92EF92FF92A5
:103360000F931F93CF93DF93CDB7DEB762970FB65E
:10337000F894DEBF0FBECDBF9F878E87342E252EDB
:10338000AB0149017E0189E0E80EF11C85E0F701FF
:1033900011928A95E9F72930310508F044C0CE0131
:1033A00001965C0100E010E0C12CD12C9AE0492E7E
:1033B000512C612C712C0815190559F1632D722DB2
:1033C000CA01A30192010E94552BF50161935F018F
:1033D000322E232E00FF1AC084E0660F771F8A95D5
:1033E000E1F732972081262B622F85E897E0288B22
:1033F000498B5A8B0E949620F701EC0DFD1D288900
:103400002083FFEFCF1ADF0A5A8949890F5F1F4FC8
:10341000D2CF24EB31E0402FB701EE85FF858281CA
:1034200093810E94D81662960FB6F894DEBF0FBE45
:10343000CDBFDF91CF911F910F91FF90EF90DF9063
:10344000CF90BF90AF909F908F907F906F905F9044
:103450004F903F902F900895DF92EF92FF920F933D
:103460001F93CF93DF937C01EB0110E085E897E099
:103470000E942320019621F41A3031F5D12C2CC062
:10348000D12C1A3049F185E897E00E941820892B49
:1034900051F08E010D0D111D85E897E00E9431203D
:1034A000F8018083D394FE01ED0DF11D31978081E9
:1034B0008D3F49F723EC31E04D2DBE01F7018281AC
:1034C00093810E94D81608C06AE070E080E090E026
:1034D0000E94D61D1F5FCACF8D2DDF91CF911F9106
:1034E0000F91FF90EF90DF900895CF92DF92EF92CF
:1034F000FF920F931F93CF93DF93CDB7DEB7C058E2
:10350000D1090FB6F894DEBF0FBECDBF8C017B0191
:10351000C42E25E0D22EBE016F5F7F4FC8010E94EE
:103520002C1A882309F43FC099819E3FE1F59A81C6
:103530009E3FC9F52B81F8019081291334C02C815D
:103540009181291330C0FE01E80FF11D90819D3F4C
:1035500051F5C11002C064E001C066E0D12C70E0FA
:103560008250282F30E0261B370BED2DF0E02E1770
:103570003F077CF0D701AE0FBF1F81E090E08C0FBA
:103580009D1FE80FF91FE60FF71F80818C93D394DE
:10359000ECCF2AED31E04D2DB701F8018281938106
:1035A0000E94D81609C064E670E080E090E00E94B6
:1035B000D61DDA9409F0AFCF8D2DC058DF4F0FB66E
:1035C000F894DEBF0FBECDBFDF91CF911F910F9159
:1035D000FF90EF90DF90CF900895CF93DF93CDB71A
:1035E000DEB7C058D1090FB6F894DEBF0FBECDBF0D
:1035F00040E0BE016F5F7F4F0E94751A882361F023
:1036000089818B3F31F08A818A3F31F480E090E0FC
:1036100005C081E090E002C082E090E0C058DF4F3A
:103620000FB6F894DEBF0FBECDBFDF91CF910895E6
:103630000F931F93CF93DF93EC018B010E9403192B
:10364000698185E897E00E949620688185E897E087
:103650000E94962066E070E085E897E00E94F618E8
:10366000B80185E897E00E94F618CE010E940F1974
:10367000CE01DF91CF911F910F910C94ED1ACF9253
:10368000DF92EF92FF92CF93DF93EC016A017B010F
:103690000E940319698185E897E00E94962068815D
:1036A00085E897E00E94962065E070E085E897E065
:1036B0000E94F61828E030E0B701A601CE010E9472
:1036C000A219CE010E940F19CE01DF91CF91FF9078
:1036D000EF90DF90CF900C94ED1AEF92FF920F9342
:1036E0001F93CF93DF931F92CDB7DEB77C018B0181
:1036F00049830E940319F701618185E897E00E94E0
:103700009620F701608185E897E00E94962064E1A9
:1037100070E085E897E00E94F618B80185E897E028
:103720000E94F6184981642F85E897E00E94962050
:10373000C7010E940F19C7010F90DF91CF911F9110
:103740000F91FF90EF900C94ED1A0F931F93CF936E
:10375000DF93EC018B010E940319698185E897E0F2
:103760000E949620688185E897E00E94962064E197
:1037700070E085E897E00E94F618B80185E897E0C8
:103780000E94F618CE010E940F19CE01DF91CF9151
:103790001F910F910C94ED1ACF92DF92EF92FF924E
:1037A0000F931F93CF93DF93CDB7DEB728970FB654
:1037B000F894DEBF0FBECDBF7C016B01042F0E94C9
:1037C0000319F701618185E897E00E949620F701CF
:1037D000608185E897E00E9496206AE170E085E8C4
:1037E00097E00E94F61863E070E085E897E00E9499
:1037F000F618B60185E897E00E94F618CA94CD281D
:1038000089F410E020E030E044E0BE016F5F7F4FBC
:10381000C7010E9415196A8185E897E00E949620E9
:10382000698101C0602F85E897E00E949620C7015A
:103830000E940F19C7010E94ED1A28960FB6F8943E
:10384000DEBF0FBECDBFDF91CF911F910F91FF90D3
:10385000EF90DF90CF900895853008F04CC0E82FAE
:10386000F0E0EE0FFF1FEE5DF84F71836083823052
:10387000E1F018F4813069F004C0833019F184302C
:1038800071F1809169008C7F842B80936900E89AA4
:10389000089580916900440F551F440F551F837F81
:1038A000842B80936900E99A08958091690034E03F
:1038B000440F551F3A95E1F78F7C842B8093690064
:1038C000EA9A08958091690026E0440F551F2A95D1
:1038D000E1F78F73842B80936900EB9A08958091B0
:1038E0006A0094E0440F551F9A95E1F78F7C842B72
:1038F00080936A00EE9A08951F920F920FB60F926E
:1039000011242F933F934F935F936F937F938F93E4
:103910009F93AF93BF93EF93FF9380912207909172
:103920002307892B29F0E0912207F09123070995BD
:10393000FF91EF91BF91AF919F918F917F916F9187
:103940005F914F913F912F910F900FBE0F901F905D
:1039500018951F920F920FB60F9211242F933F9339
:103960004F935F936F937F938F939F93AF93BF9387
:10397000EF93FF938091240790912507892B29F0DD
:10398000E0912407F09125070995FF91EF91BF91F0
:10399000AF919F918F917F916F915F914F913F91E7
:1039A0002F910F900FBE0F901F9018951F920F929E
:1039B0000FB60F9211242F933F934F935F936F9302
:1039C0007F938F939F93AF93BF93EF93FF938091D8
:1039D000260790912707892B29F0E0912607F0917F
:1039E00027070995FF91EF91BF91AF919F918F911B
:1039F0007F916F915F914F913F912F910F900FBEEB
:103A00000F901F9018951F920F920FB60F921124CE
:103A10002F933F934F935F936F937F938F939F93D6
:103A2000AF93BF93EF93FF9380912807909129075D
:103A3000892B29F0E0912807F09129070995FF913A
:103A4000EF91BF91AF919F918F917F916F915F9116
:103A50004F913F912F910F900FBE0F901F9018958F
:103A60001F920F920FB60F9211242F933F934F93F3
:103A70005F936F937F938F939F93AF93BF93EF93D6
:103A8000FF9380912A0790912B07892B29F0E091D1
:103A90002A07F0912B070995FF91EF91BF91AF9104
:103AA0009F918F917F916F915F914F913F912F9156
:103AB0000F900FBE0F901F9018951F920F920FB688
:103AC0000F9211242F933F938F939F93AF93BF93A4
:103AD00080912D0790912E07A0912F07B09130076C
:103AE00030912C0723E0230F2D3720F40196A11DE0
:103AF000B11D05C026E8230F0296A11DB11D20931C
:103B00002C0780932D0790932E07A0932F07B09337
:103B100030078091310790913207A0913307B0911F
:103B200034070196A11DB11D809331079093320790
:103B3000A0933307B0933407BF91AF919F918F91BA
:103B40003F912F910F900FBE0F901F9018952FB798
:103B5000F89460912D0770912E0780912F07909116
:103B600030072FBF08953FB7F894809131079091A7
:103B70003207A0913307B091340726B5A89B05C042
:103B80002F3F19F00196A11DB11D3FBF6627782F69
:103B9000892F9A2F620F711D811D911D42E0660FC2
:103BA000771F881F991F4A95D1F70895CF92DF920A
:103BB000EF92FF92CF93DF936B017C010E94B31DC4
:103BC000EB01C114D104E104F10489F00E947828CA
:103BD0000E94B31D6C1B7D0B683E734090F381E027
:103BE000C81AD108E108F108C851DC4FEACFDF91CB
:103BF000CF91FF90EF90DF90CF900895789484B5A7
:103C0000826084BD84B5816084BD85B5826085BDD8
:103C100085B5816085BDEEE6F0E0808181608083BE
:103C2000E1E8F0E0108280818260808380818160A1
:103C30008083E0E8F0E0808181608083E1E9F0E06A
:103C4000808182608083808181608083E0E9F0E010
:103C5000808181608083E1ECF0E0808184608083FA
:103C6000808182608083808181608083E3ECF0E0EA
:103C7000808181608083E0ECF0E0808182608083DD
:103C8000E2ECF0E0808181608083EAE7F0E080810F
:103C90008460808380818260808380818160808372
:103CA000808180688083089590E0FC013197EF3037
:103CB000F105B0F5E158FF4F0C94962B80918000F0
:103CC0008F7703C0809180008F7D8093800008955E
:103CD00080918000877FF9CF84B58F7702C084B54B
:103CE0008F7D84BD0895809190008F7707C080916B
:103CF00090008F7D03C080919000877F809390001B
:103D000008958091C0008F7703C08091C0008F7D9F
:103D10008093C00008958091C200877F8093C20085
:103D20000895CF93DF9390E0FC01E95EFD4F24916D
:103D3000FC01EB5CFD4F8491882349F190E0880FF2
:103D4000991FFC01E159FD4FA591B4918F599D4FE9
:103D5000FC01C591D4919FB7611108C0F8948C9172
:103D6000209582238C93888182230AC0623051F48B
:103D7000F8948C91322F309583238C938881822BF9
:103D8000888304C0F8948C91822B8C939FBFDF9121
:103D9000CF9108950F931F93CF93DF931F92CDB7C9
:103DA000DEB7282F30E0F901E750FE4F8491F9018A
:103DB000E95EFD4F1491F901EB5CFD4F0491002386
:103DC000C9F0882321F069830E94541E6981E02F85
:103DD000F0E0EE0FFF1FEF59FD4FA591B4919FB793
:103DE000F8948C91611103C01095812301C0812B3F
:103DF0008C939FBF0F90DF91CF911F910F910895EA
:103E0000CF93DF93282F30E0F901E750FE4F8491E4
:103E1000F901E95EFD4FD491F901EB5CFD4FC491CE
:103E2000CC2391F081110E94541EEC2FF0E0EE0F94
:103E3000FF1FED5AFD4FA591B4912C912D2381E0E8
:103E400090E021F480E002C080E090E0DF91CF912B
:103E50000895CF93DF931F92CDB7DEB76983DC015E
:103E6000ED91FC910280F381E02D41E050E0BE0134
:103E70006F5F7F4F09950F90DF91CF910895CF939A
:103E8000DF93EC018C859D8597FF05C082E00E9441
:103E9000F8249D878C878C859D85DF91CF9108952F
:103EA00083E00C944D27FC018485958597FD06C021
:103EB00082E00E94A02490E00196089582E00E9492
:103EC000A02490E00895FC018485958597FD05C0A8
:103ED0002FEF3FEF35872487089582E00C94F82474
:103EE000CF93DF93EC0180919901882331F083E037
:103EF0000E9429251816190634F081E090E09B8372
:103F00008A8380E090E0DF91CF910895FC012081C9
:103F10002E5F208342E450E06DE772E080E80C946D
:103F2000C425FC0181819081913A59F4813209F0D4
:103F30003CC047E050E062E971E080E00E94C425A7
:103F400043C0913291F5803239F467E070E082E944
:103F500091E00E94F52506C0823209F035C08281C9
:103F6000809399018091920190919301A091940185
:103F7000B0919501803B9440A105B105C1F48091B9
:103F8000990180FD14C087E797E79093010880931B
:103F900000082BE088E190E00FB6F894A895809394
:103FA00060000FBE209360000FC080E0089588E19C
:103FB0000FB6F89480936000109260000FBEA89531
:103FC000109201081092000881E008952FEF3FEF52
:103FD000FC01358724870895CF93C09199016AE049
:103FE00070E080E090E00E94D61D81E0C11101C028
:103FF00080E0CF910895109238071092370788EE2D
:1040000093E0A0E0B0E08093390790933A07A09343
:104010003B07B0933C0789ED94E09093360780937B
:1040200035078FEF9FEF90934207809341070895E4
:10403000FC01818D228D90E0805C9F4F821B910955
:104040008F7399270895FC01918D828D981731F017
:10405000828DE80FF11D858D90E008958FEF9FEF21
:104060000895FC01918D828D981761F0828DDF019A
:10407000A80FB11D5D968C91928D9F5F9F73928F5B
:1040800090E008958FEF9FEF089585EB91E2892BE3
:1040900049F080E090E0892B29F00E94B521811140
:1040A0000C9400000895FC01848DDF01A80FB11D60
:1040B000A35ABF4F2C91848D90E001968F7399275E
:1040C000848FA689B7892C93A089B1898C9180644B
:1040D0008C93938D848D981306C00288F389E02D0C
:1040E00080818F7D80830895CF93DF93EC01888D4D
:1040F0008823C9F0EA89FB89808185FD05C0A889EC
:10410000B9898C9186FD0FC00FB607FCF5CF808171
:1041100085FFF2CFA889B9898C9185FFEDCFCE01BB
:104120000E945320E7CFDF91CF910895CF92DF9285
:10413000FF920F931F93CF93DF931F92CDB7DEB7FC
:104140006C01DC015B969C915B975C968C915C9713
:10415000981307C05096ED91FC915197808185FD91
:1041600032C0F601038D10E00F5F1F4F0F73112750
:10417000F02EF601848DF81211C00FB607FCF9CFAE
:10418000D6015096ED91FC915197808185FFF1CF3A
:10419000C60169830E9453206981EBCF838DE80FAC
:1041A000F11DE35AFF4F6083D6015B960C935B973A
:1041B0005296ED91FC91539780818062808381E0DB
:1041C00058968C930DC0D6015696ED91FC91579759
:1041D00060835096ED91FC9151978081806480833B
:1041E00081E090E00F90DF91CF911F910F91FF90B0
:1041F000DF90CF900895BF92CF92DF92EF92FF921F
:10420000CF93DF93EC016A017B01B22EE889F98933
:1042100082E08083411581EE580761057105A1F0A8
:1042200060E079E08DE390E0A70196010E94552BB4
:1042300021503109410951095695479537952795E0
:10424000211580E1380798F0E889F989108260E843
:1042500074E88EE190E0A70196010E94552B215051
:104260003109410951095695479537952795EC85B0
:10427000FD853083EE85FF852083188EEC89FD89CE
:10428000B082EA89FB89808180618083EA89FB8929
:10429000808188608083EA89FB898081806880834F
:1042A000EA89FB8980818F7D8083DF91CF91FF90A8
:1042B000EF90DF90CF90BF9008951F920F920FB6AE
:1042C0000F9211242F938F939F93EF93FF93E0917D
:1042D0009507F09196078081E0919B07F0919C07EC
:1042E00082FD12C0908180919E078F5F8F73209115
:1042F0009F07821751F0E0919E07F0E0EB57F84FCF
:10430000958F80939E0701C08081FF91EF919F91CF
:104310008F912F910F900FBE0F901F9018951F92A5
:104320000F920FB60F9211242F933F934F935F93E9
:104330006F937F938F939F93AF93BF93EF93FF936D
:1043400085E897E00E945320FF91EF91BF91AF91D4
:104350009F918F917F916F915F914F913F912F919D
:104360000F900FBE0F901F90189585E897E00E9460
:10437000182021E0892B09F420E0822F0895109263
:1043800088071092870788EE93E0A0E0B0E0809362
:10439000890790938A07A0938B07B0938C0789EEC7
:1043A00094E090938607809385078DEC90E090933E
:1043B0009207809391078CEC90E090939407809300
:1043C000930788EC90E0909396078093950789EC8B
:1043D00090E090939807809397078AEC90E09093F1
:1043E0009A07809399078EEC90E090939C078093B6
:1043F0009B0710929E0710929F071092A0071092A1
:10440000A107089508950E94FE1D0E94022289E2DC
:1044100098E00E94AD270E94BD07C5E4D0E20E944B
:10442000640A2097E1F30E944520F9CFCF92DF92F2
:10443000EF92FF920F931F93CF93DF936C017A015A
:10444000EB01E60EF71E00E010E0CE15DF0561F08F
:104450006991D601ED91FC910190F081E02DC601AA
:104460000995080F191FF1CFC801DF91CF911F9156
:104470000F91FF90EF90DF90CF9008956115710537
:1044800081F0DB010D900020E9F7AD0141505109A9
:10449000461B570BDC01ED91FC910280F381E02D6E
:1044A000099480E090E00895EF92FF920F931F939C
:1044B000CF93DF938C01FB01C0E0D0E064917F01DA
:1044C0008FEFE81AF80A662361F0D801ED91FC91AC
:1044D0000190F081E02DC8010995C80FD91FF7019F
:1044E000EDCFCE01DF91CF911F910F91FF90EF9013
:1044F00008950C943E22DC01ED91FC910190F08135
:10450000E02D09940F931F93CF93DF93EC016DE09F
:104510000E947B228C016AE0CE010E947B22800FE8
:10452000911FDF91CF911F910F9108950F931F93CA
:10453000CF93DF93EC010E9454228C01CE010E94A4
:104540008222800F911FDF91CF911F910F910895CB
:104550000F931F93CF93DF93EC010E943E228C01B7
:10456000CE010E948222800F911FDF91CF911F9177
:104570000F9108958F929F92AF92BF92CF92DF9248
:10458000EF92FF920F931F93CF93DF93CDB7DEB7D8
:10459000A1970FB6F894DEBF0FBECDBF7C01C42E2D
:1045A000E52FCB01D22E19A221E02D1510F02AE023
:1045B000D22E8E010F5D1F4F8D2C912CA12CB12C72
:1045C0006C2D7E2FA50194010E94552B8C2DD29E1F
:1045D00080191124015011098A3014F4805D01C042
:1045E000895CF8018083211531054105510521F0D1
:1045F000C22EE32FCA01E4CFB801C7010E943E22B8
:10460000A1960FB6F894DEBF0FBECDBFDF91CF915C
:104610001F910F91FF90EF90DF90CF90BF90AF90E0
:104620009F908F900895CF92DF92EF92FF920F9319
:104630001F93CF93DF93EC016A017B0121153105B4
:1046400079F4E881F9810190F081E02D642FDF9108
:10465000CF911F910F91FF90EF90DF90CF90099431
:104660002A303105E9F477FF1AC06DE20E947B22FF
:104670008C0144275527BA014C195D096E097F0941
:104680002AE0CE010E94BA22800F911FDF91CF91C4
:104690001F910F91FF90EF90DF90CF9008952AE047
:1046A000B701A601CE01DF91CF911F910F91FF902D
:1046B000EF90DF90CF900C94BA229A01AB0166275D
:1046C00057FD6095762F0C9413232115310541F485
:1046D000DC01ED91FC910190F081E02D642F0994B3
:1046E0000C94BA229A01462F50E060E070E00C94DE
:1046F00065230F931F93CF93DF93EC019A01462F0D
:1047000050E060E070E00E9465238C01CE010E94C1
:104710008222800F911FDF91CF911F910F910895F9
:104720009A01AB0160E070E00C9465238230A1F047
:1047300028F4882341F0813049F00895833091F0C6
:104740008430B1F0089510926E00089580916F004A
:104750008D7F80936F000895809170008D7F80938E
:1047600070000895809171008D7F8093710008958D
:10477000809172008F7B8093720008951F920F9238
:104780000FB60F9211242F933F934F935F936F9324
:104790007F938F939F93AF93BF93EF93FF938091FA
:1047A000250890912608A0912708B0912808892B08
:1047B0008A2B8B2B51F190912208E0912308F091E4
:1047C000240880818927808380912508909126087C
:1047D000A0912708B0912808181619061A061B067A
:1047E0002CF58091250890912608A0912708B0917A
:1047F00028080197A109B1098093250890932608FC
:10480000A0932708B093280811C083E00E94962344
:1048100020912208E0912308F0912408808190E003
:1048200030E020953095822393238083FF91EF9190
:10483000BF91AF919F918F917F916F915F914F91B8
:104840003F912F910F900FBE0F901F9018954091A0
:104850002D0850912E0820912B0830912C084217DA
:104860005307B4F49091E8009570E1F39091E8005B
:1048700092FD19C08093F10080912D0890912E082F
:1048800001968F739927892B19F48EEF8093E80096
:1048900080912D0890912E08019690932E08809378
:1048A0002D0881E0089580E00895CF92DF92FF9275
:1048B0000F931F93CF93DF931F92CDB7DEB7082FCF
:1048C000162F862F880F8E5F99830E94272483E0FE
:1048D0000E942724F02EC02E9981D92E8C2D8F195D
:1048E000811778F4F60184910E942724082F80E034
:1048F0000E9427248023FFEFCF1ADF0A8111EECF19
:1049000001C081E00F90DF91CF911F910F91FF9037
:10491000DF90CF900895615030F02091F100FC01BC
:1049200020830196F8CF289884E680933008089574
:104930002FB7FC012083F89467706093E900089515
:10494000CF93DF931F92CDB7DEB7682FCE010196CC
:104950000E9498248091F20099819FBF0F90DF916F
:10496000CF910895FF920F931F93CF93DF9300D0C1
:10497000CDB7DEB7F62E8A0190912F08992311F05A
:1049800057FF03C08FEF9FEF2BC0682FCE0101961A
:104990007A830E9498248091F20090E0A8017A81A5
:1049A000801791070CF4AC01EF2DF72FF40E84E67D
:1049B000FE1639F02898809330089091F100919379
:1049C000F7CF4115510521F08091F200882321F0A5
:1049D00089818FBFCA0104C08BE68093E800F8CFBD
:1049E0000F900F90DF91CF911F910F91FF9008953D
:1049F000CF93DF931F92CDB7DEB741E050E0BE0109
:104A00006F5F7F4F0E94B224019719F4898190E073
:104A100002C08FEF9FEF0F90DF91CF910895CF935A
:104A2000DF931F92CDB7DEB7682FCE0101960E94AB
:104A300098249091E800892F807295FF04C090918E
:104A4000F20080E4891B99819FBF0F90DF91CF9185
:104A500008956F927F928F929F92AF92BF92CF9262
:104A6000DF92EF92FF920F931F93CF93DF931F92EA
:104A7000CDB7DEB7782E7B01C42EB52E80912F08DE
:104A8000882369F0042F152F8AEFD82E872D807286
:104A9000982E9AE3A92E872D8074882E11C08FEF4F
:104AA0009FEF57C0872D0E940F25682E81110CC0E3
:104AB000DA94A9F361E070E080E090E00E94D61DF6
:104AC0000115110579F73BC0282F30E002171307B5
:104AD0000CF4602E672DCE0101960E9498248091DF
:104AE000E80085FF29C0262D30E0021B130B99201A
:104AF00039F06A948FEF6816B1F01092F100F9CF97
:104B0000F701862D77FE07C0815058F0949190935D
:104B1000F1003196F9CF815020F091919093F100FE
:104B2000FACFE20EF31E8091E80085FF0FC0011559
:104B3000110511F481100AC089818FBFC1CF5D9822
:104B400084E6809331088C2D9B2D03C0A092E80051
:104B5000F3CF0F90DF91CF911F910F91FF90EF90C6
:104B6000DF90CF90BF90AF909F908F907F906F908D
:104B700008951092E90010922E0810922D0890933B
:104B80002C0880932B080895CF92DF92FF920F9309
:104B90001F93CF93DF9300D0CDB7DEB7F82E8A01F5
:104BA0006B0101151105B1F0F601F7FE02C0849109
:104BB00001C0808149835A830E9427240150110932
:104BC000FFEFCF1ADF0A49815A818111EACF8FEFB7
:104BD0009FEF01C0CA010F900F90DF91CF911F91FD
:104BE0000F91FF90DF90CF9008951F93CF93DF93A5
:104BF0001F92CDB7DEB7162F2091E80022FFFCCF21
:104C0000612F79830E948B248BEF8093E800812FA2
:104C10007981972F0F90DF91CF911F910895CF93B6
:104C2000DF931F92CDB7DEB71982CE0101960E94A5
:104C3000861FCE0101960E949728898190E00F90EF
:104C4000DF91CF9108951F920F920FB60F9211240A
:104C5000EF92FF920F931F932F933F934F935F9386
:104C60006F937F938F939F93AF93BF93EF93FF9334
:104C7000CF93DF93CDB7DEB76297DEBFCDBF109283
:104C8000E9008091E80083FFEBC068E0CE010A965E
:104C90000E948B2482EF8093E8009A8597FF05C0DD
:104CA0008091E80080FFFCCF03C08EEF8093E80086
:104CB000892F807609F0B9C08B85811105C01092CB
:104CC000F1001092F100C5C0282F2D7F213009F48A
:104CD000C0C0853049F48091E80080FFFCCF8C850E
:104CE00080688093E300B5C0863009F076C02D85DA
:104CF000E888F988223071F580E090E02A8B0E94E4
:104D0000B9250E940F2699E08E010F5F1F4FF80111
:104D1000392F11923A95E9F799832A892A8391E0EC
:104D20009E8390E898879AEF998720912D0830917B
:104D30002E08275F3F4F3C832B838D83C7010E9442
:104D4000B92549E050E0B80180E00E94C4250E94E6
:104D50000F267FC0C7012A8B0E94B9252A892232DB
:104D600041F482E290E00E94A228892B09F071C0F0
:104D700074C0213069F488899989089711F42093C7
:104D80002A0880912A08811118C066ED72E01AC0C5
:104D9000233009F062C08C85882391F0823021F4A1
:104DA00060E184EF92E006C0813009F056C06BE00C
:104DB00088EE92E00E9455244AC064EC72E002C082
:104DC00065E073E06115710509F447C0FB0144918A
:104DD00050E080E80E94C4253CC0873009F43DC003
:104DE000883021F481E08093F10033C0893089F567
:104DF000937099F5E0ECF2E081E021E096E3809396
:104E0000E9002093EB0034913093EC009093ED0097
:104E10008F5F3196853099F78EE78093EA00109284
:104E2000EA008C8580932F0814C0888999890E9494
:104E3000B9258E85811105C0CE010A960E94911F69
:104E400006C0823051F4CE010A960E94CA288823F7
:104E500021F08EEF8093E80003C081E28093EB00A5
:104E600062960FB6F894DEBF0FBECDBFDF91CF9133
:104E7000FF91EF91BF91AF919F918F917F916F9132
:104E80005F914F913F912F911F910F91FF90EF9064
:104E90000F900FBE0F901F9018958093E90080919E
:104EA000F200882319F08AE38093E80008951F92A6
:104EB0000F920FB60F9211242F933F934F935F934E
:104EC0006F937F938F939F93AF93BF93EF93FF93D2
:104ED0008091E1001092E10083FF0FC01092E90081
:104EE00091E09093EB001092EC0092E39093ED0030
:104EF00010922F0898E09093F00082FF1DC083E08D
:104F00000E944D2780913108882339F08091310823
:104F1000815080933108882369F08091300888237C
:104F200059F080913008815080933008811104C07D
:104F3000289A02C05D9AF1CFFF91EF91BF91AF9196
:104F40009F918F917F916F915F914F913F912F91A1
:104F50000F900FBE0F901F90189510922F0881E0B0
:104F60008093D70080EA8093D80082E189BD09B49C
:104F700000FEFDCF61E070E080E090E00E94D61D71
:104F800080E98093D8008CE08093E2001092E000EA
:104F9000559A209A0895FC01808191810C946A2C85
:104FA000CF93DF93EC0188819981009711F00E94E3
:104FB0006A2C198218821D821C821B821A82DF9140
:104FC000CF9108950F931F93CF93DF93EC018B0143
:104FD0006F5F7F4F888199810E94F92C009731F093
:104FE000998388831B830A8381E001C080E0DF917D
:104FF000CF911F910F910895CF93DF93EC0188819A
:105000009981892B29F08A819B818617970760F403
:10501000CE010E94E227882341F08C819D81892B5B
:1050200019F4E881F981108281E0DF91CF91089530
:10503000EF92FF920F931F93CF93DF93EC017B01CD
:105040008A01BA010E94FC27811104C0CE010E948E
:10505000D02707C01D830C83B701888199810E94E6
:10506000F22DCE01DF91CF911F910F91FF90EF9024
:105070000895FC011182108213821282158214821B
:105080006115710559F0FB0101900020E9F7AF01AE
:1050900041505109461B570B0C9418280895CF9383
:1050A000DF93EC01FB018617970761F06081718146
:1050B0006115710529F0448155810E94182802C0AC
:1050C0000E94D027CE01DF91CF910895FC01848109
:1050D00095816817790720F480819181009729F4E0
:1050E0001092320882E398E00895860F971F089582
:1050F0000895FF920F931F93CF93DF93EC01F62E49
:10510000E881F9810480F581E02D09958C01E88121
:10511000F9810680F781E02D6F2DCE010995C80138
:105120009927DF91CF911F910F91FF900895FC0176
:1051300020812F5F208349E150E069E873E080E837
:105140000C94C42545E650E062EA73E080E80C94D4
:10515000C425EF92FF920F931F93CF93DF931F927B
:10516000CDB7DEB789838B017A0141E050E0BE0103
:105170006F5F7F4F84E00E942925A701B80184E476
:105180000E9429250F90DF91CF911F910F91FF90E1
:10519000EF900895FC0191818081813A31F481E0A2
:1051A000913091F0933089F411C0813271F49B30C9
:1051B00021F4828180939B0105C09A3031F4828171
:1051C00080939A0181E00895089580E0089548E071
:1051D00050E082E00C94A928CF93DF93DC0168387B
:1051E00018F0E8E7E60F25C0E62FF0E067FF11C0F2
:1051F000E058F10981E090E001C0880FEA95EAF7F4
:1052000014969C911497982B14969C931497E0E015
:1052100010C0E75FFC4FE491EE2309F440C0E7FFC4
:1052200008C014968C911497826014968C931497EE
:10523000EF7716968C9116978E1741F117968C91F1
:1052400017978E1719F118968C9118978E17F1F001
:1052500019968C9119978E17C9F01A968C911A97F6
:105260008E17A1F01B968C911B978E1779F080E01A
:1052700090E0ED01C80FD91F2E81211102C0EE83ED
:1052800005C0019686309105A1F709C0BD016C5F8C
:105290007F4FCD010E94E72881E090E008C081E0C7
:1052A00090E013969C938E93129780E090E0DF91AC
:1052B000CF910895683818F0E8E7E60F25C0E62F8B
:1052C000F0E067FF12C0E058F10921E030E001C0D2
:1052D000220FEA95EAF72095DC0114963C91149789
:1052E000322314963C93E0E00FC0E75FFC4FE4915B
:1052F000EE2329F1E7FF08C0DC0114962C911497E6
:105300002D7F14962C93EF7720E030E0EE2351F0C0
:10531000DC01A20FB31F16964C9116974E1302C0D4
:1053200016961C922F5F3F4F2630310579F7BC014E
:105330006C5F7F4F0E94E72881E090E0089580E055
:1053400090E00895FC01168217821086118612865D
:1053500013861482BC016C5F7F4F0C94E728109277
:105360003F08109236081092350889EF94E0909328
:1053700034088093330808959CD008F481E00895A0
:105380000CD0D2C0CAD040F0C1D030F021F45F3F81
:1053900019F0B3C05111FCC0B6C0D7D098F399230F
:1053A000C9F35523B1F3951B550BBB27AA276217E9
:1053B0007307840738F09F5F5F4F220F331F441F2E
:1053C000AA1FA9F333D00E2E3AF0E0E830D0915066
:1053D0005040E695001CCAF729D0FE2F27D0660F53
:1053E000771F881FBB1F261737074807AB07B0E892
:1053F00009F0BB0B802DBF01FF2793585F4F2AF0A8
:105400009E3F510568F079C0C3C05F3FECF3983E02
:10541000DCF3869577956795B795F7959F5FC9F704
:10542000880F911D9695879597F90895E1E0660F8D
:10543000771F881FBB1F621773078407BA0720F006
:10544000621B730B840BBA0BEE1F88F7E09508956F
:1054500004D06894B1119CC008957FD088F09F5704
:1054600090F0B92F9927B751A0F0D1F0660F771FB0
:10547000881F991F1AF0BA95C9F712C0B13081F090
:1054800086D0B1E0089583C0672F782F8827B85F52
:1054900039F0B93FCCF3869577956795B395D9F7F1
:1054A0003EF490958095709561957F4F8F4F9F4FFB
:1054B0000895990F0008550FAA0BE0E8FEEF1616A5
:1054C0001706E807F907C0F012161306E407F507F8
:1054D00098F0621B730B840B950B39F40A2661F06C
:1054E000232B242B252B21F408950A2609F4A1400F
:1054F000A6958FEF811D811D089597F99F6780E81C
:1055000070E060E008959FEF80EC089500240A9415
:105510001616170618060906089500240A9412168E
:105520001306140605060895092E0394000C11F4C1
:10553000882352F0BB0F40F4BF2B11F460FF04C06E
:105540006F5F7F4F8F4F9F4F089557FD9058440FC7
:10555000551F59F05F3F71F04795880F97FB991FD2
:1055600061F09F3F79F0879508951216130614068F
:10557000551FF2CF4695F1DF08C01616170618061C
:10558000991FF1CF86957105610508940895E894F7
:10559000BB2766277727CB0197F908950BD0C4CF97
:1055A000B5DF28F0BADF18F0952309F0A6CFABCF0E
:1055B0001124EECFCADFA0F3959FD1F3950F50E0F1
:1055C000551F629FF001729FBB27F00DB11D639FB5
:1055D000AA27F00DB11DAA1F649F6627B00DA11D5B
:1055E000661F829F2227B00DA11D621F739FB00D01
:1055F000A11D621F839FA00D611D221F749F332771
:10560000A00D611D231F849F600D211D822F762F09
:105610006A2F11249F5750408AF0E1F088234AF006
:10562000EE0FFF1FBB1F661F771F881F9150504052
:10563000A9F79E3F510570F060CFAACF5F3FECF312
:10564000983EDCF3869577956795B795F795E7953E
:105650009F5FC1F7FE2B880F911D9695879597F94F
:105660000895DB018F939F930E949C2BBF91AF9174
:10567000A29F800D911DA39F900DB29F900D1124AC
:10568000089597FB072E16F4009407D077FD09D0F4
:105690000E94AF2B07FC05D03EF4909581959F4F5B
:1056A0000895709561957F4F0895A1E21A2EAA1B67
:1056B000BB1BFD010DC0AA1FBB1FEE1FFF1FA217C2
:1056C000B307E407F50720F0A21BB30BE40BF50BBF
:1056D000661F771F881F991F1A9469F76095709548
:1056E000809590959B01AC01BD01CF010895052ED9
:1056F00097FB1EF400940E948E2B57FD07D00E944A
:10570000552B07FC03D04EF40C948E2B50954095EE
:10571000309521953F4F4F4F5F4F0895909580955D
:10572000709561957F4F8F4F9F4F0895EE0FFF1F2C
:105730000590F491E02D09940E94C32BA59F900D34
:10574000B49F900DA49F800D911D11240895B7FF63
:105750000C949C2B0E949C2B821B930B0895AA1BDC
:10576000BB1B51E107C0AA1FBB1FA617B70710F04C
:10577000A61BB70B881F991F5A95A9F7809590957E
:10578000BC01CD010895A29FB001B39FC001A39FAA
:10579000700D811D1124911DB29F700D811D11246A
:1057A000911D0895CF93DF938230910510F482E02C
:1057B00090E0E0914208F091430820E030E0A0E062
:1057C000B0E0309739F14081518148175907B8F05E
:1057D0004817590771F482819381109729F0139625
:1057E0009C938E9312972CC0909343088093420809
:1057F00027C02115310531F04217530718F0A901D0
:10580000DB0101C0EF019A01BD01DF010280F381DC
:10581000E02DD7CF21153105F9F0281B390B2430A5
:10582000310580F48A819B816115710521F0FB01AE
:105830009383828304C09093430880934208FE01BF
:10584000329644C0FE01E20FF31F819391932250E0
:105850003109398328833AC02091400830914108AA
:10586000232B41F420910201309103013093410830
:10587000209340082091000130910101211531054C
:1058800041F42DB73EB74091040150910501241B0E
:10589000350BE0914008F0914108E217F307A0F4BE
:1058A0002E1B3F0B2817390778F0AC014E5F5F4F76
:1058B0002417350748F04E0F5F1F5093410840935F
:1058C00040088193919302C0E0E0F0E0CF01DF91C6
:1058D000CF910895CF93DF93009709F487C0FC011F
:1058E000329713821282C0914208D09143082097C8
:1058F00081F420813181280F391F809140089091D7
:1059000041088217930779F5F0934108E093400826
:105910006DC0DE0120E030E0AE17BF0750F41296F4
:105920004D915C9113979D014115510509F1DA01E3
:10593000F3CFB383A28340815181840F951F8A17CF
:105940009B0771F48D919C911197840F951F02967E
:105950009183808312968D919C9113979383828378
:105960002115310529F4F0934308E09342083EC025
:10597000D9011396FC93EE9312974D915D91A40F6C
:10598000B51FEA17FB0779F480819181840F951F79
:105990000296D90111969C938E93828193811396DE
:1059A0009C938E931297E0E0F0E08A819B810097B0
:1059B00019F0FE01EC01F9CFCE0102962881398160
:1059C000820F931F20914008309141082817390712
:1059D00069F4309729F4109243081092420802C0EB
:1059E00013821282D0934108C0934008DF91CF9177
:1059F0000895A0E0B0E0EFEFFCE20C94622EEC0121
:105A0000CB01209719F40E94D22BB8C0FE01E60FFB
:105A1000F71F9E0122503109E217F30708F4ACC0CA
:105A2000D9010D911C91119706171707B8F0053091
:105A3000110508F49FC0A8014450510946175707A3
:105A400008F498C002501109061B170B019311931B
:105A50006D937C93CF010E946A2C8CC05B01A01ACD
:105A6000B10A4E01800E911EA0914208B0914308E8
:105A7000612C712C60E070E0109709F449C0A81502
:105A8000B905C9F5ED90FC901197670142E0C40E8D
:105A9000D11CCA14DB0478F147018A189B08640101
:105AA00042E0C40ED11C1296BC9012971396AC9192
:105AB000B5E0CB16D10440F0B282A38391828082FC
:105AC000D9018D939C9309C00E5F1F4F0E0D1F1DB2
:105AD000F90111830083EB2DFA2F6115710531F067
