:100000000C94D1010C9494170C94C1170C94EE1716
:100010000C941B180C94F9010C94F9010C944818D9
:100020000C94F9010C94880C0C94C2210C948E2031
:100030000C94F9010C94F9010C94F9010C94F90158
:100040000C94F9010C94F9010C94F9010C94F90148
:100050000C94F9010C94F9010C94F9010C947518A5
:100060000C94F9010C94371C0C94691C0C94F90144
:100070000C94F9010C94F9010C94F9010C94F90118
:100080000C94291E0C94F9010C94F9010C94F901BB
:100090000C94930F0C94F9010C94F9010C94F90150
:1000A0000C94F9010C94F9010C94F9015D097009A3
:1000B000800993099B09C709CF09D709DF09E60918
:1000C000E609E609E609E609E609E609E609E609B8
:1000D000E609E609E609E609E609E609E609E609A8
:1000E000E609E609E609E609E609E6095D0969099E
:1000F0007009800993099B09AE09B609BE098419E4
:10010000871976197A198019A819A819A8198B19AD
:100110008F19931999199D19A819A319666978203F
:1001200061676520494E56414C49440024504D5466
:100130004B3330302C313030302C302C302C302CB4
:10014000302A31430024504D544B3232302C313060
:1001500030302A31460024504D544B3331342C304A
:100160002C312C302C302C302C302C302C302C30AE
:100170002C302C302C302C302C302C302C302C309F
:100180002C302C302A3239000000000200090F0008
:1001900000030401000C000000000000000000004B
:1001A0000000000000000408020110408040102000
:1001B000408040800802040180402010020110802D
:1001C0001020404004040404040304050202020257
:1001D00004030202020206060606060604040202E0
:1001E0000204000000002300260029002C002F003C
:1001F00000000000250028002B002E003100000028
:100200000000240027002A002D003000080B000207
:10021000020201000904000001020200000524009E
:100220001001052401010104240206052406000131
:100230000705810310004009040100020A000000C4
:10024000070502024000000705830240000000C1CC
:100250008081C1120100020200004041233680006B
:10026000010102000112010002000000404123369A
:100270008000010102000141726475696E6F204CBB
:100280004C430041726475696E6F204C656F6E61FE
:1002900072646F0004030904000000000000000005
:1002A0002A2B2800000000000000000000000000D1
:1002B00000000000000000002C9EB4A0A1A2A43405
:1002C000A6A7A5AE362D3738271E1F2021222324AE
:1002D0002526B333B62EB7B89F8485868788898A4A
:1002E0008B8C8D8E8F909192939495969798999AE6
:1002F0009B9C9D2F3130A3AD350405060708090AE4
:100300000B0C0D0E0F101112131415161718191AC5
:100310001B1C1DAFB1B0B5000904020001030000B1
:100320000009210101000122650007058403400046
:100330000105010902A1010901A1008501050919B1
:1003400001290315002501950375018102950175A9
:1003500005810305010930093109381581257F75AB
:100360000895038106C0C005010906A101850205A3
:100370000719E029E7150025017501950881029507
:10038000017508810395067508150025650507198F
:100390000029658100C04504F50ED51A991C1A2460
:1003A000710411241FBECFEFDAE0DEBFCDBF14E031
:1003B000A0E0B1E0E0E6F1E502C005900D92AA3BB5
:1003C000B107D9F727E0AAEBB4E001C01D92A03C29
:1003D000B207E1F713E0C0EAD3E004C02297FE01C0
:1003E0000E940326C639D107C9F70E94DD1C0C9470
:1003F000A3280C940000CF93DF938091FF0490E03A
:10040000019624EB30E0B9010E94AC258093FF04F3
:1004100080910B0190910C010196B9010E94AC25CD
:1004200090930C0180930B018091FE04882391F03E
:10043000C091FA04D091FB040E94BF187093FB0492
:100440006093FA040E94BF186C1B7D0B7093FD042F
:100450006093FC0481E080930005DF91CF910895C3
:1004600084E090E00E9464289FEF980F913108F09B
:100470008FEF08951092FE048091FC049091FD048A
:10048000892B99F02091FC043091FD04C901880F5B
:10049000991F820F931F97FD0396959587959595C4
:1004A0008795909307018093060108950F931F93FA
:1004B000CF93DF9300D000D000D0CDB7DEB78C0152
:1004C00083EC94E00E944F1240E050E060EB71E456
:1004D00083EC94E00E945412B801CE0101960E9470
:1004E000A422BE016F5F7F4F83EC94E00E94C01294
:1004F000CE0101960E94362226960FB6F894DEBFF2
:100500000FBECDBFDF91CF911F910F91089560E095
:1005100085E00E94E21960E08CE00E94E21983EC21
:1005200094E00E948F1381E08093F90460E085E0FD
:100530000C94E2198F3009F44BC0D8F48A3009F4D6
:100540005CC08C3009F06EC080ED96E6ACE7B1E09F
:100550008093BF049093C004A093C104B093C204DD
:1005600047E061E081E095E00E94DD106CEE71E013
:100570006DC08131C1F0843109F054C080E296E24F
:10058000A7EDB0E08093BF049093C004A093C10492
:10059000B093C20447E061E081E095E00E94DD1085
:1005A00060EE71E053C080E396E5A4E1B1E0809392
:1005B000BF049093C004A093C104B093C20447E069
:1005C00061E081E095E00E94DD1064EE71E03EC0E4
:1005D00080E399EBA2E4B1E08093BF049093C00460
:1005E000A093C104B093C20447E061E081E095E0CC
:1005F0000E94DD1068EE71E029C080E49CE4AEEA60
:10060000B1E08093BF049093C004A093C104B09361
:10061000C20447E061E081E095E00E94DD1060EFF8
:1006200071E014C080E49CE4AEEAB1E08093BF04C2
:100630009093C004A093C104B093C20447E061E06A
:1006400081E095E00E94DD1064EF71E081E095E0CB
:100650000E94531D4091BF045091C0046091C10499
:100660007091C2048AEB94E00E9457161092F9042C
:100670000895CF93C82F4BE061E081E095E00E94A0
:10068000DD104AE050E06C2F81E095E00E94FA1DF9
:100690004DE061E081E095E00E94DD1068EF71E0DF
:1006A00081E095E00E94531DC451CF3130F4EC2F0E
:1006B000F0E0E352FC4F408102C040E050E061E0D6
:1006C00070E08AEB94E0CF910C94E416682F8DE0F3
:1006D0000C94E21961E08CE00E94E21961E085E08F
:1006E0000E94A91961E08CE00E94A91980E00E9493
:1006F000660326E040EC52E160E070E081E097E0C4
:100700000E94D51B63E070E08AEB94E00E943016F3
:1007100040E062E470E08AEB94E00E94E4166AE054
:1007200070E08AEB94E00E94BD1640E86AE070E059
:100730008AEB94E00E9485166AE070E08AEB94E010
:100740000E94BD1680E296E2A7EDB0E08093BF0460
:100750009093C004A093C104B093C20440E256E257
:1007600067ED70E08AEB94E00C94571660E08DE042
:100770000E94E21961E08CE00E94E21980E00E9490
:10078000660360E086E00E94E21960E089E00E9472
:10079000E21961E084E00E94E21940E061E081E05A
:1007A00095E00E94DD106CEF71E081E095E00E9421
:1007B000531D60E085E00C94E2190E949A0282E3E6
:1007C0000E94390368EF70E080E090E00E94EE182C
:1007D00060E086E00E94E21960E084E00E94E21995
:1007E00061E089E00E94E2190E9487026AEF70E0EE
:1007F00080E090E00E94EE1861E085E00E94E2193E
:1008000063EE73E080E090E00E94EE1860E085E027
:100810000E94E21988E20E94390361E085E00E94AB
:10082000E21963EE73E080E090E00E94EE1860E071
:1008300085E00E94E2198EE10E94390361E085E0C3
:100840000E94E21963EE73E080E090E00E94EE18EF
:1008500060E085E00E94E21984E10E94390381E0B2
:100860000E94660361E085E00E94E21963EE73E096
:1008700080E090E00E94EE1860E085E00E94E219BE
:100880000E94B60382E30C9439030F9320E04BE0FF
:1008900068E088E795E00E945B0D85E095E00E94A6
:1008A000E80600E028E230E040E162E081E095E027
:1008B0000E94C71020E030E040E451E465E070E0C1
:1008C00083EC94E00E949C138EEB94E00E94A813AA
:1008D0002EEB34E046E760EE8AEB94E00F910C9447
:1008E000151488E794E09093C4048093C3048BECC0
:1008F00094E00E94362288E795E00C94020D8F92D6
:100900009F92AF92BF92CF92DF92EF92FF920F939E
:100910001F93CF93DF93CDB7DEB72C970FB6F89424
:10092000DEBF0FBECDBF6B017C0181EB96E00E9464
:100930003F1A88E795E00E945F0C81E0C81AD10851
:10094000E108F1081C141D041E041F040CF070C003
:1009500088E795E00E94220C892B09F462C088E7A1
:1009600095E00E94950B182F682F81EB96E00E946E
:10097000181A81EB96E00E943F1A612F85E095E0FE
:100980000E94EF098823C9F281EB96E00E945C1D6A
:100990009E012F5F3F4F4901CE0107965C01295F01
:1009A0003F4F690102967C018E01065F1F4F2D5F4C
:1009B0003F4FAE01445F5F4FBE016B5F7F4F85E0ED
:1009C00095E00E94C50A89819A81AB81BC818F3FE5
:1009D0009F4FAF4FBF4FE1F02985888590E03CE302
:1009E000239F800D911D112464EB70E00E94AC25C3
:1009F00001962091FF0430E02817390781F021E0AB
:100A000030E030930A01209309018093FF0407C06E
:100A10006CE171E081EB96E00E942E1D09C011E0AF
:100A200008C064E670E080E090E00E94EE1885CF98
:100A300010E088E795E00E94490C81EB96E00E9467
:100A40003F1A812F2C960FB6F894DEBF0FBECDBF94
:100A5000DF91CF911F910F91FF90EF90DF90CF909A
:100A6000BF90AF909F908F900895CF930E943002D7
:100A700080930D0161E08DE00E94A91980E00E9441
:100A8000660361E08CE00E94A9190E94B60361E050
:100A900086E00E94A91961E084E00E94A91961E042
:100AA00089E00E94A91960E084E00E94E21960E0F8
:100AB00089E00E94E21961E086E00E94E21981E08B
:100AC00095E00E94561181E095E00E94501140E0AF
:100AD00060E081E095E00E94DD1061E072E081E07D
:100AE00095E00E94531D46E060E081E095E00E94A1
:100AF000DD10A0910D01C7E0CA9FD0011124A25FB3
:100B0000BE4F6D917C9181E095E00E94531D4CE0B9
:100B100060E081E095E00E94DD10E0910D01CE9F44
:100B2000F0011124E25FFE4F4AE050E0668181E06F
:100B300095E00E94FA1D40E061E081E095E00E94AE
:100B4000DD1068E072E081E095E00E94531D40E016
:100B500061E081E095E00E94DD1069E172E081E0F2
:100B600095E00E94531D62E083E00E94A91943E0D2
:100B700050E06BEF71E084E00E94441740E855E2DA
:100B800060E070E088E795E00E948B0D66E571E01B
:100B900088E795E00E94701D65E471E088E795E0C4
:100BA0000E94701D6CE271E088E795E00E94701D64
:100BB00068EE73E080E090E00E94EE1888E795E030
:100BC0000E94490C40E061E081E095E00E94DD1068
:100BD00068E272E081E095E00E94531D6FEF7FEFC5
:100BE0008FEF9FE70E947F048823C1F381E0809309
:100BF000FE0468E873E180E090E00E94EE180E9435
:100C00003A0240E061E081E095E00E94DD1068E397
:100C100072E081E095E00E94531D0E946A03E0911A
:100C20000D0187E0E89FF0011124E25FFE4F808113
:100C300091810E94560240E061E081E095E00E94CF
:100C4000DD1067E472E081E095E00E94531D40E012
:100C500061E081E095E00E94DD106CEF71E081E0E1
:100C600095E00E94531D60E086E00E94E21960E07A
:100C700089E00E94E21961E084E0CF910C94E219CE
:100C800080910D0145E061E08F3F51F481E095E0F6
:100C90000E94DD1067E572E081E095E00C94531D41
:100CA00081E095E00E94DD106BE472E081E095E068
:100CB0000E94531D45E061E081E095E00E94DD1057
:100CC0006091FF044AE050E081E095E00E94FA1D47
:100CD0008091090190910A01892BA9F09091FF045C
:100CE000E0910D0187E0E89FF0011124E25FFE4FE3
:100CF0008681981363C010920A0110920901109224
:100D00000C0110920B0180910B0190910C01883223
:100D1000910509F442C06CF48A309105B9F11CF4D4
:100D2000892B91F108958431910599F14E9799F1AC
:100D300008958639910509F43FC03CF48C33910540
:100D400071F18C389105A1F10895803A910551F126
:100D5000833B910509F0089585E08093080140E008
:100D600061E081E095E00E94DD1069E672E081E0DB
:100D700095E00E94531D84E10E949A0282E30E9442
:100D8000390380E00C94660384E101C081E10C9496
:100D9000DD038FE0FCCF8CE0FACF8AE0F8CF84E16E
:100DA0000E949A0260E070E880E090E00C947F047A
:100DB00081E08093FE0408950C943A020895809196
:100DC0000005882321F0109200050C944006089538
:100DD0000F931F93FC010FEF1FEF98010083118306
:100DE0002283338310861186128613864FEF59ECC7
:100DF0006AE97BE3408B518B628B738B408F518F01
:100E0000628F738F40A351A362A373A340A751A71E
:100E100062A773A740AB51AB62AB73AB00AF11AF2E
:100E200022AF33AFDC01A05CBF4F8FEF90E0119693
:100E30009C938E9314960D931D932D933C9313972F
:100E400018960D931D932D933C93139718961C920F
:100E500011961C92509682E08C9311961C921196DA
:100E60001C9211961C9211961D921D921D921C921D
:100E70001397149611961C921E9212961D921C9214
:100E8000EA5AFF4F10821F910F9108952FEB260F02
:100E9000862F992787FD9095263010F4C7970895DF
:100EA0006156663018F4875591090895C0970895E2
:100EB0000F931F93FB0160E070E0CB01019120EDE7
:100EC000200F2A30A0F4AAE0B0E09B01AC010E9400
:100ED0000726112707FD1095212F312F600F711F55
:100EE000821F931F6053710981099109E7CF1F91F8
:100EF0000F9108950F931F93CF93FC01EA5AFF4F70
:100F0000C1E020812D3219F0C0E08F0103C08C01B7
:100F1000095A1F4FB8010E9458079B01AC01A4E673
:100F2000B0E00E940726F801DF01219130ED320F79
:100F30003A30D0F32E3269F511962C91119730ED9D
:100F4000320F3A3030F5332727FD309520533109E1
:100F50004AE0429F8001439F100D1124222717FD74
:100F60002095322F600F711F821F931F12960C91D4
:100F700020ED200F2A3068F4112707FD109500534B
:100F80001109222717FD2095322F600F711F821F34
:100F9000931FCC2339F090958095709561957F4F84
:100FA0008F4F9F4FCF911F910F9108954F925F9256
:100FB0006F927F928F929F92AF92BF92CF92DF9269
:100FC000EF92FF92CF93DF93EC01CA5ADF4FBE013D
:100FD0000E9458072B013C0124E630E040E050E03D
:100FE0000E94C0259B01AC0160EA76E881E090E0B8
:100FF0000E949C256B017C01FE01819190ED980F70
:101000009A30D8F38E3219F5EF0180E1882E87E20D
:10101000982EA12CB12CA99180ED8A0F8A30B8F4BA
:10102000BB27A7FDB095D097A50194010E94122679
:10103000C60ED71EE81EF91EC501B4012AE030E035
:1010400040E050E00E94C02549015A01E4CFC701A9
:10105000B6016D5F7F4F8F4F9F4F26E030E040E03D
:1010600050E00E94C02569017A01C301B20124E663
:1010700030E040E050E00E94C02560E472E48FE080
:1010800090E00E949C25C60ED71EE81EF91EC701DF
:10109000B601DF91CF91FF90EF90DF90CF90BF909E
:1010A000AF909F908F907F906F905F904F9008953A
:1010B000DB01FA018D91882319F091918917D1F301
:1010C000992787FD90950895CF92DF92EF92FF9236
:1010D0001F93CF93DF93EC01FC01EB5AFF4F10817C
:1010E000112309F4A9C0319660810E944607182F88
:1010F000FE01E95AFF4F6081CE010E94460740E1A0
:10110000149F800D1124FE01EC5AFF4F908189132A
:101110008AC074961081112309F458C135968081D4
:101120009181019691838083B59780819181A2817D
:10113000B381349780839183A283B3833C9680816B
:101140009181A281B381349780839183A283B383F9
:10115000799680818823A1F1813009F037C18C8193
:101160009D81AE81BF8188839983AA83BB838C854F
:101170009D85AE85BF8588879987AA87BB878C891F
:101180009D89AE89BF89888B998BAA8BBB8B8C8DEF
:101190009D8DAE8DBF8D888F998FAA8FBB8F8CA5AB
:1011A0009DA5AEA5BFA588A799A7AAA7BBA78CA9EF
:1011B0009DA9AEA9BFA988AB99ABAAABBBAB06C131
:1011C0008CA19DA1AEA1BFA188A399A3AAA3BBA3F3
:1011D0008C819D81AE81BF8188839983AA83BB83E3
:1011E0008C899D89AE89BF89888B998BAA8BBB8B93
:1011F0008C8D9D8DAE8DBF8D888F998FAA8FBB8F63
:10120000FE01E05CFF4FDE01AE5BBF4F8D919C9114
:10121000918380838CAD9DADAEADBFAD88AF99AFEE
:10122000AAAFBBAFD3C0C159DF4F88819981019666
:101230009983888310E0CAC0FC01EA59FF4F3081CE
:101240008B599F4F7C0131111DC06E0196E5C90E6F
:10125000D11C4CEF53E0B601CE010E945808892BF7
:1012600011F481E00CC042E054E0B601CE010E94CE
:101270005808892B19F4F7011082A8C082E0D70121
:101280008C93A4C0DC01EC91E23009F49FC0CE0144
:101290008A5A9F4FDC012C91222309F497C0B0E2B7
:1012A000EB9FF0011124E32B3197E932F10508F0AF
:1012B0008DC0EA5AFF4F0C940126CE010E947A0796
:1012C0006C837D838E839F830E94BF18C85BDF4F32
:1012D00012C0C859DF4F81E0213409F05DC05DC004
:1012E000CE010E94D6076C8B7D8B8E8B9F8B0E94CC
:1012F000BF18C05BDF4F688379838A839B8366C096
:10130000233509F063C08C899D89AE89BF89B0956A
:10131000A095909581959F4FAF4FBF4F8C8B9D8B24
:10132000AE8BBF8B53C0CE010E94D6076C8F7D8FD2
:101330008E8F9F8F4BC0273509F048C08C8D9D8DB7
:10134000AE8DBF8DB095A095909581959F4FAF4F75
:10135000BF4F8C8F9D8FAE8FBF8F38C0CE010E9444
:101360007A076CA77DA78EA79FA730C0CE010E94E9
:101370007A076CAB7DAB8EAB9FAB28C0BC01CE01B6
:101380000E9458076C877D878E879F871FC0C8592A
:10139000DF4F81E021330CF480E0888317C00E9486
:1013A0002E28CE5BDF4F9927998388830FC0CE010B
:1013B0000E947A076CAF7DAF8EAF9FAF07C0CE01A2
:1013C0000E947A076CA37DA38EA39FA3812FDF9138
:1013D000CF911F91FF90EF90DF90CF900895CF9223
:1013E000DF92EF92FF920F931F93CF93DF931F92A1
:1013F000CDB7DEB76C01262FFC01E759FF4F4081C6
:101400005181628173814F5F5F4F6F4F7F4F408388
:101410005183628373838C0109591F4F8B5A9F4FED
:101420007C01243281F12CF42A3069F02D30E9F569
:101430000AC02A3241F02C32C1F5F601EC5AFF4FB6
:10144000808182278083F80180818F3060F4F601EB
:10145000E80FF11DEA5AFF4F1082C60129830E944E
:101460006408298101C080E0F601EA59FF4F9081AC
:101470009F5F9083F801108291E02A3209F090E09A
:10148000F70190832AC0F8011082F601EA59FF4F54
:10149000108272971082719682E08083F701108229
:1014A000F601E859FF4F108217C0F80180818E3095
:1014B00048F491E0980F9083F601E80FF11DEA5A85
:1014C000FF4F2083F7018081811106C0F601EC5A9D
:1014D000FF4F80818227808380E00F90DF91CF9142
:1014E0001F910F91FF90EF90DF90CF900895CF92D2
:1014F000DF92EF92FF920F931F93CF93DF93E90157
:101500006115710551F0FC01C084D184E284F3843B
:10151000FB01C082D182E282F3824115510551F074
:10152000FC01C080D180E280F380FA01C082D182C8
:10153000E282F382209701F18C010C5B1F4FF801CE
:1015400080819181A281B3818F3F9F4FAF4FBF4F69
:1015500061F00E94BF18F80100811181228133815E
:10156000601B710B820B930B03C06FEF7FEFCB01FE
:10157000688379838A839B83DF91CF911F910F9139
:10158000FF90EF90DF90CF9008952F923F924F926F
:101590005F926F927F928F929F92AF92BF92CF9203
:1015A000DF92EF92FF920F931F93CF93DF93CDB70C
:1015B000DEB72A970FB6F894DEBF0FBECDBF2B0162
:1015C0005A87498719019401AE014F5F5F4FBE01F1
:1015D0006B5F7F4F0E94770A41145104B9F06D810F
:1015E0007E818F81988524E630E040E050E00E94C3
:1015F000C025613571051CF02CE637E002C020EDF6
:1016000037E0620F731FF2017183608389859A85C9
:10161000892BB1F06D817E818F81988544E6442EBF
:10162000512C612C712CA30192010E94C025CA018A
:10163000B901A30192010E94C025E985FA85608362
:101640002114310461F06D817E818F81988520E1C4
:1016500037E240E050E00E94C025F10120830115EF
:10166000110561F069817A818B819C8120E432E4EB
:101670004FE050E00E94C025F8012083E114F104FE
:10168000A1F069817A818B819C8120E137E240E081
:1016900050E00E94C025CA01B90124E630E040E0D4
:1016A00050E00E94C025F7016083C114D104A9F065
:1016B00069817A818B819C8134E6432E512C612C87
:1016C000712CA30192010E94C025CA01B901A30196
:1016D00092010E94C025F6016083A114B10461F05B
:1016E00069817A818B819C8124E630E040E050E082
:1016F0000E94C025F50160832A960FB6F894DEBFDC
:101700000FBECDBFDF91CF911F910F91FF90EF9052
:10171000DF90CF90BF90AF909F908F907F906F9011
:101720005F904F903F902F9008952091D905309170
:10173000DA0528173907B9F4909197058091980533
:10174000981789F0E0919705F0E0E756FA4F80810D
:101750002091970530E02F5F3F4F2F733327209361
:10176000970590E008958FEF9FEF08951F93CF9313
:10177000DF93DC015C968D919C915D97009749F415
:1017800081E090E013969C938E93129780E090E016
:101790003BC05196ED91FC91529750962C915097E9
:1017A000322F30951FB75E964C915E9741FB77279D
:1017B00070F941FD6095F8944081772311F0422B38
:1017C00001C043234083EC012197F1F748E05081A9
:1017D00060FF02C0522B01C053235083EC012197BC
:1017E000F1F76695415099F78081772311F08323B3
:1017F00001C0822B80831FBF5C968D919C915D9769
:101800000197F1F781E090E0DF91CF911F9108956A
:101810002091D9053091DA052817390781F4909184
:10182000970580919805981751F0E0919705F0E0A1
:10183000E756FA4F8081992787FD909508958FEF9D
:101840009FEF08952091D9053091DA0528173907BF
:1018500071F4809198052091970590E0805C9F4FEE
:10186000821B910960E470E00E94AC25089580E03D
:1018700090E008952091D9053091DA0528173907AD
:1018800039F48FB7F89410929805109297058FBF8E
:101890000895E091D905F091DA05E817F90769F4A0
:1018A000A389B4899C918589809589238C93109212
:1018B000DA051092D90581E0089580E00895CF936C
:1018C000DF93EC018A8D9B8D892BF1F08091D905F6
:1018D0009091DA058C179D07B9F0009711F00E94DE
:1018E000490C8E8D8E7F8E8F1092980510929705E1
:1018F000D093DA05C093D905EB89FC8980819D8955
:10190000892B808381E001C080E0DF91CF91089531
:101910001F920F920FB60F9211242F933F934F9364
:101920005F936F937F938F939F93AF93BF93EF9347
:10193000FF93E091D905F091DA05309709F451C091
:10194000868DA685B785958581FF04C08C918923F6
:1019500029F447C08C91892309F043C0A389B48935
:101960009C918589809589238C9386899789019795
:10197000F1F7208D318DA685B785758558E040E05B
:10198000C9010197F1F7842F90E095958795482F2D
:101990006C91672309F04068515091F7868D81FD65
:1019A00040958091980590E001968F73992720913A
:1019B0009705281749F0A0919805B0E0A756BA4FAF
:1019C0004C938093980503C0868D8160868F828DAD
:1019D000938D0197F1F7A389B4898C919589892B0F
:1019E0008C93FF91EF91BF91AF919F918F917F91D8
:1019F0006F915F914F913F912F910F900FBE0F907C
:101A00001F9018952CE234E0FC01318320830C9464
:101A1000490C1F93CF93DF93EC01162F6E8D6695C3
:101A2000617081E06827812F0E94E21961E0812FB7
:101A30000E94A919812F90E0FC01EA55FE4FE49124
:101A4000E88BFC01EC53FE4FE491F0E0EE0FFF1F3A
:101A5000E051FE4F859194919A8B898BDF91CF91C4
:101A60001F9108951F93CF93DF93EC01162F60E031
:101A7000812F0E94A9198E8D81FD04C061E0812F04
:101A80000E94E2191C87812F90E0FC01EA55FE4F6D
:101A9000E491ED87FC01EC53FE4FE491F0E0EE0F92
:101AA000FF1FEE51FE4F859194919F878E87DF91A6
:101AB000CF911F910895FF920F931F93CF93DF93C0
:101AC000EC01F62E522F1B821A8208EE13E020E062
:101AD00030E00C831D832E833F838CE294E0998356
:101AE00088831F8A1E8A198E188E1B8E1A8E1D8E51
:101AF0001C8E8E8D8E7F50FB81F98E8F642FCE01D0
:101B00000E94090D6F2DCE01DF91CF911F910F9192
:101B1000FF900C94320DCF93DF93EC019A01AB014F
:101B20001B8E1A8E198E188E1F8A1E8A60E079E02D
:101B30008DE390E00E94E225C9012430310520F0B8
:101B4000B9016350710902C061E070E07D8F6C8F54
:101B5000EC85F8EFFE0FF43048F062EF6E0F643062
:101B600028F066EE6E0F633008F06FC0B90176950D
:101B700067956431710518F06351710902C061E025
:101B800070E07F8B6E8B069718F0C901059702C035
:101B900081E090E0998F888FC901880F991F820F8B
:101BA000931F96958795969587958D30910510F0A2
:101BB0000C9702C081E090E09B8F8A8FF43058F040
:101BC00082EF8E0F843038F0EA51E33008F042C0E3
:101BD000A8E6B0E041C0A8E6B0E0E8E6F0E0808129
:101BE00081608C932C8538EF320F343040F082EFD7
:101BF000820F843020F086EE820F833018F48BE65B
:101C000090E002C080E090E09C8B8B8B343010F42D
:101C1000245009C02E3069F02F3069F0203169F06E
:101C2000213169F0265181E001C0880F2A95EAF739
:101C300007C088E005C082E003C084E001C081E005
:101C40008D8B8C8D9D8D0197F1F7CE01DF91CF911A
:101C50000C945F0CA0E0B0E0E33008F4BECFE0E00D
:101C6000F0E0BDCF80910B0690E020910C06821B26
:101C70009109089520910C0680910B06281750F4C5
:101C8000E22FF0E0E35FF94F808190E02F5F209337
:101C90000C0608958FEF9FEF0895E0910C06809158
:101CA0000B06E81730F4F0E0E35FF94F808190E035
:101CB00008958FEF9FEF08950895CF92DF92EF92EE
:101CC000FF920F931F93CF93DF937C01CB018A0187
:101CD0002091E705222389F0EB016B01C40ED51E8C
:101CE000CC15DD0569F06991D701ED91FC9101906A
:101CF000F081E02DC7010995F3CF642F0E946A0F90
:101D0000C801DF91CF911F910F91FF90EF90DF906D
:101D1000CF900895CF93DF931F92CDB7DEB769833D
:101D20002091E7052223D1F02091E805203240F0F0
:101D300021E030E0FC013383228380E090E015C095
:101D40008091E905E82FF0E0E651FA4F9981908300
:101D50008F5F8093E9058093E80505C061E0CE01BF
:101D600001960E946A0F81E090E00F90DF91CF9181
:101D70000895FC011382128248EE53E060E070E0A7
:101D800044835583668377838CE394E091838083D7
:101D9000089510920C0610920B061092E90510920D
:101DA000E8050C94F90E81E08093E70560930A063C
:101DB0001092E9051092E80508950C94D30E0F9344
:101DC000062F21E04091E8056AEE75E080910A0651
:101DD0000E94170F1092E9051092E8051092E7058E
:101DE0000F91089561E00C94DF0E8BED95E00C945B
:101DF000B90E10929A0681E0809398061092970689
:101E000061E082E00E94E21961E083E00E94E21951
:101E1000E9EBF0E080818E7F808380818D7F8083FD
:101E200088E48093B80085E48093BC0008950F9304
:101E3000413208F046C090919A069111FCCF92E091
:101E400090939A06009398069FEF90932D06109218
:101E5000720640937106FB0163E776E0DB019A2F7F
:101E6000961B941718F491919D93F9CF10929906AF
:101E700090919906880F892B8093990680919706F7
:101E8000813041F410929706809199068093BB00AF
:101E900085EC01C085EE8093BC00222321F0809167
:101EA0009A068230E1F380912D068F3F61F0809198
:101EB0002D06803251F080912D06803341F483E06D
:101EC00007C081E005C080E003C082E001C084E07B
:101ED0000F910895613298F420919A06243089F484
:101EE00060934F06FC0181E596E0DC012A2F281B58
:101EF000261718F421912D93F9CF80E0089581E001
:101F0000089582E0089585ED8093BC008091BC0027
:101F100084FDFCCF10929A06089585EC8093BC0056
:101F200010929A0608951F920F920FB60F921124E5
:101F30002F933F934F935F936F937F938F939F93D1
:101F4000AF93BF93EF93FF938091B900887F803662
:101F500009F49CC068F5883209F45BC090F48031C4
:101F600009F454C038F4882309F4F5C0883009F422
:101F70004DC0F5C0883109F44CC0803209F45DC011
:101F8000EEC0803409F468C048F4803309F455C0C9
:101F9000883309F0E4C080932D06A8C0803509F489
:101FA0004FC0883509F45DC0883409F0D8C0D5C069
:101FB000883909F4C6C0A8F4883709F467C038F432
:101FC000883609F463C0803709F460C0C8C0883817
:101FD00009F4B7C0803909F45FC0803809F0BFC088
:101FE0005BC0803B09F485C038F4803A09F466C0D0
:101FF000883A09F47EC0B3C0803C09F4A6C0883C8E
:1020000009F4A3C0883B09F489C0A9C0809199064E
:1020100010C09091720680917106981770F5E0914A
:10202000720681E08E0F80937206F0E0ED58F94F52
:1020300080818093BB0085EC85C080932D068DC088
:10204000E091720681E08E0F809372068091BB0052
:10205000F0E0ED58F94F80839091720680917106FF
:102060006DC0E091720681E08E0F809372068091C0
:10207000BB00F0E0ED58F94F808380919806811104
:102080006CC081E08093970684EA60C083E080930F
:102090009A0610922E06CFCF80912E06803208F03D
:1020A00050C0E0912E0681E08E0F80932E06809125
:1020B000BB00F0E0E15DF94F8083BDCF80912E063B
:1020C000803230F4E0912E06F0E0E15DF94F1082AD
:1020D0000E94830F60912E0670E0E0919306F091CC
:1020E00094068FE296E0099510922E060E948D0FBD
:1020F00036C084E080939A061092500610924F06E4
:10210000E0919506F0919606099580914F06811110
:1021100005C081E080934F0610925106E091500671
:1021200081E08E0F80935006F0E0EF5AF94F8081E6
:102130008093BB009091500680914F06981708F449
:102140007ACF85E88093BC000AC085EC8093BC0000
:1021500010929A0604C010922D060E94830FFF91E0
:10216000EF91BF91AF919F918F917F916F915F910F
:102170004F913F912F910F900FBE0F901F90189588
:10218000DC01ED91FC910190F081E02D09940F9319
:10219000DC0113961C921E921297ECE4F4E0ED938E
:1021A000FC93609391014093900130938F012093B1
:1021B0008E0100939D060F9108951F93CF93DF9397
:1021C0001F92CDB7DEB7613031F0623031F063304D
:1021D00031F010E005C010E403C014E101C014E5C3
:1021E00060918E0170918F018BED95E049830E9483
:1021F000DD0E6EEF70E08BED95E00E94C01065E49F
:1022000070E08BED95E00E94C0104981642F70E072
:10221000610F711D8BED95E00E94C0108BED95E074
:102220000E94F20E60918C0170918D01660F771FF4
:10223000882777FD8095982F0F90DF91CF911F9180
:102240000C94EE1840E060E00C94DD10CF93C62FA4
:1022500060918E0170918F018BED95E00E94DD0EF3
:102260006EEF70E08BED95E00E94C0106C2F8BED4F
:1022700095E00E948A0E8BED95E00E94F20E60912F
:102280008C0170918D01882777FD8095982FCF91D3
:102290000C94EE1861E50C94261161E40C9426115F
:1022A00068E40C9426116CE40C942611CF93DF9310
:1022B000EC018BED95E00E94C90E88E98093B8008F
:1022C000CE010E944D11CE010E944A11CE010E9402
:1022D0005311CE010E945011CE01DF91CF910C9489
:1022E0002211CF93C62F60918E0170918F018BEDDB
:1022F00095E00E94DD0E6C2F8BED95E00E948A0E1A
:102300008BED95E00E94F20E60919B0670919C0609
:10231000882777FD8095982F0E94EE18CF91089519
:10232000089508950895089561E0FC0182810C9458
:10233000E21960E0FC0182810C94E2190F931F9373
:10234000CF93DF93DC0128E030E000E810E080E08C
:1023500090E051E0E02FE42309F450E01123E1F094
:10236000FC01EE0FFF1FEE0FFF1FE60FF71F5523B7
:1023700029F01696CD91DC91179704C01496CD9153
:10238000DC911597D183C0831496CD91DC9115977C
:10239000D383C2830196512F06952150310911F044
:1023A000152FD7CFDF91CF911F910F910895CF9324
:1023B000DF93EC018FE9860F8A3140F4E62FFF2787
:1023C000E7FDF095E151FC4F408143C080ED860F61
:1023D0008A3028F0EAE6F4E080E090E02EC0E62FB4
:1023E000FF27E7FDF0959F0120533109A1E026303A
:1023F00031051CF0A0E0255031096C817D81FE0182
:1024000080E090E0B0E041E050E08217930714F0E4
:1024100040E050E04A175B0719F44C815D8102C02F
:102420004E815F8157874687718B608B019634960A
:102430008530910541F719C001962081222381F052
:1024400032962613F9CFFC01EE0FFF1FE659FB4F22
:102450004181BE01625F7F4FCE010E949E1105C087
:1024600021E030E081E090E002C020E030E0FC01BB
:10247000EE0FFF1FDF011696AA0FBB1FAC0FBD1F8B
:102480008E819F818D939C933796EE0FFF1FEC0FEB
:10249000FD1F11821082C901DF91CF91089561E083
:1024A000FC0182810C94A919CF92DF92EF92FF92E6
:1024B000CF93DF93EC016A017B0120E030E040E83C
:1024C0005FE3C701B6010E94272487FD15C020E005
:1024D00030E048E452E4C701B6010E9439259B016F
:1024E000AC0160E070E68AE697E40E942B240E942B
:1024F0009324362F272F02C030EB24E0832F922F16
:102500001816190614F081E090E09D838C839C01DD
:10251000220F331F280F391F3F832E83DF91CF9166
:10252000FF90EF90DF90CF9008950F931F93CF937C
:10253000DF9300D000D0CDB7DEB78C0188E794E000
:10254000F801918380837383628366E572E0C8013A
:10255000089629833A834B835C830E94A4222981B5
:102560003A814B815C81BA01A901C8010F900F909B
:102570000F900F90DF91CF911F910F910C945412F7
:10258000CF93DF93EC0108960E94BA228C859D853B
:102590009FA78EA788A980FD09C0E881F9810280E4
:1025A000F381E02DCE01DF91CF910994DF91CF919E
:1025B0000895CF93DF93EC011FA61EA68C859D8501
:1025C000892B21F160E070E0CE0108960E94D122B3
:1025D000FC016081CE010E94D71199AB88ABE881E4
:1025E000F9810480F581E02DCE01099588A980FD4F
:1025F00007C0E881F9810190F081E02DCE010995B5
:102600000E94BF186AAB7BAB8CAB9DABDF91CF91C7
:102610000895CF92DF92EF92FF92CF93DF93EC0178
:102620002EA53FA58C859D852817390708F06DC01C
:102630000E94BF186B017C018AA99BA9ACA9BDA906
:10264000C81AD90AEA0AFB0AE8A9F9A9DF0117960C
:10265000AA0FBB1FAC0FBD1F8D919C91AA2797FDA0
:10266000A095BA2FC816D906EA06FB0608F44FC093
:10267000CF01019699AB88AB3896EE0FFF1FEC0F98
:10268000FD1F80819181892B29F56EA57FA56F5F44
:102690007F4F7FA76EA78C859D856817790778F097
:1026A000E881F9810280F381E02DCE010995E8816E
:1026B000F9810680F781E02DCE01099526C0CE0173
:1026C00008960E94D122FC016081CE010E94D711A0
:1026D00099AB88AB4AA95BA96CA97DA94C0D5D1D7E
:1026E0006E1D7F1D4AAB5BAB6CAB7DAB88A9E881EF
:1026F000F98180FD04C00190F081E02D03C00280CB
:10270000F381E02DCE01099502C080E001C081E097
:10271000DF91CF91FF90EF90DF90CF900895CF930E
:10272000DF93EC010E94D912CE010E94091381119E
:10273000FBCFDF91CF910895CF93DF93EC010E94FF
:10274000951284E894E099838883DF91CF9108956E
:10275000FC0110820895AF92BF92DF92EF92FF9238
:102760000F931F93CF93DF93CDB7DEB7EDB6FEB6D1
:10277000842F90E0880F991FFC013196ADB7BEB74A
:10278000AE1BBF0B0FB6F894BEBF0FBEADBF0DB7EB
:102790001EB70F5F1F4FD801D62E5B015A2D5D1952
:1027A0005417C8F4B501F501508152955F7050631C
:1027B0005A3308F0595F5C93FFEFAF1ABF0AFB0171
:1027C00050815F7050635A3308F0595F11965C93E3
:1027D00011971296E3CFF801E80FF91F1082B901A3
:1027E00081EB96E00E94531DB80181EB96E00E94B8
:1027F000821D0FB6F894FEBE0FBEEDBEDF91CF91E5
:102800001F910F91FF90EF90DF90BF90AF900895D0
:10281000FC01508150FD0C94AB130895DC01ED9147
:10282000FC910190F081E02D0994FC0160834183CB
:102830003383228308956EEF70E081E097E00E9479
:102840000E146EEF70E081E097E00C940E146DEFC3
:1028500070E081E097E00C940E142F923F924F921B
:102860005F926F927F928F929F92AF92BF92CF9220
:10287000DF92EF92FF920F931F93CF93DF93CDB729
:10288000DEB72B970FB6F894DEBF0FBECDBF9B8788
:102890008A874B014987493008F053C0CE01019621
:1028A0005C01E12CF12CC12CD12C242E312C9AE08E
:1028B000492E512C612C712CE214F30404F5B8015B
:1028C000C901A30192010E94C025F50161935F0136
:1028D00089019A01E0FE0FC0D401AC0DBD1D84E05A
:1028E000660F771F8A95E1F732978081862B8C934C
:1028F000FFEFCF1ADF0A8FEFE81AF80ADDCF2CE9D5
:1029000031E04985B401EA85FB85828193812B966C
:102910000FB6F894DEBF0FBECDBFDF91CF911F91F0
:102920000F91FF90EF90DF90CF90BF90AF909F906E
:102930008F907F906F905F904F903F902F900C946E
:1029400008142B960FB6F894DEBF0FBECDBFDF91F3
:10295000CF911F910F91FF90EF90DF90CF90BF909C
:10296000AF909F908F907F906F905F904F903F902F
:102970002F9008952F923F924F925F926F927F9285
:102980008F929F92AF92BF92CF92DF92EF92FF927F
:102990000F931F93CF93DF93CDB7DEB762970FB638
:1029A000F894DEBF0FBECDBF9F878E87342E252EB5
:1029B000AB0149017E0189E0E80EF11C85E0F701D9
:1029C00011928A95E9F72930310508F044C0CE010B
:1029D00001965C0100E010E0C12CD12C9AE0492E58
:1029E000512C612C712C0815190559F1632D722D8C
:1029F000CA01A30192010E94C025F50161935F0104
:102A0000322E232E00FF1AC084E0660F771F8A95AE
:102A1000E1F732972081262B622F81E097E0288B07
:102A2000498B5A8B0E94701BF701EC0DFD1D288904
:102A30002083FFEFCF1ADF0A5A8949890F5F1F4FA2
:102A4000D2CF28EA31E0402FB701EE85FF858281A1
:102A500093810E94081462960FB6F894DEBF0FBEF1
:102A6000CDBFDF91CF911F910F91FF90EF90DF903D
:102A7000CF90BF90AF909F908F907F906F905F901E
:102A80004F903F902F900895DF92EF92FF920F9317
:102A90001F93CF93DF937C01EB0110E081E097E07F
:102AA0000E94FD1A019621F41A3031F5D12C2CC068
:102AB000D12C1A3049F181E097E00E94F21A892B5B
:102AC00051F08E010D0D111D81E097E00E940B1B4E
:102AD000F8018083D394FE01ED0DF11D31978081C3
:102AE0008D3F49F727EB31E04D2DBE01F701828183
:102AF00093810E94081408C06AE070E080E090E0D2
:102B00000E94EE181F5FCACF8D2DDF91CF911F91CC
:102B10000F91FF90EF90DF900895CF92DF92EF92A8
:102B2000FF920F931F93CF93DF93CDB7DEB7C058BB
:102B3000D1090FB6F894DEBF0FBECDBF8C017B016B
:102B4000C42E25E0D22EBE016F5F7F4FC8010E94C8
:102B50004415882309F43FC099819E3FE1F59A818D
:102B60009E3FC9F52B81F8019081291334C02C8137
:102B70009181291330C0FE01E80FF11D90819D3F26
:102B800051F5C11002C064E001C066E0D12C70E0D4
:102B90008250282F30E0261B370BED2DF0E02E174A
:102BA0003F077CF0D701AE0FBF1F81E090E08C0F94
:102BB0009D1FE80FF91FE60FF71F80818C93D394B8
:102BC000ECCF2EEC31E04D2DB701F80182819381DD
:102BD0000E94081409C064E670E080E090E00E9462
:102BE000EE18DA9409F0AFCF8D2DC058DF4F0FB635
:102BF000F894DEBF0FBECDBFDF91CF911F910F9133
:102C0000FF90EF90DF90CF900895CF93DF93CDB7F3
:102C1000DEB7C058D1090FB6F894DEBF0FBECDBFE6
:102C200040E0BE016F5F7F4F0E948D15882361F0E9
:102C300089818B3F31F08A818A3F31F480E090E0D6
:102C400005C081E090E002C082E090E0C058DF4F14
:102C50000FB6F894DEBF0FBECDBFDF91CF910895C0
:102C60000F931F93CF93DF93EC018B010E941B14F2
:102C7000698181E097E00E94701B688181E097E0A4
:102C80000E94701B66E070E081E097E00E940E14E5
:102C9000B80181E097E00E940E14CE010E94271433
:102CA000CE01DF91CF911F910F910C940516CF9219
:102CB000DF92EF92FF92CF93DF93EC016A017B01E9
:102CC0000E941B14698181E097E00E94701B68815B
:102CD00081E097E00E94701B65E070E081E097E082
:102CE0000E940E1428E030E0B701A601CE010E9438
:102CF000BA14CE010E942714CE01DF91CF91FF902C
:102D0000EF90DF90CF900C940516EF92FF920F9307
:102D10001F93CF93DF931F92CDB7DEB77C018B015A
:102D200049830E941B14F701618181E097E00E94B2
:102D3000701BF701608181E097E00E94701B64E1E5
:102D400070E081E097E00E940E14B80181E097E006
:102D50000E940E144981642F81E097E00E94701B4D
:102D6000C7010E942714C7010F90DF91CF911F91D7
:102D70000F91FF90EF900C9405160F931F93CF9334
:102D8000DF93EC018B010E941B14698181E097E0C5
:102D90000E94701B688181E097E00E94701B64E1D3
:102DA00070E081E097E00E940E14B80181E097E0A6
:102DB0000E940E14CE010E942714CE01DF91CF9104
:102DC0001F910F910C940516CF92DF92EF92FF9214
:102DD0000F931F93CF93DF93CDB7DEB728970FB62E
:102DE000F894DEBF0FBECDBF7C016B01042F0E94A3
:102DF0001B14F701618181E097E00E94701BF701CD
:102E0000608181E097E00E94701B6AE170E081E0E0
:102E100097E00E940E1463E070E081E097E00E946A
:102E20000E14B60181E097E00E940E14CA94CD28DA
:102E300089F410E020E030E044E0BE016F5F7F4F96
:102E4000C7010E942D146A8181E097E00E94701BE7
:102E5000698101C0602F81E097E00E94701BC7016B
:102E60000E942714C7010E94051628960FB6F894F1
:102E7000DEBF0FBECDBFDF91CF911F910F91FF90AD
:102E8000EF90DF90CF900895853008F04CC0E82F88
:102E9000F0E0EE0FFF1FE256F94F7183608382303E
:102EA000E1F018F4813069F004C0833019F1843006
:102EB00071F1809169008C7F842B80936900E89A7E
:102EC000089580916900440F551F440F551F837F5B
:102ED000842B80936900E99A08958091690034E019
:102EE000440F551F3A95E1F78F7C842B809369003E
:102EF000EA9A08958091690026E0440F551F2A95AB
:102F0000E1F78F73842B80936900EB9A0895809189
:102F10006A0094E0440F551F9A95E1F78F7C842B4B
:102F200080936A00EE9A08951F920F920FB60F9247
:102F300011242F933F934F935F936F937F938F93BE
:102F40009F93AF93BF93EF93FF9380919E069091D1
:102F50009F06892B29F0E0919E06F0919F06099526
:102F6000FF91EF91BF91AF919F918F917F916F9161
:102F70005F914F913F912F910F900FBE0F901F9037
:102F800018951F920F920FB60F9211242F933F9313
:102F90004F935F936F937F938F939F93AF93BF9361
:102FA000EF93FF938091A0069091A106892B29F0C1
:102FB000E091A006F091A1060995FF91EF91BF91D4
:102FC000AF919F918F917F916F915F914F913F91C1
:102FD0002F910F900FBE0F901F9018951F920F9278
:102FE0000FB60F9211242F933F934F935F936F93DC
:102FF0007F938F939F93AF93BF93EF93FF938091B2
:10300000A2069091A306892B29F0E091A206F091E7
:10301000A3060995FF91EF91BF91AF919F918F9179
:103020007F916F915F914F913F912F910F900FBEC4
:103030000F901F9018951F920F920FB60F921124A8
:103040002F933F934F935F936F937F938F939F93B0
:10305000AF93BF93EF93FF938091A4069091A50641
:10306000892B29F0E091A406F091A5060995FF911E
:10307000EF91BF91AF919F918F917F916F915F91F0
:103080004F913F912F910F900FBE0F901F90189569
:103090001F920F920FB60F9211242F933F934F93CD
:1030A0005F936F937F938F939F93AF93BF93EF93B0
:1030B000FF938091A6069091A706892B29F0E091B5
:1030C000A606F091A7060995FF91EF91BF91AF91E8
:1030D0009F918F917F916F915F914F913F912F9130
:1030E0000F900FBE0F901F9018951F920F920FB662
:1030F0000F9211242F933F938F939F93AF93BF937E
:103100008091A9069091AA06A091AB06B091AC0659
:103110003091A80623E0230F2D3720F40196A11D3E
:10312000B11D05C026E8230F0296A11DB11D2093F5
:10313000A8068093A9069093AA06A093AB06B09325
:10314000AC068091AD069091AE06A091AF06B0910D
:10315000B0060196A11DB11D8093AD069093AE06F9
:10316000A093AF06B093B006BF91AF919F918F919E
:103170003F912F910F900FBE0F901F9018952FB772
:10318000F8946091A9067091AA068091AB0690917F
:10319000AC062FBF08953FB7F8948091AD0690918B
:1031A000AE06A091AF06B091B00626B5A89B05C0AB
:1031B0002F3F19F00196A11DB11D3FBF6627782F43
:1031C000892F9A2F620F711D811D911D42E0660F9C
:1031D000771F881F991F4A95D1F70895CF92DF92E4
:1031E000EF92FF92CF93DF936B017C010E94CB188B
:1031F000EB01C114D104E104F10489F00E94E3223F
:103200000E94CB186C1B7D0B683E734090F381E0ED
:10321000C81AD108E108F108C851DC4FEACFDF91A4
:10322000CF91FF90EF90DF90CF900895789484B580
:10323000826084BD84B5816084BD85B5826085BDB2
:1032400085B5816085BDEEE6F0E080818160808398
:10325000E1E8F0E01082808182608083808181607B
:103260008083E0E8F0E0808181608083E1E9F0E044
:10327000808182608083808181608083E0E9F0E0EA
:10328000808181608083E1ECF0E0808184608083D4
:10329000808182608083808181608083E3ECF0E0C4
:1032A000808181608083E0ECF0E0808182608083B7
:1032B000E2ECF0E0808181608083EAE7F0E08081E9
:1032C000846080838081826080838081816080834C
:1032D000808180688083089590E0FC013197EF3011
:1032E000F105B0F5E158FF4F0C9401268091800064
:1032F0008F7703C0809180008F7D80938000089538
:1033000080918000877FF9CF84B58F7702C084B524
:103310008F7D84BD0895809190008F7707C0809144
:1033200090008F7D03C080919000877F80939000F4
:1033300008958091C0008F7703C08091C0008F7D79
:103340008093C00008958091C200877F8093C2005F
:103350000895CF93DF9390E0FC01EA55FE4F24914E
:10336000FC01EC53FE4F8491882349F190E0880FD3
:10337000991FFC01E250FE4FA591B49180519E4FE0
:10338000FC01C591D4919FB7611108C0F8948C914C
:10339000209582238C93888182230AC0623051F465
:1033A000F8948C91322F309583238C938881822BD3
:1033B000888304C0F8948C91822B8C939FBFDF91FB
:1033C000CF9108950F931F93CF93DF931F92CDB7A3
:1033D000DEB7282F30E0F901E857FE4F8491F9015C
:1033E000EA55FE4F1491F901EC53FE4F049100236E
:1033F000C9F0882321F069830E946C196981E02F4C
:10340000F0E0EE0FFF1FE051FE4FA591B4919FB782
:10341000F8948C91611103C01095812301C0812B18
:103420008C939FBF0F90DF91CF911F910F910895C3
:10343000CF93DF931F92CDB7DEB76983DC01ED91A7
:10344000FC910280F381E02D41E050E0BE016F5F0E
:103450007F4F09950F90DF91CF910895CF93DF9320
:10346000EC018C859D8597FF05C082E00E94631F5B
:103470009D878C878C859D85DF91CF91089583E012
:103480000C94B821FC018485958597FD06C082E0E7
:103490000E940B1F90E00196089582E00E940B1F8E
:1034A00090E00895FC018485958597FD05C02FEF78
:1034B0003FEF35872487089582E00C94631FCF93F4
:1034C000DF93EC0180919901882331F083E00E9421
:1034D000941F1816190634F081E090E09B838A83CC
:1034E00080E090E0DF91CF910895FC0120812E5F74
:1034F000208342E450E06CE072E080E80C942F20DE
:10350000FC0181819081913A59F4813209F03CC0EB
:1035100047E050E062E971E080E00E942F2043C064
:10352000913291F5803239F467E070E082E991E000
:103530000E94602006C0823209F035C082818093EB
:1035400099018091920190919301A0919401B09181
:103550009501803B9440A105B105C1F4809199018A
:1035600080FD14C087E797E79093010880930008D7
:103570002BE088E190E00FB6F894A8958093600066
:103580000FBE209360000FC080E0089588E10FB661
:10359000F89480936000109260000FBEA89510927E
:1035A00001081092000881E008951092B40610926C
:1035B000B30688EE93E0A0E0B0E08093B506909368
:1035C000B606A093B706B093B80680E994E090934E
:1035D000B2068093B1068FEF9FEF9093BE06809363
:1035E000BD060895FC01818D228D90E0805C9F4F87
:1035F000821B91098F7399270895FC01918D828D0B
:10360000981731F0828DE80FF11D858D90E00895B7
:103610008FEF9FEF0895FC01918D828D981761F0D7
:10362000828DDF01A80FB11D5D968C91928D9F5FF9
:103630009F73928F90E008958FEF9FEF08958FE82A
:103640009CE1892B49F080E090E0892B29F00E94D1
:103650008F1C81110C9400000895FC01848DDF0102
:10366000A80FB11DA35ABF4F2C91848D90E00196F5
:103670008F739927848FA689B7892C93A089B189E4
:103680008C9180648C93938D848D981306C00288EE
:10369000F389E02D80818F7D80830895CF93DF9320
:1036A000EC01888D8823C9F0EA89FB89808185FD3A
:1036B00005C0A889B9898C9186FD0FC00FB607FC9B
:1036C000F5CF808185FFF2CFA889B9898C9185FFDC
:1036D000EDCFCE010E942D1BE7CFDF91CF91089552
:1036E000CF92DF92FF920F931F93CF93DF931F929E
:1036F000CDB7DEB76C01DC015B969C915B975C9665
:103700008C915C97981307C05096ED91FC9151975E
:10371000808185FD32C0F601038D10E00F5F1F4FE1
:103720000F731127F02EF601848DF81211C00FB619
:1037300007FCF9CFD6015096ED91FC91519780810D
:1037400085FFF1CFC60169830E942D1B6981EBCFF4
:10375000838DE80FF11DE35AFF4F6083D6015B961E
:103760000C935B975296ED91FC9153978081806208
:10377000808381E058968C930DC0D6015696ED91CA
:10378000FC91579760835096ED91FC915197808101
:103790008064808381E090E00F90DF91CF911F9152
:1037A0000F91FF90DF90CF900895BF92CF92DF925C
:1037B000EF92FF92CF93DF93EC016A017B01B22E6F
:1037C000E889F98982E08083411581EE5807610517
:1037D0007105A1F060E079E08DE390E0A70196012A
:1037E0000E94C0252150310941095109569547953C
:1037F00037952795211580E1380798F0E889F989F0
:10380000108260E874E88EE190E0A70196010E94C2
:10381000C0252150310941095109569547953795E1
:103820002795EC85FD853083EE85FF852083188EF6
:10383000EC89FD89B082EA89FB898081806180837F
:10384000EA89FB89808188608083EA89FB8980819D
:1038500080688083EA89FB8980818F7D8083DF9106
:10386000CF91FF90EF90DF90CF90BF9008951F927F
:103870000F920FB60F9211242F938F939F93EF9374
:10388000FF93E0911107F09112078081E0911707F3
:10389000F091180782FD12C0908180911A078F5F06
:1038A0008F7320911B07821751F0E0911A07F0E007
:1038B000EF5FF84F958F80931A0701C08081FF91C9
:1038C000EF919F918F912F910F900FBE0F901F90AE
:1038D00018951F920F920FB60F9211242F933F93BA
:1038E0004F935F936F937F938F939F93AF93BF9308
:1038F000EF93FF9381E097E00E942D1BFF91EF91E2
:10390000BF91AF919F918F917F916F915F914F91F7
:103910003F912F910F900FBE0F901F90189581E04F
:1039200097E00E94F21A21E0892B09F420E0822F0F
:103930000895109204071092030788EE93E0A0E028
:10394000B0E08093050790930607A0930707B09314
:10395000080780EA94E090930207809301078DECBA
:1039600090E090930E0780930D078CEC90E090937D
:10397000100780930F0788EC90E0909312078093D4
:10398000110789EC90E090931407809313078AEC59
:1039900090E090931607809315078EEC90E090933B
:1039A00018078093170710921A0710921B0710929E
:1039B0001C0710921D07089508950E9416190E9471
:1039C000DC1C85EA97E00E9418220E943505CFE1B1
:1039D000DBE10E94DF062097E1F30E941F1BF9CF75
:1039E000CF92DF92EF92FF920F931F93CF93DF93CB
:1039F0006C017A01EB01E60EF71E00E010E0CE1537
:103A0000DF0561F06991D601ED91FC910190F081A3
:103A1000E02DC6010995080F191FF1CFC801DF91EC
:103A2000CF911F910F91FF90EF90DF90CF9008956D
:103A30006115710581F0DB010D900020E9F7AD0102
:103A400041505109461B570BDC01ED91FC9102805E
:103A5000F381E02D099480E090E00895EF92FF92C9
:103A60000F931F93CF93DF938C01FB01C0E0D0E055
:103A700064917F018FEFE81AF80A662361F0D8019C
:103A8000ED91FC910190F081E02DC8010995C80FDE
:103A9000D91FF701EDCFCE01DF91CF911F910F918B
:103AA000FF90EF9008950C94181DDC01ED91FC91AE
:103AB0000190F081E02D09940F931F93CF93DF9332
:103AC000EC016DE00E94551D8C016AE0CE010E9460
:103AD000551D800F911FDF91CF911F910F91089578
:103AE0000F931F93CF93DF93EC010E942E1D8C0147
:103AF000CE010E945C1D800F911FDF91CF911F911D
:103B00000F9108950F931F93CF93DF93EC010E94C1
:103B1000181D8C01CE010E945C1D800F911FDF914A
:103B2000CF911F910F9108958F929F92AF92BF9264
:103B3000CF92DF92EF92FF920F931F93CF93DF9379
:103B4000CDB7DEB7A1970FB6F894DEBF0FBECDBFDD
:103B50007C01C42EE52FCB01D22E19A221E02D1518
:103B600010F02AE0D22E8E010F5D1F4F8D2C912C6C
:103B7000A12CB12C6C2D7E2FA50194010E94C02593
:103B80008C2DD29E80191124015011098A3014F411
:103B9000805D01C0895CF8018083211531054105F4
:103BA000510521F0C22EE32FCA01E4CFB801C701AD
:103BB0000E94181DA1960FB6F894DEBF0FBECDBFB0
:103BC000DF91CF911F910F91FF90EF90DF90CF90F9
:103BD000BF90AF909F908F9008952115310541F4CB
:103BE000DC01ED91FC910190F081E02D642F0994AE
:103BF0000C94941D9A01462F50E060E070E00C9404
:103C0000ED1D8230A1F028F4882341F0813049F085
:103C10000895833091F08430B1F0089510926E00D1
:103C2000089580916F008D7F80936F00089580913B
:103C300070008D7F809370000895809171008D7F5A
:103C4000809371000895809172008F7B8093720041
:103C500008951F920F920FB60F9211242F933F9346
:103C60004F935F936F937F938F939F93AF93BF9384
:103C7000EF93FF938091A1079091A207A091A307D2
:103C8000B091A407892B8A2B8B2B51F190919E0721
:103C9000E0919F07F091A007808189278083809120
:103CA000A1079091A207A091A307B091A4071816AD
:103CB00019061A061B062CF58091A1079091A20700
:103CC000A091A307B091A4070197A109B10980931E
:103CD000A1079093A207A093A307B093A40711C0D4
:103CE00083E00E94011E20919E07E0919F07F091C2
:103CF000A007808190E030E02095309582239323C7
:103D00008083FF91EF91BF91AF919F918F917F91B0
:103D10006F915F914F913F912F910F900FBE0F9038
:103D20001F9018954091A9075091AA072091A707C5
:103D30003091A80742175307B4F49091E8009570AA
:103D4000E1F39091E80092FD19C08093F100809119
:103D5000A9079091AA0701968F739927892B19F4C7
:103D60008EEF8093E8008091A9079091AA070196B1
:103D70009093AA078093A90781E0089580E00895B1
:103D8000CF92DF92FF920F931F93CF93DF931F92F7
:103D9000CDB7DEB7082F162F862F880F8E5F998339
:103DA0000E94921E83E00E94921EF02EC02E9981E6
:103DB000D92E8C2D8F19811778F4F60184910E94E9
:103DC000921E082F80E00E94921E8023FFEFCF1AE0
:103DD000DF0A8111EECF01C081E00F90DF91CF911A
:103DE0001F910F91FF90DF90CF900895615030F0B8
:103DF0002091F100FC0120830196F8CF289884E6F9
:103E00008093AC0708952FB7FC012083F894677066
:103E10006093E9000895CF93DF931F92CDB7DEB78B
:103E2000682FCE0101960E94031F8091F2009981B4
:103E30009FBF0F90DF91CF910895FF920F931F9333
:103E4000CF93DF9300D0CDB7DEB7F62E8A019091E5
:103E5000AB07992311F057FF03C08FEF9FEF2BC0E3
:103E6000682FCE0101967A830E94031F8091F20091
:103E700090E0A8017A81801791070CF4AC01EF2D36
:103E8000F72FF40E84E6FE1639F028988093AC07DD
:103E90009091F1009193F7CF4115510521F0809158
:103EA000F200882321F089818FBFCA0104C08BE60C
:103EB0008093E800F8CF0F900F90DF91CF911F9182
:103EC0000F91FF900895CF93DF931F92CDB7DEB788
:103ED00041E050E0BE016F5F7F4F0E941D1F0197C0
:103EE00019F4898190E002C08FEF9FEF0F90DF916E
:103EF000CF910895CF93DF931F92CDB7DEB7682F90
:103F0000CE0101960E94031F9091E800892F8072D4
:103F100095FF04C09091F20080E4891B99819FBFB6
:103F20000F90DF91CF9108956F927F928F929F9221
:103F3000AF92BF92CF92DF92EF92FF920F931F93B7
:103F4000CF93DF931F92CDB7DEB7782E7B01C42EBF
:103F5000B52E8091AB07882369F0042F152F8AEFC7
:103F6000D82E872D8072982E9AE3A92E872D8074E3
:103F7000882E11C08FEF9FEF57C0872D0E947A1FA8
:103F8000682E81110CC0DA94A9F361E070E080E042
:103F900090E00E94EE180115110579F73BC0282F1B
:103FA00030E0021713070CF4602E672DCE01019646
:103FB0000E94031F8091E80085FF29C0262D30E074
:103FC000021B130B992039F06A948FEF6816B1F039
:103FD0001092F100F9CFF701862D77FE07C08150CE
:103FE00058F094919093F1003196F9CF815020F0E0
:103FF00091919093F100FACFE20EF31E8091E800C8
:1040000085FF0FC00115110511F481100AC08981C7
:104010008FBFC1CF5D9884E68093AD078C2D9B2D1B
:1040200003C0A092E800F3CF0F90DF91CF911F91D2
:104030000F91FF90EF90DF90CF90BF90AF909F9047
:104040008F907F906F9008951092E9001092AA07C8
:104050001092A9079093A8078093A7070895CF927D
:10406000DF92FF920F931F93CF93DF9300D0CDB7D2
:10407000DEB7F82E8A016B0101151105B1F0F601CA
:10408000F7FE02C0849101C0808149835A830E9457
:10409000921E01501109FFEFCF1ADF0A49815A81A0
:1040A0008111EACF8FEF9FEF01C0CA010F900F90EF
:1040B000DF91CF911F910F91FF90DF90CF900895E6
:1040C0001F93CF93DF931F92CDB7DEB7162F2091AA
:1040D000E80022FFFCCF612F79830E94F61E8BEF50
:1040E0008093E800812F7981972F0F90DF91CF91F6
:1040F0001F910895CF93DF931F92CDB7DEB719823A
:10410000CE0101960E94751ACE0101960E940223EB
:10411000898190E00F90DF91CF9108951F920F92C7
:104120000FB60F921124EF92FF920F931F932F93CC
:104130003F934F935F936F937F938F939F93AF932F
:10414000BF93EF93FF93CF93DF93CDB7DEB7629723
:10415000DEBFCDBF1092E9008091E80083FFEBC085
:1041600068E0CE010A960E94F61E82EF8093E80076
:104170009A8597FF05C08091E80080FFFCCF03C0BF
:104180008EEF8093E800892F807609F0B9C08B8587
:10419000811105C01092F1001092F100C5C0282FC6
:1041A0002D7F213009F4C0C0853049F48091E800AA
:1041B00080FFFCCF8C8580688093E300B5C086309B
:1041C00009F076C02D85E888F988223071F580E005
:1041D00090E02A8B0E9424200E947A2099E08E0190
:1041E0000F5F1F4FF801392F11923A95E9F7998324
:1041F0002A892A8391E09E8390E898879AEF99878D
:104200002091A9073091AA07275F3F4F3C832B835A
:104210008D83C7010E94242049E050E0B80180E06E
:104220000E942F200E947A207FC0C7012A8B0E9403
:1042300024202A89223241F482E290E00E940D2358
:10424000892B09F071C074C0213069F4888999897B
:10425000089711F42093A6078091A607811118C032
:1042600065E672E01AC0233009F062C08C858823AD
:1042700091F0823021F460E183E892E006C0813061
:1042800009F056C06BE087E792E00E94C01E4AC06A
:1042900063E572E002C064E972E06115710509F43A
:1042A00047C0FB01449150E080E80E942F203CC0B1
:1042B000873009F43DC0883021F481E08093F1001B
:1042C00033C0893089F5937099F5EFE4F2E081E02D
:1042D00021E096E38093E9002093EB003491309342
:1042E000EC009093ED008F5F3196853099F78EE763
:1042F0008093EA001092EA008C858093AB0714C08B
:10430000888999890E9424208E85811105C0CE015B
:104310000A960E94801A06C0823051F4CE010A9695
:104320000E943523882321F08EEF8093E80003C09C
:1043300081E28093EB0062960FB6F894DEBF0FBE69
:10434000CDBFDF91CF91FF91EF91BF91AF919F9141
:104350008F917F916F915F914F913F912F911F911D
:104360000F91FF90EF900F900FBE0F901F90189538
:104370008093E9008091F200882319F08AE380930A
:10438000E80008951F920F920FB60F9211242F93F9
:104390003F934F935F936F937F938F939F93AF93CD
:1043A000BF93EF93FF938091E1001092E10083FFB0
:1043B0000FC01092E90091E09093EB001092EC0096
:1043C00092E39093ED001092AB0798E09093F00089
:1043D00082FF1DC083E00E94B8218091AD07882331
:1043E00039F08091AD0781508093AD07882369F043
:1043F0008091AC07882359F08091AC07815080935D
:10440000AC07811104C0289A02C05D9AF1CFFF91D8
:10441000EF91BF91AF919F918F917F916F915F913C
:104420004F913F912F910F900FBE0F901F901895B5
:104430001092AB0781E08093D70080EA8093D80088
:1044400082E189BD09B400FEFDCF61E070E080E04B
:1044500090E00E94EE1880E98093D8008CE0809371
:10446000E2001092E000559A209A0895FC018081A4
:1044700091810C94D526CF93DF93EC0188819981AB
:10448000009711F00E94D526198218821D821C8285
:104490001B821A82DF91CF9108950F931F93CF93C0
:1044A000DF93EC018B016F5F7F4F888199810E94C0
:1044B0006427009731F0998388831B830A8381E006
:1044C00001C080E0DF91CF911F910F910895CF93AC
:1044D000DF93EC0188819981892B29F08A819B8166
:1044E0008617970760F4CE010E944D22882341F081
:1044F0008C819D81892B19F4E881F981108281E0FA
:10450000DF91CF910895EF92FF920F931F93CF9376
:10451000DF93EC017B018A01BA010E9467228111BD
:1045200004C0CE010E943B2207C01D830C83B7014B
:10453000888199810E945528CE01DF91CF911F91EA
:104540000F91FF90EF900895FC0111821082138269
:104550001282158214826115710559F0FB010190D8
:104560000020E9F7AF0141505109461B570B0C944D
:1045700083220895CF93DF93EC01FB018617970701
:1045800061F0608171816115710529F04481558167
:104590000E94832202C00E943B22CE01DF91CF9174
:1045A0000895FC01848195816817790720F4808142
:1045B0009181009729F41092AE078EEA97E0089552
:1045C000860F971F08950895FF920F931F93CF931F
:1045D000DF93EC01F62EE881F9810480F581E02D6E
:1045E00009958C01E881F9810680F781E02D6F2D16
:1045F000CE010995C8019927DF91CF911F910F91A5
:10460000FF900895FC0120812F5F208349E150E055
:1046100068E173E080E80C942F2045E650E061E308
:1046200073E080E80C942F20EF92FF920F931F937A
:10463000CF93DF931F92CDB7DEB789838B017A01C9
:1046400041E050E0BE016F5F7F4F84E00E94941F05
:10465000A701B80184E40E94941F0F90DF91CF91CD
:104660001F910F91FF90EF900895FC01918180813F
:10467000813A31F481E0913091F0933089F411C0A6
:10468000813271F49B3021F4828180939B0105C0BB
:104690009A3031F4828180939A0181E008950895DF
:1046A00080E0089548E050E082E00C941423CF931A
:1046B000DF93DC01683818F0E8E7E60F25C0E62F45
:1046C000F0E067FF11C0E058F10981E090E001C01F
:1046D000880FEA95EAF714969C911497982B1496F4
:1046E0009C931497E0E010C0E856FD4FE491EE2350
:1046F00009F440C0E7FF08C014968C9114978260BB
:1047000014968C931497EF7716968C9116978E17B4
:1047100041F117968C9117978E1719F118968C9175
:1047200018978E17F1F019968C9119978E17C9F07A
:104730001A968C911A978E17A1F01B968C911B9745
:104740008E1779F080E090E0ED01C80FD91F2E811F
:10475000211102C0EE8305C0019686309105A1F7B4
:1047600009C0BD016C5F7F4FCD010E94522381E0E3
:1047700090E008C081E090E013969C938E9312978E
:1047800080E090E0DF91CF910895683818F0E8E775
:10479000E60F25C0E62FF0E067FF12C0E058F109F0
:1047A00021E030E001C0220FEA95EAF72095DC0114
:1047B00014963C911497322314963C93E0E00FC07A
:1047C000E856FD4FE491EE2329F1E7FF08C0DC0134
:1047D00014962C9114972D7F14962C93EF7720E04C
:1047E00030E0EE2351F0DC01A20FB31F16964C917E
:1047F00016974E1302C016961C922F5F3F4F26301D
:10480000310579F7BC016C5F7F4F0E94522381E034
:1048100090E0089580E090E00895FC0116821782F0
:1048200010861186128613861482BC016C5F7F4F3E
:104830000C9452231092BB071092B2071092B1074A
:1048400080EB94E09093B0078093AF0708959CD0DD
:1048500008F481E008950CD0D2C0CAD040F0C1D095
:1048600030F021F45F3F19F0B3C05111FCC0B6C065
:10487000D7D098F39923C9F35523B1F3951B550B62
:10488000BB27AA2762177307840738F09F5F5F4F23
:10489000220F331F441FAA1FA9F333D00E2E3AF064
:1048A000E0E830D091505040E695001CCAF729D07E
:1048B000FE2F27D0660F771F881FBB1F26173707CD
:1048C0004807AB07B0E809F0BB0B802DBF01FF27FD
:1048D00093585F4F2AF09E3F510568F079C0C3C0DE
:1048E0005F3FECF3983EDCF3869577956795B79537
:1048F000F7959F5FC9F7880F911D9695879597F952
:104900000895E1E0660F771F881FBB1F62177307CA
:104910008407BA0720F0621B730B840BBA0BEE1FDF
:1049200088F7E095089504D06894B1119CC008956B
:104930007FD088F09F5790F0B92F9927B751A0F0FA
:10494000D1F0660F771F881F991F1AF0BA95C9F723
:1049500012C0B13081F086D0B1E0089583C0672FD6
:10496000782F8827B85F39F0B93FCCF386957795D3
:104970006795B395D9F73EF49095809570956195BC
:104980007F4F8F4F9F4F0895990F0008550FAA0B27
:10499000E0E8FEEF16161706E807F907C0F0121652
:1049A0001306E407F50798F0621B730B840B950B55
:1049B00039F40A2661F0232B242B252B21F40895AA
:1049C0000A2609F4A140A6958FEF811D811D089547
:1049D00097F99F6780E870E060E008959FEF80ECB2
:1049E000089500240A941616170618060906089555
:1049F00000240A9412161306140605060895092EBB
:104A00000394000C11F4882352F0BB0F40F4BF2B29
:104A100011F460FF04C06F5F7F4F8F4F9F4F089569
:104A200057FD9058440F551F59F05F3F71F047955F
:104A3000880F97FB991F61F09F3F79F08795089544
:104A4000121613061406551FF2CF4695F1DF08C063
:104A5000161617061806991FF1CF86957105610580
:104A600008940895E894BB2766277727CB0197F928
:104A700008950BD0C4CFB5DF28F0BADF18F0952326
:104A800009F0A6CFABCF1124EECFCADFA0F3959FDC
:104A9000D1F3950F50E0551F629FF001729FBB2725
:104AA000F00DB11D639FAA27F00DB11DAA1F649FD1
:104AB0006627B00DA11D661F829F2227B00DA11D84
:104AC000621F739FB00DA11D621F839FA00D611D0A
:104AD000221F749F3327A00D611D231F849F600D2B
:104AE000211D822F762F6A2F11249F5750408AF064
:104AF000E1F088234AF0EE0FFF1FBB1F661F771FF0
:104B0000881F91505040A9F79E3F510570F060CF2B
:104B1000AACF5F3FECF3983EDCF3869577956795D7
:104B2000B795F795E7959F5FC1F7FE2B880F911D0D
:104B30009695879597F90895DB018F939F930E942F
:104B40000726BF91AF91A29F800D911DA39F900D4D
:104B5000B29F900D1124089597FB072E16F4009430
:104B600007D077FD09D00E941A2607FC05D03EF435
:104B7000909581959F4F0895709561957F4F089509
:104B8000A1E21A2EAA1BBB1BFD010DC0AA1FBB1F51
:104B9000EE1FFF1FA217B307E407F50720F0A21BC3
:104BA000B30BE40BF50B661F771F881F991F1A9430
:104BB00069F760957095809590959B01AC01BD015A
:104BC000CF010895052E97FB1EF400940E94F9254D
:104BD00057FD07D00E94C02507FC03D04EF40C946B
:104BE000F92550954095309521953F4F4F4F5F4F98
:104BF000089590958095709561957F4F8F4F9F4F49
:104C00000895EE0FFF1F0590F491E02D09940E9486
:104C10002E26A59F900DB49F900DA49F800D911DF1
:104C200011240895B7FF0C9407260E940726821BC3
:104C3000930B0895AA1BBB1B51E107C0AA1FBB1F02
:104C4000A617B70710F0A61BB70B881F991F5A9518
:104C5000A9F780959095BC01CD010895A29FB00160
:104C6000B39FC001A39F700D811D1124911DB29FA0
:104C7000700D811D1124911D0895CF93DF93823013
:104C8000910510F482E090E0E091BE07F091BF073B
:104C900020E030E0A0E0B0E0309739F14081518170
:104CA00048175907B8F04817590771F48281938162
:104CB000109729F013969C938E9312972CC0909383
:104CC000BF078093BE0727C02115310531F0421779
:104CD000530718F0A901DB0101C0EF019A01BD01E2
:104CE000DF010280F381E02DD7CF21153105F9F0E6
:104CF000281B390B2430310580F48A819B81611592
:104D0000710521F0FB019383828304C09093BF0758
:104D10008093BE07FE01329644C0FE01E20FF31FEE
:104D20008193919322503109398328833AC020918D
:104D3000BC073091BD07232B41F420910201309133
:104D400003013093BD072093BC07209100013091EF
:104D500001012115310541F42DB73EB74091040101
:104D600050910501241B350BE091BC07F091BD0764
:104D7000E217F307A0F42E1B3F0B2817390778F032
:104D8000AC014E5F5F4F2417350748F04E0F5F1F91
:104D90005093BD074093BC078193919302C0E0E01C
:104DA000F0E0CF01DF91CF910895CF93DF9300978B
:104DB00009F487C0FC01329713821282C091BE07AA
:104DC000D091BF07209781F420813181280F391FAE
:104DD0008091BC079091BD078217930779F5F093F6
:104DE000BD07E093BC076DC0DE0120E030E0AE17E8
:104DF000BF0750F412964D915C9113979D01411598
:104E0000510509F1DA01F3CFB383A28340815181C7
:104E1000840F951F8A179B0771F48D919C911197B0
:104E2000840F951F02969183808312968D919C9199
:104E30001397938382832115310529F4F093BF07DB
:104E4000E093BE073EC0D9011396FC93EE931297F0
:104E50004D915D91A40FB51FEA17FB0779F480818E
:104E60009181840F951F0296D90111969C938E9380
:104E70008281938113969C938E931297E0E0F0E0E9
:104E80008A819B81009719F0FE01EC01F9CFCE01D8
:104E9000029628813981820F931F2091BC0730919F
:104EA000BD072817390769F4309729F41092BF0716
:104EB0001092BE0702C013821282D093BD07C09326
:104EC000BC07DF91CF910895A0E0B0E0EAE6F7E2F9
:104ED0000C947028EC01CB01209719F40E943D2618
:104EE000B8C0FE01E60FF71F9E0122503109E217FC
:104EF000F30708F4ACC0D9010D911C911197061766
:104F00001707B8F00530110508F49FC0A8014450F8
:104F100051094617570708F498C002501109061B9B
:104F2000170B019311936D937C93CF010E94D526AB
:104F30008CC05B01A01AB10A4E01800E911EA09197
:104F4000BE07B091BF07612C712C60E070E0109734
:104F500009F449C0A815B905C9F5ED90FC90119761
:104F6000670142E0C40ED11CCA14DB0478F147018A
:104F70008A189B08640142E0C40ED11C1296BC90B2
:104F800012971396AC91B5E0CB16D10440F0B282E3
:104F9000A38391828082D9018D939C9309C00E5F77
:104FA0001F4F0E0D1F1DF90111830083EB2DFA2FEA
:104FB0006115710531F0DB011396FC93EE931297A6
:104FC00044C0F093BF07E093BE073FC06D917C9152
:104FD00011976616770608F43B01BD0112960D90F5
:104FE000BC91A02DB4CF6091BC077091BD0768152E
:104FF0007905E9F468167906D0F4409100015091E2
:1050000001014115510541F44DB75EB760910401AE
:1050100070910501461B570BE417F507C0F4F09398
:10502000BD07E093BC07F901918380830EC00E9405
:105030003D267C01009759F0A801BE010E944C2832
:10504000CE010E94D526C70104C0CE0102C080E077
:1050500090E0CDB7DEB7EEE00C948C28FC018827F9
:105060009927E89421912032E9F3293010F02E306D
:10507000C8F32B3241F02D3239F4689404C00E94F9
:105080005C28820F911D219120532A30C0F31EF419
:10509000909581959F4F0895FB01DC0102C001901E
:1050A0000D9241505040D8F70895FB01DC0101906A
:1050B0000D920020E1F708957AE0979F902D879F49
:1050C000802D910D11240895F999FECF92BD81BDD7
:1050D000F89A992780B508952F923F924F925F9248
:1050E0006F927F928F929F92AF92BF92CF92DF92F8
:1050F000EF92FF920F931F93CF93DF93CDB7DEB75D
:10510000CA1BDB0B0FB6F894DEBF0FBECDBF0994F0
:105110002A88398848885F846E847D848C849B8447
:10512000AA84B984C884DF80EE80FD800C811B8155
:10513000AA81B981CE0FD11D0FB6F894DEBF0FBE84
:10514000CDBFED01089513E0C0EAD3E004C0FE0135
:105150000E9403262296C23AD107C9F7F894FFCFDE
:105160000000C0078000EE02FF0100FF00FF770291
:105170007D028C0200910297029E020AA702AC02F5
:10518000BA0214C002C602CD021ED202D702E30246
:1051900028E902F002FA0232FE0205030B033C107A
:1051A0000315031C0346200325032F035035033A40
:1051B0000344035A49034F035C0364620367036DAE
:1051C000036E720378037F0378840389039103825B
:1051D00096039B03A3038CA803AE03B80396BC03FA
:1051E000C103C603A0CA03CF03D903AA3200280013
:1051F000140400E1000000000000010132204243DD
:10520000442042453A20000053656E74205061638B
:105210006B65743A200000526563656976656420A9
:10522000526177205061636B65743A2000005061D1
:10523000796C6F616420646174613A2000003A0007
:1052400032306D0031376D0031356D0031326D0017
:1052500031306D004552520064426D004F5045524E
:105260000056322E3765200051525820536572691E
:10527000616C20434E534F4C0051525820494E49C7
:10528000542020202020200051525820494E4954BB
:105290002047505320444F0051525820494E495402
:1052A00020524144494F002020202020202020204F
:1052B0002020202020200054696D6520736C6F74BD
:1052C000206E6F74207365740054582020202020B5
:1052D00020202020202000347531756E00556E6925
:1052E000746564204E6174696F6E7300554E52434D
:1052F0000076653861740043616E616461005241FB
:10530000432F4E415243007736777800556E6974CB
:10531000656420537461746573004E4344584600BD
:105320006B6836727300486177616969004D41525C
:1053300043007A6C3662004E6577205A65616C6175
:105340006E64004E5A41525400766B3672627000A1
:105350004175737472616C696100574941006A61FB
:1053600032696779004A6170616E004A41524C00AF
:105370007272396F00527573736961005352520033
:105380007672326200486F6E67204B6F6E6700481E
:1053900041525453003473376200537269204C6198
:1053A0006E6B61005253534C007A7336646E005337
:1053B0006F75746820416672696361005A533644A0
:1053C0004E00357A3462004B656E7961004152536C
:1053D0004B0034783674750049737261656C00490E
:1053E000415243006F6832620046696E6C616E64C0
:1053F000005352414C0063733362004D6164656930
:105400007261004152524D006C753461610041720D
:1054100067656E74696E6100524341006F6134626A
:10542000005065727500524350007976356200561F
:10543000656E657A75656C61005243560000000028
:10544000000000000000000000000000000000005C
:105450000017000000000000000000E64750524D19
:1054600043004750474741004E4E4500454E4500DA
:105470004553450053534500535357005753570066
:10548000574E57004E4E570000000000B60BF01C60
:10549000220C950B080C3A0C000000008A0E5D0EE1
:1054A000320E3A0E4D0E5C0E000000007111F01C21
:1054B00005181A0C02120E1004170D1407060F1609
:1054C0001D0A080309110B191B1C2E553F4C53458F
:1054D0004B360001000000009011911192119311C0
:1054E0000000000094119911921193110000000026
:1054F000181A5F1A421A521A2E1A3F1A0000000098
:10550000701BF01CF21A0B1BFD1A4E1B0000000052
:0A551000E422F01C5723C5230D24EC
:00000001FF
