:100000000C94D1010C949A170C94C7170C94F41704
:100010000C9421180C94F9010C94F9010C944E18CD
:100020000C94F9010C948E0C0C94C8210C9494201F
:100030000C94F9010C94F9010C94F9010C94F90158
:100040000C94F9010C94F9010C94F9010C94F90148
:100050000C94F9010C94F9010C94F9010C947B189F
:100060000C94F9010C943D1C0C946F1C0C94F90138
:100070000C94F9010C94F9010C94F9010C94F90118
:100080000C942F1E0C94F9010C94F9010C94F901B5
:100090000C94990F0C94F9010C94F9010C94F9014A
:1000A0000C94F9010C94F9010C94F9016309760997
:1000B00086099909A109CD09D509DD09E509EC09E8
:1000C000EC09EC09EC09EC09EC09EC09EC09EC0988
:1000D000EC09EC09EC09EC09EC09EC09EC09EC0978
:1000E000EC09EC09EC09EC09EC09EC0963096F096E
:1000F000760986099909A109B409BC09C4098A19B4
:100100008D197C1980198619AE19AE19AE1991197D
:10011000951999199F19A319AE19A919666978201B
:1001200061676520494E56414C49440024504D5466
:100130004B3330302C313030302C302C302C302CB4
:10014000302A31430024504D544B3232302C313060
:1001500030302A31460024504D544B3331342C304A
:100160002C312C302C302C302C302C302C302C30AE
:100170002C302C302C302C302C302C302C302C309F
:100180002C302C302A3239000000000200090F0008
:1001900000030401000C000000000000000000004B
:1001A0000000000000000408020110408040102000
:1001B000408040800802040180402010020110802D
:1001C0001020404004040404040304050202020257
:1001D00004030202020206060606060604040202E0
:1001E0000204000000002300260029002C002F003C
:1001F00000000000250028002B002E003100000028
:100200000000240027002A002D003000080B000207
:10021000020201000904000001020200000524009E
:100220001001052401010104240206052406000131
:100230000705810310004009040100020A000000C4
:10024000070502024000000705830240000000C1CC
:100250008081C1120100020200004041233680006B
:10026000010102000112010002000000404123369A
:100270008000010102000141726475696E6F204CBB
:100280004C430041726475696E6F204C656F6E61FE
:1002900072646F0004030904000000000000000005
:1002A0002A2B2800000000000000000000000000D1
:1002B00000000000000000002C9EB4A0A1A2A43405
:1002C000A6A7A5AE362D3738271E1F2021222324AE
:1002D0002526B333B62EB7B89F8485868788898A4A
:1002E0008B8C8D8E8F909192939495969798999AE6
:1002F0009B9C9D2F3130A3AD350405060708090AE4
:100300000B0C0D0E0F101112131415161718191AC5
:100310001B1C1DAFB1B0B5000904020001030000B1
:100320000009210101000122650007058403400046
:100330000105010902A1010901A1008501050919B1
:1003400001290315002501950375018102950175A9
:1003500005810305010930093109381581257F75AB
:100360000895038106C0C005010906A101850205A3
:100370000719E029E7150025017501950881029507
:10038000017508810395067508150025650507198F
:100390000029658100C06704FB0EDB1A9F1C202426
:1003A000930411241FBECFEFDAE0DEBFCDBF14E00F
:1003B000A0E0B1E0ECE6F1E502C005900D92AC39A9
:1003C000B107D9F727E0ACE9B4E001C01D92A23A29
:1003D000B207E1F713E0C0EAD3E004C02297FE01C0
:1003E0000E940926C639D107C9F70E94E31C0C9464
:1003F000A9280C940000CF93DF938091E10490E052
:10040000019624EB30E0B9010E94B2258093E1040B
:1004100080910B0190910C010196B9010E94B225C7
:1004200090930C0180930B018091E004882391F05C
:10043000C091DC04D091DD040E94C5187093DD04E6
:100440006093DC040E94C5186C1B7D0B7093DF0465
:100450006093DE0481E08093E204DF91CF91089500
:1004600084E090E00E946A289FEF980F913108F095
:100470008FEF08951092E0048091DE049091DF04E4
:10048000892B99F02091DE043091DF04C901880F97
:10049000991F820F931F97FD0396959587959595C4
:1004A00087959093070180930601089585EA94E06B
:1004B0000E94551240E050E060EB71E485EA94E060
:1004C0000C945A120F931F93CF93DF9300D000D058
:1004D00000D0CDB7DEB78C0160E085E00E94E8195E
:1004E00060E08CE00E94E81960E086E00E94E81974
:1004F00060E084E00E94E81961E089E00E94E81968
:10050000B801CE0101960E94AA22BE016F5F7F4F03
:1005100085EA94E00E94C612CE0101960E943C2218
:1005200085EA94E00E94951381E08093DB0460E00B
:1005300085E00E94E81926960FB6F894DEBF0FBE3C
:10054000CDBFDF91CF911F910F9108958F3009F4A6
:100550004BC0D8F48A3009F45CC08C3009F06EC00E
:1005600080ED96E6ACE7B1E08093A1049093A204FD
:10057000A093A304B093A40447E061E083EE94E069
:100580000E94E3106CEE71E06DC08131C1F08431E6
:1005900009F054C080E296E2A7EDB0E08093A10498
:1005A0009093A204A093A304B093A40447E061E055
:1005B00083EE94E00E94E31060EE71E053C080E3AC
:1005C00096E5A4E1B1E08093A1049093A204A093E6
:1005D000A304B093A40447E061E083EE94E00E949A
:1005E000E31064EE71E03EC080E399EBA2E4B1E079
:1005F0008093A1049093A204A093A304B093A404B5
:1006000047E061E083EE94E00E94E31068EE71E061
:1006100029C080E49CE4AEEAB1E08093A104909309
:10062000A204A093A304B093A40447E061E083EE86
:1006300094E00E94E31060EF71E014C080E49CE459
:10064000AEEAB1E08093A1049093A204A093A30426
:10065000B093A40447E061E083EE94E00E94E310CD
:1006600064EF71E083EE94E00E94591D4091A10473
:100670005091A2046091A3047091A4048CE994E0C9
:100680000E945D161092DB040895CF93C82F4BE0B3
:1006900061E083EE94E00E94E3104AE050E06C2FAA
:1006A00083EE94E00E94001E4DE061E083EE94E052
:1006B0000E94E31068EF71E083EE94E00E94591D00
:1006C000CE3171F038F4C43159F461E08DE00E940C
:1006D000E81906C0C83231F0C23311F44BEE03C042
:1006E00040E001C04CE161E070E08CE994E0CF9122
:1006F0000C94EA16682F8DE00C94E81961E08CE008
:100700000E94E81961E085E00E94AF1961E08CE089
:100710000E94AF1980E00E947A0326E040EC52E18B
:1007200060E070E083EE96E00E94DB1B63E070E027
:100730008CE994E00E94361640E062E470E08CE9B7
:1007400094E00E94EA166AE070E08CE994E00E946E
:10075000C31640E86AE070E08CE994E00E948B16D2
:100760006AE070E08CE994E00E94C31680E296E2B1
:10077000A7EDB0E08093A1049093A204A093A304FA
:10078000B093A40440E256E267ED70E08CE994E097
:100790000C945D1660E08DE00E94E81961E08CE049
:1007A0000E94E81980E00E947A0360E086E00E94DF
:1007B000E81960E089E00E94E81961E084E00E94A5
:1007C000E81940E061E083EE94E00E94E3106CEFF2
:1007D00071E083EE94E00E94591D60E085E00C9486
:1007E000E819CF93C82F40E061E083EE94E00E94C7
:1007F000E31061E072E083EE94E00E94591D8C2FBB
:100800000E94A60282E30E94450380E00E947A03D0
:1008100066E870E080E090E00E94F418E0910D013D
:1008200087E0E89FF0011124E25FFE4F8081918113
:100830000E9462026AEF70E080E090E00E94F4188B
:1008400061E085E00E94E81963EE73E080E090E0EB
:100850000E94F41860E085E00E94E81988E20E9496
:10086000450361E085E00E94E81963EE73E080E0F3
:1008700090E00E94F41860E085E00E94E8198EE1A3
:100880000E94450361E085E00E94E81963EE73E091
:1008900080E090E00E94F41860E085E00E94E81992
:1008A00084E10E94450381E00E947A0361E085E0D3
:1008B0000E94E81963EE73E080E090E00E94F41873
:1008C00060E085E00E94E819CF910C94CA030F9371
:1008D00020E04BE068E08AE595E00E94610D87EE3C
:1008E00094E00E94EE0600E028E230E040E162E0A1
:1008F00083EE94E00E94CD1020E030E040E451E42B
:1009000065E070E085EA94E00E94A21380EA94E03A
:100910000E94AE1320EA34E046E760EE8CE994E0F2
:100920000F910C941B1489E594E09093A604809396
:10093000A5048DEA94E00E943C228AE595E00C949F
:10094000080D8F929F92AF92BF92CF92DF92EF925B
:10095000FF920F931F93CF93DF93CDB7DEB72C9702
:100960000FB6F894DEBF0FBECDBF6B017C0183E9EB
:1009700096E00E94451A8AE595E00E94650C81E0A8
:10098000C81AD108E108F1081C141D041E041F0434
:100990000CF063C08AE595E00E94280C892B09F4CD
:1009A00055C08AE595E00E949B0B182F682F83E9BC
:1009B00096E00E941E1A83E996E00E94451A612F74
:1009C00087EE94E00E94F5098823C9F283E996E056
:1009D0000E94621D9E012F5F3F4F4901CE01079685
:1009E0005C01295F3F4F690102967C018E01065F21
:1009F0001F4F2D5F3F4FAE01445F5F4FBE016B5FE6
:100A00007F4F87EE94E00E94CB0A89819A81AB8167
:100A1000BC818F3F9F4FAF4FBF4F89F0298588859D
:100A200090E03CE3239F800D911D112464EB70E066
:100A30000E94B2258F5F8093E10411E00FC06CE14A
:100A400071E083E996E00E94341D07C064E670E01F
:100A500080E090E00E94F41892CF10E08AE595E0E3
:100A60000E944F0C83E996E00E94451A812F2C9634
:100A70000FB6F894DEBF0FBECDBFDF91CF911F91AF
:100A80000F91FF90EF90DF90CF90BF90AF909F902D
:100A90008F900895CF930E94300280930D0161E002
:100AA0008DE00E94AF1980E00E947A0361E08CE043
:100AB0000E94AF190E94CA0361E086E00E94AF194C
:100AC00061E084E00E94AF1961E089E00E94AF1903
:100AD00060E084E00E94E81960E089E00E94E81983
:100AE00061E086E00E94E81983EE94E00E945C11C8
:100AF00083EE94E00E94561140E060E083EE94E0C3
:100B00000E94E3106FE072E083EE94E00E94591DB2
:100B100046E060E083EE94E00E94E310A0910D01B6
:100B2000C7E0CA9FD0011124A25FBE4F6D917C9196
:100B300083EE94E00E94591D4CE060E083EE94E067
:100B40000E94E310E0910D01CE9FF0011124E25FBD
:100B5000FE4F4AE050E0668183EE94E00E94001E62
:100B600040E061E083EE94E00E94E31066E172E011
:100B700083EE94E00E94591D40E061E083EE94E032
:100B80000E94E31067E272E083EE94E00E94591D38
:100B900062E083E00E94AF1943E050E06BEF71E048
:100BA00084E00E944A1740E855E260E070E08AE580
:100BB00095E00E94910D66E571E08AE595E00E945E
:100BC000761D65E471E08AE595E00E94761D6CE291
:100BD00071E08AE595E00E94761D68EE73E080E0A2
:100BE00090E00E94F4188AE595E00E944F0C40E0E6
:100BF00061E083EE94E00E94E31066E372E083EE2E
:100C000094E00E94591D6FEF7FEF8FEF9FE70E94E6
:100C1000A1048823C1F381E08093E00468E873E1D4
:100C200080E090E00E94F4180E943A0240E061E007
:100C300083EE94E00E94E31066E472E083EE94E0B9
:100C40000E94591D0E947E030E94560240E061E00E
:100C500083EE94E00E94E31065E572E083EE94E099
:100C60000E94591D40E061E083EE94E00E94E31091
:100C70006CEF71E083EE94E00E94591D60E086E025
:100C80000E94E81960E089E00E94E81961E084E0D0
:100C9000CF910C94E81980910D0145E061E08F3F00
:100CA00051F483EE94E00E94E31065E672E083EE77
:100CB00094E00C94591D83EE94E00E94E31069E5E2
:100CC00072E083EE94E00E94591D45E061E083EEFE
:100CD00094E00E94E3106091E1044AE050E083EE6A
:100CE00094E00E94001E8091090190910A01892BD5
:100CF000A9F09091E104E0910D0187E0E89FF001F7
:100D00001124E25FFE4F868198135EC010920A01A3
:100D10001092090110920C0110920B0180910B01AD
:100D200090910C0188329105F1F16CF48A309105B3
:100D300099F11CF4892B71F108958431910579F1B1
:100D40004E9779F1089586399105E1F13CF48C33A1
:100D5000910559F18C38910589F10895803A9105F2
:100D600039F1833B910509F0089585E080930801EE
:100D700048E061E083EE94E00E94E3106CE572E0ED
:100D800083EE94E00E94591D84E10E94A60282E352
:100D90000C94450384E101C081E10C94F1038FE0E0
:100DA000FCCF8CE0FACF8AE0F8CF84E10E94A60263
:100DB00060E070E880E090E00C94A10481E0809312
:100DC000E00408950C943A0208958091E204882387
:100DD00021F01092E2040C944B0608950F931F9398
:100DE000FC010FEF1FEF98010083118322833383EF
:100DF00010861186128613864FEF59EC6AE97BE361
:100E0000408B518B628B738B408F518F628F738FAE
:100E100040A351A362A373A340A751A762A773A7DE
:100E200040AB51AB62AB73AB00AF11AF22AF33AF8E
:100E3000DC01A05CBF4F8FEF90E011969C938E93E6
:100E400014960D931D932D933C93139718960D9321
:100E50001D932D933C93139718961C9211961C92F8
:100E6000509682E08C9311961C9211961C921196CA
:100E70001C9211961D921D921D921C92139714960E
:100E800011961C921E9212961D921C92EA5AFF4FC6
:100E900010821F910F9108952FEB260F862F99270F
:100EA00087FD9095263010F4C797089561566630F7
:100EB00018F4875591090895C09708950F931F93CB
:100EC000FB0160E070E0CB01019120ED200F2A30A2
:100ED000A0F4AAE0B0E09B01AC010E940D2611270E
:100EE00007FD1095212F312F600F711F821F931F57
:100EF0006053710981099109E7CF1F910F910895FE
:100F00000F931F93CF93FC01EA5AFF4FC1E020815A
:100F10002D3219F0C0E08F0103C08C01095A1F4F18
:100F2000B8010E945E079B01AC01A4E6B0E00E94FC
:100F30000D26F801DF01219130ED320F3A30D0F368
:100F40002E3269F511962C91119730ED320F3A300F
:100F500030F5332727FD3095205331094AE0429F71
:100F60008001439F100D1124222717FD2095322F59
:100F7000600F711F821F931F12960C9120ED200F9E
:100F80002A3068F4112707FD109500531109222714
:100F900017FD2095322F600F711F821F931FCC23E6
:100FA00039F090958095709561957F4F8F4F9F4F49
:100FB000CF911F910F9108954F925F926F927F9200
:100FC0008F929F92AF92BF92CF92DF92EF92FF9259
:100FD000CF93DF93EC01CA5ADF4FBE010E945E0738
:100FE0002B013C0124E630E040E050E00E94C625A1
:100FF0009B01AC0160EA76E881E090E00E94A225C6
:101000006B017C01FE01819190ED980F9A30D8F32D
:101010008E3219F5EF0180E1882E87E2982EA12CFF
:10102000B12CA99180ED8A0F8A30B8F4BB27A7FDB7
:10103000B095D097A50194010E941826C60ED71E20
:10104000E81EF91EC501B4012AE030E040E050E09E
:101050000E94C62549015A01E4CFC701B6016D5F60
:101060007F4F8F4F9F4F26E030E040E050E00E94DE
:10107000C62569017A01C301B20124E630E040E0EF
:1010800050E00E94C62560E472E48FE090E00E9488
:10109000A225C60ED71EE81EF91EC701B601DF91B4
:1010A000CF91FF90EF90DF90CF90BF90AF909F9047
:1010B0008F907F906F905F904F900895DB01FA01C1
:1010C0008D91882319F091918917D1F3992787FD84
:1010D00090950895CF92DF92EF92FF921F93CF9356
:1010E000DF93EC01FC01EB5AFF4F1081112309F44F
:1010F000A9C0319660810E944C07182FFE01E95A61
:10110000FF4F6081CE010E944C0740E1149F800D8B
:101110001124FE01EC5AFF4F908189138AC0749606
:101120001081112309F458C135968081918101966F
:1011300091838083B59780819181A281B381349717
:1011400080839183A283B3833C9680819181A28125
:10115000B381349780839183A283B383799680810E
:101160008823A1F1813009F037C18C819D81AE8146
:10117000BF8188839983AA83BB838C859D85AE8537
:10118000BF8588879987AA87BB878C899D89AE8907
:10119000BF89888B998BAA8BBB8B8C8D9D8DAE8DD7
:1011A000BF8D888F998FAA8FBB8F8CA59DA5AEA56B
:1011B000BFA588A799A7AAA7BBA78CA99DA9AEA9D7
:1011C000BFA988AB99ABAAABBBAB06C18CA19DA153
:1011D000AEA1BFA188A399A3AAA3BBA38C819D8123
:1011E000AE81BF8188839983AA83BB838C899D89C3
:1011F000AE89BF89888B998BAA8BBB8B8C8D9D8D7B
:10120000AE8DBF8D888F998FAA8FBB8FFE01E05C5A
:10121000FF4FDE01AE5BBF4F8D919C919183808328
:101220008CAD9DADAEADBFAD88AF99AFAAAFBBAF32
:10123000D3C0C159DF4F88819981019699838883F2
:1012400010E0CAC0FC01EA59FF4F30818B599F4F13
:101250007C0131111DC06E0196E5C90ED11C4DED0A
:1012600053E0B601CE010E945E08892B11F481E0A3
:101270000CC043EE53E0B601CE010E945E08892BFC
:1012800019F4F7011082A8C082E0D7018C93A4C0A2
:10129000DC01EC91E23009F49FC0CE018A5A9F4FE5
:1012A000DC012C91222309F497C0B0E2EB9FF001FE
:1012B0001124E32B3197E932F10508F08DC0EA5A89
:1012C000FF4F0C940726CE010E9480076C837D831C
:1012D0008E839F830E94C518C85BDF4F12C0C85918
:1012E000DF4F81E0213409F05DC05DC0CE010E9476
:1012F000DC076C8B7D8B8E8B9F8B0E94C518C05B2F
:10130000DF4F688379838A839B8366C0233509F026
:1013100063C08C899D89AE89BF89B095A095909551
:1013200081959F4FAF4FBF4F8C8B9D8BAE8BBF8BEB
:1013300053C0CE010E94DC076C8F7D8F8E8F9F8FF4
:101340004BC0273509F048C08C8D9D8DAE8DBF8D6B
:10135000B095A095909581959F4FAF4FBF4F8C8FC3
:101360009D8FAE8FBF8F38C0CE010E9480076CA7C3
:101370007DA78EA79FA730C0CE010E9480076CABCF
:101380007DAB8EAB9FAB28C0BC01CE010E945E0737
:101390006C877D878E879F871FC0C859DF4F81E08C
:1013A00021330CF480E0888317C00E943428CE5B80
:1013B000DF4F9927998388830FC0CE010E94800751
:1013C0006CAF7DAF8EAF9FAF07C0CE010E9480078C
:1013D0006CA37DA38EA39FA3812FDF91CF911F913B
:1013E000FF90EF90DF90CF900895CF92DF92EF9231
:1013F000FF920F931F93CF93DF931F92CDB7DEB76A
:101400006C01262FFC01E759FF4F40815181628119
:1014100073814F5F5F4F6F4F7F4F40835183628374
:1014200073838C0109591F4F8B5A9F4F7C012432C3
:1014300081F12CF42A3069F02D30E9F50AC02A3206
:1014400041F02C32C1F5F601EC5AFF4F8081822722
:101450008083F80180818F3060F4F601E80FF11D80
:10146000EA5AFF4F1082C60129830E946A08298127
:1014700001C080E0F601EA59FF4F90819F5F9083A1
:10148000F801108291E02A3209F090E0F701908390
:101490002AC0F8011082F601EA59FF4F10827297B4
:1014A0001082719682E08083F7011082F601E8597C
:1014B000FF4F108217C0F80180818E3048F491E010
:1014C000980F9083F601E80FF11DEA5AFF4F208331
:1014D000F7018081811106C0F601EC5AFF4F80812F
:1014E0008227808380E00F90DF91CF911F910F9131
:1014F000FF90EF90DF90CF900895CF92DF92EF9220
:10150000FF920F931F93CF93DF93E901611571054C
:1015100051F0FC01C084D184E284F384FB01C082D9
:10152000D182E282F3824115510551F0FC01C08065
:10153000D180E280F380FA01C082D182E282F3821C
:10154000209701F18C010C5B1F4FF8018081918184
:10155000A281B3818F3F9F4FAF4FBF4F61F00E9479
:10156000C518F8010081118122813381601B710B44
:10157000820B930B03C06FEF7FEFCB0168837983FE
:101580008A839B83DF91CF911F910F91FF90EF9002
:10159000DF90CF9008952F923F924F925F926F927B
:1015A0007F928F929F92AF92BF92CF92DF92EF92F3
:1015B000FF920F931F93CF93DF93CDB7DEB72A9798
:1015C0000FB6F894DEBF0FBECDBF2B015A874987F7
:1015D00019019401AE014F5F5F4FBE016B5F7F4FFA
:1015E0000E947D0A41145104B9F06D817E818F8182
:1015F000988524E630E040E050E00E94C625613541
:1016000071051CF02CE637E002C020ED37E0620FD8
:10161000731FF2017183608389859A85892BB1F0EC
:101620006D817E818F81988544E6442E512C612CFA
:10163000712CA30192010E94C625CA01B901A30120
:1016400092010E94C625E985FA8560832114310440
:1016500061F06D817E818F81988520E137E240E0E5
:1016600050E00E94C625F10120830115110561F0AB
:1016700069817A818B819C8120E432E44FE050E0E3
:101680000E94C625F8012083E114F104A1F06981CC
:101690007A818B819C8120E137E240E050E00E941A
:1016A000C625CA01B90124E630E040E050E00E94BE
:1016B000C625F7016083C114D104A9F069817A813C
:1016C0008B819C8134E6432E512C612C712CA3011B
:1016D00092010E94C625CA01B901A30192010E948C
:1016E000C625F6016083A114B10461F069817A8195
:1016F0008B819C8124E630E040E050E00E94C625CA
:10170000F50160832A960FB6F894DEBF0FBECDBFF9
:10171000DF91CF911F910F91FF90EF90DF90CF90CD
:10172000BF90AF909F908F907F906F905F904F9001
:101730003F902F9008952091BB053091BC0528174C
:101740003907B9F49091790580917A05981789F055
:10175000E0917905F0E0E558FA4F80812091790514
:1017600030E02F5F3F4F2F7333272093790590E0B0
:1017700008958FEF9FEF08951F93CF93DF93DC01C0
:101780005C968D919C915D97009749F481E090E083
:1017900013969C938E93129780E090E03BC05196F5
:1017A000ED91FC91529750962C915097322F309595
:1017B0001FB75E964C915E9741FB772770F941FD0C
:1017C0006095F8944081772311F0422B01C04323A8
:1017D0004083EC012197F1F748E0508160FF02C09F
:1017E000522B01C053235083EC012197F1F76695EA
:1017F000415099F78081772311F0832301C0822B18
:1018000080831FBF5C968D919C915D970197F1F746
:1018100081E090E0DF91CF911F9108952091BB0569
:101820003091BC052817390781F490917905809192
:101830007A05981751F0E0917905F0E0E558FA4FF4
:101840008081992787FD909508958FEF9FEF0895E8
:101850002091BB053091BC052817390771F48091A0
:101860007A052091790590E0805C9F4F821B910959
:1018700060E470E00E94B225089580E090E0089551
:101880002091BB053091BC052817390739F48FB773
:10189000F89410927A05109279058FBF0895E0911F
:1018A000BB05F091BC05E817F90769F4A389B48971
:1018B0009C918589809589238C931092BC05109208
:1018C000BB0581E0089580E00895CF93DF93EC019C
:1018D0008A8D9B8D892BF1F08091BB059091BC0581
:1018E0008C179D07B9F0009711F00E944F0C8E8D58
:1018F0008E7F8E8F10927A0510927905D093BC0559
:10190000C093BB05EB89FC8980819D89892B8083ED
:1019100081E001C080E0DF91CF9108951F920F9286
:101920000FB60F9211242F933F934F935F936F93B2
:101930007F938F939F93AF93BF93EF93FF93E09128
:10194000BB05F091BC05309709F451C0868DA68582
:10195000B785958581FF04C08C91892329F447C000
:101960008C91892309F043C0A389B4899C9185890E
:10197000809589238C93868997890197F1F7208D2B
:10198000318DA685B785758558E040E0C90101977E
:10199000F1F7842F90E095958795482F6C916723F8
:1019A00009F04068515091F7868D81FD40958091F6
:1019B0007A0590E001968F73992720917905281771
:1019C00049F0A0917A05B0E0A558BA4F4C938093A6
:1019D0007A0503C0868D8160868F828D938D0197F5
:1019E000F1F7A389B4898C919589892B8C93FF9108
:1019F000EF91BF91AF919F918F917F916F915F9187
:101A00004F913F912F910F900FBE0F901F901895FF
:101A10002DE034E0FC01318320830C944F0C1F93A4
:101A2000CF93DF93EC01162F6E8D6695617081E088
:101A30006827812F0E94E81961E0812F0E94AF1969
:101A4000812F90E0FC01EA55FE4FE491E88BFC0108
:101A5000EC53FE4FE491F0E0EE0FFF1FE051FE4F1C
:101A6000859194919A8B898BDF91CF911F910895E5
:101A70001F93CF93DF93EC01162F60E0812F0E941C
:101A8000AF198E8D81FD04C061E0812F0E94E8199D
:101A90001C87812F90E0FC01EA55FE4FE491ED8711
:101AA000FC01EC53FE4FE491F0E0EE0FFF1FEE510E
:101AB000FE4F859194919F878E87DF91CF911F91E3
:101AC0000895FF920F931F93CF93DF93EC01F62EAF
:101AD000522F1B821A8208EE13E020E030E00C83C4
:101AE0001D832E833F838DE094E0998388831F8A32
:101AF0001E8A198E188E1B8E1A8E1D8E1C8E8E8D30
:101B00008E7F50FB81F98E8F642FCE010E940F0DC6
:101B10006F2DCE01DF91CF911F910F91FF900C940B
:101B2000380DCF93DF93EC019A01AB011B8E1A8E17
:101B3000198E188E1F8A1E8A60E079E08DE390E08E
:101B40000E94E825C9012430310520F0B901635015
:101B5000710902C061E070E07D8F6C8FEC85F8EF59
:101B6000FE0FF43048F062EF6E0F643028F066EE3E
:101B70006E0F633008F06FC0B901769567956431D8
:101B8000710518F06351710902C061E070E07F8B4C
:101B90006E8B069718F0C901059702C081E090E0AE
:101BA000998F888FC901880F991F820F931F96956F
:101BB0008795969587958D30910510F00C9702C00A
:101BC00081E090E09B8F8A8FF43058F082EF8E0F87
:101BD000843038F0EA51E33008F042C0A8E6B0E0C3
:101BE00041C0A8E6B0E0E8E6F0E0808181608C9337
:101BF0002C8538EF320F343040F082EF820F843082
:101C000020F086EE820F833018F48BE690E002C05D
:101C100080E090E09C8B8B8B343010F4245009C012
:101C20002E3069F02F3069F0203169F0213169F0F0
:101C3000265181E001C0880F2A95EAF707C088E0A5
:101C400005C082E003C084E001C081E08D8B8C8DF3
:101C50009D8D0197F1F7CE01DF91CF910C94650C2A
:101C6000A0E0B0E0E33008F4BECFE0E0F0E0BDCFAC
:101C70008091ED0590E02091EE05821B9109089579
:101C80002091EE058091ED05281750F4E22FF0E049
:101C9000E151FA4F808190E02F5F2093EE05089587
:101CA0008FEF9FEF0895E091EE058091ED05E81725
:101CB00030F4F0E0E151FA4F808190E008958FEF29
:101CC0009FEF08950895CF92DF92EF92FF920F93C6
:101CD0001F93CF93DF937C01CB018A012091C9052B
:101CE000222389F0EB016B01C40ED51ECC15DD0556
:101CF00069F06991D701ED91FC910190F081E02D9F
:101D0000C7010995F3CF642F0E94700FC801DF91BE
:101D1000CF911F910F91FF90EF90DF90CF9008959A
:101D2000CF93DF931F92CDB7DEB769832091C905AA
:101D30002223D1F02091CA05203240F021E030E08A
:101D4000FC013383228380E090E015C08091CB05B5
:101D5000E82FF0E0E453FA4F998190838F5F8093EE
:101D6000CB058093CA0505C061E0CE0101960E94B3
:101D7000700F81E090E00F90DF91CF910895FC010A
:101D80001382128248EE53E060E070E04483558392
:101D9000668377838DE194E0918380830895109228
:101DA000EE051092ED051092CB051092CA050C9429
:101DB000FF0E81E08093C9056093EC051092CB057E
:101DC0001092CA0508950C94D90E0F93062F21E0A6
:101DD0004091CA056CEC75E08091EC050E941D0FE6
:101DE0001092CB051092CA051092C9050F91089563
:101DF00061E00C94E50E8DEB95E00C94BF0E109213
:101E00007C0681E080937A061092790661E082E098
:101E10000E94E81961E083E00E94E819E9EBF0E034
:101E200080818E7F808380818D7F808388E4809312
:101E3000B80085E48093BC0008950F93413208F008
:101E400046C090917C069111FCCF92E090937C0665
:101E500000937A069FEF90930F06109254064093DA
:101E60005306FB0165E576E0DB019A2F961B94177C
:101E700018F491919D93F9CF10927B0690917B0677
:101E8000880F892B80937B0680917906813041F4FD
:101E90001092790680917B068093BB0085EC01C08F
:101EA00085EE8093BC00222321F080917C06823055
:101EB000E1F380910F068F3F61F080910F06803231
:101EC00051F080910F06803341F483E007C081E038
:101ED00005C080E003C082E001C084E00F91089556
:101EE000613298F420917C06243089F460933106A5
:101EF000FC0183E396E0DC012A2F281B261718F447
:101F000021912D93F9CF80E0089581E0089582E03A
:101F1000089585ED8093BC008091BC0084FDFCCFCA
:101F200010927C06089585EC8093BC0010927C068C
:101F300008951F920F920FB60F9211242F933F9383
:101F40004F935F936F937F938F939F93AF93BF93C1
:101F5000EF93FF938091B900887F803609F49CC08D
:101F600068F5883209F45BC090F4803109F454C0FC
:101F700038F4882309F4F5C0883009F44DC0F5C061
:101F8000883109F44CC0803209F45DC0EEC0803461
:101F900009F468C048F4803309F455C0883309F067
:101FA000E4C080930F06A8C0803509F44FC088357F
:101FB00009F45DC0883409F0D8C0D5C0883909F467
:101FC000C6C0A8F4883709F467C038F4883609F425
:101FD00063C0803709F460C0C8C0883809F4B7C04E
:101FE000803909F45FC0803809F0BFC05BC0803B16
:101FF00009F485C038F4803A09F466C0883A09F4D7
:102000007EC0B3C0803C09F4A6C0883C09F4A3C0DC
:10201000883B09F489C0A9C080917B0610C09091CB
:10202000540680915306981770F5E091540681E0AC
:102030008E0F80935406F0E0EB5AF94F8081809325
:10204000BB0085EC85C080930F068DC0E0915406DF
:1020500081E08E0F809354068091BB00F0E0EB5A34
:10206000F94F808390915406809153066DC0E091A2
:10207000540681E08E0F809354068091BB00F0E0FF
:10208000EB5AF94F808380917A0681116CC081E010
:102090008093790684EA60C083E080937C06109286
:1020A0001006CFCF80911006803208F050C0E0912A
:1020B000100681E08E0F809310068091BB00F0E047
:1020C000EF5EF94F8083BDCF80911006803230F4EF
:1020D000E0911006F0E0EF5EF94F10820E94890F48
:1020E0006091100670E0E0917506F091760681E14E
:1020F00096E00995109210060E94930F36C084E076
:1021000080937C061092320610923106E091770699
:10211000F0917806099580913106811105C081E022
:102120008093310610923306E091320681E08E0FE3
:1021300080933206F0E0ED5CF94F80818093BB0024
:102140009091320680913106981708F47ACF85E88D
:102150008093BC000AC085EC8093BC0010927C0682
:1021600004C010920F060E94890FFF91EF91BF915A
:10217000AF919F918F917F916F915F914F913F911F
:102180002F910F900FBE0F901F901895DC01ED91CD
:10219000FC910190F081E02D09940F93DC011396DE
:1021A0001C921E921297EDE2F4E0ED93FC93609383
:1021B00091014093900130938F0120938E01009301
:1021C0007F060F9108951F93CF93DF931F92CDB792
:1021D000DEB7613031F0623031F0633031F010E061
:1021E00005C010E403C014E101C014E560918E0144
:1021F00070918F018DEB95E049830E94E30E6EEFA5
:1022000070E08DEB95E00E94C61065E470E08DEB08
:1022100095E00E94C6104981642F70E0610F711D26
:102220008DEB95E00E94C6108DEB95E00E94F80EB4
:1022300060918C0170918D01660F771F882777FD63
:102240008095982F0F90DF91CF911F910C94F418E7
:1022500040E060E00C94E310CF93C62F60918E01B4
:1022600070918F018DEB95E00E94E30E6EEF70E0B0
:102270008DEB95E00E94C6106C2F8DEB95E00E94CF
:10228000900E8DEB95E00E94F80E60918C0170919C
:102290008D01882777FD8095982FCF910C94F418A5
:1022A00061E50C942C1161E40C942C1168E40C94FD
:1022B0002C116CE40C942C11CF93DF93EC018DEB7B
:1022C00095E00E94CF0E88E98093B800CE010E946D
:1022D0005311CE010E945011CE010E945911CE011E
:1022E0000E945611CE01DF91CF910C942811CF930B
:1022F000C62F60918E0170918F018DEB95E00E9449
:10230000E30E6C2F8DEB95E00E94900E8DEB95E027
:102310000E94F80E60917D0670917E06882777FDF9
:102320008095982F0E94F418CF91089508950895EC
:102330000895089561E0FC0182810C94E81960E041
:10234000FC0182810C94E8190F931F93CF93DF93C4
:10235000DC0128E030E000E810E080E090E051E0AF
:10236000E02FE42309F450E01123E1F0FC01EE0F2B
:10237000FF1FEE0FFF1FE60FF71F552329F01696DC
:10238000CD91DC91179704C01496CD91DC911597EF
:10239000D183C0831496CD91DC911597D383C283EA
:1023A0000196512F06952150310911F0152FD7CFE5
:1023B000DF91CF911F910F910895CF93DF93EC019F
:1023C0008FE9860F8A3140F4E62FFF27E7FDF0956D
:1023D000E053FC4F408143C080ED860F8A3028F0E7
:1023E000EBE4F4E080E090E02EC0E62FFF27E7FD6D
:1023F000F0959F0120533109A1E0263031051CF0F2
:10240000A0E0255031096C817D81FE0180E090E0E3
:10241000B0E041E050E08217930714F040E050E054
:102420004A175B0719F44C815D8102C04E815F81C0
:1024300057874687718B608B01963496853091055E
:1024400041F719C001962081222381F0329626138C
:10245000F9CFFC01EE0FFF1FE55BFB4F4181BE0191
:10246000625F7F4FCE010E94A41105C021E030E0E1
:1024700081E090E002C020E030E0FC01EE0FFF1FA1
:10248000DF011696AA0FBB1FAC0FBD1F8E819F8167
:102490008D939C933796EE0FFF1FEC0FFD1F11825B
:1024A0001082C901DF91CF91089561E0FC01828122
:1024B0000C94AF19CF92DF92EF92FF92CF93DF93FC
:1024C000EC016A017B0120E030E040E85FE3C701F6
:1024D000B6010E942D2487FD15C020E030E048E4BD
:1024E00052E4C701B6010E943F259B01AC0160E0A8
:1024F00070E68AE697E40E9431240E949924362FE0
:10250000272F02C030EB24E0832F922F18161906D4
:1025100014F081E090E09D838C839C01220F331F97
:10252000280F391F3F832E83DF91CF91FF90EF90CB
:10253000DF90CF9008950F931F93CF93DF9300D038
:1025400000D0CDB7DEB78C0189E594E0F801918326
:1025500080837383628364E672E0C80108962983EE
:102560003A834B835C830E94AA2229813A814B8162
:102570005C81BA01A901C8010F900F900F900F90D4
:10258000DF91CF911F910F910C945A12CF93DF934B
:10259000EC0108960E94C0228C859D859FA78EA77E
:1025A00088A980FD09C0E881F9810280F381E02DCE
:1025B000CE01DF91CF910994DF91CF910895CF9310
:1025C000DF93EC011FA61EA68C859D85892B21F12A
:1025D00060E070E0CE0108960E94D722FC01608185
:1025E000CE010E94DD1199AB88ABE881F9810480AE
:1025F000F581E02DCE01099588A980FD07C0E8810D
:10260000F9810190F081E02DCE0109950E94C51855
:102610006AAB7BAB8CAB9DABDF91CF910895CF9232
:10262000DF92EF92FF92CF93DF93EC012EA53FA5AF
:102630008C859D852817390708F06DC00E94C51844
:102640006B017C018AA99BA9ACA9BDA9C81AD90AAA
:10265000EA0AFB0AE8A9F9A9DF011796AA0FBB1F2E
:10266000AC0FBD1F8D919C91AA2797FDA095BA2F05
:10267000C816D906EA06FB0608F44FC0CF0101963A
:1026800099AB88AB3896EE0FFF1FEC0FFD1F8081D2
:102690009181892B29F56EA57FA56F5F7F4F7FA75D
:1026A0006EA78C859D856817790778F0E881F98198
:1026B0000280F381E02DCE010995E881F981068041
:1026C000F781E02DCE01099526C0CE0108960E9423
:1026D000D722FC016081CE010E94DD1199AB88AB4D
:1026E0004AA95BA96CA97DA94C0D5D1D6E1D7F1DBE
:1026F0004AAB5BAB6CAB7DAB88A9E881F98180FD0F
:1027000004C00190F081E02D03C00280F381E02D30
:10271000CE01099502C080E001C081E0DF91CF9138
:10272000FF90EF90DF90CF900895CF93DF93EC016F
:102730000E94DF12CE010E940F138111FBCFDF91A7
:10274000CF910895CF93DF93EC010E949B1285E611
:1027500094E099838883DF91CF910895FC011082E2
:102760000895AF92BF92DF92EF92FF920F931F9363
:10277000CF93DF93CDB7DEB7EDB6FEB6842F90E0F2
:10278000880F991FFC013196ADB7BEB7AE1BBF0BCA
:102790000FB6F894BEBF0FBEADBF0DB71EB70F5F2B
:1027A0001F4FD801D62E5B015A2D5D195417C8F45E
:1027B000B501F501508152955F7050635A3308F0AE
:1027C000595F5C93FFEFAF1ABF0AFB0150815F7046
:1027D00050635A3308F0595F11965C931197129623
:1027E000E3CFF801E80FF91F1082B90183E996E001
:1027F0000E94591DB80183E996E00E94881D0FB61A
:10280000F894FEBE0FBEEDBEDF91CF911F910F91E8
:10281000FF90EF90DF90BF90AF900895FC01508142
:1028200050FD0C94B1130895DC01ED91FC910190E1
:10283000F081E02D0994FC0160834183338322837E
:1028400008956EEF70E083EE96E00E9414146EEF30
:1028500070E083EE96E00C9414146DEF70E083EE5C
:1028600096E00C9414142F923F924F925F926F92C5
:102870007F928F929F92AF92BF92CF92DF92EF9210
:10288000FF920F931F93CF93DF93CDB7DEB72B97B4
:102890000FB6F894DEBF0FBECDBF9B878A874B0172
:1028A0004987493008F053C0CE0101965C01E12C04
:1028B000F12CC12CD12C242E312C9AE0492E512CF4
:1028C000612C712CE214F30404F5B801C901A301D1
:1028D00092010E94C625F50161935F0189019A0169
:1028E000E0FE0FC0D401AC0DBD1D84E0660F771F64
:1028F0008A95E1F732978081862B8C93FFEFCF1A70
:10290000DF0A8FEFE81AF80ADDCF2CE931E04985BC
:10291000B401EA85FB85828193812B960FB6F894EA
:10292000DEBF0FBECDBFDF91CF911F910F91FF9002
:10293000EF90DF90CF90BF90AF909F908F907F905F
:102940006F905F904F903F902F900C940E142B96A9
:102950000FB6F894DEBF0FBECDBFDF91CF911F91B0
:102960000F91FF90EF90DF90CF90BF90AF909F902E
:102970008F907F906F905F904F903F902F90089531
:102980002F923F924F925F926F927F928F929F927F
:10299000AF92BF92CF92DF92EF92FF920F931F936D
:1029A000CF93DF93CDB7DEB762970FB6F894DEBF53
:1029B0000FBECDBF9F878E87342E252EAB014901D8
:1029C0007E0189E0E80EF11C85E0F70111928A95FD
:1029D000E9F72930310508F044C0CE0101965C01C9
:1029E00000E010E0C12CD12C9AE0492E512C612C32
:1029F000712C0815190559F1632D722DCA01A30117
:102A000092010E94C625F50161935F01322E232EAB
:102A100000FF1AC084E0660F771F8A95E1F73297AE
:102A20002081262B622F83EE96E0288B498B5A8BD0
:102A30000E94761BF701EC0DFD1D28892083FFEF16
:102A4000CF1ADF0A5A8949890F5F1F4FD2CF28EA70
:102A500031E0402FB701EE85FF85828193810E948E
:102A60000E1462960FB6F894DEBF0FBECDBFDF9195
:102A7000CF911F910F91FF90EF90DF90CF90BF907B
:102A8000AF909F908F907F906F905F904F903F900E
:102A90002F900895DF92EF92FF920F931F93CF93A1
:102AA000DF937C01EB0110E083EE96E00E94031BB4
:102AB000019621F41A3031F5D12C2CC0D12C1A30CA
:102AC00049F183EE96E00E94F81A892B51F08E01AD
:102AD0000D0D111D83EE96E00E94111BF8018083FD
:102AE000D394FE01ED0DF11D319780818D3F49F7A3
:102AF00027EB31E04D2DBE01F701828193810E94C9
:102B00000E1408C06AE070E080E090E00E94F418C3
:102B10001F5FCACF8D2DDF91CF911F910F91FF9035
:102B2000EF90DF900895CF92DF92EF92FF920F9394
:102B30001F93CF93DF93CDB7DEB7C058D1090FB63F
:102B4000F894DEBF0FBECDBF8C017B01C42E25E003
:102B5000D22EBE016F5F7F4FC8010E944A158823A5
:102B600009F43FC099819E3FE1F59A819E3FC9F5E6
:102B70002B81F8019081291334C02C819181291374
:102B800030C0FE01E80FF11D90819D3F51F5C1104D
:102B900002C064E001C066E0D12C70E08250282FB2
:102BA00030E0261B370BED2DF0E02E173F077CF0B1
:102BB000D701AE0FBF1F81E090E08C0F9D1FE80F83
:102BC000F91FE60FF71F80818C93D394ECCF2EEC86
:102BD00031E04D2DB701F801828193810E940E14DE
:102BE00009C064E670E080E090E00E94F418DA9496
:102BF00009F0AFCF8D2DC058DF4F0FB6F894DEBF70
:102C00000FBECDBFDF91CF911F910F91FF90EF903D
:102C1000DF90CF900895CF93DF93CDB7DEB7C05844
:102C2000D1090FB6F894DEBF0FBECDBF40E0BE01A4
:102C30006F5F7F4F0E949315882361F089818B3FDE
:102C400031F08A818A3F31F480E090E005C081E074
:102C500090E002C082E090E0C058DF4F0FB6F894D9
:102C6000DEBF0FBECDBFDF91CF9108950F931F93AD
:102C7000CF93DF93EC018B010E942114698183EED5
:102C800096E00E94761B688183EE96E00E94761B98
:102C900066E070E083EE96E00E941414B80183EEC3
:102CA00096E00E941414CE010E942D14CE01DF91F3
:102CB000CF911F910F910C940B16CF92DF92EF9250
:102CC000FF92CF93DF93EC016A017B010E942114F4
:102CD000698183EE96E00E94761B688183EE96E020
:102CE0000E94761B65E070E083EE96E00E9414146B
:102CF00028E030E0B701A601CE010E94C014CE0149
:102D00000E942D14CE01DF91CF91FF90EF90DF90C4
:102D1000CF900C940B16EF92FF920F931F93CF93CB
:102D2000DF931F92CDB7DEB77C018B0149830E94F0
:102D30002114F701618183EE96E00E94761BF70172
:102D4000608183EE96E00E94761B64E170E083EE82
:102D500096E00E941414B80183EE96E00E941414C9
:102D60004981642F83EE96E00E94761BC7010E9482
:102D70002D14C7010F90DF91CF911F910F91FF90FC
:102D8000EF900C940B160F931F93CF93DF93EC01EE
:102D90008B010E942114698183EE96E00E94761BCC
:102DA000688183EE96E00E94761B64E170E083EE1A
:102DB00096E00E941414B80183EE96E00E94141469
:102DC000CE010E942D14CE01DF91CF911F910F9162
:102DD0000C940B16CF92DF92EF92FF920F931F93FA
:102DE000CF93DF93CDB7DEB728970FB6F894DEBF49
:102DF0000FBECDBF7C016B01042F0E942114F7018F
:102E0000618183EE96E00E94761BF701608183EE7C
:102E100096E00E94761B6AE170E083EE96E00E94E5
:102E2000141463E070E083EE96E00E941414B6017F
:102E300083EE96E00E941414CA94CD2889F410E021
:102E400020E030E044E0BE016F5F7F4FC7010E9489
:102E500033146A8183EE96E00E94761B698101C07B
:102E6000602F83EE96E00E94761BC7010E942D140E
:102E7000C7010E940B1628960FB6F894DEBF0FBE4E
:102E8000CDBFDF91CF911F910F91FF90EF90DF9019
:102E9000CF900895853008F04CC0E82FF0E0EE0F99
:102EA000FF1FE058F94F718360838230E1F018F41E
:102EB000813069F004C0833019F1843071F1809160
:102EC00069008C7F842B80936900E89A0895809133
:102ED0006900440F551F440F551F837F842B809337
:102EE0006900E99A08958091690034E0440F551F04
:102EF0003A95E1F78F7C842B80936900EA9A0895D4
:102F00008091690026E0440F551F2A95E1F78F73E1
:102F1000842B80936900EB9A089580916A0094E075
:102F2000440F551F9A95E1F78F7C842B80936A009C
:102F3000EE9A08951F920F920FB60F9211242F93BD
:102F40003F934F935F936F937F938F939F93AF9331
:102F5000BF93EF93FF938091800690918106892B18
:102F600029F0E0918006F09181060995FF91EF919B
:102F7000BF91AF919F918F917F916F915F914F9191
:102F80003F912F910F900FBE0F901F9018951F9299
:102F90000F920FB60F9211242F933F934F935F938D
:102FA0006F937F938F939F93AF93BF93EF93FF9311
:102FB0008091820690918306892B29F0E091820608
:102FC000F09183060995FF91EF91BF91AF919F9189
:102FD0008F917F916F915F914F913F912F910F90C2
:102FE0000FBE0F901F9018951F920F920FB60F9261
:102FF00011242F933F934F935F936F937F938F93FE
:103000009F93AF93BF93EF93FF938091840690912A
:103010008506892B29F0E0918406F09185060995B3
:10302000FF91EF91BF91AF919F918F917F916F91A0
:103030005F914F913F912F910F900FBE0F901F9076
:1030400018951F920F920FB60F9211242F933F9352
:103050004F935F936F937F938F939F93AF93BF93A0
:10306000EF93FF938091860690918706892B29F034
:10307000E0918606F09187060995FF91EF91BF9147
:10308000AF919F918F917F916F915F914F913F9100
:103090002F910F900FBE0F901F9018951F920F92B7
:1030A0000FB60F9211242F933F934F935F936F931B
:1030B0007F938F939F93AF93BF93EF93FF938091F1
:1030C000880690918906892B29F0E0918806F09175
:1030D00089060995FF91EF91BF91AF919F918F91D3
:1030E0007F916F915F914F913F912F910F900FBE04
:1030F0000F901F9018951F920F920FB60F921124E8
:103100002F933F938F939F93AF93BF9380918B06A1
:1031100090918C06A0918D06B0918E0630918A0612
:1031200023E0230F2D3720F40196A11DB11D05C00A
:1031300026E8230F0296A11DB11D20938A068093D5
:103140008B0690938C06A0938D06B0938E0680918B
:103150008F0690919006A0919106B09192060196EB
:10316000A11DB11D80938F0690939006A0939106A8
:10317000B0939206BF91AF919F918F913F912F9104
:103180000F900FBE0F901F9018952FB7F894609175
:103190008B0670918C0680918D0690918E062FBFC4
:1031A00008953FB7F89480918F0690919006A09172
:1031B0009106B091920626B5A89B05C02F3F19F045
:1031C0000196A11DB11D3FBF6627782F892F9A2F29
:1031D000620F711D811D911D42E0660F771F881FD0
:1031E000991F4A95D1F70895CF92DF92EF92FF92FF
:1031F000CF93DF936B017C010E94D118EB01C114C6
:10320000D104E104F10489F00E94E9220E94D1185E
:103210006C1B7D0B683E734090F381E0C81AD108A7
:10322000E108F108C851DC4FEACFDF91CF91FF9060
:10323000EF90DF90CF900895789484B5826084BD3C
:1032400084B5816084BD85B5826085BD85B58160AA
:1032500085BDEEE6F0E0808181608083E1E8F0E00A
:103260001082808182608083808181608083E0E839
:10327000F0E0808181608083E1E9F0E0808182601C
:103280008083808181608083E0E9F0E080818160DB
:103290008083E1ECF0E080818460808380818260C3
:1032A0008083808181608083E3ECF0E080818160B5
:1032B0008083E0ECF0E0808182608083E2ECF0E0EB
:1032C000808181608083EAE7F0E080818460808390
:1032D000808182608083808181608083808180683A
:1032E0008083089590E0FC013197EF30F105B0F54F
:1032F000E158FF4F0C940726809180008F7703C020
:10330000809180008F7D809380000895809180005F
:10331000877FF9CF84B58F7702C084B58F7D84BD58
:103320000895809190008F7707C0809190008F7DE5
:1033300003C080919000877F8093900008958091D2
:10334000C0008F7703C08091C0008F7D8093C00044
:1033500008958091C200877F8093C2000895CF9323
:10336000DF9390E0FC01EA55FE4F2491FC01EC5301
:10337000FE4F8491882349F190E0880F991FFC014A
:10338000E250FE4FA591B49180519E4FFC01C59132
:10339000D4919FB7611108C0F8948C912095822335
:1033A0008C93888182230AC0623051F4F8948C9106
:1033B000322F309583238C938881822B888304C09D
:1033C000F8948C91822B8C939FBFDF91CF910895BD
:1033D0000F931F93CF93DF931F92CDB7DEB7282FA4
:1033E00030E0F901E857FE4F8491F901EA55FE4FAC
:1033F0001491F901EC53FE4F04910023C9F0882386
:1034000021F069830E9472196981E02FF0E0EE0FCC
:10341000FF1FE051FE4FA591B4919FB7F8948C9196
:10342000611103C01095812301C0812B8C939FBF34
:103430000F90DF91CF911F910F910895CF93DF935C
:103440001F92CDB7DEB76983DC01ED91FC9102805C
:10345000F381E02D41E050E0BE016F5F7F4F0995A1
:103460000F90DF91CF910895CF93DF93EC018C857E
:103470009D8597FF05C082E00E94691F9D878C870C
:103480008C859D85DF91CF91089583E00C94BE21BA
:10349000FC018485958597FD06C082E00E94111F7E
:1034A00090E00196089582E00E94111F90E0089537
:1034B000FC018485958597FD05C02FEF3FEF35878B
:1034C0002487089582E00C94691FCF93DF93EC0169
:1034D00080919901882331F083E00E949A1F181689
:1034E000190634F081E090E09B838A8380E090E0CD
:1034F000DF91CF910895FC0120812E5F208342E46B
:1035000050E06CE072E080E80C943520FC01818191
:103510009081913A59F4813209F03CC047E050E083
:1035200062E971E080E00E94352043C0913291F55C
:10353000803239F467E070E082E991E00E94662011
:1035400006C0823209F035C0828180939901809152
:10355000920190919301A0919401B0919501803BCB
:103560009440A105B105C1F48091990180FD14C07A
:1035700087E797E790930108809300082BE088E1A4
:1035800090E00FB6F894A895809360000FBE20934A
:1035900060000FC080E0089588E10FB6F894809332
:1035A0006000109260000FBEA89510920108109262
:1035B000000881E00895109296061092950688EE14
:1035C00093E0A0E0B0E08093970690939806A093D4
:1035D0009906B0939A0681E794E0909394068093BD
:1035E00093068FEF9FEF9093A00680939F06089518
:1035F000FC01818D228D90E0805C9F4F821B9109A0
:103600008F7399270895FC01918D828D981731F061
:10361000828DE80FF11D858D90E008958FEF9FEF6B
:103620000895FC01918D828D981761F0828DDF01E4
:10363000A80FB11D5D968C91928D9F5F9F73928FA5
:1036400090E008958FEF9FEF089585E99CE1892B25
:1036500049F080E090E0892B29F00E94951C8111AF
:103660000C9400000895FC01848DDF01A80FB11DAA
:10367000A35ABF4F2C91848D90E001968F739927A8
:10368000848FA689B7892C93A089B1898C91806495
:103690008C93938D848D981306C00288F389E02D56
:1036A00080818F7D80830895CF93DF93EC01888D97
:1036B0008823C9F0EA89FB89808185FD05C0A88936
:1036C000B9898C9186FD0FC00FB607FCF5CF8081BC
:1036D00085FFF2CFA889B9898C9185FFEDCFCE0106
:1036E0000E94331BE7CFDF91CF910895CF92DF92F5
:1036F000FF920F931F93CF93DF931F92CDB7DEB747
:103700006C01DC015B969C915B975C968C915C975D
:10371000981307C05096ED91FC915197808185FDDB
:1037200032C0F601038D10E00F5F1F4F0F7311279A
:10373000F02EF601848DF81211C00FB607FCF9CFF8
:10374000D6015096ED91FC915197808185FFF1CF84
:10375000C60169830E94331B6981EBCF838DE80F1B
:10376000F11DE35AFF4F6083D6015B960C935B9784
:103770005296ED91FC91539780818062808381E025
:1037800058968C930DC0D6015696ED91FC915797A3
:1037900060835096ED91FC91519780818064808385
:1037A00081E090E00F90DF91CF911F910F91FF90FA
:1037B000DF90CF900895BF92CF92DF92EF92FF9269
:1037C000CF93DF93EC016A017B01B22EE889F9897E
:1037D00082E08083411581EE580761057105A1F0F3
:1037E00060E079E08DE390E0A70196010E94C62594
:1037F000215031094109510956954795379527952B
:10380000211580E1380798F0E889F989108260E88D
:1038100074E88EE190E0A70196010E94C625215030
:103820003109410951095695479537952795EC85FA
:10383000FD853083EE85FF852083188EEC89FD8918
:10384000B082EA89FB89808180618083EA89FB8973
:10385000808188608083EA89FB8980818068808399
:10386000EA89FB8980818F7D8083DF91CF91FF90F2
:10387000EF90DF90CF90BF9008951F920F920FB6F8
:103880000F9211242F938F939F93EF93FF93E091C7
:10389000F306F091F4068081E091F906F091FA06C2
:1038A00082FD12C090818091FC068F5F8F73209102
:1038B000FD06821751F0E091FC06F0E0ED51F94F62
:1038C000958F8093FC0601C08081FF91EF919F91BD
:1038D0008F912F910F900FBE0F901F9018951F92F0
:1038E0000F920FB60F9211242F933F934F935F9334
:1038F0006F937F938F939F93AF93BF93EF93FF93B8
:1039000083EE96E00E94331BFF91EF91BF91AF9140
:103910009F918F917F916F915F914F913F912F91E7
:103920000F900FBE0F901F90189583EE96E00E94A7
:10393000F81A21E0892B09F420E0822F08951092D3
:10394000E6061092E50688EE93E0A0E0B0E08093F2
:10395000E7069093E806A093E906B093EA0681E8AB
:1039600094E09093E4068093E3068DEC90E09093CE
:10397000F0068093EF068CEC90E09093F206809333
:10398000F10688EC90E09093F4068093F30689ECBE
:1039900090E09093F6068093F5068AEC90E0909381
:1039A000F8068093F7068EEC90E09093FA068093E9
:1039B000F9061092FC061092FD061092FE06109277
:1039C000FF06089508950E941C190E94E21C87E8D2
:1039D00097E00E941E220E944A05C5E2DBE10E9498
:1039E000E5062097E1F30E94251BF9CFCF92DF92E5
:1039F000EF92FF920F931F93CF93DF936C017A01A5
:103A0000EB01E60EF71E00E010E0CE15DF0561F0D9
:103A10006991D601ED91FC910190F081E02DC601F4
:103A20000995080F191FF1CFC801DF91CF911F91A0
:103A30000F91FF90EF90DF90CF9008956115710581
:103A400081F0DB010D900020E9F7AD0141505109F3
:103A5000461B570BDC01ED91FC910280F381E02DB8
:103A6000099480E090E00895EF92FF920F931F93E6
:103A7000CF93DF938C01FB01C0E0D0E064917F0124
:103A80008FEFE81AF80A662361F0D801ED91FC91F6
:103A90000190F081E02DC8010995C80FD91FF701E9
:103AA000EDCFCE01DF91CF911F910F91FF90EF905D
:103AB00008950C941E1DDC01ED91FC910190F081A4
:103AC000E02D09940F931F93CF93DF93EC016DE0EA
:103AD0000E945B1D8C016AE0CE010E945B1D800F7D
:103AE000911FDF91CF911F910F9108950F931F9315
:103AF000CF93DF93EC010E94341D8C01CE010E9414
:103B0000621D800F911FDF91CF911F910F9108953A
:103B10000F931F93CF93DF93EC010E941E1D8C0126
:103B2000CE010E94621D800F911FDF91CF911F91E6
:103B30000F9108958F929F92AF92BF92CF92DF9292
:103B4000EF92FF920F931F93CF93DF93CDB7DEB722
:103B5000A1970FB6F894DEBF0FBECDBF7C01C42E77
:103B6000E52FCB01D22E19A221E02D1510F02AE06D
:103B7000D22E8E010F5D1F4F8D2C912CA12CB12CBC
:103B80006C2D7E2FA50194010E94C6258C2DD29EFE
:103B900080191124015011098A3014F4805D01C08C
:103BA000895CF8018083211531054105510521F01B
:103BB000C22EE32FCA01E4CFB801C7010E941E1D27
:103BC000A1960FB6F894DEBF0FBECDBFDF91CF91A7
:103BD0001F910F91FF90EF90DF90CF90BF90AF902B
:103BE0009F908F9008952115310541F4DC01ED91EE
:103BF000FC910190F081E02D642F09940C949A1DA2
:103C00009A01462F50E060E070E00C94F31D823082
:103C1000A1F028F4882341F0813049F008958330E1
:103C200091F08430B1F0089510926E000895809163
:103C30006F008D7F80936F000895809170008D7F5D
:103C4000809370000895809171008D7F8093710042
:103C50000895809172008F7B8093720008951F9267
:103C60000F920FB60F9211242F933F934F935F93B0
:103C70006F937F938F939F93AF93BF93EF93FF9334
:103C80008091830790918407A0918507B091860762
:103C9000892B8A2B8B2B51F190918007E091810722
:103CA000F09182078081892780838091830790919A
:103CB0008407A0918507B0918607181619061A0681
:103CC0001B062CF58091830790918407A0918507AE
:103CD000B09186070197A109B1098093830790935A
:103CE0008407A0938507B093860711C083E00E94E4
:103CF000071E20918007E0918107F0918207808163
:103D000090E030E020953095822393238083FF91CB
:103D1000EF91BF91AF919F918F917F916F915F9143
:103D20004F913F912F910F900FBE0F901F901895BC
:103D300040918B0750918C072091890730918A0719
:103D400042175307B4F49091E8009570E1F3909115
:103D5000E80092FD19C08093F10080918B0790914B
:103D60008C0701968F739927892B19F48EEF809316
:103D7000E80080918B0790918C07019690938C07B7
:103D800080938B0781E0089580E00895CF92DF92C1
:103D9000FF920F931F93CF93DF931F92CDB7DEB7A0
:103DA000082F162F862F880F8E5F99830E94981EEA
:103DB00083E00E94981EF02EC02E9981D92E8C2D62
:103DC0008F19811778F4F60184910E94981E082FAC
:103DD00080E00E94981E8023FFEFCF1ADF0A811136
:103DE000EECF01C081E00F90DF91CF911F910F9135
:103DF000FF90DF90CF900895615030F02091F10056
:103E0000FC0120830196F8CF289884E680938E07E2
:103E100008952FB7FC012083F89467706093E90040
:103E20000895CF93DF931F92CDB7DEB7682FCE01F1
:103E300001960E94091F8091F20099819FBF0F9007
:103E4000DF91CF910895FF920F931F93CF93DF934C
:103E500000D0CDB7DEB7F62E8A0190918D07992359
:103E600011F057FF03C08FEF9FEF2BC0682FCE01DB
:103E700001967A830E94091F8091F20090E0A801C8
:103E80007A81801791070CF4AC01EF2DF72FF40E17
:103E900084E6FE1639F0289880938E079091F10001
:103EA0009193F7CF4115510521F08091F2008823BD
:103EB00021F089818FBFCA0104C08BE68093E8009E
:103EC000F8CF0F900F90DF91CF911F910F91FF903E
:103ED0000895CF93DF931F92CDB7DEB741E050E056
:103EE000BE016F5F7F4F0E94231F019719F48981E4
:103EF00090E002C08FEF9FEF0F90DF91CF91089578
:103F0000CF93DF931F92CDB7DEB7682FCE01019616
:103F10000E94091F9091E800892F807295FF04C0CC
:103F20009091F20080E4891B99819FBF0F90DF91EF
:103F3000CF9108956F927F928F929F92AF92BF928E
:103F4000CF92DF92EF92FF920F931F93CF93DF9365
:103F50001F92CDB7DEB7782E7B01C42EB52E80918F
:103F60008D07882369F0042F152F8AEFD82E872D0F
:103F70008072982E9AE3A92E872D8074882E11C006
:103F80008FEF9FEF57C0872D0E94801F682E8111F1
:103F90000CC0DA94A9F361E070E080E090E00E9448
:103FA000F4180115110579F73BC0282F30E00217EE
:103FB00013070CF4602E672DCE0101960E94091F95
:103FC0008091E80085FF29C0262D30E0021B130BED
:103FD000992039F06A948FEF6816B1F01092F100D1
:103FE000F9CFF701862D77FE07C0815058F09491E4
:103FF0009093F1003196F9CF815020F091919093F8
:10400000F100FACFE20EF31E8091E80085FF0FC0A9
:104010000115110511F481100AC089818FBFC1CF2C
:104020005D9884E680938F078C2D9B2D03C0A09212
:10403000E800F3CF0F90DF91CF911F910F91FF9088
:10404000EF90DF90CF90BF90AF909F908F907F9038
:104050006F9008951092E90010928C0710928B07D0
:1040600090938A07809389070895CF92DF92FF92F9
:104070000F931F93CF93DF9300D0CDB7DEB7F82E09
:104080008A016B0101151105B1F0F601F7FE02C0BE
:10409000849101C0808149835A830E94981E0150F7
:1040A0001109FFEFCF1ADF0A49815A818111EACF46
:1040B0008FEF9FEF01C0CA010F900F90DF91CF915A
:1040C0001F910F91FF90DF90CF9008951F93CF9392
:1040D000DF931F92CDB7DEB7162F2091E80022FFA5
:1040E000FCCF612F79830E94FC1E8BEF8093E80048
:1040F000812F7981972F0F90DF91CF911F91089594
:10410000CF93DF931F92CDB7DEB71982CE01019610
:104110000E947B1ACE0101960E940823898190E0BB
:104120000F90DF91CF9108951F920F920FB60F92CB
:104130001124EF92FF920F931F932F933F934F936E
:104140005F936F937F938F939F93AF93BF93EF93FF
:10415000FF93CF93DF93CDB7DEB76297DEBFCDBFBE
:104160001092E9008091E80083FFEBC068E0CE0187
:104170000A960E94FC1E82EF8093E8009A8597FFC2
:1041800005C08091E80080FFFCCF03C08EEF8093D4
:10419000E800892F807609F0B9C08B85811105C0B0
:1041A0001092F1001092F100C5C0282F2D7F213010
:1041B00009F4C0C0853049F48091E80080FFFCCF4D
:1041C0008C8580688093E300B5C0863009F076C0A6
:1041D0002D85E888F988223071F580E090E02A8BFF
:1041E0000E942A200E94802099E08E010F5F1F4FBD
:1041F000F801392F11923A95E9F799832A892A8390
:1042000091E09E8390E898879AEF998720918B0799
:1042100030918C07275F3F4F3C832B838D83C701F1
:104220000E942A2049E050E0B80180E00E94352039
:104230000E9480207FC0C7012A8B0E942A202A89E1
:10424000223241F482E290E00E941323892B09F08C
:1042500071C074C0213069F488899989089711F474
:104260002093880780918807811118C065E672E065
:104270001AC0233009F062C08C85882391F0823007
:1042800021F460E183E892E006C0813009F056C075
:104290006BE087E792E00E94C61E4AC063E572E0C9
:1042A00002C064E972E06115710509F447C0FB01C1
:1042B000449150E080E80E9435203CC0873009F4EA
:1042C0003DC0883021F481E08093F10033C0893013
:1042D00089F5937099F5EFE4F2E081E021E096E34F
:1042E0008093E9002093EB0034913093EC0090939D
:1042F000ED008F5F3196853099F78EE78093EA0065
:104300001092EA008C8580938D0714C08889998962
:104310000E942A208E85811105C0CE010A960E9436
:10432000861A06C0823051F4CE010A960E943B23C1
:10433000882321F08EEF8093E80003C081E2809310
:10434000EB0062960FB6F894DEBF0FBECDBFDF91D3
:10435000CF91FF91EF91BF91AF919F918F917F91FD
:104360006F915F914F913F912F911F910F91FF900E
:10437000EF900F900FBE0F901F9018958093E9005B
:104380008091F200882319F08AE38093E800089571
:104390001F920F920FB60F9211242F933F934F93BA
:1043A0005F936F937F938F939F93AF93BF93EF939D
:1043B000FF938091E1001092E10083FF0FC0109203
:1043C000E90091E09093EB001092EC0092E390935F
:1043D000ED0010928D0798E09093F00082FF1DC0D1
:1043E00083E00E94BE2180918F07882339F080915D
:1043F0008F07815080938F07882369F080918E0703
:10440000882359F080918E07815080938E07811107
:1044100004C0289A02C05D9AF1CFFF91EF91BF913D
:10442000AF919F918F917F916F915F914F913F914C
:104430002F910F900FBE0F901F90189510928D071F
:1044400081E08093D70080EA8093D80082E189BD23
:1044500009B400FEFDCF61E070E080E090E00E94D2
:10446000F41880E98093D8008CE08093E2001092E9
:10447000E000559A209A0895FC01808191810C9466
:10448000DB26CF93DF93EC0188819981009711F0AF
:104490000E94DB26198218821D821C821B821A82CE
:1044A000DF91CF9108950F931F93CF93DF93EC018A
:1044B0008B016F5F7F4F888199810E946A270097E7
:1044C00031F0998388831B830A8381E001C080E0F7
:1044D000DF91CF911F910F910895CF93DF93EC015E
:1044E00088819981892B29F08A819B81861797077A
:1044F00060F4CE010E945322882341F08C819D817B
:10450000892B19F4E881F981108281E0DF91CF9144
:104510000895EF92FF920F931F93CF93DF93EC01D7
:104520007B018A01BA010E946D22811104C0CE0173
:104530000E94412207C01D830C83B70188819981A5
:104540000E945B28CE01DF91CF911F910F91FF90C8
:10455000EF900895FC01118210821382128215825D
:1045600014826115710559F0FB0101900020E9F7F3
:10457000AF0141505109461B570B0C9489220895F5
:10458000CF93DF93EC01FB018617970761F0608101
:1045900071816115710529F0448155810E9489223C
:1045A00002C00E944122CE01DF91CF910895FC010B
:1045B000848195816817790720F480819181009723
:1045C00029F41092900780E997E00895860F971FCD
:1045D00008950895FF920F931F93CF93DF93EC01FB
:1045E000F62EE881F9810480F581E02D09958C0192
:1045F000E881F9810680F781E02D6F2DCE010995C4
:10460000C8019927DF91CF911F910F91FF900895D5
:10461000FC0120812F5F208349E150E068E173E0D5
:1046200080E80C94352045E650E061E373E080E8D3
:104630000C943520EF92FF920F931F93CF93DF934B
:104640001F92CDB7DEB789838B017A0141E050E03C
:10465000BE016F5F7F4F84E00E949A1FA701B801DF
:1046600084E40E949A1F0F90DF91CF911F910F91C8
:10467000FF90EF900895FC0191818081813A31F49F
:1046800081E0913091F0933089F411C0813271F45E
:104690009B3021F4828180939B0105C09A3031F4D4
:1046A000828180939A0181E00895089580E00895C1
:1046B00048E050E082E00C941A23CF93DF93DC01B2
:1046C000683818F0E8E7E60F25C0E62FF0E067FF4E
:1046D00011C0E058F10981E090E001C0880FEA952F
:1046E000EAF714969C911497982B14969C93149720
:1046F000E0E010C0E856FD4FE491EE2309F440C01D
:10470000E7FF08C014968C911497826014968C93DE
:104710001497EF7716968C9116978E1741F117968E
:104720008C9117978E1719F118968C9118978E17F0
:10473000F1F019968C9119978E17C9F01A968C91F1
:104740001A978E17A1F01B968C911B978E1779F0F4
:1047500080E090E0ED01C80FD91F2E81211102C029
:10476000EE8305C0019686309105A1F709C0BD0111
:104770006C5F7F4FCD010E94582381E090E008C01C
:1047800081E090E013969C938E93129780E090E0E6
:10479000DF91CF910895683818F0E8E7E60F25C05B
:1047A000E62FF0E067FF12C0E058F10921E030E0A9
:1047B00001C0220FEA95EAF72095DC0114963C919E
:1047C0001497322314963C93E0E00FC0E856FD4F57
:1047D000E491EE2329F1E7FF08C0DC0114962C9147
:1047E00014972D7F14962C93EF7720E030E0EE2382
:1047F00051F0DC01A20FB31F16964C9116974E1381
:1048000002C016961C922F5F3F4F2630310579F774
:10481000BC016C5F7F4F0E94582381E090E00895B7
:1048200080E090E00895FC011682178210861186C0
:10483000128613861482BC016C5F7F4F0C94582340
:1048400010929D07109294071092930781E994E0CB
:10485000909392078093910708959CD008F481E08B
:1048600008950CD0D2C0CAD040F0C1D030F021F4AD
:104870005F3F19F0B3C05111FCC0B6C0D7D098F358
:104880009923C9F35523B1F3951B550BBB27AA27D1
:1048900062177307840738F09F5F5F4F220F331F43
:1048A000441FAA1FA9F333D00E2E3AF0E0E830D00F
:1048B00091505040E695001CCAF729D0FE2F27D012
:1048C000660F771F881FBB1F261737074807AB07E0
:1048D000B0E809F0BB0B802DBF01FF2793585F4F55
:1048E0002AF09E3F510568F079C0C3C05F3FECF3EA
:1048F000983EDCF3869577956795B795F7959F5F1A
:10490000C9F7880F911D9695879597F90895E1E06D
:10491000660F771F881FBB1F621773078407BA07CC
:1049200020F0621B730B840BBA0BEE1F88F7E09527
:10493000089504D06894B1119CC008957FD088F088
:104940009F5790F0B92F9927B751A0F0D1F0660F7B
:10495000771F881F991F1AF0BA95C9F712C0B13096
:1049600081F086D0B1E0089583C0672F782F882723
:10497000B85F39F0B93FCCF3869577956795B395D5
:10498000D9F73EF490958095709561957F4F8F4F44
:104990009F4F0895990F0008550FAA0BE0E8FEEF0E
:1049A00016161706E807F907C0F012161306E407F3
:1049B000F50798F0621B730B840B950B39F40A26EC
:1049C00061F0232B242B252B21F408950A2609F4CA
:1049D000A140A6958FEF811D811D089597F99F67CE
:1049E00080E870E060E008959FEF80EC0895002477
:1049F0000A941616170618060906089500240A9444
:104A000012161306140605060895092E0394000CC9
:104A100011F4882352F0BB0F40F4BF2B11F460FF58
:104A200004C06F5F7F4F8F4F9F4F089557FD905881
:104A3000440F551F59F05F3F71F04795880F97FB62
:104A4000991F61F09F3F79F087950895121613061C
:104A50001406551FF2CF4695F1DF08C0161617064B
:104A60001806991FF1CF8695710561050894089580
:104A7000E894BB2766277727CB0197F908950BD0D9
:104A8000C4CFB5DF28F0BADF18F0952309F0A6CF20
:104A9000ABCF1124EECFCADFA0F3959FD1F3950FD2
:104AA00050E0551F629FF001729FBB27F00DB11DB2
:104AB000639FAA27F00DB11DAA1F649F6627B00D42
:104AC000A11D661F829F2227B00DA11D621F739F2B
:104AD000B00DA11D621F839FA00D611D221F749F39
:104AE0003327A00D611D231F849F600D211D822F80
:104AF000762F6A2F11249F5750408AF0E1F08823C7
:104B00004AF0EE0FFF1FBB1F661F771F881F9150D3
:104B10005040A9F79E3F510570F060CFAACF5F3F8C
:104B2000ECF3983EDCF3869577956795B795F79506
:104B3000E7959F5FC1F7FE2B880F911D969587958E
:104B400097F90895DB018F939F930E940D26BF91E3
:104B5000AF91A29F800D911DA39F900DB29F900DCC
:104B60001124089597FB072E16F4009407D077FDC3
:104B700009D00E94202607FC05D03EF4909581952F
:104B80009F4F0895709561957F4F0895A1E21A2E69
:104B9000AA1BBB1BFD010DC0AA1FBB1FEE1FFF1FE1
:104BA000A217B307E407F50720F0A21BB30BE40B31
:104BB000F50B661F771F881F991F1A9469F7609578
:104BC0007095809590959B01AC01BD01CF01089532
:104BD000052E97FB1EF400940E94FF2557FD07D079
:104BE0000E94C62507FC03D04EF40C94FF25509577
:104BF0004095309521953F4F4F4F5F4F08959095C9
:104C00008095709561957F4F8F4F9F4F0895EE0F60
:104C1000FF1F0590F491E02D09940E943426A59F72
:104C2000900DB49F900DA49F800D911D11240895A7
:104C3000B7FF0C940D260E940D26821B930B08953E
:104C4000AA1BBB1B51E107C0AA1FBB1FA617B707B2
:104C500010F0A61BB70B881F991F5A95A9F78095CE
:104C60009095BC01CD010895A29FB001B39FC001F2
:104C7000A39F700D811D1124911DB29F700D811D88
:104C80001124911D0895CF93DF938230910510F484
:104C900082E090E0E091A007F091A10720E030E0F1
:104CA000A0E0B0E0309739F14081518148175907B1
:104CB000B8F04817590771F482819381109729F051
:104CC00013969C938E9312972CC09093A107809378
:104CD000A00727C02115310531F04217530718F0FE
:104CE000A901DB0101C0EF019A01BD01DF010280D2
:104CF000F381E02DD7CF21153105F9F0281B390BB1
:104D00002430310580F48A819B816115710521F081
:104D1000FB019383828304C09093A1078093A00733
:104D2000FE01329644C0FE01E20FF31F819391937E
:104D300022503109398328833AC020919E0730914F
:104D40009F07232B41F420910201309103013093FE
:104D50009F0720939E0720910001309101012115AA
:104D6000310541F42DB73EB7409104015091050142
:104D7000241B350BE0919E07F0919F07E217F30784
:104D8000A0F42E1B3F0B2817390778F0AC014E5FBB
:104D90005F4F2417350748F04E0F5F1F50939F0752
:104DA00040939E078193919302C0E0E0F0E0CF0131
:104DB000DF91CF910895CF93DF93009709F487C0D7
:104DC000FC01329713821282C091A007D091A107F3
:104DD000209781F420813181280F391F80919E070F
:104DE00090919F078217930779F5F0939F07E093BF
:104DF0009E076DC0DE0120E030E0AE17BF0750F423
:104E000012964D915C9113979D014115510509F141
:104E1000DA01F3CFB383A28340815181840F951FC0
:104E20008A179B0771F48D919C911197840F951FA0
:104E300002969183808312968D919C911397938310
:104E400082832115310529F4F093A107E093A0078F
:104E50003EC0D9011396FC93EE9312974D915D914C
:104E6000A40FB51FEA17FB0779F480819181840FA5
:104E7000951F0296D90111969C938E9382819381FE
:104E800013969C938E931297E0E0F0E08A819B81C9
:104E9000009719F0FE01EC01F9CFCE0102962881AE
:104EA0003981820F931F20919E0730919F07281709
:104EB000390769F4309729F41092A1071092A007DE
:104EC00002C013821282D0939F07C0939E07DF9186
:104ED000CF910895A0E0B0E0E0E7F7E20C947628E7
:104EE000EC01CB01209719F40E944326B8C0FE01C3
:104EF000E60FF71F9E0122503109E217F30708F46D
:104F0000ACC0D9010D911C91119706171707B8F085
:104F10000530110508F49FC0A801445051094617F7
:104F2000570708F498C002501109061B170B01938C
:104F300011936D937C93CF010E94DB268CC05B01A3
:104F4000A01AB10A4E01800E911EA091A007B09147
:104F5000A107612C712C60E070E0109709F449C042
:104F6000A815B905C9F5ED90FC901197670142E0CD
:104F7000C40ED11CCA14DB0478F147018A189B08BF
:104F8000640142E0C40ED11C1296BC901297139695
:104F9000AC91B5E0CB16D10440F0B282A3839182EC
:104FA0008082D9018D939C9309C00E5F1F4F0E0D17
:104FB0001F1DF90111830083EB2DFA2F6115710577
:104FC00031F0DB011396FC93EE93129744C0F093FB
:104FD000A107E093A0073FC06D917C9111976616E1
:104FE000770608F43B01BD0112960D90BC91A02DEF
:104FF000B4CF60919E0770919F0768157905E9F419
:1050000068167906D0F440910001509101014115D4
:10501000510541F44DB75EB76091040170910501EF
:10502000461B570BE417F507C0F4F0939F07E09376
:105030009E07F901918380830EC00E9443267C0164
:10504000009759F0A801BE010E945228CE010E948B
:10505000DB26C70104C0CE0102C080E090E0CDB7DE
:10506000DEB7EEE00C949228FC0188279927E8949B
:1050700021912032E9F3293010F02E30C8F32B3281
:1050800041F02D3239F4689404C00E946228820FE6
:10509000911D219120532A30C0F31EF490958195E3
:1050A0009F4F0895FB01DC0102C001900D92415019
:1050B0005040D8F70895FB01DC0101900D920020CB
:1050C000E1F708957AE0979F902D879F802D910DAD
:1050D00011240895F999FECF92BD81BDF89A9927C0
:1050E00080B508952F923F924F925F926F927F9278
:1050F0008F929F92AF92BF92CF92DF92EF92FF92E8
:105100000F931F93CF93DF93CDB7DEB7CA1BDB0B93
:105110000FB6F894DEBF0FBECDBF09942A88398838
:1051200048885F846E847D848C849B84AA84B9843F
:10513000C884DF80EE80FD800C811B81AA81B9814B
:10514000CE0FD11D0FB6F894DEBF0FBECDBFED015F
:10515000089513E0C0EAD3E004C0FE010E940926CE
:0C5160002296C23AD107C9F7F894FFCF9D
:10516C000000A2078000EE02FF0100FF00FF7702A3
:10517C007D028C0200910297029E020AA702AC02E9
:10518C00BA0214C002C602CD021ED202D702E3023A
:10519C0028E902F002FA0232FE0205030B033C106E
:1051AC000315031C0346200325032F035035033A34
:1051BC000344035A49034F035C0364620367036DA2
:1051CC00036E720378037F0378840389039103824F
:1051DC0096039B03A3038CA803AE03B80396BC03EE
:1051EC00C103C603A0CA03CF03D903AA3200280007
:1051FC00140400E1000000000000010132204243D1
:10520C00442042453A20000053656E74205061637F
:10521C006B65743A2000005265636569766564209D
:10522C00526177205061636B65743A2000005061C5
:10523C00796C6F616420646174613A2000003A00FB
:10524C0032306D0031376D0031356D0031326D000B
:10525C0031306D004552520064426D004F50455242
:10526C0000545820202020202020202020200056D0
:10527C00322E376420005152582053657269616C8C
:10528C0020434E534F4C0051525820494E49542004
:10529C0020202020200051525820494E49542047AC
:1052AC00505320444F0051525820494E49542052DB
:1052BC004144494F00202020202020202020202065
:1052CC00202020200054696D6520736C6F74206E53
:1052DC006F742073657400347531756E00556E698A
:1052EC00746564204E6174696F6E7300554E524341
:1052FC000076653861740043616E616461005241EF
:10530C00432F4E415243007736777800556E6974BF
:10531C00656420537461746573004E4344584600B1
:10532C006B6836727300486177616969004D415250
:10533C0043007A6C3662004E6577205A65616C6169
:10534C006E64004E5A41525400766B367262700095
:10535C004175737472616C696100574941006A61EF
:10536C0032696779004A6170616E004A41524C00A3
:10537C007272396F00527573736961005352520027
:10538C007672326200486F6E67204B6F6E67004812
:10539C0041525453003473376200537269204C618C
:1053AC006E6B61005253534C007A7336646E00532B
:1053BC006F75746820416672696361005A53364494
:1053CC004E00357A3462004B656E79610041525360
:1053DC004B0034783674750049737261656C004902
:1053EC00415243006F6832620046696E6C616E64B4
:1053FC00005352414C0063733362004D6164656924
:10540C007261004152524D006C7534616100417201
:10541C0067656E74696E6100524341006F6134625E
:10542C000050657275005243500079763562005613
:10543C00656E657A75656C61005243560047505233
:10544C004D43004750474741004E4E4500454E45A1
:10545C00004553450053534500535357005753577A
:10546C0000574E57004E4E570000000000BC0BF684
:10547C001C280C9B0B0E0C400C00000000900E63C3
:10548C000E380E400E530E620E000000007711F61F
:10549C001C05181A0C02120E1004170D1407060F17
:1054AC00161D0A080309110B191B1C2E553F4C53D2
:1054BC00454B360001000000009611971198119988
:1054CC0011000000009A119F119811991100000011
:1054DC00001E1A651A481A581A341A451A00000088
:1054EC0000761BF61CF81A111B031B541B00000042
:0C54FC0000EA22F61C5D23CB23132400E1
:00000001FF
