:100000000C94D1010C9488170C94B5170C94E2173A
:100010000C940F180C94F9010C94F9010C943C18F1
:100020000C94F9010C947C0C0C94B6210C94822055
:100030000C94F9010C94F9010C94F9010C94F90158
:100040000C94F9010C94F9010C94F9010C94F90148
:100050000C94F9010C94F9010C94F9010C946918B1
:100060000C94F9010C942B1C0C945D1C0C94F9015C
:100070000C94F9010C94F9010C94F9010C94F90118
:100080000C941D1E0C94F9010C94F9010C94F901C7
:100090000C94870F0C94F9010C94F9010C94F9015C
:1000A0000C94F9010C94F9010C94F90151096409BB
:1000B000740987098F09BB09C309CB09D309DA0978
:1000C000DA09DA09DA09DA09DA09DA09DA09DA0918
:1000D000DA09DA09DA09DA09DA09DA09DA09DA0908
:1000E000DA09DA09DA09DA09DA09DA0951095D09FE
:1000F0006409740987098F09A209AA09B209781944
:100100007B196A196E1974199C199C199C197F190D
:10011000831987198D1991199C1997196669782087
:1001200061676520494E56414C49440024504D5466
:100130004B3330302C313030302C302C302C302CB4
:10014000302A31430024504D544B3232302C313060
:1001500030302A31460024504D544B3331342C304A
:100160002C312C302C302C302C302C302C302C30AE
:100170002C302C302C302C302C302C302C302C309F
:100180002C302C302A3239000000000200090F0008
:1001900000030401000C000000000000000000004B
:1001A0000000000000000408020110408040102000
:1001B000408040800802040180402010020110802D
:1001C0001020404004040404040304050202020257
:1001D00004030202020206060606060604040202E0
:1001E0000204000000002300260029002C002F003C
:1001F00000000000250028002B002E003100000028
:100200000000240027002A002D003000080B000207
:10021000020201000904000001020200000524009E
:100220001001052401010104240206052406000131
:100230000705810310004009040100020A000000C4
:10024000070502024000000705830240000000C1CC
:100250008081C1120100020200004041233680006B
:10026000010102000112010002000000404123369A
:100270008000010102000141726475696E6F204CBB
:100280004C430041726475696E6F204C656F6E61FE
:1002900072646F0004030904000000000000000005
:1002A0002A2B2800000000000000000000000000D1
:1002B00000000000000000002C9EB4A0A1A2A43405
:1002C000A6A7A5AE362D3738271E1F2021222324AE
:1002D0002526B333B62EB7B89F8485868788898A4A
:1002E0008B8C8D8E8F909192939495969798999AE6
:1002F0009B9C9D2F3130A3AD350405060708090AE4
:100300000B0C0D0E0F101112131415161718191AC5
:100310001B1C1DAFB1B0B5000904020001030000B1
:100320000009210101000122650007058403400046
:100330000105010902A1010901A1008501050919B1
:1003400001290315002501950375018102950175A9
:1003500005810305010930093109381581257F75AB
:100360000895038106C0C005010906A101850205A3
:100370000719E029E7150025017501950881029507
:10038000017508810395067508150025650507198F
:100390000029658100C05C04E90EC91A8D1C0E2479
:1003A000880411241FBECFEFDAE0DEBFCDBF14E01A
:1003B000A0E0B1E0E8E4F1E502C005900D92AC39AF
:1003C000B107D9F727E0ACE9B4E001C01D92A23A29
:1003D000B207E1F713E0C0EAD3E004C02297FE01C0
:1003E0000E94F725C639D107C9F70E94D11C0C9489
:1003F00097280C940000CF93DF938091E10490E064
:10040000019664EB70E00E94A0258093E104809146
:10041000E004882391F0C091DC04D091DD040E94B7
:10042000B3187093DD046093DC040E94B3186C1B56
:100430007D0B7093DF046093DE0481E08093E2041F
:10044000DF91CF91089584E090E00E9458289FEFBB
:10045000980F913108F08FEF08951092E004809189
:10046000DE049091DF04892B99F02091DE04309115
:10047000DF04C901880F991F820F931F97FD039610
:10048000959587959595879590930701809306019B
:10049000089585EA94E00E94431240E050E060EB4A
:1004A00071E485EA94E00C9448120F931F93CF9364
:1004B000DF9300D000D000D0CDB7DEB78C0160E074
:1004C00085E00E94D61960E08CE00E94D61960E0B9
:1004D00086E00E94D61960E084E00E94D61961E0AF
:1004E00089E00E94D619B801CE0101960E94982297
:1004F000BE016F5F7F4F85EA94E00E94B412CE0187
:1005000001960E942A2285EA94E00E94831381E0EA
:100510008093DB0460E085E00E94D61926960FB632
:10052000F894DEBF0FBECDBFDF91CF911F910F9129
:1005300008958F3009F44BC0D8F48A3009F45CC0B8
:100540008C3009F06EC080ED96E6ACE7B1E08093A8
:10055000A1049093A204A093A304B093A40447E041
:1005600061E083EE94E00E94D11068EE71E06DC00E
:100570008131C1F0843109F054C080E296E2A7EDE8
:10058000B0E08093A1049093A204A093A304B0933D
:10059000A40447E061E083EE94E00E94D1106CED8A
:1005A00071E053C080E396E5A4E1B1E08093A1043B
:1005B0009093A204A093A304B093A40447E061E045
:1005C00083EE94E00E94D11060EE71E03EC080E3C3
:1005D00099EBA2E4B1E08093A1049093A204A093CC
:1005E000A304B093A40447E061E083EE94E00E948A
:1005F000D11064EE71E029C080E49CE4AEEAB1E081
:100600008093A1049093A204A093A304B093A404A4
:1006100047E061E083EE94E00E94D1106CEE71E05F
:1006200014C080E49CE4AEEAB1E08093A10490930E
:10063000A204A093A304B093A40447E061E083EE76
:1006400094E00E94D11060EF71E083EE94E00E948C
:10065000471D4091A1045091A2046091A3047091A0
:10066000A4048CE994E00E944B161092DB040895D8
:10067000CF93C82F4BE061E083EE94E00E94D1104D
:100680004AE050E06C2F83EE94E00E94EE1D4DE0B6
:1006900061E083EE94E00E94D11064EF71E083EE9C
:1006A00094E00E94471DCE3171F038F4C43169F4F2
:1006B00061E08DE00E94D61908C0C83241F0C23313
:1006C00021F449EF05C042E003C040E001C04EE123
:1006D00061E070E08CE994E0CF910C94D816682F1B
:1006E0008DE00C94D61961E08CE00E94D61961E08F
:1006F00085E00E949D1961E08CE00E949D1980E0D8
:100700000E946F0326E040EC52E160E070E083EE6F
:1007100096E00E94C91B63E070E08CE994E00E94BF
:10072000241640E062E470E08CE994E00E94D81660
:100730006AE070E08CE994E00E94B11640E86AE05B
:1007400070E08CE994E00E9479166AE070E08CE930
:1007500094E00E94B11680E296E2A7EDB0E08093AB
:10076000A1049093A204A093A304B093A40440E234
:1007700056E267ED70E08CE994E00C944B1660E073
:100780008DE00E94D61961E08CE00E94D61980E0CD
:100790000E946F0360E086E00E94D61960E089E065
:1007A0000E94D61961E084E00E94D61940E061E021
:1007B00083EE94E00E94D11068EF71E083EE94E044
:1007C0000E94471D60E085E00C94D619CF93C82F96
:1007D00040E061E083EE94E00E94D1106DEF71E0A3
:1007E00083EE94E00E94471D8C2F0E94990282E3C1
:1007F0000E94380380E00E946F0366E870E080E0AA
:1008000090E00E94E218E091090187E0E89FF00182
:100810001124E65FFE4F808191810E9455026AEFAC
:1008200070E080E090E00E94E21861E085E00E94C4
:10083000D61963EE73E080E090E00E94E21860E079
:1008400085E00E94D61988E20E94380361E085E0C5
:100850000E94D61963EE73E080E090E00E94E218F7
:1008600060E085E00E94D6198EE10E94380361E0C5
:1008700085E00E94D61963EE73E080E090E00E946C
:10088000E21860E085E00E94D61984E10E943803F6
:1008900081E00E946F0361E085E00E94D61963EE5B
:1008A00073E080E090E00E94E21860E085E00E9442
:1008B000D619CF910C94BF030F9320E04BE068E072
:1008C0008AE595E00E944F0D87EE94E00E94DC06D9
:1008D00000E028E230E040E162E083EE94E00E9434
:1008E000BB1020E030E040E451E465E070E085EAD0
:1008F00094E00E94901380EA94E00E949C1320EA06
:1009000034E046E760EE8CE994E00F910C94091412
:1009100089E594E09093A6048093A5048DEA94E081
:100920000E942A228AE595E00C94F60C8F929F9201
:10093000AF92BF92CF92DF92EF92FF920F931F93ED
:10094000CF93DF93CDB7DEB72C970FB6F894DEBF09
:100950000FBECDBF6B017C0183E996E00E94331A84
:100960008AE595E00E94530C81E0C81AD108E1089D
:10097000F1081C141D041E041F040CF063C08AE55A
:1009800095E00E94160C892B09F455C08AE595E084
:100990000E94890B182F682F83E996E00E940C1A99
:1009A00083E996E00E94331A612F87EE94E00E945B
:1009B000E3098823C9F283E996E00E94501D9E0155
:1009C0002F5F3F4F4901CE0107965C01295F3F4FE2
:1009D000690102967C018E01065F1F4F2D5F3F4F1C
:1009E000AE01445F5F4FBE016B5F7F4F87EE94E0C7
:1009F0000E94B90A89819A81AB81BC818F3F9F4F48
:100A0000AF4FBF4F89F02985888590E03CE3239F55
:100A1000800D911D112464EB70E00E94A0258F5F72
:100A20008093E10411E00FC06CE171E083E996E08E
:100A30000E94221D07C064E670E080E090E00E9402
:100A4000E21892CF10E08AE595E00E943D0C83E920
:100A500096E00E94331A812F2C960FB6F894DEBFD1
:100A60000FBECDBFDF91CF911F910F91FF90EF90FF
:100A7000DF90CF90BF90AF909F908F900895CF93CD
:100A80000E9423028093090161E08DE00E949D197C
:100A900080E00E946F0361E08CE00E949D190E943B
:100AA000BF0361E086E00E949D1961E084E00E943E
:100AB0009D1961E089E00E949D1960E084E00E9438
:100AC000D61960E089E00E94D61961E086E00E94B4
:100AD000D61983EE94E00E944A1183EE94E00E94BE
:100AE000441140E060E083EE94E00E94D1106BE09E
:100AF00072E083EE94E00E94471D47E060E083EEE1
:100B000094E00E94D110A0910901C7E0CA9FD001D2
:100B10001124A65FBE4F6D917C9183EE94E00E94FC
:100B2000471D4CE060E083EE94E00E94D110E0911C
:100B30000901CE9FF0011124E65FFE4F4AE050E02C
:100B4000668183EE94E00E94EE1D40E061E083EE5A
:100B500094E00E94D11066E172E083EE94E00E947E
:100B6000471D40E061E083EE94E00E94D11067E20F
:100B700072E083EE94E00E94471D62E083E00E94F1
:100B80009D1943E050E06BEF71E084E00E9438175C
:100B900040E855E260E070E08AE595E00E947F0D54
:100BA00066E571E08AE595E00E94641D65E471E008
:100BB0008AE595E00E94641D6CE271E08AE595E0AB
:100BC0000E94641D68EE73E080E090E00E94E218ED
:100BD0008AE595E00E943D0C40E061E083EE94E000
:100BE0000E94D11066E372E083EE94E00E94471DFC
:100BF0006FEF7FEF8FEF9FE70E9496048823C1F38A
:100C000081E08093E00468E873E180E090E00E9476
:100C1000E2180E942D0240E061E083EE94E00E9421
:100C2000D11066E472E083EE94E00E94471D0E94BA
:100C300073030E94490240E061E083EE94E00E9469
:100C4000D11065E572E083EE94E00E94471D40E01C
:100C500061E083EE94E00E94D11068EF71E083EED2
:100C600094E00E94471D60E086E00E94D61960E093
:100C700089E00E94D61961E084E0CF910C94D619E6
:100C8000CF93DF93C091E10480910901D0E097E018
:100C9000899FF0011124E65FFE4F9681C91BD1099F
:100CA00045E061E08F3F61F483EE94E00E94D11053
:100CB00065E672E083EE94E0DF91CF910C94471DDE
:100CC00083EE94E00E94D11069E572E083EE94E037
:100CD0000E94471D45E061E083EE94E00E94D11040
:100CE0006091E1044AE050E083EE94E00E94EE1D42
:100CF000C431D10509F43FC084F4CF3F8FEFD8074A
:100D000009F124F4649609F440C04AC0209789F19F
:100D10002A9709F045C081E12FC0CC33D10591F16C
:100D20003CF4CE31D10561F1A897D1F58AE024C019
:100D3000C83AD10591F1CA3AD10591F5DF91CF9129
:100D40000C942D0285E08093080148E061E083EE79
:100D500094E00E94D1106CE572E083EE94E00E9472
:100D6000471D84E10E94990282E3DF91CF910C94A8
:100D7000380384E101C08FE0DF91CF910C94E6034A
:100D80008CE0FACF84E10E94990260E070E880E094
:100D900090E0DF91CF910C94960481E08093E00481
:100DA000DF91CF9108958091E204882321F0109281
:100DB000E2040C94400608950F931F93FC010FEF7B
:100DC0001FEF9801008311832283338310861186DD
:100DD000128613864FEF59EC6AE97BE3408B518B07
:100DE000628B738B408F518F628F738F40A351A39F
:100DF00062A373A340A751A762A773A740AB51ABEF
:100E000062AB73AB00AF11AF22AF33AFDC01A05CBC
:100E1000BF4F8FEF90E011969C938E9314960D9395
:100E20001D932D933C93139718960D931D932D931B
:100E30003C93139718961C9211961C92509682E040
:100E40008C9311961C9211961C9211961C921196DD
:100E50001D921D921D921C921397149611961C922E
:100E60001E9212961D921C92EA5AFF4F10821F91F9
:100E70000F9108952FEB260F862F992787FD9095C8
:100E8000263010F4C79708956156663018F48755D8
:100E900091090895C09708950F931F93FB0160E097
:100EA00070E0CB01019120ED200F2A30A0F4AAE0E0
:100EB000B0E09B01AC010E94FB25112707FD1095B6
:100EC000212F312F600F711F821F931F60537109F3
:100ED00081099109E7CF1F910F9108950F931F93F7
:100EE000CF93FC01EA5AFF4FC1E020812D3219F067
:100EF000C0E08F0103C08C01095A1F4FB8010E9446
:100F00004C079B01AC01A4E6B0E00E94FB25F80170
:100F1000DF01219130ED320F3A30D0F32E3269F5F6
:100F200011962C91119730ED320F3A3030F533276E
:100F300027FD3095205331094AE0429F8001439FAD
:100F4000100D1124222717FD2095322F600F711FDD
:100F5000821F931F12960C9120ED200F2A3068F407
:100F6000112707FD109500531109222717FD209521
:100F7000322F600F711F821F931FCC2339F0909581
:100F80008095709561957F4F8F4F9F4FCF911F91A7
:100F90000F9108954F925F926F927F928F929F92DE
:100FA000AF92BF92CF92DF92EF92FF92CF93DF93F7
:100FB000EC01CA5ADF4FBE010E944C072B013C01D5
:100FC00024E630E040E050E00E94B4259B01AC01F3
:100FD00060EA76E881E090E00E9490256B017C0158
:100FE000FE01819190ED980F9A30D8F38E3219F569
:100FF000EF0180E1882E87E2982EA12CB12CA991D7
:1010000080ED8A0F8A30B8F4BB27A7FDB095D09742
:10101000A50194010E940626C60ED71EE81EF91EE1
:10102000C501B4012AE030E040E050E00E94B42560
:1010300049015A01E4CFC701B6016D5F7F4F8F4F61
:101040009F4F26E030E040E050E00E94B425690167
:101050007A01C301B20124E630E040E050E00E9492
:10106000B42560E472E48FE090E00E949025C60E03
:10107000D71EE81EF91EC701B601DF91CF91FF9080
:10108000EF90DF90CF90BF90AF909F908F907F9028
:101090006F905F904F900895DB01FA018D91882346
:1010A00019F091918917D1F3992787FD90950895AB
:1010B000CF92DF92EF92FF921F93CF93DF93EC01D9
:1010C000FC01EB5AFF4F1081112309F4A9C031969E
:1010D00060810E943A07182FFE01E95AFF4F608194
:1010E000CE010E943A0740E1149F800D1124FE01B9
:1010F000EC5AFF4F908189138AC074961081112396
:1011000009F458C13596808191810196918380833D
:10111000B59780819181A281B38134978083918337
:10112000A283B3833C9680819181A281B38134975D
:1011300080839183A283B383799680818823A1F1F0
:10114000813009F037C18C819D81AE81BF81888358
:101150009983AA83BB838C859D85AE85BF8588874F
:101160009987AA87BB878C899D89AE89BF89888B1F
:10117000998BAA8BBB8B8C8D9D8DAE8DBF8D888FEF
:10118000998FAA8FBB8F8CA59DA5AEA5BFA588A75B
:1011900099A7AAA7BBA78CA99DA9AEA9BFA988ABEF
:1011A00099ABAAABBBAB06C18CA19DA1AEA1BFA15F
:1011B00088A399A3AAA3BBA38C819D81AE81BF8183
:1011C00088839983AA83BB838C899D89AE89BF89D3
:1011D000888B998BAA8BBB8B8C8D9D8DAE8DBF8D93
:1011E000888F998FAA8FBB8FFE01E05CFF4FDE01D5
:1011F000AE5BBF4F8D919C91918380838CAD9DADF3
:10120000AEADBFAD88AF99AFAAAFBBAFD3C0C15928
:10121000DF4F8881998101969983888310E0CAC045
:10122000FC01EA59FF4F30818B599F4F7C013111EE
:101230001DC06E0196E5C90ED11C4DED53E0B601FF
:10124000CE010E944C08892B11F481E00CC043EEC2
:1012500053E0B601CE010E944C08892B19F4F70126
:101260001082A8C082E0D7018C93A4C0DC01EC916D
:10127000E23009F49FC0CE018A5A9F4FDC012C91C5
:10128000222309F497C0B0E2EB9FF0011124E32B75
:101290003197E932F10508F08DC0EA5AFF4F0C94FE
:1012A000F525CE010E946E076C837D838E839F831C
:1012B0000E94B318C85BDF4F12C0C859DF4F81E0EE
:1012C000213409F05DC05DC0CE010E94CA076C8B5D
:1012D0007D8B8E8B9F8B0E94B318C05BDF4F688322
:1012E00079838A839B8366C0233509F063C08C8928
:1012F0009D89AE89BF89B095A095909581959F4FA6
:10130000AF4FBF4F8C8B9D8BAE8BBF8B53C0CE012D
:101310000E94CA076C8F7D8F8E8F9F8F4BC02735A1
:1013200009F048C08C8D9D8DAE8DBF8DB095A09578
:10133000909581959F4FAF4FBF4F8C8F9D8FAE8FF4
:10134000BF8F38C0CE010E946E076CA77DA78EA705
:101350009FA730C0CE010E946E076CAB7DAB8EABF9
:101360009FAB28C0BC01CE010E944C076C877D87D3
:101370008E879F871FC0C859DF4F81E021330CF44F
:1013800080E0888317C00E942228CE5BDF4F992718
:10139000998388830FC0CE010E946E076CAF7DAF2A
:1013A0008EAF9FAF07C0CE010E946E076CA37DA3D6
:1013B0008EA39FA3812FDF91CF911F91FF90EF907C
:1013C000DF90CF900895CF92DF92EF92FF920F932C
:1013D0001F93CF93DF931F92CDB7DEB76C01262FFB
:1013E000FC01E759FF4F40815181628173814F5F5A
:1013F0005F4F6F4F7F4F40835183628373838C01B4
:1014000009591F4F8B5A9F4F7C01243281F12CF4D4
:101410002A3069F02D30E9F50AC02A3241F02C3229
:10142000C1F5F601EC5AFF4F808182278083F801D5
:1014300080818F3060F4F601E80FF11DEA5AFF4F0A
:101440001082C60129830E945808298101C080E0CA
:10145000F601EA59FF4F90819F5F9083F801108257
:1014600091E02A3209F090E0F70190832AC0F80158
:101470001082F601EA59FF4F10827297108271961E
:1014800082E08083F7011082F601E859FF4F108255
:1014900017C0F80180818E3048F491E0980F908356
:1014A000F601E80FF11DEA5AFF4F2083F701808112
:1014B000811106C0F601EC5AFF4F8081822780839C
:1014C00080E00F90DF91CF911F910F91FF90EF90EF
:1014D000DF90CF900895CF92DF92EF92FF920F931B
:1014E0001F93CF93DF93E9016115710551F0FC0162
:1014F000C084D184E284F384FB01C082D182E28281
:10150000F3824115510551F0FC01C080D180E28089
:10151000F380FA01C082D182E282F382209701F146
:101520008C010C5B1F4FF80180819181A281B381F6
:101530008F3F9F4FAF4FBF4F61F00E94B318F8012C
:101540000081118122813381601B710B820B930B0F
:1015500003C06FEF7FEFCB01688379838A839B831E
:10156000DF91CF911F910F91FF90EF90DF90CF907F
:1015700008952F923F924F925F926F927F928F9237
:101580009F92AF92BF92CF92DF92EF92FF920F9312
:101590001F93CF93DF93CDB7DEB72A970FB6F8949A
:1015A000DEBF0FBECDBF2B015A87498719019401B9
:1015B000AE014F5F5F4FBE016B5F7F4F0E946B0AB2
:1015C00041145104B9F06D817E818F81988524E6A4
:1015D00030E040E050E00E94B425613571051CF018
:1015E0002CE637E002C020ED37E0620F731FF201F6
:1015F0007183608389859A85892BB1F06D817E81A5
:101600008F81988544E6442E512C612C712CA301C6
:1016100092010E94B425CA01B901A30192010E945E
:10162000B425E985FA8560832114310461F06D8168
:101630007E818F81988520E137E240E050E00E9472
:10164000B425F10120830115110561F069817A81CA
:101650008B819C8120E432E44FE050E00E94B4256D
:10166000F8012083E114F104A1F069817A818B8172
:101670009C8120E137E240E050E00E94B425CA019D
:10168000B90124E630E040E050E00E94B425F701C3
:101690006083C114D104A9F069817A818B819C8116
:1016A00034E6432E512C612C712CA30192010E942F
:1016B000B425CA01B901A30192010E94B425F60123
:1016C0006083A114B10461F069817A818B819C816E
:1016D00024E630E040E050E00E94B425F50160834C
:1016E0002A960FB6F894DEBF0FBECDBFDF91CF9123
:1016F0001F910F91FF90EF90DF90CF90BF90AF9030
:101700009F908F907F906F905F904F903F902F9021
:1017100008952091BB053091BC0528173907B9F40D
:101720009091790580917A05981789F0E091790573
:10173000F0E0E558FA4F80812091790530E02F5F85
:101740003F4F2F7333272093790590E008958FEF53
:101750009FEF08951F93CF93DF93DC015C968D91EB
:101760009C915D97009749F481E090E013969C93DB
:101770008E93129780E090E03BC05196ED91FC91E2
:10178000529750962C915097322F30951FB75E96F6
:101790004C915E9741FB772770F941FD6095F89475
:1017A0004081772311F0422B01C043234083EC0199
:1017B0002197F1F748E0508160FF02C0522B01C031
:1017C00053235083EC012197F1F76695415099F727
:1017D0008081772311F0832301C0822B80831FBF78
:1017E0005C968D919C915D970197F1F781E090E077
:1017F000DF91CF911F9108952091BB053091BC05D9
:101800002817390781F49091790580917A05981706
:1018100051F0E0917905F0E0E558FA4F8081992781
:1018200087FD909508958FEF9FEF08952091BB0558
:101830003091BC052817390771F480917A05209101
:10184000790590E0805C9F4F821B910960E470E015
:101850000E94A025089580E090E008952091BB05A6
:101860003091BC052817390739F48FB7F8941092D6
:101870007A05109279058FBF0895E091BB05F0912C
:10188000BC05E817F90769F4A389B4899C91858997
:10189000809589238C931092BC051092BB0581E042
:1018A000089580E00895CF93DF93EC018A8D9B8D9E
:1018B000892BF1F08091BB059091BC058C179D0799
:1018C000B9F0009711F00E943D0C8E8D8E7F8E8FA7
:1018D00010927A0510927905D093BC05C093BB0590
:1018E000EB89FC8980819D89892B808381E001C0FF
:1018F00080E0DF91CF9108951F920F920FB60F9263
:1019000011242F933F934F935F936F937F938F9304
:101910009F93AF93BF93EF93FF93E091BB05F0913B
:10192000BC05309709F451C0868DA685B78595858D
:1019300081FF04C08C91892329F447C08C918923AD
:1019400009F043C0A389B4899C9185898095892336
:101950008C93868997890197F1F7208D318DA68523
:10196000B785758558E040E0C9010197F1F7842FEC
:1019700090E095958795482F6C91672309F0406812
:10198000515091F7868D81FD409580917A0590E0C8
:1019900001968F73992720917905281749F0A09116
:1019A0007A05B0E0A558BA4F4C9380937A0503C0EE
:1019B000868D8160868F828D938D0197F1F7A38943
:1019C000B4898C919589892B8C93FF91EF91BF916C
:1019D000AF919F918F917F916F915F914F913F91C7
:1019E0002F910F900FBE0F901F9018952DE034E0AF
:1019F000FC01318320830C943D0C1F93CF93DF9324
:101A0000EC01162F6E8D6695617081E06827812F3D
:101A10000E94D61961E0812F0E949D19812F90E0CC
:101A2000FC01EA55FE4FE491E88BFC01EC53FE4FBC
:101A3000E491F0E0EE0FFF1FE051FE4F859194918D
:101A40009A8B898BDF91CF911F9108951F93CF932C
:101A5000DF93EC01162F60E0812F0E949D198E8D7F
:101A600081FD04C061E0812F0E94D6191C87812F5F
:101A700090E0FC01EA55FE4FE491ED87FC01EC5348
:101A8000FE4FE491F0E0EE0FFF1FEE51FE4F859107
:101A900094919F878E87DF91CF911F910895FF9238
:101AA0000F931F93CF93DF93EC01F62E522F1B82DF
:101AB0001A8208EE13E020E030E00C831D832E83B1
:101AC0003F838DE094E0998388831F8A1E8A198E54
:101AD000188E1B8E1A8E1D8E1C8E8E8D8E7F50FB47
:101AE00081F98E8F642FCE010E94FD0C6F2DCE01E7
:101AF000DF91CF911F910F91FF900C94260DCF9302
:101B0000DF93EC019A01AB011B8E1A8E198E188E91
:101B10001F8A1E8A60E079E08DE390E00E94D6255E
:101B2000C9012430310520F0B9016350710902C0A8
:101B300061E070E07D8F6C8FEC85F8EFFE0FF43084
:101B400048F062EF6E0F643028F066EE6E0F63307F
:101B500008F06FC0B901769567956431710518F08A
:101B60006351710902C061E070E07F8B6E8B069754
:101B700018F0C901059702C081E090E0998F888F25
:101B8000C901880F991F820F931F96958795969587
:101B900087958D30910510F00C9702C081E090E0A0
:101BA0009B8F8A8FF43058F082EF8E0F843038F09C
:101BB000EA51E33008F042C0A8E6B0E041C0A8E630
:101BC000B0E0E8E6F0E0808181608C932C8538EF0E
:101BD000320F343040F082EF820F843020F086EEF6
:101BE000820F833018F48BE690E002C080E090E032
:101BF0009C8B8B8B343010F4245009C02E3069F04C
:101C00002F3069F0203169F0213169F0265181E0EF
:101C100001C0880F2A95EAF707C088E005C082E076
:101C200003C084E001C081E08D8B8C8D9D8D019778
:101C3000F1F7CE01DF91CF910C94530CA0E0B0E00E
:101C4000E33008F4BECFE0E0F0E0BDCF8091ED05D9
:101C500090E02091EE05821B910908952091EE05F8
:101C60008091ED05281750F4E22FF0E0E151FA4F92
:101C7000808190E02F5F2093EE0508958FEF9FEF16
:101C80000895E091EE058091ED05E81730F4F0E05D
:101C9000E151FA4F808190E008958FEF9FEF089512
:101CA0000895CF92DF92EF92FF920F931F93CF93FD
:101CB000DF937C01CB018A012091C905222389F0A1
:101CC000EB016B01C40ED51ECC15DD0569F06991E1
:101CD000D701ED91FC910190F081E02DC7010995AC
:101CE000F3CF642F0E945E0FC801DF91CF911F9147
:101CF0000F91FF90EF90DF90CF900895CF93DF93F7
:101D00001F92CDB7DEB769832091C9052223D1F098
:101D10002091CA05203240F021E030E0FC013383FD
:101D2000228380E090E015C08091CB05E82FF0E0A1
:101D3000E453FA4F998190838F5F8093CB05809312
:101D4000CA0505C061E0CE0101960E945E0F81E0E8
:101D500090E00F90DF91CF910895FC0113821282E1
:101D600048EE53E060E070E04483558366837783F8
:101D70008DE194E09183808308951092EE05109296
:101D8000ED051092CB051092CA050C94ED0E81E082
:101D90008093C9056093EC051092CB051092CA059B
:101DA00008950C94C70E0F93062F21E04091CA05A9
:101DB0006CEC75E08091EC050E940B0F1092CB0546
:101DC0001092CA051092C9050F91089561E00C9414
:101DD000D30E8DEB95E00C94AD0E10927C0681E055
:101DE00080937A061092790661E082E00E94D6190B
:101DF00061E083E00E94D619E9EBF0E080818E7FFC
:101E0000808380818D7F808388E48093B80085E41F
:101E10008093BC0008950F93413208F046C0909122
:101E20007C069111FCCF92E090937C0600937A0699
:101E30009FEF90930F061092540640935306FB01B8
:101E400065E576E0DB019A2F961B941718F49191C3
:101E50009D93F9CF10927B0690917B06880F892B7A
:101E600080937B0680917906813041F41092790647
:101E700080917B068093BB0085EC01C085EE80934A
:101E8000BC00222321F080917C068230E1F3809116
:101E90000F068F3F61F080910F06803251F08091E4
:101EA0000F06803341F483E007C081E005C080E085
:101EB00003C082E001C084E00F910895613298F47C
:101EC00020917C06243089F460933106FC0183E381
:101ED00096E0DC012A2F281B261718F421912D9358
:101EE000F9CF80E0089581E0089582E0089585EDBE
:101EF0008093BC008091BC0084FDFCCF10927C06D6
:101F0000089585EC8093BC0010927C0608951F9282
:101F10000F920FB60F9211242F933F934F935F931D
:101F20006F937F938F939F93AF93BF93EF93FF93A1
:101F30008091B900887F803609F49CC068F58832AA
:101F400009F45BC090F4803109F454C038F488235C
:101F500009F4F5C0883009F44DC0F5C0883109F4A2
:101F60004CC0803209F45DC0EEC0803409F468C012
:101F700048F4803309F455C0883309F0E4C08093F5
:101F80000F06A8C0803509F44FC0883509F45DC03C
:101F9000883409F0D8C0D5C0883909F4C6C0A8F47F
:101FA000883709F467C038F4883609F463C080378D
:101FB00009F460C0C8C0883809F4B7C0803909F492
:101FC0005FC0803809F0BFC05BC0803B09F485C0AA
:101FD00038F4803A09F466C0883A09F47EC0B3C088
:101FE000803C09F4A6C0883C09F4A3C0883B09F4EE
:101FF00089C0A9C080917B0610C090915406809141
:102000005306981770F5E091540681E08E0F809387
:102010005406F0E0EB5AF94F80818093BB0085ECC9
:1020200085C080930F068DC0E091540681E08E0F2D
:10203000809354068091BB00F0E0EB5AF94F808307
:1020400090915406809153066DC0E091540681E052
:102050008E0F809354068091BB00F0E0EB5AF94F4D
:10206000808380917A0681116CC081E0809379062B
:1020700084EA60C083E080937C0610921006CFCF84
:1020800080911006803208F050C0E091100681E087
:102090008E0F809310068091BB00F0E0EF5EF94F49
:1020A0008083BDCF80911006803230F4E09110061D
:1020B000F0E0EF5EF94F10820E94770F60911006FA
:1020C00070E0E0917506F091760681E196E0099561
:1020D000109210060E94810F36C084E080937C0627
:1020E0001092320610923106E0917706F091780650
:1020F000099580913106811105C081E080933106F8
:1021000010923306E091320681E08E0F8093320602
:10211000F0E0ED5CF94F80818093BB009091320636
:1021200080913106981708F47ACF85E88093BC0037
:102130000AC085EC8093BC0010927C0604C010920B
:102140000F060E94770FFF91EF91BF91AF919F9182
:102150008F917F916F915F914F913F912F910F9050
:102160000FBE0F901F901895DC01ED91FC9101902E
:10217000F081E02D09940F93DC0113961C921E92BE
:102180001297EDE2F4E0ED93FC9360938D014093A0
:102190008C0130938B0120938A0100937F060F916D
:1021A00008951F93CF93DF931F92CDB7DEB76130B1
:1021B00031F0623031F0633031F010E005C010E4EE
:1021C00003C014E101C014E560918A0170918B0194
:1021D0008DEB95E049830E94D10E6EEF70E08DEBA0
:1021E00095E00E94B41065E470E08DEB95E00E94EC
:1021F000B4104981642F70E0610F711D8DEB95E083
:102200000E94B4108DEB95E00E94E60E609188016B
:1022100070918901660F771F882777FD8095982F29
:102220000F90DF91CF911F910C94E21840E060E095
:102230000C94D110CF93C62F60918A0170918B01BD
:102240008DEB95E00E94D10E6EEF70E08DEB95E086
:102250000E94B4106C2F8DEB95E00E947E0E8DEBEA
:1022600095E00E94E60E60918801709189018827AF
:1022700077FD8095982FCF910C94E21861E50C942E
:102280001A1161E40C941A1168E40C941A116CE4AC
:102290000C941A11CF93DF93EC018DEB95E00E9423
:1022A000BD0E88E98093B800CE010E944111CE0195
:1022B0000E943E11CE010E944711CE010E9444119E
:1022C000CE01DF91CF910C941611CF93C62F609160
:1022D0008A0170918B018DEB95E00E94D10E6C2FDD
:1022E0008DEB95E00E947E0E8DEB95E00E94E60E50
:1022F00060917D0670917E06882777FD8095982FE6
:102300000E94E218CF9108950895089508950895C0
:1023100061E0FC0182810C94D61960E0FC018281AD
:102320000C94D6190F931F93CF93DF93DC0128E011
:1023300030E000E810E080E090E051E0E02FE4239E
:1023400009F450E01123E1F0FC01EE0FFF1FEE0F46
:10235000FF1FE60FF71F552329F01696CD91DC914C
:10236000179704C01496CD91DC911597D183C08343
:102370001496CD91DC911597D383C2830196512F8A
:1023800006952150310911F0152FD7CFDF91CF914C
:102390001F910F910895CF93DF93EC018FE9860F82
:1023A0008A3140F4E62FFF27E7FDF095E053FC4F1C
:1023B000408143C080ED860F8A3028F0EBE4F4E0E2
:1023C00080E090E02EC0E62FFF27E7FDF0959F010B
:1023D00020533109A1E0263031051CF0A0E0255042
:1023E00031096C817D81FE0180E090E0B0E041E048
:1023F00050E08217930714F040E050E04A175B0763
:1024000019F44C815D8102C04E815F8157874687F8
:10241000718B608B019634968530910541F719C018
:1024200001962081222381F032962613F9CFFC01F8
:10243000EE0FFF1FE55BFB4F4181BE01625F7F4FE7
:10244000CE010E94921105C021E030E081E090E0D1
:1024500002C020E030E0FC01EE0FFF1FDF01169606
:10246000AA0FBB1FAC0FBD1F8E819F818D939C93C4
:102470003796EE0FFF1FEC0FFD1F11821082C9016E
:10248000DF91CF91089561E0FC0182810C949D1948
:10249000CF92DF92EF92FF92CF93DF93EC016A012C
:1024A0007B0120E030E040E85FE3C701B6010E9415
:1024B0001B2487FD15C020E030E048E452E4C7014A
:1024C000B6010E942D259B01AC0160E070E68AE612
:1024D00097E40E941F240E948724362F272F02C0D2
:1024E00030EB24E0832F922F1816190614F081E0A8
:1024F00090E09D838C839C01220F331F280F391F8E
:102500003F832E83DF91CF91FF90EF90DF90CF90AC
:1025100008950F931F93CF93DF9300D000D0CDB7D2
:10252000DEB78C0189E594E0F801918380837383A1
:10253000628364E672E0C801089629833A834B837C
:102540005C830E94982229813A814B815C81BA0187
:10255000A901C8010F900F900F900F90DF91CF91BC
:102560001F910F910C944812CF93DF93EC010896C2
:102570000E94AE228C859D859FA78EA788A980FD8D
:1025800009C0E881F9810280F381E02DCE01DF915D
:10259000CF910994DF91CF910895CF93DF93EC0110
:1025A0001FA61EA68C859D85892B21F160E070E019
:1025B000CE0108960E94C522FC016081CE010E94D6
:1025C000CB1199AB88ABE881F9810480F581E02DCE
:1025D000CE01099588A980FD07C0E881F9810190A5
:1025E000F081E02DCE0109950E94B3186AAB7BAB58
:1025F0008CAB9DABDF91CF910895CF92DF92EF929C
:10260000FF92CF93DF93EC012EA53FA58C859D858E
:102610002817390708F06DC00E94B3186B017C01C0
:102620008AA99BA9ACA9BDA9C81AD90AEA0AFB0ABA
:10263000E8A9F9A9DF011796AA0FBB1FAC0FBD1FB0
:102640008D919C91AA2797FDA095BA2FC816D906FF
:10265000EA06FB0608F44FC0CF01019699AB88ABA0
:102660003896EE0FFF1FEC0FFD1F80819181892BA3
:1026700029F56EA57FA56F5F7F4F7FA76EA78C851D
:102680009D856817790778F0E881F9810280F381E8
:10269000E02DCE010995E881F9810680F781E02DD2
:1026A000CE01099526C0CE0108960E94C522FC01E4
:1026B0006081CE010E94CB1199AB88AB4AA95BA97E
:1026C0006CA97DA94C0D5D1D6E1D7F1D4AAB5BABDA
:1026D0006CAB7DAB88A9E881F98180FD04C00190D5
:1026E000F081E02D03C00280F381E02DCE01099539
:1026F00002C080E001C081E0DF91CF91FF90EF90B8
:10270000DF90CF900895CF93DF93EC010E94CD121C
:10271000CE010E94FD128111FBCFDF91CF91089570
:10272000CF93DF93EC010E94891285E694E09983B0
:102730008883DF91CF910895FC0110820895AF92B4
:10274000BF92DF92EF92FF920F931F93CF93DF938D
:10275000CDB7DEB7EDB6FEB6842F90E0880F991F97
:10276000FC013196ADB7BEB7AE1BBF0B0FB6F894E8
:10277000BEBF0FBEADBF0DB71EB70F5F1F4FD80155
:10278000D62E5B015A2D5D195417C8F4B501F50119
:10279000508152955F7050635A3308F0595F5C93D3
:1027A000FFEFAF1ABF0AFB0150815F7050635A33CD
:1027B00008F0595F11965C9311971296E3CFF801D8
:1027C000E80FF91F1082B90183E996E00E94471DC6
:1027D000B80183E996E00E94761D0FB6F894FEBE1C
:1027E0000FBEEDBEDF91CF911F910F91FF90EF9043
:1027F000DF90BF90AF900895FC01508150FD0C9484
:102800009F130895DC01ED91FC910190F081E02D82
:102810000994FC01608341833383228308956EEF22
:1028200070E083EE96E00E9402146EEF70E083EE9B
:1028300096E00C9402146DEF70E083EE96E00C9439
:1028400002142F923F924F925F926F927F928F92DB
:102850009F92AF92BF92CF92DF92EF92FF920F932F
:102860001F93CF93DF93CDB7DEB72B970FB6F894B6
:10287000DEBF0FBECDBF9B878A874B01498749309A
:1028800008F053C0CE0101965C01E12CF12CC12C63
:10289000D12C242E312C9AE0492E512C612C712CF4
:1028A000E214F30404F5B801C901A30192010E94E6
:1028B000B425F50161935F0189019A01E0FE0FC023
:1028C000D401AC0DBD1D84E0660F771F8A95E1F73A
:1028D00032978081862B8C93FFEFCF1ADF0A8FEF20
:1028E000E81AF80ADDCF28E931E04985B401EA8524
:1028F000FB85828193812B960FB6F894DEBF0FBEC5
:10290000CDBFDF91CF911F910F91FF90EF90DF909E
:10291000CF90BF90AF909F908F907F906F905F907F
:102920004F903F902F900C94FC132B960FB6F89479
:10293000DEBF0FBECDBFDF91CF911F910F91FF90F2
:10294000EF90DF90CF90BF90AF909F908F907F904F
:102950006F905F904F903F902F9008952F923F92ED
:102960004F925F926F927F928F929F92AF92BF929F
:10297000CF92DF92EF92FF920F931F93CF93DF934B
:10298000CDB7DEB762970FB6F894DEBF0FBECDBFEE
:102990009F878E87342E252EAB0149017E0189E069
:1029A000E80EF11C85E0F70111928A95E9F72930CC
:1029B000310508F044C0CE0101965C0100E010E052
:1029C000C12CD12C9AE0492E512C612C712C081568
:1029D000190559F1632D722DCA01A30192010E94BC
:1029E000B425F50161935F01322E232E00FF1AC03A
:1029F00084E0660F771F8A95E1F732972081262BB6
:102A0000622F83EE96E0288B498B5A8B0E94641BC1
:102A1000F701EC0DFD1D28892083FFEFCF1ADF0A97
:102A20005A8949890F5F1F4FD2CF24EA31E0402FE6
:102A3000B701EE85FF85828193810E94FC13629627
:102A40000FB6F894DEBF0FBECDBFDF91CF911F91BF
:102A50000F91FF90EF90DF90CF90BF90AF909F903D
:102A60008F907F906F905F904F903F902F90089540
:102A7000DF92EF92FF920F931F93CF93DF937C012E
:102A8000EB0110E083EE96E00E94F11A019621F42A
:102A90001A3031F5D12C2CC0D12C1A3049F183EEEB
:102AA00096E00E94E61A892B51F08E010D0D111D42
:102AB00083EE96E00E94FF1AF8018083D394FE0112
:102AC000ED0DF11D319780818D3F49F723EB31E00A
:102AD0004D2DBE01F701828193810E94FC1308C035
:102AE0006AE070E080E090E00E94E2181F5FCACFC9
:102AF0008D2DDF91CF911F910F91FF90EF90DF907F
:102B00000895CF92DF92EF92FF920F931F93CF938E
:102B1000DF93CDB7DEB7C058D1090FB6F894DEBF4A
:102B20000FBECDBF8C017B01C42E25E0D22EBE018D
:102B30006F5F7F4FC8010E943815882309F43FC09A
:102B400099819E3FE1F59A819E3FC9F52B81F8015D
:102B50009081291334C02C819181291330C0FE014A
:102B6000E80FF11D90819D3F51F5C11002C064E056
:102B700001C066E0D12C70E08250282F30E0261B87
:102B8000370BED2DF0E02E173F077CF0D701AE0F8D
:102B9000BF1F81E090E08C0F9D1FE80FF91FE60F2B
:102BA000F71F80818C93D394ECCF2AEC31E04D2D2C
:102BB000B701F801828193810E94FC1309C064E689
:102BC00070E080E090E00E94E218DA9409F0AFCF64
:102BD0008D2DC058DF4F0FB6F894DEBF0FBECDBFAE
:102BE000DF91CF911F910F91FF90EF90DF90CF90E9
:102BF0000895CF93DF93CDB7DEB7C058D1090FB694
:102C0000F894DEBF0FBECDBF40E0BE016F5F7F4FC7
:102C10000E948115882361F089818B3F31F08A8180
:102C20008A3F31F480E090E005C081E090E002C08E
:102C300082E090E0C058DF4F0FB6F894DEBF0FBEC1
:102C4000CDBFDF91CF9108950F931F93CF93DF9363
:102C5000EC018B010E940F14698183EE96E00E94C3
:102C6000641B688183EE96E00E94641B66E070E05E
:102C700083EE96E00E940214B80183EE96E00E9473
:102C80000214CE010E941B14CE01DF91CF911F913F
:102C90000F910C94F915CF92DF92EF92FF92CF93A0
:102CA000DF93EC016A017B010E940F14698183EEBE
:102CB00096E00E94641B688183EE96E00E94641B8C
:102CC00065E070E083EE96E00E94021428E030E0B8
:102CD000B701A601CE010E94AE14CE010E941B14C2
:102CE000CE01DF91CF91FF90EF90DF90CF900C94C9
:102CF000F915EF92FF920F931F93CF93DF931F92DB
:102D0000CDB7DEB77C018B0149830E940F14F70118
:102D1000618183EE96E00E94641BF701608183EE7F
:102D200096E00E94641B64E170E083EE96E00E94EE
:102D30000214B80183EE96E00E9402144981642FC8
:102D400083EE96E00E94641BC7010E941B14C7011A
:102D50000F90DF91CF911F910F91FF90EF900C9406
:102D6000F9150F931F93CF93DF93EC018B010E9412
:102D70000F14698183EE96E00E94641B688183EEE4
:102D800096E00E94641B64E170E083EE96E00E948E
:102D90000214B80183EE96E00E940214CE010E9454
:102DA0001B14CE01DF91CF911F910F910C94F91557
:102DB000CF92DF92EF92FF920F931F93CF93DF9307
:102DC000CDB7DEB728970FB6F894DEBF0FBECDBFE4
:102DD0007C016B01042F0E940F14F701618183EEC7
:102DE00096E00E94641BF701608183EE96E00E94EA
:102DF000641B6AE170E083EE96E00E94021463E0D7
:102E000070E083EE96E00E940214B60183EE96E035
:102E10000E940214CA94CD2889F410E020E030E02A
:102E200044E0BE016F5F7F4FC7010E9421146A8199
:102E300083EE96E00E94641B698101C0602F83EEDF
:102E400096E00E94641BC7010E941B14C7010E94E8
:102E5000F91528960FB6F894DEBF0FBECDBFDF91EF
:102E6000CF911F910F91FF90EF90DF90CF90089539
:102E7000853008F04CC0E82FF0E0EE0FFF1FE0585F
:102E8000F94F718360838230E1F018F4813069F08A
:102E900004C0833019F1843071F1809169008C7F16
:102EA000842B80936900E89A089580916900440F0B
:102EB000551F440F551F837F842B80936900E99A27
:102EC00008958091690034E0440F551F3A95E1F769
:102ED0008F7C842B80936900EA9A08958091690021
:102EE00026E0440F551F2A95E1F78F73842B8093BA
:102EF0006900EB9A089580916A0094E0440F551F91
:102F00009A95E1F78F7C842B80936A00EE9A08955E
:102F10001F920F920FB60F9211242F933F934F934E
:102F20005F936F937F938F939F93AF93BF93EF9331
:102F3000FF938091800690918106892B29F0E09182
:102F40008006F09181060995FF91EF91BF91AF91B5
:102F50009F918F917F916F915F914F913F912F91B1
:102F60000F900FBE0F901F9018951F920F920FB6E3
:102F70000F9211242F933F934F935F936F937F93FF
:102F80008F939F93AF93BF93EF93FF9380918206AC
:102F900090918306892B29F0E0918206F0918306B7
:102FA0000995FF91EF91BF91AF919F918F917F9183
:102FB0006F915F914F913F912F910F900FBE0F90A6
:102FC0001F9018951F920F920FB60F9211242F93F6
:102FD0003F934F935F936F937F938F939F93AF93A1
:102FE000BF93EF93FF938091840690918506892B80
:102FF00029F0E0918406F09185060995FF91EF9103
:10300000BF91AF919F918F917F916F915F914F9100
:103010003F912F910F900FBE0F901F9018951F9208
:103020000F920FB60F9211242F933F934F935F93FC
:103030006F937F938F939F93AF93BF93EF93FF9380
:103040008091860690918706892B29F0E09186066B
:10305000F09187060995FF91EF91BF91AF919F91F4
:103060008F917F916F915F914F913F912F910F9031
:103070000FBE0F901F9018951F920F920FB60F92D0
:1030800011242F933F934F935F936F937F938F936D
:103090009F93AF93BF93EF93FF9380918806909196
:1030A0008906892B29F0E0918806F0918906099517
:1030B000FF91EF91BF91AF919F918F917F916F9110
:1030C0005F914F913F912F910F900FBE0F901F90E6
:1030D00018951F920F920FB60F9211242F933F93C2
:1030E0008F939F93AF93BF9380918B0690918C06A3
:1030F000A0918D06B0918E0630918A0623E0230FB1
:103100002D3720F40196A11DB11D05C026E8230F1F
:103110000296A11DB11D20938A0680938B06909381
:103120008C06A0938D06B0938E0680918F069091A9
:103130009006A0919106B09192060196A11DB11D35
:1031400080938F0690939006A0939106B093920679
:10315000BF91AF919F918F913F912F910F900FBE93
:103160000F901F9018952FB7F89460918B0670916F
:103170008C0680918D0690918E062FBF08953FB7E3
:10318000F89480918F0690919006A0919106B0914D
:10319000920626B5A89B05C02F3F19F00196A11DE8
:1031A000B11D3FBF6627782F892F9A2F620F711D9F
:1031B000811D911D42E0660F771F881F991F4A9558
:1031C000D1F70895CF92DF92EF92FF92CF93DF93E2
:1031D0006B017C010E94BF18EB01C114D104E10412
:1031E000F10489F00E94D7220E94BF186C1B7D0B4E
:1031F000683E734090F381E0C81AD108E108F108F5
:10320000C851DC4FEACFDF91CF91FF90EF90DF9074
:10321000CF900895789484B5826084BD84B5816030
:1032200084BD85B5826085BD85B5816085BDEEE6CE
:10323000F0E0808181608083E1E8F0E010828081AD
:1032400082608083808181608083E0E8F0E080811B
:1032500081608083E1E9F0E0808182608083808109
:1032600081608083E0E9F0E0808181608083E1EC2F
:10327000F0E08081846080838081826080838081AF
:1032800081608083E3ECF0E0808181608083E0EC0A
:10329000F0E0808182608083E2ECF0E080818160F8
:1032A0008083EAE7F0E080818460808380818260AF
:1032B000808380818160808380818068808308959D
:1032C00090E0FC013197EF30F105B0F5E158FF4F88
:1032D0000C94F525809180008F7703C08091800049
:1032E0008F7D80938000089580918000877FF9CF43
:1032F00084B58F7702C084B58F7D84BD0895809199
:1033000090008F7707C0809190008F7D03C08091DF
:103310009000877F8093900008958091C0008F7700
:1033200003C08091C0008F7D8093C000089580917C
:10333000C200877F8093C2000895CF93DF9390E00F
:10334000FC01EA55FE4F2491FC01EC53FE4F8491A1
:10335000882349F190E0880F991FFC01E250FE4F4D
:10336000A591B49180519E4FFC01C591D4919FB716
:10337000611108C0F8948C91209582238C938881E8
:1033800082230AC0623051F4F8948C91322F309528
:1033900083238C938881822B888304C0F8948C913A
:1033A000822B8C939FBFDF91CF9108950F931F9332
:1033B000CF93DF931F92CDB7DEB7282F30E0F9010E
:1033C000E857FE4F8491F901EA55FE4F1491F90137
:1033D000EC53FE4F04910023C9F0882321F0698348
:1033E0000E9460196981E02FF0E0EE0FFF1FE051AD
:1033F000FE4FA591B4919FB7F8948C91611103C0D1
:103400001095812301C0812B8C939FBF0F90DF917A
:10341000CF911F910F910895CF93DF931F92CDB756
:10342000DEB76983DC01ED91FC910280F381E02D30
:1034300041E050E0BE016F5F7F4F09950F90DF9133
:10344000CF910895CF93DF93EC018C859D8597FFF5
:1034500005C082E00E94571F9D878C878C859D85C3
:10346000DF91CF91089583E00C94AC21FC01848519
:10347000958597FD06C082E00E94FF1E90E00196B0
:10348000089582E00E94FF1E90E00895FC0184856B
:10349000958597FD05C02FEF3FEF35872487089569
:1034A00082E00C94571FCF93DF93EC01809195013C
:1034B000882331F083E00E94881F1816190634F023
:1034C00081E090E09B838A8380E090E0DF91CF9160
:1034D0000895FC0120812E5F208342E450E06CE0DF
:1034E00072E080E80C942320FC0181819081913A64
:1034F00059F4813209F03CC047E050E06EE871E0D9
:1035000080E00E94232043C0913291F5803239F44B
:1035100067E070E08EE891E00E94542006C082329D
:1035200009F035C082818093950180918E01909140
:103530008F01A0919001B0919101803B9440A10531
:10354000B105C1F48091950180FD14C087E797E72C
:1035500090930108809300082BE088E190E00FB67B
:10356000F894A895809360000FBE209360000FC070
:1035700080E0089588E10FB6F8948093600010927F
:1035800060000FBEA895109201081092000881E01B
:103590000895109296061092950688EE93E0A0E0AA
:1035A000B0E08093970690939806A0939906B09305
:1035B0009A0681E794E090939406809393068FEFA8
:1035C0009FEF9093A00680939F060895FC01818D44
:1035D000228D90E0805C9F4F821B91098F73992709
:1035E0000895FC01918D828D981731F0828DE80F3E
:1035F000F11D858D90E008958FEF9FEF0895FC01F8
:10360000918D828D981761F0828DDF01A80FB11D19
:103610005D968C91928D9F5F9F73928F90E008953D
:103620008FEF9FEF089583E89CE1892B49F080E0BC
:1036300090E0892B29F00E94831C81110C940000DA
:103640000895FC01848DDF01A80FB11DA35ABF4F5F
:103650002C91848D90E001968F739927848FA68991
:10366000B7892C93A089B1898C9180648C93938DB8
:10367000848D981306C00288F389E02D80818F7DA8
:1036800080830895CF93DF93EC01888D8823C9F060
:10369000EA89FB89808185FD05C0A889B9898C915B
:1036A00086FD0FC00FB607FCF5CF808185FFF2CFF6
:1036B000A889B9898C9185FFEDCFCE010E94211B8D
:1036C000E7CFDF91CF910895CF92DF92FF920F93D2
:1036D0001F93CF93DF931F92CDB7DEB76C01DC0150
:1036E0005B969C915B975C968C915C97981307C056
:1036F0005096ED91FC915197808185FD32C0F60185
:10370000038D10E00F5F1F4F0F731127F02EF6018E
:10371000848DF81211C00FB607FCF9CFD601509670
:10372000ED91FC915197808185FFF1CFC6016983AE
:103730000E94211B6981EBCF838DE80FF11DE35AB5
:10374000FF4F6083D6015B960C935B975296ED9189
:10375000FC91539780818062808381E058968C939E
:103760000DC0D6015696ED91FC9157976083509607
:10377000ED91FC91519780818064808381E090E09D
:103780000F90DF91CF911F910F91FF90DF90CF901D
:103790000895BF92CF92DF92EF92FF92CF93DF9383
:1037A000EC016A017B01B22EE889F98982E080830D
:1037B000411581EE580761057105A1F060E079E0DF
:1037C0008DE390E0A70196010E94B42521503109B4
:1037D000410951095695479537952795211580E15F
:1037E000380798F0E889F989108260E874E88EE17A
:1037F00090E0A70196010E94B425215031094109AA
:1038000051095695479537952795EC85FD85308369
:10381000EE85FF852083188EEC89FD89B082EA89C8
:10382000FB89808180618083EA89FB89808188604F
:103830008083EA89FB89808180688083EA89FB89AB
:1038400080818F7D8083DF91CF91FF90EF90DF901B
:10385000CF90BF9008951F920F920FB60F92112430
:103860002F938F939F93EF93FF93E091F306F09143
:10387000F4068081E091F906F091FA0682FD12C00B
:1038800090818091FC068F5F8F732091FD068217D7
:1038900051F0E091FC06F0E0ED51F94F958F8093E7
:1038A000FC0601C08081FF91EF919F918F912F9134
:1038B0000F900FBE0F901F9018951F920F920FB68A
:1038C0000F9211242F933F934F935F936F937F93A6
:1038D0008F939F93AF93BF93EF93FF9383EE96E005
:1038E0000E94211BFF91EF91BF91AF919F918F910A
:1038F0007F916F915F914F913F912F910F900FBEEC
:103900000F901F90189583EE96E00E94E61A21E032
:10391000892B09F420E0822F08951092E606109278
:10392000E50688EE93E0A0E0B0E08093E706909390
:10393000E806A093E906B093EA0681E894E0909344
:10394000E4068093E3068DEC90E09093F00680937C
:10395000EF068CEC90E09093F2068093F10688ECF1
:1039600090E09093F4068093F30689EC90E09093B6
:10397000F6068093F5068AEC90E09093F806809323
:10398000F7068EEC90E09093FA068093F906109279
:10399000FC061092FD061092FE061092FF06089596
:1039A00008950E940A190E94D01C87E897E00E949F
:1039B0000C220E943F05C3E1DBE10E94D306209761
:1039C000E1F30E94131BF9CFCF92DF92EF92FF92A7
:1039D0000F931F93CF93DF936C017A01EB01E60EF7
:1039E000F71E00E010E0CE15DF0561F06991D60109
:1039F000ED91FC910190F081E02DC6010995080F31
:103A0000191FF1CFC801DF91CF911F910F91FF9046
:103A1000EF90DF90CF9008956115710581F0DB0183
:103A20000D900020E9F7AD0141505109461B570B9D
:103A3000DC01ED91FC910280F381E02D099480E09E
:103A400090E00895EF92FF920F931F93CF93DF932F
:103A50008C01FB01C0E0D0E064917F018FEFE81A98
:103A6000F80A662361F0D801ED91FC910190F08194
:103A7000E02DC8010995C80FD91FF701EDCFCE0180
:103A8000DF91CF911F910F91FF90EF9008950C94CB
:103A90000C1DDC01ED91FC910190F081E02D099469
:103AA0000F931F93CF93DF93EC016DE00E94491DAC
:103AB0008C016AE0CE010E94491D800F911FDF91A9
:103AC000CF911F910F9108950F931F93CF93DF9381
:103AD000EC010E94221D8C01CE010E94501D800F1E
:103AE000911FDF91CF911F910F9108950F931F9315
:103AF000CF93DF93EC010E940C1D8C01CE010E943C
:103B0000501D800F911FDF91CF911F910F9108954C
:103B10008F929F92AF92BF92CF92DF92EF92FF92DD
:103B20000F931F93CF93DF93CDB7DEB7A1970FB657
:103B3000F894DEBF0FBECDBF7C01C42EE52FCB01B4
:103B4000D22E19A221E02D1510F02AE0D22E8E01DE
:103B50000F5D1F4F8D2C912CA12CB12C6C2D7E2F25
:103B6000A50194010E94B4258C2DD29E80191124A8
:103B7000015011098A3014F4805D01C0895CF8019C
:103B80008083211531054105510521F0C22EE32F17
:103B9000CA01E4CFB801C7010E940C1DA1960FB65F
:103BA000F894DEBF0FBECDBFDF91CF911F910F9173
:103BB000FF90EF90DF90CF90BF90AF909F908F904D
:103BC00008952115310541F4DC01ED91FC9101903E
:103BD000F081E02D642F09940C94881D9A01462FE2
:103BE00050E060E070E00C94E11D8230A1F028F418
:103BF000882341F0813049F00895833091F084307A
:103C0000B1F0089510926E00089580916F008D7F3D
:103C100080936F000895809170008D7F8093700075
:103C20000895809171008D7F809371000895809137
:103C300072008F7B8093720008951F920F920FB6CF
:103C40000F9211242F933F934F935F936F937F9322
:103C50008F939F93AF93BF93EF93FF9380918307CD
:103C600090918407A0918507B0918607892B8A2BB4
:103C70008B2B51F190918007E0918107F0918207A1
:103C80008081892780838091830790918407A09108
:103C90008507B0918607181619061A061B062CF51B
:103CA0008091830790918407A0918507B091860742
:103CB0000197A109B1098093830790938407A0938A
:103CC0008507B093860711C083E00E94F51D2091FF
:103CD0008007E0918107F0918207808190E030E0D9
:103CE00020953095822393238083FF91EF91BF919C
:103CF000AF919F918F917F916F915F914F913F9184
:103D00002F910F900FBE0F901F90189540918B0729
:103D100050918C072091890730918A0742175307E9
:103D2000B4F49091E8009570E1F39091E80092FD71
:103D300019C08093F10080918B0790918C070196B8
:103D40008F739927892B19F48EEF8093E800809167
:103D50008B0790918C07019690938C0780938B072B
:103D600081E0089580E00895CF92DF92FF920F9353
:103D70001F93CF93DF931F92CDB7DEB7082F162F77
:103D8000862F880F8E5F99830E94861E83E00E9493
:103D9000861EF02EC02E9981D92E8C2D8F19811759
:103DA00078F4F60184910E94861E082F80E00E941C
:103DB000861E8023FFEFCF1ADF0A8111EECF01C0EC
:103DC00081E00F90DF91CF911F910F91FF90DF90D5
:103DD000CF900895615030F02091F100FC012083D4
:103DE0000196F8CF289884E680938E0708952FB720
:103DF000FC012083F89467706093E9000895CF93E5
:103E0000DF931F92CDB7DEB7682FCE0101960E94D7
:103E1000F71E8091F20099819FBF0F90DF91CF91A3
:103E20000895FF920F931F93CF93DF9300D0CDB7E8
:103E3000DEB7F62E8A0190918D07992311F057FF76
:103E400003C08FEF9FEF2BC0682FCE0101967A83BE
:103E50000E94F71E8091F20090E0A8017A818017FD
:103E600091070CF4AC01EF2DF72FF40E84E6FE164B
:103E700039F0289880938E079091F1009193F7CFB5
:103E80004115510521F08091F200882321F08981AC
:103E90008FBFCA0104C08BE68093E800F8CF0F9073
:103EA0000F90DF91CF911F910F91FF900895CF93C5
:103EB000DF931F92CDB7DEB741E050E0BE016F5FE8
:103EC0007F4F0E94111F019719F4898190E002C071
:103ED0008FEF9FEF0F90DF91CF910895CF93DF93F6
:103EE0001F92CDB7DEB7682FCE0101960E94F71E54
:103EF0009091E800892F807295FF04C09091F200A4
:103F000080E4891B99819FBF0F90DF91CF91089525
:103F10006F927F928F929F92AF92BF92CF92DF92D9
:103F2000EF92FF920F931F93CF93DF931F92CDB722
:103F3000DEB7782E7B01C42EB52E80918D078823A5
:103F400069F0042F152F8AEFD82E872D8072982EB6
:103F50009AE3A92E872D8074882E11C08FEF9FEFD2
:103F600057C0872D0E946E1F682E81110CC0DA94F5
:103F7000A9F361E070E080E090E00E94E218011592
:103F8000110579F73BC0282F30E0021713070CF416
:103F9000602E672DCE0101960E94F71E8091E800E9
:103FA00085FF29C0262D30E0021B130B992039F024
:103FB0006A948FEF6816B1F01092F100F9CFF70113
:103FC000862D77FE07C0815058F094919093F100B0
:103FD0003196F9CF815020F091919093F100FACF72
:103FE000E20EF31E8091E80085FF0FC00115110558
:103FF00011F481100AC089818FBFC1CF5D9884E61A
:1040000080938F078C2D9B2D03C0A092E800F3CFE7
:104010000F90DF91CF911F910F91FF90EF90DF9064
:10402000CF90BF90AF909F908F907F906F900895AA
:104030001092E90010928C0710928B0790938A07D8
:10404000809389070895CF92DF92FF920F931F9379
:10405000CF93DF9300D0CDB7DEB7F82E8A016B0186
:1040600001151105B1F0F601F7FE02C0849101C0FF
:10407000808149835A830E94861E01501109FFEFF7
:10408000CF1ADF0A49815A818111EACF8FEF9FEF62
:1040900001C0CA010F900F90DF91CF911F910F9136
:1040A000FF90DF90CF9008951F93CF93DF931F92DF
:1040B000CDB7DEB7162F2091E80022FFFCCF612F8D
:1040C00079830E94EA1E8BEF8093E800812F79812B
:1040D000972F0F90DF91CF911F910895CF93DF938A
:1040E0001F92CDB7DEB71982CE0101960E94691AE0
:1040F000CE0101960E94F622898190E00F90DF9117
:10410000CF9108951F920F920FB60F921124EF9244
:10411000FF920F931F932F933F934F935F936F9350
:104120007F938F939F93AF93BF93EF93FF93CF931F
:10413000DF93CDB7DEB76297DEBFCDBF1092E90047
:104140008091E80083FFEBC068E0CE010A960E94F0
:10415000EA1E82EF8093E8009A8597FF05C0809160
:10416000E80080FFFCCF03C08EEF8093E800892F2A
:10417000807609F0B9C08B85811105C01092F100DD
:104180001092F100C5C0282F2D7F213009F4C0C046
:10419000853049F48091E80080FFFCCF8C858068F1
:1041A0008093E300B5C0863009F076C02D85E8889D
:1041B000F988223071F580E090E02A8B0E94182067
:1041C0000E946E2099E08E010F5F1F4FF801392F7A
:1041D00011923A95E9F799832A892A8391E09E837F
:1041E00090E898879AEF998720918B0730918C07F8
:1041F000275F3F4F3C832B838D83C7010E9418208C
:1042000049E050E0B80180E00E9423200E946E2027
:104210007FC0C7012A8B0E9418202A89223241F4CC
:1042200082E290E00E940123892B09F071C074C0E2
:10423000213069F488899989089711F420938807B7
:1042400080918807811118C065E672E01AC023309A
:1042500009F062C08C85882391F0823021F460E1FE
:1042600083E892E006C0813009F056C06BE087E732
:1042700092E00E94B41E4AC063E572E002C064E9A5
:1042800072E06115710509F447C0FB01449150E0EB
:1042900080E80E9423203CC0873009F43DC088306C
:1042A00021F481E08093F10033C0893089F5937067
:1042B00099F5EFE4F2E081E021E096E38093E900F4
:1042C0002093EB0034913093EC009093ED008F5FDE
:1042D0003196853099F78EE78093EA001092EA00D4
:1042E0008C8580938D0714C0888999890E94182035
:1042F0008E85811105C0CE010A960E94741A06C0EF
:10430000823051F4CE010A960E942923882321F09D
:104310008EEF8093E80003C081E28093EB00629609
:104320000FB6F894DEBF0FBECDBFDF91CF91FF91E6
:10433000EF91BF91AF919F918F917F916F915F911D
:104340004F913F912F911F910F91FF90EF900F9000
:104350000FBE0F901F9018958093E9008091F20096
:10436000882319F08AE38093E80008951F920F9242
:104370000FB60F9211242F933F934F935F936F9338
:104380007F938F939F93AF93BF93EF93FF9380910E
:10439000E1001092E10083FF0FC01092E90091E06C
:1043A0009093EB001092EC0092E39093ED0010924A
:1043B0008D0798E09093F00082FF1DC083E00E947B
:1043C000AC2180918F07882339F080918F0781502D
:1043D00080938F07882369F080918E07882359F096
:1043E00080918E07815080938E07811104C0289A96
:1043F00002C05D9AF1CFFF91EF91BF91AF919F9174
:104400008F917F916F915F914F913F912F910F907D
:104410000FBE0F901F90189510928D0781E080932A
:10442000D70080EA8093D80082E189BD09B400FEFC
:10443000FDCF61E070E080E090E00E94E21880E94A
:104440008093D8008CE08093E2001092E000559AAF
:10445000209A0895FC01808191810C94C926CF9304
:10446000DF93EC0188819981009711F00E94C926A1
:10447000198218821D821C821B821A82DF91CF91C1
:1044800008950F931F93CF93DF93EC018B016F5F20
:104490007F4F888199810E945827009731F0998336
:1044A00088831B830A8381E001C080E0DF91CF9184
:1044B0001F910F910895CF93DF93EC01888199812B
:1044C000892B29F08A819B818617970760F4CE019A
:1044D0000E944122882341F08C819D81892B19F40F
:1044E000E881F981108281E0DF91CF910895EF9208
:1044F000FF920F931F93CF93DF93EC017B018A010F
:10450000BA010E945B22811104C0CE010E942F22B9
:1045100007C01D830C83B701888199810E944928B7
:10452000CE01DF91CF911F910F91FF90EF900895F1
:10453000FC0111821082138212821582148261158D
:10454000710559F0FB0101900020E9F7AF014150DE
:104550005109461B570B0C9477220895CF93DF9394
:10456000EC01FB018617970761F06081718161158D
:10457000710529F0448155810E94772202C00E9472
:104580002F22CE01DF91CF910895FC018481958186
:104590006817790720F480819181009729F410929F
:1045A000900780E997E00895860F971F0895089572
:1045B000FF920F931F93CF93DF93EC01F62EE881C8
:1045C000F9810480F581E02D09958C01E881F9815C
:1045D0000680F781E02D6F2DCE010995C80199273E
:1045E000DF91CF911F910F91FF900895FC012081E1
:1045F0002F5F208349E150E068E173E080E80C948C
:10460000232045E650E061E373E080E80C9423202A
:10461000EF92FF920F931F93CF93DF931F92CDB72B
:10462000DEB789838B017A0141E050E0BE016F5F04
:104630007F4F84E00E94881FA701B80184E40E9494
:10464000881F0F90DF91CF911F910F91FF90EF90F6
:104650000895FC0191818081813A31F481E09130AB
:1046600091F0933089F411C0813271F49B3021F4C0
:1046700082818093970105C09A3031F482818093C2
:10468000960181E00895089580E0089548E050E0A3
:1046900082E00C940823CF93DF93DC01683818F094
:1046A000E8E7E60F25C0E62FF0E067FF11C0E0580D
:1046B000F10981E090E001C0880FEA95EAF71496CD
:1046C0009C911497982B14969C931497E0E010C03B
:1046D000E856FD4FE491EE2309F440C0E7FF08C01F
:1046E00014968C911497826014968C931497EF779C
:1046F00016968C9116978E1741F117968C911797F5
:104700008E1719F118968C9118978E17F1F019964B
:104710008C9119978E17C9F01A968C911A978E174B
:10472000A1F01B968C911B978E1779F080E090E09A
:10473000ED01C80FD91F2E81211102C0EE8305C0E3
:10474000019686309105A1F709C0BD016C5F7F4FCE
:10475000CD010E94462381E090E008C081E090E016
:1047600013969C938E93129780E090E0DF91CF9107
:104770000895683818F0E8E7E60F25C0E62FF0E066
:1047800067FF12C0E058F10921E030E001C0220FBC
:10479000EA95EAF72095DC0114963C9114973223B0
:1047A00014963C93E0E00FC0E856FD4FE491EE23F1
:1047B00029F1E7FF08C0DC0114962C9114972D7F96
:1047C00014962C93EF7720E030E0EE2351F0DC01DB
:1047D000A20FB31F16964C9116974E1302C0169651
:1047E0001C922F5F3F4F2630310579F7BC016C5F7B
:1047F0007F4F0E94462381E090E0089580E090E0A2
:104800000895FC011682178210861186128613867F
:104810001482BC016C5F7F4F0C94462310929D075D
:10482000109294071092930781E994E09093920775
:104830008093910708959CD008F481E008950CD0EE
:10484000D2C0CAD040F0C1D030F021F45F3F19F09F
:10485000B3C05111FCC0B6C0D7D098F39923C9F3A7
:104860005523B1F3951B550BBB27AA276217730776
:10487000840738F09F5F5F4F220F331F441FAA1F2A
:10488000A9F333D00E2E3AF0E0E830D091505040EA
:10489000E695001CCAF729D0FE2F27D0660F771F98
:1048A000881FBB1F261737074807AB07B0E809F07A
:1048B000BB0B802DBF01FF2793585F4F2AF09E3F0F
:1048C000510568F079C0C3C05F3FECF3983EDCF35C
:1048D000869577956795B795F7959F5FC9F7880F88
:1048E000911D9695879597F90895E1E0660F771FDA
:1048F000881FBB1F621773078407BA0720F0621B6B
:10490000730B840BBA0BEE1F88F7E095089504D063
:104910006894B1119CC008957FD088F09F5790F0A3
:10492000B92F9927B751A0F0D1F0660F771F881FD4
:10493000991F1AF0BA95C9F712C0B13081F086D02C
:10494000B1E0089583C0672F782F8827B85F39F0CA
:10495000B93FCCF3869577956795B395D9F73EF433
:1049600090958095709561957F4F8F4F9F4F0895DB
:10497000990F0008550FAA0BE0E8FEEF1616170670
:10498000E807F907C0F012161306E407F50798F0D8
:10499000621B730B840B950B39F40A2661F0232BF1
:1049A000242B252B21F408950A2609F4A140A6956D
:1049B0008FEF811D811D089597F99F6780E870E052
:1049C00060E008959FEF80EC089500240A94161685
:1049D000170618060906089500240A9412161306ED
:1049E000140605060895092E0394000C11F488237B
:1049F00052F0BB0F40F4BF2B11F460FF04C06F5F97
:104A00007F4F8F4F9F4F089557FD9058440F551F6C
:104A100059F05F3F71F04795880F97FB991F61F040
:104A20009F3F79F087950895121613061406551FB7
:104A3000F2CF4695F1DF08C0161617061806991F23
:104A4000F1CF86957105610508940895E894BB2718
:104A500066277727CB0197F908950BD0C4CFB5DF30
:104A600028F0BADF18F0952309F0A6CFABCF1124B8
:104A7000EECFCADFA0F3959FD1F3950F50E0551FFD
:104A8000629FF001729FBB27F00DB11D639FAA27A3
:104A9000F00DB11DAA1F649F6627B00DA11D661FF2
:104AA000829F2227B00DA11D621F739FB00DA11D13
:104AB000621F839FA00D611D221F749F3327A00DCD
:104AC000611D231F849F600D211D822F762F6A2F69
:104AD00011249F5750408AF0E1F088234AF0EE0FEE
:104AE000FF1FBB1F661F771F881F91505040A9F7FB
:104AF0009E3F510570F060CFAACF5F3FECF3983E28
:104B0000DCF3869577956795B795F795E7959F5F61
:104B1000C1F7FE2B880F911D9695879597F90895FB
:104B2000DB018F939F930E94FB25BF91AF91A29FC2
:104B3000800D911DA39F900DB29F900D112408959B
:104B400097FB072E16F4009407D077FD09D00E943A
:104B50000E2607FC05D03EF4909581959F4F089551
:104B6000709561957F4F0895A1E21A2EAA1BBB1B79
:104B7000FD010DC0AA1FBB1FEE1FFF1FA217B30729
:104B8000E407F50720F0A21BB30BE40BF50B661F3F
:104B9000771F881F991F1A9469F760957095809503
:104BA00090959B01AC01BD01CF010895052E97FBA7
:104BB0001EF400940E94ED2557FD07D00E94B425F5
:104BC00007FC03D04EF40C94ED255095409530959C
:104BD00021953F4F4F4F5F4F089590958095709569
:104BE00061957F4F8F4F9F4F0895EE0FFF1F0590E8
:104BF000F491E02D09940E942226A59F900DB49F68
:104C0000900DA49F800D911D11240895B7FF0C9461
:104C1000FB250E94FB25821B930B0895AA1BBB1B3F
:104C200051E107C0AA1FBB1FA617B70710F0A61BAC
:104C3000B70B881F991F5A95A9F780959095BC01CD
:104C4000CD010895A29FB001B39FC001A39F700D35
:104C5000811D1124911DB29F700D811D1124911D84
:104C60000895CF93DF938230910510F482E090E0B5
:104C7000E091A007F091A10720E030E0A0E0B0E0D3
:104C8000309739F14081518148175907B8F04817DA
:104C9000590771F482819381109729F013969C93A0
:104CA0008E9312972CC09093A1078093A00727C0E2
:104CB0002115310531F04217530718F0A901DB0126
:104CC00001C0EF019A01BD01DF010280F381E02DF7
:104CD000D7CF21153105F9F0281B390B24303105C8
:104CE00080F48A819B816115710521F0FB0193831A
:104CF000828304C09093A1078093A007FE0132969F
:104D000044C0FE01E20FF31F8193919322503109B9
:104D1000398328833AC020919E0730919F07232B27
:104D200041F4209102013091030130939F072093B9
:104D30009E0720910001309101012115310541F4B8
:104D40002DB73EB74091040150910501241B350B4E
:104D5000E0919E07F0919F07E217F307A0F42E1B46
:104D60003F0B2817390778F0AC014E5F5F4F2417CF
:104D7000350748F04E0F5F1F50939F0740939E07E3
:104D80008193919302C0E0E0F0E0CF01DF91CF91F9
:104D90000895CF93DF93009709F487C0FC01329701
:104DA00013821282C091A007D091A107209781F4AD
:104DB00020813181280F391F80919E0790919F0794
:104DC0008217930779F5F0939F07E0939E076DC0D4
:104DD000DE0120E030E0AE17BF0750F412964D918F
:104DE0005C9113979D014115510509F1DA01F3CF4B
:104DF000B383A28340815181840F951F8A179B073B
:104E000071F48D919C911197840F951F0296918357
:104E1000808312968D919C911397938382832115A1
:104E2000310529F4F093A107E093A0073EC0D90112
:104E30001396FC93EE9312974D915D91A40FB51FBD
:104E4000EA17FB0779F480819181840F951F029600
:104E5000D90111969C938E938281938113969C9392
:104E60008E931297E0E0F0E08A819B81009719F021
:104E7000FE01EC01F9CFCE01029628813981820F23
:104E8000931F20919E0730919F072817390769F4D7
:104E9000309729F41092A1071092A00702C0138244
:104EA0001282D0939F07C0939E07DF91CF91089500
:104EB000A0E0B0E0EEE5F7E20C946428EC01CB0151
:104EC000209719F40E943126B8C0FE01E60FF71FA3
:104ED0009E0122503109E217F30708F4ACC0D90152
:104EE0000D911C91119706171707B8F005301105A1
:104EF00008F49FC0A801445051094617570708F409
:104F000098C002501109061B170B019311936D9362
:104F10007C93CF010E94C9268CC05B01A01AB10A04
:104F20004E01800E911EA091A007B091A107612CA7
:104F3000712C60E070E0109709F449C0A815B9051C
:104F4000C9F5ED90FC901197670142E0C40ED11CA9
:104F5000CA14DB0478F147018A189B08640142E017
:104F6000C40ED11C1296BC9012971396AC91B5E06A
:104F7000CB16D10440F0B282A38391828082D90102
:104F80008D939C9309C00E5F1F4F0E0D1F1DF901DD
:104F900011830083EB2DFA2F6115710531F0DB01D0
:104FA0001396FC93EE93129744C0F093A107E093FD
:104FB000A0073FC06D917C9111976616770608F4A3
:104FC0003B01BD0112960D90BC91A02DB4CF609114
:104FD0009E0770919F0768157905E9F468167906B0
:104FE000D0F440910001509101014115510541F467
:104FF0004DB75EB76091040170910501461B570BD8
:10500000E417F507C0F4F0939F07E0939E07F901BA
:10501000918380830EC00E9431267C01009759F055
:10502000A801BE010E944028CE010E94C926C701E6
:1050300004C0CE0102C080E090E0CDB7DEB7EEE064
:105040000C948028FC0188279927E894219120322C
:10505000E9F3293010F02E30C8F32B3241F02D3215
:1050600039F4689404C00E945028820F911D219148
:1050700020532A30C0F31EF4909581959F4F0895D8
:10508000FB01DC0102C001900D9241505040D8F765
:105090000895FB01DC0101900D920020E1F70895D5
:1050A0007AE0979F902D879F802D910D1124089570
:1050B000F999FECF92BD81BDF89A992780B50895E0
:1050C0002F923F924F925F926F927F928F929F9218
:1050D000AF92BF92CF92DF92EF92FF920F931F9306
:1050E000CF93DF93CDB7DEB7CA1BDB0B0FB6F894B7
:1050F000DEBF0FBECDBF09942A88398848885F84F7
:105100006E847D848C849B84AA84B984C884DF8067
:10511000EE80FD800C811B81AA81B981CE0FD11D4B
:105120000FB6F894DEBF0FBECDBFED01089513E0BA
:10513000C0EAD3E004C0FE010E94F7252296C23ADD
:08514000D107C9F7F894FFCF75
:105148000000A2078000EE02FFFF77027D028C02BA
:1051580000910297029E020AA702AC02BA0214C08A
:1051680002C602CD021ED202D702E30228E902F0EB
:1051780002FA0232FE0205030B033C100315031C5E
:105188000346200325032F035035033A0344035AEB
:1051980049034F035C0364620367036D036E720384
:1051A80078037F03788403890391038296039B0322
:1051B800A3038CA803AE03B80396BC03C103C603BC
:1051C800A0CA03CF03D903AA32002800140400E1BF
:1051D8000000000000000101322042434420424503
:1051E8003A20000053656E74205061636B65743A11
:1051F80020000052656365697665642052617720F6
:105208005061636B65743A2000005061796C6F617E
:105218006420646174613A2000003A0032306D0005
:1052280031376D0031356D0031326D0031306D0030
:105238004552520064426D004F5045520054582068
:10524800202020202020202020200056322E3763C6
:105258002020202020005152582053657269616C2B
:1052680020434E534F4C0051525820494E49542028
:1052780020202020200051525820494E49542047D0
:10528800505320444F0051525820494E49542052FF
:105298004144494F00202020202020202020202089
:1052A800202020200054696D6520736C6F74206E77
:1052B8006F742073657400347531756E00556E69AE
:1052C800746564204E6174696F6E7300554E524365
:1052D8000076653861740043616E61646100524113
:1052E800432F4E415243007736777800556E6974E4
:1052F800656420537461746573004E4344584600D6
:105308006B6836727300486177616969004D415274
:1053180043007A6C3662004E6577205A65616C618D
:105328006E64004E5A41525400766B3672627000B9
:105338004175737472616C696100574941006A6113
:1053480032696779004A6170616E004A41524C00C7
:105358007272396F0052757373696100535252004B
:105368007672326200486F6E67204B6F6E67004836
:1053780041525453003473376200537269204C61B0
:105388006E6B61005253534C007A7336646E00534F
:105398006F75746820416672696361005A533644B8
:1053A8004E00357A3462004B656E79610041525384
:1053B8004B0034783674750049737261656C004926
:1053C800415243006F6832620046696E6C616E64D8
:1053D800005352414C0063733362004D6164656948
:1053E8007261004152524D006C7534616100417226
:1053F80067656E74696E6100524341006F61346283
:105408000050657275005243500079763562005637
:10541800656E657A75656C61005243560047505257
:105428004D43004750474741004E4E4500454E45C5
:10543800004553450053534500535357005753579E
:1054480000574E57004E4E570000000000AA0BE4CC
:105458001C160C890BFC0B2E0C000000007E0E5154
:105468000E260E2E0E410E500E000000006511E4AF
:105478001C05181A0C02120E1004170D1407060F3B
:10548800161D0A080309110B191B1C2E553F4C53F6
:10549800454B3600010000000084118511861187F4
:1054A800110000000088118D11861187110000007D
:1054B800000C1A531A361A461A221A331A00000018
:1054C80000641BE41CE61AFF1AF11A421B000000D4
:0C54D80000D822E41C4B23B9230124005F
:00000001FF
