:100000000C9472010C949A010C949A010C949A012C
:100010000C949A010C949A010C949A010C949A01F4
:100020000C949A010C949A010C941F0E0C94EB0CF6
:100030000C949A010C949A010C949A010C949A01D4
:100040000C949A010C949A010C949A010C949A01C4
:100050000C949A010C949A010C949A010C942E071A
:100060000C949A010C949A010C949A010C949A01A4
:100070000C949A010C949A010C949A010C949A0194
:100080000C949A010C949A010C949A010C949A0184
:100090000C9431050C949A010C949A010C949A01D9
:1000A0000C949A010C949A010C949A01310834082A
:1000B000230827082D0855085508550838083C0816
:1000C000400846084A0855085008526164696F2084
:1000D000546573742056312E306100000000020018
:1000E000090F0000030401000C00000000000000E4
:1000F0000000000000000000000408020110408021
:1001000040102040804080080204018040201002FE
:10011000011080102040400404040404030405027C
:100120000202020403020202020606060606060492
:10013000040202020400000000250028002B002E0B
:1001400000310000000000240027002A002D0030AC
:1001500000080B0002020201000904000001020273
:1001600000000524001001052401010104240206F9
:100170000524060001070581031000400904010061
:10018000020A000000070502024000000705830282
:1001900040000000C18081C1120100020200004045
:1001A000412336800001010200011201000200001B
:1001B0000040412336800001010200014172647554
:1001C000696E6F204C4C430041726475696E6F20FC
:1001D0004C656F6E6172646F0004030904000000D7
:1001E00000000000002A2B28000000000000000092
:1001F000000000000000000000000000002C9EB481
:10020000A0A1A2A434A6A7A5AE362D3738271E1F5D
:1002100020212223242526B333B62EB7B89F848508
:10022000868788898A8B8C8D8E8F909192939495F6
:10023000969798999A9B9C9D2F3130A3AD350405D4
:10024000060708090A0B0C0D0E0F101112131415D6
:10025000161718191A1B1C1DAFB1B0B500090402FE
:1002600000010300000009210101000122650007CF
:1002700005840340000105010902A1010901A10053
:10028000850105091901290315002501950375014B
:10029000810295017505810305010930093109388D
:1002A0001581257F750895038106C0C005010906E3
:1002B000A1018502050719E029E71500250175014F
:1002C000950881029501750881039506750815004A
:1002D00025650507190029658100C000D502930432
:1002E0009709CA0F11241FBECFEFDAE0DEBFCDBFE2
:1002F00012E0A0E0B1E0E8E8F5E202C005900D925E
:10030000A830B107D9F723E0A8E0B2E001C01D9200
:10031000AE36B207E1F712E0C4EED2E004C0229795
:10032000FE010E94FB0FCC3DD107C9F70E94B50921
:100330000C94C2120C94000066E171E084E093E03A
:100340000C945A0A1F93CF93DF938CE092E00E94A3
:100350003703009749F00E94C910EC018CE092E04D
:100360000E943703009749F46CE171E084E093E068
:10037000DF91CF911F910C945A0A0E94C910182F37
:10038000682FCE010E94531165E471E084E093E090
:100390000E942B0A4AE050E0BE0184E093E00E94F4
:1003A000E90A69E471E084E093E00E942B0A40E1ED
:1003B00050E0612F84E093E0DF91CF911F910C9486
:1003C000D20A1F93CF93DF938CE092E00E94370311
:1003D000009719F10E94C910EC010E944B11182FCF
:1003E00068E471E084E093E00E942B0A4AE050E068
:1003F000BE0184E093E00E94E90A69E471E084E0D0
:1004000093E00E942B0A40E150E0612F84E093E0EA
:10041000DF91CF911F910C94D20A6BE471E084E0DC
:1004200093E0DF91CF911F910C945A0A8CE092E0F7
:100430000C94410340E052EC61E070E084E093E012
:100440000E94820984E093E00E9488098823D1F306
:10045000089561E08DE00E94560861E08CE00E9402
:10046000560861E085E00E94560861E08CE00E9439
:100470008F0860E085E00E948F0861E086E00E94BE
:10048000560861E084E00E94560861E089E00E941D
:10049000560860E084E00E948F0860E089E00E94D6
:1004A0008F0861E086E00E948F0888E092E00E9459
:1004B000F40688E092E00E94EE0640E060E088E00A
:1004C00092E00E947B0666E771E088E092E00E947D
:1004D0002B0A47E060E088E092E00E947B0661E83A
:1004E00071E088E092E00E942B0A40E061E088E041
:1004F00092E00E947B066DE871E088E092E00E9445
:100500002B0A0E941A026AEC70E084E093E00E94D9
:10051000480A40E061E088E092E00E947B066EE9D4
:1005200071E088E092E00E942B0A41EE51E06DEA12
:1005300071E08CE092E00E94FC0242EA51E06FEA36
:1005400071E08CE092E00E94FC026CE971E08CE0CA
:1005500092E00E94330340E061E088E092E00E9474
:100560007B0661EB71E088E092E00E942B0A40E09C
:1005700061E088E092E00E947B0661EC71E088E037
:1005800092E00E942B0A60E086E00E948F0860E003
:1005900089E00E948F0861E084E00E948F086AEC85
:1005A00071E084E093E00C945A0A0F938CE092E09F
:1005B0000E94E50200E028E230E040E162E088E0ED
:1005C00092E00E9465060F910895CF93DF93EC01AE
:1005D000198218821A821C821B828AE08F831BA6D2
:1005E0001AA66FEB71E0CE0105960E94F8101886EE
:1005F00019A6DF91CF910895EF92FF920F931F9369
:10060000CF93DF93EC017B018A018A8190E0019610
:100610002BE0289FB001299F700D112488819981BA
:100620000E94FF0F998388832A8148E050E0B70138
:100630003BE0239F800D911D11240E940D118A81A2
:10064000E881F9819BE0899FE00DF11D112412875B
:1006500001878A818F5F8A83DF91CF911F910F91EC
:10066000FF90EF900895FC01748363830895AC01BB
:10067000465D5F4FBC016B5F7F4F80E090E00C9464
:100680001C112F923F924F925F926F927F928F92A6
:100690009F92AF92BF92CF92DF92EF92FF920F9311
:1006A0001F93CF93DF93EC011C012AE2220E311C31
:1006B0002C0185E0480E511C5E01A8E0AA0EB11C79
:1006C00084E093E00E94EF08181619060CF055C05C
:1006D00084E093E00E94FF08182F8F81181334C024
:1006E000A101B201C5010E941C117C01009749F1D2
:1006F0008A80912C612C712CC12CD12CC814D90466
:10070000D4F408811981060D171D48E050E0B801A6
:10071000C7010E94FF10BBE06B0E711C892B39F4DE
:10072000D8011996ED91FC911A9709950AC0BFEF6F
:10073000CB1ADB0AE3CFEB81FC81309711F0C701C4
:100740000995188619A6BCCF812F992787FD90950A
:100750000E94E910892B09F4B3CF89A5803208F0F3
:10076000AFCF91E0980F99A7FE01E80FF11D108718
:10077000FE01E90FF11D1086A3CFDF91CF911F91EC
:100780000F91FF90EF90DF90CF90BF90AF909F9030
:100790008F907F906F905F904F903F902F90089533
:1007A0008091680290E020916902821B910908956E
:1007B0002091690280916802281750F4E22FF0E03E
:1007C000E659FD4F808190E02F5F209369020895E4
:1007D0008FEF9FEF0895E091690280916802E8171A
:1007E00030F4F0E0E659FD4F808190E008958FEFFE
:1007F0009FEF08950895CF92DF92EF92FF920F93AB
:100800001F93CF93DF937C01CB018A012091440297
:10081000222389F0EB016B01C40ED51ECC15DD053A
:1008200069F06991D701ED91FC910190F081E02D83
:10083000C7010995F3CF642F0E940805C801DF9115
:10084000CF911F910F91FF90EF90DF90CF9008957F
:10085000CF93DF931F92CDB7DEB769832091440217
:100860002223D1F020914502203240F021E030E0F7
:10087000FC013383228380E090E015C08091460222
:10088000E82FF0E0E95BFD4F998190838F5F8093C3
:1008900046028093450205C061E0CE0101960E94A8
:1008A000080581E090E00F90DF91CF910895FC0161
:1008B0001382128248EE53E060E070E04483558377
:1008C0006683778385ED91E091838083089510920C
:1008D00069021092680210924602109245020C942E
:1008E000970481E08093440260936702109246026D
:1008F0001092450208950C9471040F93062F21E085
:100900004091450267E472E0809167020E94B5045D
:100910001092460210924502109244020F910895DF
:1009200061E00C947D0488E392E00C9457041092EB
:10093000F70281E08093F5021092F40261E082E018
:100940000E948F0861E083E00E948F08E9EBF0E0ED
:1009500080818E7F808380818D7F808388E48093F7
:10096000B80085E48093BC0008950F93413208F0ED
:1009700046C09091F7029111FCCF92E09093F7025C
:100980000093F5029FEF90938A021092CF0240935A
:10099000CE02FB0160ED72E0DB019A2F961B9417EB
:1009A00018F491919D93F9CF1092F6029091F6026E
:1009B000880F892B8093F6028091F402813041F4F4
:1009C0001092F4028091F6028093BB0085EC01C086
:1009D00085EE8093BC00222321F08091F7028230C3
:1009E000E1F380918A028F3F61F080918A02803228
:1009F00051F080918A02803341F483E007C081E0A6
:100A000005C080E003C082E001C084E00F9108953A
:100A1000613298F42091F702243089F46093AC029B
:100A2000FC018EEA92E0DC012A2F281B261718F41D
:100A300021912D93F9CF80E0089581E0089582E01F
:100A4000089585ED8093BC008091BC0084FDFCCFAF
:100A50001092F702089585EC8093BC001092F70283
:100A600008951F920F920FB60F9211242F933F9368
:100A70004F935F936F937F938F939F93AF93BF93A6
:100A8000EF93FF938091B900887F803609F49CC072
:100A900068F5883209F45BC090F4803109F454C0E1
:100AA00038F4882309F4F5C0883009F44DC0F5C046
:100AB000883109F44CC0803209F45DC0EEC0803446
:100AC00009F468C048F4803309F455C0883309F04C
:100AD000E4C080938A02A8C0803509F44FC08835ED
:100AE00009F45DC0883409F0D8C0D5C0883909F44C
:100AF000C6C0A8F4883709F467C038F4883609F40A
:100B000063C0803709F460C0C8C0883809F4B7C032
:100B1000803909F45FC0803809F0BFC05BC0803BFA
:100B200009F485C038F4803A09F466C0883A09F4BB
:100B30007EC0B3C0803C09F4A6C0883C09F4A3C0C1
:100B4000883B09F489C0A9C08091F60210C0909139
:100B5000CF028091CE02981770F5E091CF0281E02C
:100B60008E0F8093CF02F0E0E053FD4F80818093A1
:100B7000BB0085EC85C080938A028DC0E091CF02D6
:100B800081E08E0F8093CF028091BB00F0E0E053B4
:100B9000FD4F80839091CF028091CE026DC0E09195
:100BA000CF0281E08E0F8093CF028091BB00F0E0F6
:100BB000E053FD4F80838091F50281116CC081E08C
:100BC0008093F40284EA60C083E08093F70210927D
:100BD0008B02CFCF80918B02803208F050C0E09121
:100BE0008B0281E08E0F80938B028091BB00F0E03E
:100BF000E457FD4F8083BDCF80918B02803230F46B
:100C0000E0918B02F0E0E457FD4F10820E94210535
:100C100060918B0270E0E091F002F091F1028CE8BB
:100C200092E0099510928B020E942B0536C084E059
:100C30008093F7021092AD021092AC02E091F202A2
:100C4000F091F30209958091AC02811105C081E019
:100C50008093AC021092AE02E091AD0281E08E0F63
:100C60008093AD02F0E0E255FD4F80818093BB00A0
:100C70009091AD028091AC02981708F47ACF85E884
:100C80008093BC000AC085EC8093BC001092F702F0
:100C900004C010928A020E942105FF91EF91BF913A
:100CA000AF919F918F917F916F915F914F913F9104
:100CB0002F910F900FBE0F901F901895DC01ED91B2
:100CC000FC910190F081E02D09940F93DC011396C3
:100CD0001C921E921297E5EEF1E0ED93FC93609367
:100CE0000B0140930A0130930901209308010093FE
:100CF000FA020F9108951F93CF93DF931F92CDB700
:100D0000DEB7613031F0623031F0633031F010E045
:100D100005C010E403C014E101C014E560910801AE
:100D20007091090188E392E049830E947B046EEF91
:100D300070E088E392E00E945E0665E470E088E37C
:100D400092E00E945E064981642F70E0610F711D80
:100D500088E392E00E945E0688E392E00E9490049D
:100D60006091060170910701660F771F882777FD54
:100D70008095982F0F90DF91CF911F910C949B0736
:100D800040E060E00C947B06CF93C62F6091080191
:100D90007091090188E392E00E947B046EEF70E09D
:100DA00088E392E00E945E066C2F88E392E00E9446
:100DB000280488E392E00E949004609106017091FB
:100DC0000701882777FD8095982FCF910C949B077A
:100DD00061E50C94C40661E40C94C40668E40C94C8
:100DE000C4066CE40C94C406CF93DF93EC0188E353
:100DF00092E00E94670488E98093B800CE010E94C7
:100E0000EB06CE010E94E806CE010E94F106CE015B
:100E10000E94EE06CE01DF91CF910C94C006CF93D5
:100E2000C62F609108017091090188E392E00E9449
:100E30007B046C2F88E392E00E94280488E392E010
:100E40000E9490046091F8027091F902882777FD62
:100E50008095982F0E949B07CF9108951F920F9223
:100E60000FB60F9211242F933F938F939F93AF93BD
:100E7000BF938091FC029091FD02A091FE02B0917F
:100E8000FF023091FB0223E0230F2D3720F401965F
:100E9000A11DB11D05C026E8230F0296A11DB11D9D
:100EA0002093FB028093FC029093FD02A093FE022C
:100EB000B093FF028091000390910103A09102037F
:100EC000B09103030196A11DB11D8093000390937F
:100ED0000103A0930203B0930303BF91AF919F91CD
:100EE0008F913F912F910F900FBE0F901F901895EB
:100EF0003FB7F8948091000390910103A091020301
:100F0000B091030326B5A89B05C02F3F19F00196A9
:100F1000A11DB11D3FBF6627782F892F9A2F620F21
:100F2000711D811D911D42E0660F771F881F991F5B
:100F30004A95D1F70895CF92DF92EF92FF92CF9327
:100F4000DF936B017C010E947807EB01C114D1048F
:100F5000E104F10489F00E94930E0E9478076C1B53
:100F60007D0B683E734090F381E0C81AD108E10818
:100F7000F108C851DC4FEACFDF91CF91FF90EF909D
:100F8000DF90CF900895789484B5826084BD84B555
:100F9000816084BD85B5826085BD85B5816085BD74
:100FA000EEE6F0E0808181608083E1E8F0E010828D
:100FB000808182608083808181608083E0E8F0E0CE
:100FC000808181608083E1E9F0E0808182608083BC
:100FD000808181608083E0E9F0E0808181608083AE
:100FE000E1ECF0E080818460808380818260808396
:100FF000808181608083E3ECF0E080818160808388
:10100000E0ECF0E0808182608083E2ECF0E08081BF
:1010100081608083EAE7F0E0808184608083808162
:10102000826080838081816080838081806880830A
:10103000089590E0FC013197EF30F105B0F5EA5AE0
:10104000FF4F0C94F90F809180008F7703C080913F
:1010500080008F7D80938000089580918000877F3D
:10106000F9CF84B58F7702C084B58F7D84BD089594
:10107000809190008F7707C0809190008F7D03C092
:1010800080919000877F8093900008958091C000A8
:101090008F7703C08091C0008F7D8093C00008953A
:1010A0008091C200877F8093C2000895CF93DF9321
:1010B00090E0FC01E750FF4F2491FC01E95EFE4FF8
:1010C0008491882349F190E0880F991FFC01ED5B22
:1010D000FE4FA591B4918B5C9E4FFC01C591D491BC
:1010E0009FB7611108C0F8948C91209582238C934E
:1010F000888182230AC0623051F4F8948C91322F97
:10110000309583238C938881822B888304C0F89444
:101110008C91822B8C939FBFDF91CF9108950F9379
:101120001F93CF93DF931F92CDB7DEB7282F30E008
:10113000F901E552FF4F8491F901E750FF4F1491F7
:10114000F901E95EFE4F04910023C9F0882321F0E4
:1011500069830E9419086981E02FF0E0EE0FFF1FFC
:10116000EB5CFE4FA591B4919FB7F8948C916111FF
:1011700003C01095812301C0812B8C939FBF0F90DA
:10118000DF91CF911F910F910895CF93DF931F921D
:10119000CDB7DEB76983DC01ED91FC910280F3816C
:1011A000E02D41E050E0BE016F5F7F4F09950F9049
:1011B000DF91CF910895CF93DF93EC018C859D85CE
:1011C00097FF05C082E00E94C00B9D878C878C85AD
:1011D0009D85DF91CF91089583E00C94150EFC015D
:1011E0008485958597FD06C082E00E94680B90E09B
:1011F0000196089582E00E94680B90E00895FC013A
:101200008485958597FD05C02FEF3FEF35872487AF
:10121000089582E00C94C00BCF93DF93EC01809192
:101220001301882331F083E00E94F10B1816190690
:1012300034F081E090E09B838A8380E090E0DF914E
:10124000CF910895FC0120812E5F208342E450E07D
:1012500061E571E080E80C948C0CFC018181908147
:10126000913A59F4813209F03CC047E050E06CE01B
:1012700071E080E00E948C0C43C0913291F5803285
:1012800039F467E070E08CE091E00E94BD0C06C08C
:10129000823209F035C082818093130180910C0164
:1012A00090910D01A0910E01B0910F01803B9440EF
:1012B000A105B105C1F48091130180FD14C087E739
:1012C00097E790930108809300082BE088E190E075
:1012D0000FB6F894A895809360000FBE209360002D
:1012E0000FC080E0089588E10FB6F8948093600005
:1012F000109260000FBEA89510920108109200088D
:1013000081E008952FEF3FEFFC0135872487089592
:10131000CF93C09113016AE070E080E090E00E94FA
:101320009B0781E0C11101C080E0CF910895109228
:1013300007031092060388EE93E0A0E0B0E08093EC
:10134000080390930903A0930A03B0930B038DEE57
:1013500091E090930503809304038FEF9FEF9093A8
:10136000110380931003089508950E94C3070E94FB
:10137000B40984E593E00E94750E0E942902C0E042
:10138000D0E00E9416022097E1F30E940000F9CFFE
:10139000CF92DF92EF92FF920F931F93CF93DF9341
:1013A0006C017A01EB01E60EF71E00E010E0CE15AD
:1013B000DF0561F06991D601ED91FC910190F0811A
:1013C000E02DC6010995080F191FF1CFC801DF9163
:1013D000CF911F910F91FF90EF90DF90CF900895E4
:1013E0006115710581F0DB010D900020E9F7AD0179
:1013F00041505109461B570BDC01ED91FC910280D5
:10140000F381E02D099480E090E00895EF92FF923F
:101410000F931F93CF93DF938C01FB01C0E0D0E0CB
:1014200064917F018FEFE81AF80A662361F0D80112
:10143000ED91FC910190F081E02DC8010995C80F54
:10144000D91FF701EDCFCE01DF91CF911F910F9101
:10145000FF90EF9008950C94F009DC01ED91FC9160
:101460000190F081E02D09940F931F93CF93DF93A8
:10147000EC016DE00E942D0A8C016AE0CE010E9411
:101480002D0A800F911FDF91CF911F910F91089529
:101490000F931F93CF93DF93EC010E94060A8C01F8
:1014A000CE010E94340A800F911FDF91CF911F91CE
:1014B0000F9108950F931F93CF93DF93EC010E9438
:1014C000F0098C01CE010E94340A800F911FDF9138
:1014D000CF911F910F9108958F929F92AF92BF92DB
:1014E000CF92DF92EF92FF920F931F93CF93DF93F0
:1014F000CDB7DEB7A1970FB6F894DEBF0FBECDBF54
:101500007C01C42EE52FCB01D22E19A221E02D158E
:1015100010F02AE0D22E8E010F5D1F4F8D2C912CE2
:10152000A12CB12C6C2D7E2FA50194010E94D70F08
:101530008C2DD29E80191124015011098A3014F487
:10154000805D01C0895CF80180832115310541056A
:10155000510521F0C22EE32FCA01E4CFB801C70123
:101560000E94F009A1960FB6F894DEBF0FBECDBF62
:10157000DF91CF911F910F91FF90EF90DF90CF906F
:10158000BF90AF909F908F9008952115310541F441
:10159000DC01ED91FC910190F081E02D642F099424
:1015A0000C946C0A0F931F93CF93DF93EC019A0175
:1015B000462F50E060E070E00E94C50A8C01CE0129
:1015C0000E94340A800F911FDF91CF911F910F91DC
:1015D00008959A01AB0160E070E00C94C50A409157
:1015E00058035091590320915603309157034217E5
:1015F0005307B4F49091E8009570E1F39091E800FE
:1016000092FD19C08093F100809158039091590385
:1016100001968F739927892B19F48EEF8093E80038
:1016200080915803909159030196909359038093A8
:10163000580381E0089580E00895CF92DF92FF92F1
:101640000F931F93CF93DF931F92CDB7DEB7082F71
:10165000162F862F880F8E5F99830E94EF0A83E0F2
:101660000E94EF0AF02EC02E9981D92E8C2D8F1951
:10167000811778F4F60184910E94EF0A082F80E028
:101680000E94EF0A8023FFEFCF1ADF0A8111EECF0D
:1016900001C081E00F90DF91CF911F910F91FF90DA
:1016A000DF90CF900895615030F02091F100FC015F
:1016B00020830196F8CF289884E680935B030895F1
:1016C0002FB7FC012083F89467706093E9000895B8
:1016D000CF93DF931F92CDB7DEB7682FCE0101966F
:1016E0000E94600B8091F20099819FBF0F90DF9163
:1016F000CF910895FF920F931F93CF93DF9300D064
:10170000CDB7DEB7F62E8A0190915A03992311F0D6
:1017100057FF03C08FEF9FEF2BC0682FCE010196BC
:101720007A830E94600B8091F20090E0A8017A8198
:10173000801791070CF4AC01EF2DF72FF40E84E61F
:10174000FE1639F0289880935B039091F1009193F5
:10175000F7CF4115510521F08091F200882321F047
:1017600089818FBFCA0104C08BE68093E800F8CF5F
:101770000F900F90DF91CF911F910F91FF900895DF
:10178000CF93DF931F92CDB7DEB741E050E0BE01AB
:101790006F5F7F4F0E947A0B019719F4898190E067
:1017A00002C08FEF9FEF0F90DF91CF910895CF93FD
:1017B000DF931F92CDB7DEB7682FCE0101960E944E
:1017C000600B9091E800892F807295FF04C0909182
:1017D000F20080E4891B99819FBF0F90DF91CF9128
:1017E00008956F927F928F929F92AF92BF92CF9205
:1017F000DF92EF92FF920F931F93CF93DF931F928D
:10180000CDB7DEB7782E7B01C42EB52E80915A035A
:10181000882369F0042F152F8AEFD82E872D807228
:10182000982E9AE3A92E872D8074882E11C08FEFF1
:101830009FEF57C0872D0E94D70B682E81110CC0D7
:10184000DA94A9F361E070E080E090E00E949B07E9
:101850000115110579F73BC0282F30E00217130757
:101860000CF4602E672DCE0101960E94600B8091D2
:10187000E80085FF29C0262D30E0021B130B9920BC
:1018800039F06A948FEF6816B1F01092F100F9CF39
:10189000F701862D77FE07C0815058F09491909300
:1018A000F1003196F9CF815020F091919093F100A1
:1018B000FACFE20EF31E8091E80085FF0FC00115FC
:1018C000110511F481100AC089818FBFC1CF5D98C5
:1018D00084E680935C038C2D9B2D03C0A092E800CE
:1018E000F3CF0F90DF91CF911F910F91FF90EF9069
:1018F000DF90CF90BF90AF909F908F907F906F9030
:1019000008951092E9001092590310925803909391
:101910005703809356030895CF92DF92FF920F935F
:101920001F93CF93DF9300D0CDB7DEB7F82E8A0197
:101930006B0101151105B1F0F601F7FE02C08491AB
:1019400001C0808149835A830E94EF0A0150110926
:10195000FFEFCF1ADF0A49815A818111EACF8FEF59
:101960009FEF01C0CA010F900F90DF91CF911F919F
:101970000F91FF90DF90CF9008951F93CF93DF9347
:101980001F92CDB7DEB7162F2091E80022FFFCCFC3
:10199000612F79830E94530B8BEF8093E800812F96
:1019A0007981972F0F90DF91CF911F910895CF9359
:1019B000DF931F92CDB7DEB71982CE0101960E9448
:1019C0002209CE0101960E94B20E898190E00F900B
:1019D000DF91CF9108951F920F920FB60F921124AD
:1019E000EF92FF920F931F932F933F934F935F9329
:1019F0006F937F938F939F93AF93BF93EF93FF93D7
:101A0000CF93DF93CDB7DEB76297DEBFCDBF109225
:101A1000E9008091E80083FFEBC068E0CE010A9600
:101A20000E94530B82EF8093E8009A8597FF05C0D0
:101A30008091E80080FFFCCF03C08EEF8093E80028
:101A4000892F807609F0B9C08B85811105C010926D
:101A5000F1001092F100C5C0282F2D7F213009F42C
:101A6000C0C0853049F48091E80080FFFCCF8C85B0
:101A700080688093E300B5C0863009F076C02D857C
:101A8000E888F988223071F580E090E02A8B0E9486
:101A9000810C0E94D70C99E08E010F5F1F4FF80157
:101AA000392F11923A95E9F799832A892A8391E08F
:101AB0009E8390E898879AEF9987209158033091F8
:101AC0005903275F3F4F3C832B838D83C7010E94BF
:101AD000810C49E050E0B80180E00E948C0C0E942B
:101AE000D70C7FC0C7012A8B0E94810C2A89223221
:101AF00041F482E290E00E94BD0E892B09F071C092
:101B000074C0213069F488899989089711F4209369
:101B1000550380915503811118C06AEA71E01AC01B
:101B2000233009F062C08C85882391F0823021F443
:101B300060E188EC91E006C0813009F056C06BE0AE
:101B40008CEB91E00E941D0B4AC068E971E002C075
:101B500069ED71E06115710509F447C0FB0144911D
:101B600050E080E80E948C0C3CC0873009F43DC0F6
:101B7000883021F481E08093F10033C0893089F509
:101B8000937099F5E4E9F1E081E021E096E3809338
:101B9000E9002093EB0034913093EC009093ED003A
:101BA0008F5F3196853099F78EE78093EA00109227
:101BB000EA008C8580935A0314C0888999890E9411
:101BC000810C8E85811105C0CE010A960E942D09D7
:101BD00006C0823051F4CE010A960E94E50E882399
:101BE00021F08EEF8093E80003C081E28093EB0048
:101BF00062960FB6F894DEBF0FBECDBFDF91CF91D6
:101C0000FF91EF91BF91AF919F918F917F916F91D4
:101C10005F914F913F912F911F910F91FF90EF9006
:101C20000F900FBE0F901F9018958093E900809140
:101C3000F200882319F08AE38093E80008951F9248
:101C40000F920FB60F9211242F933F934F935F93F0
:101C50006F937F938F939F93AF93BF93EF93FF9374
:101C60008091E1001092E10083FF0FC01092E90023
:101C700091E09093EB001092EC0092E39093ED00D2
:101C800010925A0398E09093F00082FF1DC083E009
:101C90000E94150E80915C03882339F080915C03CB
:101CA000815080935C03882369F080915B038823D3
:101CB00059F080915B03815080935B03811104C0D4
:101CC000289A02C05D9AF1CFFF91EF91BF91AF9139
:101CD0009F918F917F916F915F914F913F912F9144
:101CE0000F900FBE0F901F90189510925A0381E02D
:101CF0008093D70080EA8093D80082E189BD09B43F
:101D000000FEFDCF61E070E080E090E00E949B0764
:101D100080E98093D8008CE08093E2001092E0008C
:101D2000559A209A08950895FF920F931F93CF9389
:101D3000DF93EC01F62EE881F9810480F581E02D36
:101D400009958C01E881F9810680F781E02D6F2DDE
:101D5000CE010995C8019927DF91CF911F910F916D
:101D6000FF900895FC0120812F5F208349E150E01E
:101D70006DE572E080E80C948C0C45E650E066E777
:101D800072E080E80C948C0CEF92FF920F931F93FB
:101D9000CF93DF931F92CDB7DEB789838B017A0192
:101DA00041E050E0BE016F5F7F4F84E00E94F10B85
:101DB000A701B80184E40E94F10B0F90DF91CF914D
:101DC0001F910F91FF90EF900895FC019181808108
:101DD000813A31F481E0913091F0933089F411C06F
:101DE000813271F49B3021F482818093150105C00A
:101DF0009A3031F482818093140181E0089508952E
:101E000080E0089548E050E082E00C94C40ECF9347
:101E1000DF93DC01683818F0E8E7E60F25C0E62F0D
:101E2000F0E067FF11C0E058F10981E090E001C0E7
:101E3000880FEA95EAF714969C911497982B1496BC
:101E40009C931497E0E010C0E352FE4FE491EE2320
:101E500009F440C0E7FF08C014968C911497826083
:101E600014968C931497EF7716968C9116978E177D
:101E700041F117968C9117978E1719F118968C913E
:101E800018978E17F1F019968C9119978E17C9F043
:101E90001A968C911A978E17A1F01B968C911B970E
:101EA0008E1779F080E090E0ED01C80FD91F2E81E8
:101EB000211102C0EE8305C0019686309105A1F77D
:101EC00009C0BD016C5F7F4FCD010E94020F81E010
:101ED00090E008C081E090E013969C938E93129757
:101EE00080E090E0DF91CF910895683818F0E8E73E
:101EF000E60F25C0E62FF0E067FF12C0E058F109B9
:101F000021E030E001C0220FEA95EAF72095DC01DC
:101F100014963C911497322314963C93E0E00FC042
:101F2000E352FE4FE491EE2329F1E7FF08C0DC0104
:101F300014962C9114972D7F14962C93EF7720E014
:101F400030E0EE2351F0DC01A20FB31F16964C9146
:101F500016974E1302C016961C922F5F3F4F2630E5
:101F6000310579F7BC016C5F7F4F0E94020F81E061
:101F700090E0089580E090E00895FC0116821782B9
:101F800010861186128613861482BC016C5F7F4F07
:101F90000C94020F109269031092600310925F0379
:101FA0008DEF91E090935E0380935D030895A1E22D
:101FB0001A2EAA1BBB1BFD010DC0AA1FBB1FEE1FC3
:101FC000FF1FA217B307E407F50720F0A21BB30B0E
:101FD000E40BF50B661F771F881F991F1A9469F78A
:101FE00060957095809590959B01AC01BD01CF01E6
:101FF0000895EE0FFF1F0590F491E02D0994A0E0E5
:10200000B0E0E5E0F0E10C948F12EC01CB012097F9
:1020100019F40E946111B8C0FE01E60FF71F9E017E
:1020200022503109E217F30708F4ACC0D9010D9131
:102030001C91119706171707B8F00530110508F421
:102040009FC0A801445051094617570708F498C08B
:1020500002501109061B170B019311936D937C938A
:10206000CF010E94F9118CC05B01A01AB10A4E0188
:10207000800E911EA0916C03B0916D03612C712CA8
:1020800060E070E0109709F449C0A815B905C9F5DA
:10209000ED90FC901197670142E0C40ED11CCA1468
:1020A000DB0478F147018A189B08640142E0C40E02
:1020B000D11C1296BC9012971396AC91B5E0CB163A
:1020C000D10440F0B282A38391828082D9018D93A2
:1020D0009C9309C00E5F1F4F0E0D1F1DF901118348
:1020E0000083EB2DFA2F6115710531F0DB0113969A
:1020F000FC93EE93129744C0F0936D03E0936C034E
:102100003FC06D917C9111976616770608F43B01EC
:10211000BD0112960D90BC91A02DB4CF60916A03C1
:1021200070916B0368157905E9F468167906D0F4A7
:1021300040910001509101014115510541F44DB705
:102140005EB76091040170910501461B570BE417BF
:10215000F507C0F4F0936B03E0936A03F9019183F0
:1021600080830EC00E9461117C01009759F0A80184
:10217000BE010E94EF10CE010E94F911C70104C0F8
:10218000CE0102C080E090E0CDB7DEB7EEE00C9467
:10219000AB12FC0188279927E89421912032E9F3BA
:1021A000293010F02E30C8F32B3241F02D3239F4A3
:1021B000689404C00E944311820F911D2191205305
:1021C0002A30C0F31EF4909581959F4F0895803278
:1021D00009F091119DC180528F55E0F70895FB01E0
:1021E000DC0102C001900D9241505040D8F7089593
:1021F000FB01DC0101900D920020E1F70895FB0145
:10220000DC014150504030F08D910190801919F45B
:102210000020B9F7881B990B0895FB01DC014150A0
:10222000504048F001900D920020C9F701C01D9266
:1022300041505040E0F70895FA01A191B081009714
:1022400019F41097E1F0CD01DC01CD010D900020D3
:1022500011F4C00113C0FB012191222319F02015B4
:10226000D9F7F3CFFB012191201519F41E92119695
:1022700006C02223C1F70D900020A1F7D001FA017A
:10228000A193B08308957AE0979F902D879F802D2A
:10229000910D11240895F999FECF92BD81BDF89A50
:1022A000992780B50895262FF999FECF1FBA92BDC0
:1022B00081BD20BD0FB6F894FA9AF99A0FBE019627
:1022C0000895CF93DF938230910510F482E090E07F
:1022D000E0916C03F0916D0320E030E0A0E0B0E00D
:1022E000309739F14081518148175907B8F04817A4
:1022F000590771F482819381109729F013969C936A
:102300008E9312972CC090936D0380936C0327C01B
:102310002115310531F04217530718F0A901DB01EF
:1023200001C0EF019A01BD01DF010280F381E02DC0
:10233000D7CF21153105F9F0281B390B2430310591
:1023400080F48A819B816115710521F0FB019383E3
:10235000828304C090936D0380936C03FE013296D8
:1023600044C0FE01E20FF31F819391932250310983
:10237000398328833AC020916A0330916B03232B61
:1023800041F4209102013091030130936B032093BB
:102390006A0320910001309101012115310541F4BA
:1023A0002DB73EB74091040150910501241B350B18
:1023B000E0916A03F0916B03E217F307A0F42E1B80
:1023C0003F0B2817390778F0AC014E5F5F4F241799
:1023D000350748F04E0F5F1F50936B0340936A031D
:1023E0008193919302C0E0E0F0E0CF01DF91CF91C3
:1023F0000895CF93DF93009709F487C0FC013297CB
:1024000013821282C0916C03D0916D03209781F4E6
:1024100020813181280F391F80916A0390916B03CD
:102420008217930779F5F0936B03E0936A036DC00D
:10243000DE0120E030E0AE17BF0750F412964D9158
:102440005C9113979D014115510509F1DA01F3CF14
:10245000B383A28340815181840F951F8A179B0704
:1024600071F48D919C911197840F951F0296918321
:10247000808312968D919C9113979383828321156B
:10248000310529F4F0936D03E0936C033EC0D9014C
:102490001396FC93EE9312974D915D91A40FB51F87
:1024A000EA17FB0779F480819181840F951F0296CA
:1024B000D90111969C938E938281938113969C935C
:1024C0008E931297E0E0F0E08A819B81009719F0EB
:1024D000FE01EC01F9CFCE01029628813981820FED
:1024E000931F20916A0330916B032817390769F411
:1024F000309729F410926D0310926C0302C013827E
:102500001282D0936B03C0936A03DF91CF91089539
:102510009927882708952F923F924F925F926F924A
:102520007F928F929F92AF92BF92CF92DF92EF9263
:10253000FF920F931F93CF93DF93CDB7DEB7CA1BE4
:10254000DB0B0FB6F894DEBF0FBECDBF09942A880F
:10255000398848885F846E847D848C849B84AA84B7
:10256000B984C884DF80EE80FD800C811B81AA8144
:10257000B981CE0FD11D0FB6F894DEBF0FBECDBF0F
:08258000ED010895F894FFCF6E
:1025880000006E03800032002800140400E10000FF
:10259800000000000101576861743F006E6F7420ED
:1025A800656E6F75676820696E666F3A2057203CC4
:1025B8006F666673657420616464723E203C766160
:1025C8006C75653E00573A00523A004E6F207265AE
:1025D8006164206F666673657420616464726573F4
:1025E8007320737570706C6965642C20747279201F
:1025F800616761696E0056312E30612020202020ED
:1026080000454550524F4D205574696C0051525841
:102618002053657269616C20434E534F4C005152F0
:102628005820494E4954202020202020005200578D
:1026380000202020202020202020202020202020B2
:1026480000434D44204C6F6F7000526561647921DE
:1026580000000000002804FB03D003D803EB03FAB2
:1026680003000000000F07C80900000000C5080C9F
:1026780009EF08FF08DB08EC0800000000940EC80A
:0826880009070F750FBD0F00DB
:00000001FF
